S01F00004D494D585254313035325F626C696E6B795F696E5F52414D2E733139CF
S1132000000002200523000081230000414D000050
S113201000000000000000000000000000000000BC
S11320200000000000000000000000008523000004
S11320300000000000000000872300001D250000B0
S11320408148000089480000914800009948000038
S1132050A1480000A9480000B1480000B9480000A8
S1132060C1480000C9480000D1480000D948000018
S1132070E1480000E9480000F1480000F948000088
S113208001490000094900001149000019490000F4
S11320902149000029490000314900003949000064
S11320A041490000494900005149000059490000D4
S11320B06149000069490000714900007949000044
S11320C081490000894900009149000099490000B4
S11320D0A1490000A9490000B1490000B949000024
S11320E0C1490000C9490000D1490000D949000094
S11320F0E1490000E9490000F1490000F949000004
S1132100014A0000094A0000114A0000194A00006F
S1132110214A0000294A0000314A0000394A0000DF
S1132120414A0000494A0000514A0000594A00004F
S1132130614A0000694A0000714A0000794A0000BF
S1132140814A0000894A0000914A0000994A00002F
S1132150A14A0000A94A0000B14A0000B94A00009F
S1132160C14A0000C94A0000D14A0000D94A00000F
S1132170E14A0000E94A0000F14A0000F94A00007F
S1132180014B0000094B0000114B0000194B0000EB
S1132190214B0000294B0000314B0000394B00005B
S11321A0414B0000494B0000514B0000594B0000CB
S11321B0614B0000694B0000714B0000794B00003B
S11321C0814B0000894B0000914B0000994B0000AB
S11321D0A14B0000A94B0000B14B0000B94B00001B
S11321E0C14B0000C94B0000D14B0000D94B00008B
S11321F0E14B0000E94B0000F14B0000F94B0000FB
S1132200014C0000094C0000114C0000194C000066
S1132210214C0000294C0000314C0000394C0000D6
S1132220414C0000494C0000514C0000594C000046
S1132230614C0000694C0000714C0000794C0000B6
S1132240814C0000894C0000914C0000994C000026
S1132250A14C0000A94C0000B14C0000B94C000096
S1132260C14C0000C94C0000D14C0000D94C000006
S1132270E14C0000E94C0000F14C0000F94C000076
S1132280014D0000094D0000114D0000194D0000E2
S1132290214D0000294D0000314D0000394D000052
S11322A0746900007469000004000000746900008F
S11322B000000020000000007469000000002020DD
S11322C000000000746900000000008000000000AD
S11322D0746900000000000000000000786900003C
S11322E00000000000000020180100000000202071
S11322F0000000000000008000000000000000005A
S11323000000000010B572B601F0A4F80D4B07E010
S113231003F10C049A685968186800F019F8234608
S1132320094A9342F4D306E01C46596854F8080B52
S113233000F01DF82346054A9342F5D362B602F035
S11323407FFEFEE7A0220000DC2200000423000040
S1132350002393420AD210B404680C60043304309E
S113236004319342F8D35DF8044B7047704700235F
S113237003E000220260043304308B42F9D3704737
S1132380FEE7FEE7FEE7FEE7FEE7FEE780B58EB078
S113239000AFB9607B600346FB731346BB7343F223
S11323A021537B637B687B61BB68BB6100233B7704
S11323B000237B77FB7BBB770123FB77012387F823
S11323C02030BB7B87F82C30BB7B012B1CD107F161
S11323D014033B631C220021234802F039FE224BE4
S11323E0214A1A61204B1B69204A13601E4B1B694A
S11323F007F124021146184601F026FA03467B63CE
S11324007B6B002B0FD00BE0BB7B022B01D17B6BD2
S113241026E0BB7B032B01D17B6B21E07B6B1FE0B0
S1132420134802F013F8104B1B691249184601F0C7
S113243045FA03467B637B6B002B02D00E4802F007
S113244005F8094B1B690D49184601F063FA034668
S11324507B637B6B002B02D0094801F0F7FF00235C
S113246018463837BD4680BD000000201C000020FF
S11324707856000014000020C85600001800002000
S11324801857000080B483B000AF03463960FB8066
S1132490B7F90630002B0ADB3B68DAB20C49B7F90E
S11324A006301201D2B20B4483F800230AE03B68E1
S11324B0DAB20849FB8803F00F03043B1201D2B2DD
S11324C00B441A7600BF0C37BD465DF8047B704799
S11324D000E100E000ED00E080B582B000AF78607C
S11324E07B68013BB3F1807F01D301230FE00A4AEB
S11324F07B68013B53600F214FF0FF30FFF7C2FFB1
S1132500054B00229A60044B07221A6000231846E8
S11325100837BD4680BD00BF10E000E080B400AFC6
S1132520064B1B68002B04D0044B1B68013B034A79
S1132530136000BFBD465DF8047B70472000002097
S113254080B483B000AF7860064A7B68136000BF34
S1132550044B1B68002BFBD100BF0C37BD465DF854
S1132560047B70472000002080B582B000AF0123B7
S11325703B7100237B710023BB7101F043FF01F029
S1132580FBFB02F0A1FC00F0DFFF3B1D1A46092112
S1132590154800F063FB154B1B68154AA2FB032387
S11325A09B091846FFF798FF0346002B00D0FEE76F
S11325B04FF47A70FFF7C4FF0E4B1B78DBB2002B8D
S11325C008D000220921084800F08EFB094B0022A4
S11325D01A70EDE701220921034800F085FB054B41
S11325E001221A70E4E700BF00801B4074690000F8
S11325F0D34D62101401002080B400AF074BD3F810
S1132600703203F01003002B02D1054B1B6800E06D
S1132610044B1846BD465DF8047B704700800D40AE
S11326202400002000366E0180B582B000AF03465E
S1132630FB71FB7983F00103DBB2002B02D1134859
S113264001F004FF124B4FF08042C3F8582100BF41
S11326500F4BD3F8703203F48033002BF8D00C4BBB
S11326604FF48032C3F8542100BF094BD3F85031E2
S113267003F40043002BF8D0054B4FF48032C3F829
S1132680582100BF0837BD4680BD00BF6857000011
S113269000800D4080B483B000AF0346FB71FB792A
S11326A0002B04D1074B1022C3F8742203E0054B1E
S11326B01022C3F8782200BF0C37BD465DF8047BB6
S11326C0704700BF00800D4080B400AF064BD3F8C4
S11326D07032054A43F00103C2F8703200BFBD46B0
S11326E05DF8047B704700BF00800D4080B483B068
S11326F000AF7860154B1B6823F4E0327B681B79CC
S11327009B039BB21343114A43F4803313600F4B72
S11327101A680F4B13407A68126802F07F02134361
S11327200A4A43F40053136000BF084B1B68002B94
S1132730FBDA064B1B68054A23F48033136000BFA1
S11327400C37BD465DF8047B704700BF00800D4028
S113275080CFFFFF80B483B000AF7860224B1B6B47
S113276023F4E0327B681B7B9B039BB213431E4A1A
S113277043F4803313631C4B1A6B1C4B13407A686D
S1132780127802F001021343174A43F4005313630F
S11327907B685B68144A23F0404313657B689B683D
S11327A0114A23F0404313667B685B8AC3F30E022D
S11327B07B681B7CDB039BB21A437B68DB891B04AD
S11327C0094913430B6400BF074B1B6B002BFBDA57
S11327D0054B1B6B044A23F48033136300BF0C378F
S11327E0BD465DF8047B704700800D40FECFFFFFBF
S11327F080B400AF034B00221A6200BFBD465DF8EF
S1132800047B704700800D4080B400AF044B4FF44C
S113281080521A6700BFBD465DF8047B704700BF55
S113282000800D4080B400AF044B4FF48052C3F8D5
S1132830A02000BFBD465DF8047B704700800D40BA
S113284080B400AF044B4FF48052C3F8E02000BFC3
S1132850BD465DF8047B704700800D4090B58BB099
S113286000AF7860AD4B07F108040FCB84E80F008C
S11328707968AB4802F093FA034683F00103DBB2B4
S1132880002B01D0002345E17968A54802F0A5FAA0
S113289078627968A24802F069FA0346002B01D0F5
S11328A07B6A37E17B689F4A93422AD09D4A9342D0
S11328B009D89D4A934257D09C4A934200F018810C
S11328C00D2B14D022E19A4A934200F0AC80984A2E
S11328D0934203D8974A934254D017E1964A9342BD
S11328E000F0F480954A934200F0FF800EE18C4B97
S11328F01B6803F07F037A6A02FB03F35B087B62C5
S113290007E17B6A07EE903AB8EE676B844B1B6D68
S113291007EE903AB8EE677B26EE075B804B1B6EA2
S113292007EE903AB8EE676B85EE067B87ED067B83
S11329307B4B1B6B03F00103002B05D07B6A162233
S113294002FB03F37B6205E07A6A13469B0013449F
S11329509B007B6297ED067BFCEEC77B17EE902A0B
S11329607B6A13447B62D4E06D4B1B6903F0020362
S1132970002B01D0162200E014227B6A02FB03F331
S11329807B62C6E0664B1B6F03F07F033B627B6A8E
S113299007EE903AB8EE676B614BD3F8803007EEE0
S11329A0903AB8EE677B26EE075B5D4BD3F8903028
S11329B007EE903AB8EE676B85EE067B87ED067BF3
S11329C07B6A3A6A02FB03F397ED067BFCEEC77B56
S11329D017EE902A13447B62514B1B6F03F4C01310
S11329E0002B03D0B3F5002F04D007E07B6A9B08CB
S11329F07B6203E07B6A5B087B6200BF484BD3F8D1
S1132A0070214F4B1340B3F5004F07D04C4A93420B
S1132A1000D007E07B6A9B087B6203E07B6A5B086B
S1132A207B6200BF75E03E4BD3F8A03003F07F0318
S1132A303B627B6A07EE903AB8EE676B384BD3F88B
S1132A40B03007EE903AB8EE677B26EE075B344B66
S1132A50D3F8C03007EE903AB8EE676B85EE067B8C
S1132A6087ED067B7B6A3A6A02FB03F397ED067BEC
S1132A70FCEEC77B17EE902A13447B62284BD3F8F5
S1132A80A03003F4C013002B03D0B3F5002F04D0FF
S1132A9007E07B6A9B087B6203E07B6A5B087B62DE
S1132AA000BF1F4BD3F8703103F04043B3F1804FA4
S1132AB007D0B3F1404F00D007E07B6A9B087B62EC
S1132AC003E07B6A5B087B6200BF22E0144BD3F80F
S1132AD0E03003F003033B623B6A9B0007F12802EA
S1132AE0134453F8203C7B6213E0164B7B6210E0E6
S1132AF00B4B1B6A03F00203002B01D0162200E0EB
S1132B0014227B6A02FB03F37B6202E000237B62F4
S1132B1000BF7B6A18462C37BD4690BD9457000011
S1132B2000800D400D0030000D0010000D0020004D
S1132B300D00A0000D0070000D00E0001500E00085
S1132B400080800040787D0180B485B000AF0346EA
S1132B500A46FB711346BB71FB79FB60124BD3F839
S1132B600021FB68DB00BF2101FA03F3DB431340C0
S1132B70BB60FB68DB0080229A400B49BB681343AF
S1132B80C1F80031BB7903F03F02FB68DB009A40D7
S1132B900549BB681343C1F8003100BF1437BD4673
S1132BA05DF8047B704700BF00800D4080B586B09F
S1132BB000AF03460A46FB8013467B71B7F9063023
S1132BC01B0A7B61FB8803F01F033B617B69062BB7
S1132BD002D90D4801F03AFC7B699A000B4B13446F
S1132BE0FB60FB681A6803213B6901FA03F3DB43CA
S1132BF01A4079793B6901FA03F31A43FB681A60B6
S1132C0000BF1837BD4680BDA457000068C00F4000
S1132C1080B584B000AF78600023FB6009E00D4A02
S1132C20FB6852F823307A689A4206D0FB68013375
S1132C30FB60FB68052BF2D900E000BFFB68052BA5
S1132C4002D9054801F002FCFB6818461037BD465E
S1132C5080BD00BF34580000CC57000080B584B05C
S1132C6000AFF860B9607A60F868FFF7D1FF0246F8
S1132C701C4B33F91230184602F0C9F8FB685A6944
S1132C800121BB6801FA03F3DB431A40FB685A6174
S1132C907B681B78002B0AD1FB685A680121BB684A
S1132CA001FA03F3DB431A40FB685A600FE07B68C8
S1132CB05B781A46B968F86800F016F8FB685A6839
S1132CC00121BB6801FA03F31A43FB685A607B686D
S1132CD09B781A46B968F86802F0A8F800BF103764
S1132CE0BD4680BD4C58000080B584B000AFF8608C
S1132CF0B9601346FB71BB681F2B02D90E4801F063
S1132D00A5FBFB79002B0AD1FB681A680121BB687B
S1132D1001FA03F3DB431A40FB681A6008E0FB681E
S1132D201A680121BB6801FA03F31A43FB681A60AD
S1132D3000BF1037BD4680BD0C58000080B487B07A
S1132D4000AFF860B9601346FB71BB683B61FB6878
S1132D50DA690121BB6801FA03F3DB431A40FB681B
S1132D60DA61BB680F2B03D8FB680C337B6105E089
S1132D70FB6810337B613B69103B3B61FB79013B92
S1132D80042B52D801A252F823F000BFA12D000059
S1132D90B92D0000DD2D0000012E0000172E0000CB
S1132DA07B691A683B695B00032101FA03F3DB4387
S1132DB01A407B691A6039E07B691A683B695B00D9
S1132DC0032101FA03F3DB431A403B695B00012151
S1132DD001FA03F31A437B691A6027E07B691A68D6
S1132DE03B695B00032101FA03F3DB431A403B69AF
S1132DF05B00022101FA03F31A437B691A6015E0B0
S1132E007B691A683B695B00032101FA03F31A43E7
S1132E107B691A600AE0FB68DA690121BB6801FA80
S1132E2003F31A43FB68DA6100E000BF00BF1C37FC
S1132E30BD465DF8047B704780B586B000AF03469D
S1132E400A46FB8013467B71B7F906301B0A7B6187
S1132E50FB8803F01F033B617B69062B02D90D48F5
S1132E6001F0F4FA7B699A000B4B1344FB60FB6896
S1132E701A6803213B6901FA03F3DB431A407979A9
S1132E803B6901FA03F31A43FB681A6000BF183761
S1132E90BD4680BD5858000068C00F4080B584B05E
S1132EA000AF78600023FB6009E00D4AFB6852F82C
S1132EB023307A689A4206D0FB680133FB60FB68D2
S1132EC0082BF2D900E000BFFB68082B02D90548A3
S1132ED001F0BCFAFB6818461037BD4680BD00BF40
S1132EE0205E00008058000080B58CB000AFF86010
S1132EF0B9607A60BB68002B02D1A04801F0A6FA41
S1132F00BB681B68002B02D19D4801F09FFABB6887
S1132F101B7A042B02D99B4801F098FABB685B7AB0
S1132F20042B02D9984801F091FABB681B68BB6175
S1132F3000237B6200237B8504233B6246E0BB685D
S1132F401B683A6A02FB03F37A68B2FBF3F33B852E
S1132F503B8D002B01D101233B853B8D3A6A02FB5B
S1132F6003F37A68B2FBF3F33B61BB681B683A690D
S1132F70D31AFB61BB681A683B8D013319463B6A5F
S1132F8003FB01F37968B1FBF3F3D31AFA699A42AC
S1132F900FD9BB681A683B8D013319463B6A03FBA2
S1132FA001F37968B1FBF3F3D31AFB613B8D013371
S1132FB03B85FA69BB699A4205D8FB69BB613B6AE8
S1132FC07B623B8D7B853B6A01333B623B6A202BF2
S1132FD0B5D9BB681B686D4AA2FB03235A09134683
S1132FE05B001344BA699A4202D940F22153F8E0D3
S1132FF0F868FFF753FF7861654A7B6932F913304B
S1133000184601F024FFF86801F030FFFB681B69E3
S1133010FB627B6A032B06D97B6A072B03D8FB6A06
S113302043F40033FB62FB6A23F0F853FB627B6AD0
S1133030013B1B0603F0F853FA6A1343FB62FA6A76
S1133040544B1340FB627B8DC3F30C02FB6A1A439F
S1133050FB681A61FB681B6923F00052FB681A6164
S1133060FB689A694C4B1340FB62BB681B791A4698
S1133070BB68DB7B1B0203F4E0631A43BB689B7BE6
S11330809B0003F004031343FA6A1343FB62BB6817
S11330905B79012B0DD1BB681B79002B04D0FB6A33
S11330A023F40063FB620CE0FB6A43F40063FB62FD
S11330B007E0BB681B79002B03D0FB6A43F01003C5
S11330C0FB62FB68FA6A9A61FB681B6923F400538C
S11330D0FB62BB68DB795B0303F40052FB6A1A43AF
S11330E0FB681A61BB685B7A1B04BA68127A1A43DC
S11330F0FB68DA62FB689B6A43F08802FB689A62A9
S1133100FB689B6A43F44042FB689A62234BFB6270
S1133110FB6A43F00043FB62FB6A43F44043FB62F7
S1133120FB685A6ABB685B7B1B0103F01001BB6838
S11331301B7B5B0103F020030B431A43FB685A62B9
S1133140BB689B7A002B05D0FB685B6A43F00802DE
S1133150FB685A62BB68DB7A002B05D0FB685B6AAC
S113316043F00102FB685A62BB689B79002B17D0BD
S1133170FB6A43F00053FB6216E000BF5C59000099
S113318084590000B8590000185A00001F85EB51FB
S1133190445E000000E0FFFFE8F8FFFF00001F406E
S11331A0FB6A23F00053FB62FB685A69FB6A1A430B
S11331B0FB685A61FB689B69FB62BB681B7C002B44
S11331C003D0FB6A43F40023FB62BB685B7C002BE7
S11331D003D0FB6A43F48023FB62FB68FA6A9A61BA
S11331E0002318463037BD4680BD00BF80B582B08D
S11331F000AF78607B68002B02D11D4801F026F9EE
S113320014220021786801F023FF7B684FF4E13237
S11332101A607B6800221A717B6800225A717B68ED
S113322000229A717B680022DA717B6800221A728C
S11332307B6800225A727B6800229A727B680022A3
S1133240DA727B6800225A737B6800221A737B68E7
S113325000229A737B680022DA737B6800221A7456
S11332607B6800225A7400BF0837BD4680BD00BF8A
S1133270785A000080B500AF044B1B68044A5268BA
S113328011460448984700BF80BD00BF500000208D
S11332902C0000200040184080B500AF044B1B6890
S11332A0044A926811460448984700BF80BD00BF95
S11332B0500000202C0000200080184080B500AF92
S11332C0044B1B68044AD26811460448984700BF5F
S11332D080BD00BF500000202C00002000C018401A
S11332E080B500AF044B1B68044A126911460448B8
S11332F0984700BF80BD00BF500000202C00002074
S11333000000194080B500AF044B1B68044A5269A1
S113331011460448984700BF80BD00BF50000020FC
S11333202C0000200040194080B500AF044B1B68FE
S1133330044A926911460448984700BF80BD00BF03
S1133340500000202C0000200080194080B500AF00
S1133350044B1B68044AD26911460448984700BFCD
S113336080BD00BF500000202C00002000C0194088
S113337080B500AF044B1B68044A126A1146044826
S1133380984700BF80BD00BF500000202C000020E3
S113339000001A4080B400AFBFF34F8FBFF36F8FAC
S11333A00B4B0022C3F85022BFF34F8FBFF36F8F34
S11333B0074B5B69064A43F400335361BFF34F8FF5
S11333C0BFF36F8F00BFBD465DF8047B704700BF3D
S11333D000ED00E080B485B000AF1D4B0022C3F8BF
S11333E08420BFF34F8F1A4BD3F880307B607B6807
S11333F05B0BC3F30E03FB607B68DB08C3F30903B9
S1133400BB60FB685A0143F6E0731340BA68920745
S11334100F491343C1F86032BB685A1EBA60002BCF
S1133420EFD1FB685A1EFA60002BE5D1BFF34F8F32
S1133430074B5B69064A43F480335361BFF34F8FF4
S1133440BFF36F8F00BF1437BD465DF8047B704730
S113345000ED00E080B500AF344BD3F88830334A38
S113346043F47003C2F88830304B314A9A60314BD0
S11334701B899BB22F4A23F001039BB213812E4B6D
S11334801B899BB22C4A23F001039BB21381294B65
S11334901B889BB203F00403002B07D0254B1B8829
S11334A09BB2244A23F004039BB21380224B1B8853
S11334B09BB203F00403002B07D01F4B1B889BB265
S11334C01D4A23F004039BB213801C4B1C4A5A6010
S11334D01A4B4FF6FF729A60184B1B6823F0A00337
S11334E0164A43F020031360164B1B6803F00103D4
S11334F0002B05D0134B1B68124A23F00103136001
S11335000A4B5B6903F40033B3F5003F01D0FFF7C6
S113351041FF064B5B6903F48033B3F5803F01D070
S1133520FFF758FF01F0B8FC00BF80BD00ED00E0DC
S11335300020000000800B4000000D4000C00B4044
S113354020C528D910E000E090B585B000AF784BD5
S11335505B6903F00073002B44D0754B9B6903F443
S11335604053B3F5805F21D0B3F5005F21D0002B29
S11335702AD1704B1B6903F48033002B0BD06D4BA5
S11335801B699B0B03F00303002B01D16A4B00E082
S11335900023FB601BE0674B1B6903F00203002B55
S11335A001D0664B00E0664BFB6010E0624BFB60B1
S11335B00DE0604B1B6B9B0B03F00303002B01D14D
S11335C05D4B00E00023FB600023FB6000BF584B11
S11335D05B69DB0E03F007030133FA68B2FBF3F314
S11335E0FB6095E0534B1B6803F48033002B0BD036
S11335F0504B1B689B0B03F00303002B01D14E4B74
S113360000E00023BB6008E04A4B1B6803F07F0323
S1133610494A02FB03F35B08BB60464B1B6B03F494
S11336208033002B0BD0434B1B6B9B0B03F003032A
S1133630002B01D1404B00E000237B6009E03D4BAF
S11336401B6B03F00103002B01D03C4B00E03C4B0F
S11336507B60384B1B6D4FF00004374A02FB04F1CA
S1133660002202FB03F20A443349A3FB010153186D
S11336701946304B1B6E4FF000041A46234601F0E6
S1133680AFFE03460C461A467B6813447B60284B06
S11336909B6903F44023B3F5802F0FD0B3F5802F3B
S11336A002D8002B07D030E0B3F5002F15D0B3F5C6
S11336B0402F20D029E07B68FB6029E01D4BD3F824
S11336C000311B0C03F03F037A68B2FBF3F213469C
S11336D0DB0013445B00FB601AE0164BD3F80031A7
S11336E003F03F037A68B2FBF3F21346DB001344A2
S11336F05B00FB600CE00E4B1B6903F00703013316
S1133700BA68B2FBF3F3FB6002E00023FB6000BF86
S1133710074B5B699B0A03F007030133FA68B2FBAA
S1133720F3F3084A136000BF1437BD4690BD00BFD1
S113373000C00F4000800D4000366E0100A4781FC9
S113374000389C1C7469000080B58AB000AF7860B2
S113375039607B68002B02D1364800F077FE3B6865
S1133760002B02D1344800F071FE3B681B7B082B10
S113377002D9324800F06AFE3B681B7B1A46304B84
S113378053F82230002B02D12E4800F05FFE07F1DF
S11337900C031846FFF72AFD3B685B68FB603B6837
S11337A01B7A012B02D102233B7408E03B681B7A8D
S11337B0022B02D103233B7401E000233B743B68DA
S11337C05B7A012B02D10123FB7401E00023FB741B
S11337D03B689B7A002B14BF01230023DBB27B7769
S11337E03B68DB7A002B14BF01230023DBB23B7759
S11337F03B681B7B1A46124B53F822003B681A683D
S113380007F10C031946FFF76FFB78627B6A002B04
S113381004D0786A01F047FB034606E07B683B620C
S11338203B681A7B3B6A1A70002318462837BD464A
S113383080BD00BF7C5E0000AC5E0000DC5E00006A
S1133840585E0000505F000080B584B000AF78601F
S1133850396043F22153FB813B68002B02D11548A8
S113386000F0F4FD7B68002B02D1134800F0EEFD5C
S11338707B68BB6010220021B86801F0E9FB3B685B
S11338801A7ABB681A733B681B7A012B00D00BE0D1
S1133890BB6803F108023B68DB681946104600F078
S11338A069F80346FB8100BFFB8918461037BD4603
S11338B080BD00BFD86200001463000080B584B0EE
S11338C000AF786039607B68002B02D10F4800F0AC
S11338D0BDFD3B68002B02D10D4800F0B7FD7B68AD
S11338E0FB603B68BB6004220021386801F0B0FB38
S11338F0FB685B685A1CFB685A60BB68FA681A600C
S1133900002318461037BD4680BD00BF94630000F5
S1133910D463000080B584B000AF786039607B6800
S1133920002B02D1114800F091FD3B68002B02D11D
S11339300F4800F08BFD7B68FB603B68BB60FB6855
S11339401B68002B02D043F222530BE00422002117
S1133950386801F07DFBFB68BA681A60BB68FA68D6
S11339601A60002318461037BD4680BD90640000DD
S1133970D064000080B588B000AF786039603B68DF
S1133980002B02D1194800F061FD7B68002B02D1A5
S1133990174800F05BFD3B68FB617B68BB61FB691A
S11339A05B68FB60FB691B7A3B74FB695B7A7B7425
S11339B0FB69DB7ABB74FB691B7BFB74FB691B68CB
S11339C0BB60FB699B7A3B75BB6907F10802114632
S11339D01846FFF7B9FE0346002B02D043F22153E9
S11339E000E0002318462037BD4680BD1466000061
S11339F05866000080B483B000AF78607B68DAB2A8
S1133A000C4B13441A687B685B13C3F30C017B688B
S1133A101B1203F01F0301FA03F31A407B681B1205
S1133A2003F01F0322FA03F318460C37BD465DF872
S1133A30047B704700C00F4080B483B000AF78604F
S1133A407B68DAB20C4B13441A687B685B13C3F3CC
S1133A500C017B681B1203F01F0301FA03F31A40E5
S1133A607B681B1203F01F0322FA03F318460C377A
S1133A70BD465DF8047B704700C00F4080B400AFC2
S1133A80074BD3F8703203F01003002B02D1054B1F
S1133A901B6800E0044B1846BD465DF8047B704784
S1133AA000800D402400002000366E0190B583B0E4
S1133AB000AF1348FFF79EFF0346002B10D11148B7
S1133AC0FEF7CCFE0246104BA3FB02239C080F48D2
S1133AD0FFF7B2FF03460133B4FBF3F37B600AE064
S1133AE0FFF7CCFF04460948FFF7A6FF034601335E
S1133AF0B4FBF3F37B607B6818460C37BD4690BD7E
S1133B00242600800D001000ABAAAAAA24E0078096
S1133B1080B584B000AF786039607B689B0EFB6031
S1133B207B68DAB21F4B13441A687B685B13C3F3D8
S1133B300C017B681B1203F01F0301FA03F3DB4340
S1133B4002EA03017B681B1203F01F033A689A40E0
S1133B507B685B13C3F30C007B681B1203F01F0329
S1133B6000FA03F31A407B68D8B20E4B034418469C
S1133B7041EA02030360FB68202B02D90A4800F0E3
S1133B8065FCFB68202B09D000BF064B9A6CFB68D0
S1133B9022FA03F303F00103002BF6D100BF103720
S1133BA0BD4680BD00C00F405868000080B584B099
S1133BB000AF786039607B689B0EFB607B68DAB28B
S1133BC01F4B13441A687B685B13C3F30C017B68B7
S1133BD01B1203F01F0301FA03F3DB4302EA0301A0
S1133BE07B681B1203F01F033A689A407B685B13DF
S1133BF0C3F30C007B681B1203F01F0300FA03F3EA
S1133C001A407B68D8B20E4B0344184641EA0203BB
S1133C100360FB68202B02D90A4800F017FCFB68FC
S1133C20202B09D000BF064B9A6CFB6822FA03F3E1
S1133C3003F00103002BF6D100BF1037BD4680BD51
S1133C4000C00F409468000080B586B000AF034602
S1133C500A46FB8013467B71B7F906301B0A7B6169
S1133C60FB8803F01F033B617B69062B02D90D48D7
S1133C7000F0ECFB7B699A000B4B1344FB60FB6880
S1133C801A6803213B6901FA03F3DB431A4079798B
S1133C903B6901FA03F31A43FB681A6000BF183743
S1133CA0BD4680BDD068000068C00F4080B483B0BA
S1133CB000AF7860044A7B68136000BF0C37BD46D0
S1133CC05DF8047B704700BF2400002080B483B0FB
S1133CD000AF7860044A7B68136000BF0C37BD46B0
S1133CE05DF8047B704700BF2800002080B485B0D5
S1133CF000AFF860B9601346FB71BA680C4B13400F
S1133D00BB60FB79002B06D0FB685A68BB681A437A
S1133D10FB685A6006E0FB685A68BB68DB431A40DC
S1133D20FB685A6000BF1437BD465DF8047B7047DA
S1133D3000F0FFFF80B485B000AF78600B46FB70E5
S1133D401346BB707B689A680A4B1340FB60FB7890
S1133D509B0603F08062FB681A43BB781B0403F4E0
S1133D607F031A437B689A6000BF1437BD465DF831
S1133D70047B7047FFFF00FB80B500AF4FF40040A9
S1133D80FFF7A4FFD64BD3F8C032D54A43F48033AF
S1133D90C2F8C032D24BD3F8C032D14A23F4003334
S1133DA0C2F8C032CF48FFF781FF0020FEF73CFC89
S1133DB0FEF78AFC0120FEF76DFCCB4B1B6823F059
S1133DC0FF03C94A43F07F0313600121C748FFF78B
S1133DD09FFE0121C648FFF79BFEC64BDB6823F01C
S1133DE01F03C44A43F01303D36000BFC14B1B68D5
S1133DF003F00043B3F1004FF8D10021BE48FFF7B0
S1133E00D5FE4FF4887001F070F84FF4847001F01F
S1133E106CF840F2162001F068F84FF4067001F0D7
S1133E2064F840F20E2001F060F80321B348FFF774
S1133E30BDFE0121B248FFF7B9FE4FF48A7001F0CC
S1133E4054F84FF48B7001F050F8182001F04DF83D
S1133E501A2001F04AF84FF4867001F046F8012167
S1133E60A848FFF7A3FE0021A748FFF751FE40F240
S1133E70026001F03AF80121A448FFF797FE0021FF
S1133E80A348FFF745FE40F2046001F02EF801213B
S1133E90A048FFF78BFE00219F48FFF739FE4FF43F
S1133EA0417001F022F807214FF21400FFF77EFE63
S1133EB000219A48FFF72CFE00219948FFF728FEBD
S1133EC040F2022001F011F801219648FFF76EFE3E
S1133ED000219548FFF71CFE4FF4807001F005F8AF
S1133EE04FF4817001F001F84FF4827000F0FDFF8F
S1133EF04FF4837000F0F9FF04218C48FFF756FE5D
S1133F0002218B48FFF704FE162000F0EEFF022189
S1133F108848FFF74BFE02218748FFF7F9FD40F27E
S1133F20125000F0E2FF03218448FFF73FFE012115
S1133F308348FFF73BFE00218248FFF7E9FD40F28A
S1133F40145000F0D2FF03217F48FFF72FFE012118
S1133F507E48FFF72BFE00217D48FFF7D9FD40F294
S1133F60165000F0C2FF03217A48FFF71FFE01211B
S1133F707948FFF71BFE00217848FFF7C9FD40F29E
S1133F80062000F0B2FF4FF4027000F0AEFF40F2E2
S1133F900A2000F0AAFF00217148FFF707FE002164
S1133FA07048FFF7B5FD0E2000F09FFF122000F0CF
S1133FB09CFF102000F099FF142000F096FF0121CF
S1133FC06948FFF7F3FD02216848FFF7A1FD4FF4AC
S1133FD0A36000F08AFF1C2000F087FF0C2000F093
S1133FE084FF4FF48C7000F080FF40F2023000F048
S1133FF07CFF40F2063000F078FF40F21A5000F0E7
S113400074FF40F20E6000F070FF00215848FFF783
S1134010CDFD00215748FFF77BFD40F20A3000F048
S113402064FF01215448FFF7C1FD03215348FFF702
S1134030BDFD05215248FFF76BFD40F20E5000F024
S113404054FF01214F48FFF7B1FD07214E48FFF708
S1134050ADFD03214D48FFF75BFD40F2025000F037
S113406044FF01214A48FFF7A1FD07214948FFF712
S11340709DFD03214848FFF74BFD4FF4407000F0CD
S113408034FF01214548FFF791FD07214448FFF71C
S11340908DFD03214348FFF73BFD00214248FFF714
S11340A037FD0F4BD3F860310D4A23F01F03C2F8DC
S11340B060310D4B1B6E0C4A23F0700313660A4BE0
S11340C01B6E23F00F03084A43F001031366064BEB
S11340D01B6E054A23F460031366034B1B6E65E0F5
S11340E000800D4000366E0100C00F40186C008047
S11340F0143900140000084014EA00041468008015
S113410010E000401CE007801C26008024EB0080A7
S11341101C30008024F000801C31008014270080B3
S1134120142600803CEB00803C69008018FA008073
S11341301864008024790080186E008028E60080CE
S113414028E007801C6A00802CE600802CE00780B1
S11341501C6C008028F6008028F007801C6E00800C
S113416038F307803832008020E20780206800801E
S113417024E007802426008038EC008018F70080B3
S113418038EF008030F9008030F600803074008011
S113419030EC008030E900803067008028E900803E
S11341A028F90080207300800C20008023F4F81389
S11341B06D4A43F4901313666B4B1B6E6A4A23F4E7
S11341C080731366684B1B6E674A23F08003136683
S11341D0654B1B6E644A23F0807313660022002132
S11341E0624800F0B8FE00220321604800F0B3FEEC
S11341F0002206215D4800F0AEFE002208215B4843
S113420000F0A9FE00220A21584800F0A4FE002272
S113421000215648FFF78EFD00224FF40051534809
S1134220FFF764FD514B5B69504A23F0805353619F
S11342304E4B5B694D4A23F0005353614C48FEF7E3
S113424055FA4C48FEF786FA1B210020FEF77CFC49
S113425010210120FEF778FC18210220FEF774FCDF
S113426010210320FEF770FC434B1B6B424A23F4DE
S113427080231363FEF7C8FA012240493E4800F048
S113428043FE3D4BD3F870313B4A23F40043C2F85C
S11342907031394BD3F87031374A23F40003C2F834
S11342A07031354B1B6F344A43F400531367FEF7E8
S11342B0B9FA314BD3F8A0302F4A43F48033C2F813
S11342C0A0302D4BD3F870312B4A23F04043C2F871
S11342D07031294BD3F8A030274A43F40053C2F875
S11342E0A030FEF7ADFA01222549234800F00CFE68
S11342F0214BD3F8E03023F003031F4A43F00103BA
S1134300C2F8E0301C4BD3F8E0301B4A43F40053AE
S1134310C2F8E030184BD3F8E030174A43F40013E6
S1134320C2F8E030FEF764FA01221649124800F0A0
S1134330EBFD114B1B6A104A43F400531362032133
S11343401148FFF7E5FB00211048FFF7E1FB0021CE
S11343500F48FFF72BFC00210E48FFF7D9FB0E4B4B
S11343600E4A1A6000BF80BD00C00F4000C00A4062
S1134370F86800000069000000800D400D00700026
S11343800D00E0000D0020001872008014390014A4
S113439014FB0080186C0080746900000046C3237D
S11343A080B586B000AF03460A46FB8013467B7196
S11343B0B7F906301B0A7B61FB8803F01F033B61DE
S11343C07B69062B02D90D4800F040F87B699A00FE
S11343D00B4B1344FB60FB681A6803213B6901FA29
S11343E003F3DB431A4079793B6901FA03F31A4377
S11343F0FB681A6000BF1837BD4680BD1469000011
S113440068C00F4080B582B002AF40F2024000F0B5
S1134410D8FD002301930B4B0093002300220521B8
S1134420094800F0DDFD41F2B0030193054B009310
S1134430002300220521044800F0EFFD00BFBD4623
S113444080BD00BFD0821F40E0801F4010B50446ED
S11344500E490F4800F0FFFE0C49204600F0FBFE19
S11344600C49D1F88030013B002BC1F8803008DBC7
S11344708B6F5A1C8A670A221A70BDE8104000F03C
S1134480E6BD78310A2000F005FEF6E7CC000020F6
S113449040690000540000202DE9F041D5688046B1
S11344A00E461446EB02576905D545F0100538460B
S11344B001F06DF8A061124B2B408BB1A169384615
S11344C001F06EF8002806DAE3684FF0FF3043F09D
S11344D08003E36011E025F4003525F01005E56064
S11344E032464146384601F061F820F00043F61A9E
S11344F0A3691E44A6610028E6D1BDE8F08100BF8F
S113450010000200F8B5304F3C68002851D100205B
S1134510F8BD2368B3F1805F39D1D4E9013151B1D9
S11345200A68B2F1805F06D1DA1C4B681A448B68C2
S11345306260A360F1E7AB4207DB9E4505DB2046E2
S11345404FF0005340F80C3BE2E7634511D9204695
S11345504FF0005265605B1B40F80C2B00EB8502AA
S1134560033BA2604FF0805440F82540C2E901317A
S1134570CEE761B9A0EB830000F036F90130C6D074
S11345804FF0005304F10C00C4E90035C0E726469F
S1134590A468002CBDD10C3000F026F9431CB6D021
S11345A04FF000538460C0E9003556B938600C30D0
S11345B0AEE7C31C00269D0805F10A0C05F1030EA5
S11345C0E7E7B060F3E700BF0C01002010B5FFF788
S11345D099FF044628B91722034900F0E7FF00F0C9
S11345E036FD204610BD00BF556900002DE9F84393
S11345F0C66804463C4B0D46904633400BB902272F
S113460047E0D0F81490484600F0C4FF074600285D
S1134610F5D1B8F1010F2CD0B8F1020F2ED0B8F1BA
S1134620000FECD1002DEADBB00404D52368E26A64
S11346309A4238BFE362A169A9420EDC2368E26AA8
S1134640934238BF134622695818801AA84204DBE3
S1134650206B01EB000CAC4536DC002346F0200651
S1134660A562C4E9013326F4032626F04006E66079
S11346700FE0204600F03AF80544D3E7484600F03E
S113468086FFB0F1000CE26806DA42F080020127EE
S1134690E2603846BDE8F883E36A1846A369194620
S11346A0236883422CBFC918091892060B46216956
S11346B0A3EB010303D5A26A9342B8BF1346634533
S11346C0ACBFED186544ADE76D1AB10744BF281AB5
S11346D0A060F10726F0200644BF9B1AEB1A15448C
S11346E048BF63602560BEE703001000C3689A07F3
S11346F005D10E4B21224FF0FF301A60704703F0B2
S113470020021B0309D512B1806A0138704703687F
S1134710826900691344181AF7E70AB1806A70477E
S11347200368826900691344181A70471001002055
S113473010B5174A0020174900F0C8FD4FF48073E4
S11347404FF480620021124800F02EF8124A1349F7
S1134750012000F0BBFD4FF480734FF48062002110
S11347600D4800F021F80E4B1B68022B0EDD0D4A9C
S113477002200A4900F0AAFD4FF480734FF48062CE
S113478000210848BDE8104000F00EB810BD00BF7D
S1134790540000206D690000900000206F69000043
S11347A03C690000CC00002070B5C468A5070CD09B
S11347B0B2F5007F05D0B2F5806F08D0B2F5807FE6
S11347C003D15E1E074DAE4204D9012008E000F17A
S11347D024010123144301610160C361C46000200A
S11347E070BD00BFFEFFFF0070B50B4D2B680BB909
S11347F00A4B2B60C41C2E6824F003043444204666
S113480000F032F810B92C60304670BD044B0C2215
S11348104FF0FF361A60F7E7080100201801002066
S113482010010020F7B5044698B103B0BDE8F0408C
S113483000F0B6BD07FB0460013400F0B1FD0028B0
S113484018BF4FF0FF35019BA342F3DC284603B0A9
S1134850F0BD034B05463C27024E1B680193F2E76B
S11348603C69000054000020044B23B1984234BF3B
S11348700020012070471846704700BF181100201F
S113488008B5FDF782FD08BD08B5FDF77EFD08BD3E
S113489008B5FDF77AFD08BD08B5FDF776FD08BD3E
S11348A008B5FDF772FD08BD08B5FDF76EFD08BD3E
S11348B008B5FDF76AFD08BD08B5FDF766FD08BD3E
S11348C008B5FDF762FD08BD08B5FDF75EFD08BD3E
S11348D008B5FDF75AFD08BD08B5FDF756FD08BD3E
S11348E008B5FDF752FD08BD08B5FDF74EFD08BD3E
S11348F008B5FDF74AFD08BD08B5FDF746FD08BD3E
S113490008B5FDF742FD08BD08B5FDF73EFD08BD3D
S113491008B5FDF73AFD08BD08B5FDF736FD08BD3D
S113492008B5FEF7A7FC08BD08B5FEF7B5FC08BD41
S113493008B5FEF7C3FC08BD08B5FEF7D1FC08BDF9
S113494008B5FEF7DFFC08BD08B5FEF7EDFC08BDB1
S113495008B5FEF7FBFC08BD08B5FEF709FD08BD68
S113496008B5FDF712FD08BD08B5FDF70EFD08BD3D
S113497008B5FDF70AFD08BD08B5FDF706FD08BD3D
S113498008B5FDF702FD08BD08B5FDF7FEFC08BD3E
S113499008B5FDF7FAFC08BD08B5FDF7F6FC08BD3F
S11349A008B5FDF7F2FC08BD08B5FDF7EEFC08BD3F
S11349B008B5FDF7EAFC08BD08B5FDF7E6FC08BD3F
S11349C008B5FDF7E2FC08BD08B5FDF7DEFC08BD3F
S11349D008B5FDF7DAFC08BD08B5FDF7D6FC08BD3F
S11349E008B5FDF7D2FC08BD08B5FDF7CEFC08BD3F
S11349F008B5FDF7CAFC08BD08B5FDF7C6FC08BD3F
S1134A0008B5FDF7C2FC08BD08B5FDF7BEFC08BD3E
S1134A1008B5FDF7BAFC08BD08B5FDF7B6FC08BD3E
S1134A2008B5FDF7B2FC08BD08B5FDF7AEFC08BD3E
S1134A3008B5FDF7AAFC08BD08B5FDF7A6FC08BD3E
S1134A4008B5FDF7A2FC08BD08B5FDF79EFC08BD3E
S1134A5008B5FDF79AFC08BD08B5FDF796FC08BD3E
S1134A6008B5FDF792FC08BD08B5FDF78EFC08BD3E
S1134A7008B5FDF78AFC08BD08B5FDF786FC08BD3E
S1134A8008B5FDF782FC08BD08B5FDF77EFC08BD3E
S1134A9008B5FDF77AFC08BD08B5FDF776FC08BD3E
S1134AA008B5FDF772FC08BD08B5FDF76EFC08BD3E
S1134AB008B5FDF76AFC08BD08B5FDF766FC08BD3E
S1134AC008B5FDF762FC08BD08B5FDF75EFC08BD3E
S1134AD008B5FDF75AFC08BD08B5FDF756FC08BD3E
S1134AE008B5FDF752FC08BD08B5FDF74EFC08BD3E
S1134AF008B5FDF74AFC08BD08B5FDF746FC08BD3E
S1134B0008B5FDF742FC08BD08B5FDF73EFC08BD3D
S1134B1008B5FDF73AFC08BD08B5FDF736FC08BD3D
S1134B2008B5FDF732FC08BD08B5FDF72EFC08BD3D
S1134B3008B5FDF72AFC08BD08B5FDF726FC08BD3D
S1134B4008B5FDF722FC08BD08B5FDF71EFC08BD3D
S1134B5008B5FDF71AFC08BD08B5FDF716FC08BD3D
S1134B6008B5FDF712FC08BD08B5FDF70EFC08BD3D
S1134B7008B5FDF70AFC08BD08B5FDF706FC08BD3D
S1134B8008B5FDF702FC08BD08B5FDF7FEFB08BD3E
S1134B9008B5FDF7FAFB08BD08B5FDF7F6FB08BD3F
S1134BA008B5FDF7F2FB08BD08B5FDF7EEFB08BD3F
S1134BB008B5FDF7EAFB08BD08B5FDF7E6FB08BD3F
S1134BC008B5FDF7E2FB08BD08B5FDF7DEFB08BD3F
S1134BD008B5FDF7DAFB08BD08B5FDF7D6FB08BD3F
S1134BE008B5FDF7D2FB08BD08B5FDF7CEFB08BD3F
S1134BF008B5FDF7CAFB08BD08B5FDF7C6FB08BD3F
S1134C0008B5FDF7C2FB08BD08B5FDF7BEFB08BD3E
S1134C1008B5FDF7BAFB08BD08B5FDF7B6FB08BD3E
S1134C2008B5FDF7B2FB08BD08B5FDF7AEFB08BD3E
S1134C3008B5FDF7AAFB08BD08B5FDF7A6FB08BD3E
S1134C4008B5FDF7A2FB08BD08B5FDF79EFB08BD3E
S1134C5008B5FDF79AFB08BD08B5FDF796FB08BD3E
S1134C6008B5FDF792FB08BD08B5FDF78EFB08BD3E
S1134C7008B5FDF78AFB08BD08B5FDF786FB08BD3E
S1134C8008B5FDF782FB08BD08B5FDF77EFB08BD3E
S1134C9008B5FDF77AFB08BD08B5FDF776FB08BD3E
S1134CA008B5FDF772FB08BD08B5FDF76EFB08BD3E
S1134CB008B5FDF76AFB08BD08B5FDF766FB08BD3E
S1134CC008B5FDF762FB08BD08B5FDF75EFB08BD3E
S1134CD008B5FDF75AFB08BD08B5FDF756FB08BD3E
S1134CE008B5FDF752FB08BD08B5FDF74EFB08BD3E
S1134CF008B5FDF74AFB08BD08B5FDF746FB08BD3E
S1134D0008B5FDF742FB08BD08B5FDF73EFB08BD3D
S1134D1008B5FDF73AFB08BD08B5FDF736FB08BD3D
S1134D2008B5FDF732FB08BD08B5FDF72EFB08BD3D
S1134D3008B5FDF72AFB08BD08B5FDF726FB08BD3D
S1134D4004207146084202D0EFF3098001E0EFF33A
S1134D50088081690A884BF6AB639A4200D0FEE76B
S1134D600231816120210160704700BF80B483B0AB
S1134D7000AF786039603B681B0CC3F30B027B689F
S1134D8013441B6803F48033002B14BF0123002356
S1134D90DBB218460C37BD465DF8047B704780B41F
S1134DA083B000AF786039603B681B0CC3F30B021F
S1134DB07B6813441A683B6803F01F0322FA03F369
S1134DC003F00103002B14BF01230023DBB21846B8
S1134DD00C37BD465DF8047B704780B582B000AFE8
S1134DE0786039603B681B0CC3F30B027B68134487
S1134DF01B689B0B03F00303002B03D1FDF7FCFBA3
S1134E00034600E0002318460837BD4680BD80B540
S1134E1082B000AF0346FB80B7F906300321184681
S1134E20FDF7C4FE00BF0837BD4680BD80B584B021
S1134E3000AFF860B9601346FB71FB791A46B96894
S1134E40F868FDF77BFF00BF1037BD4680BD80B515
S1134E5082B000AF0346FB80B7F906300321184641
S1134E60FDF7EAFF00BF0837BD4680BD80B483B0BC
S1134E7000AF78607B689B6843F002027B689A60AD
S1134E807B689B6823F002027B689A6000BF0C3742
S1134E90BD465DF8047B704780B400AF00BFBD46DB
S1134EA05DF8047B704780B483B000AF78607B68A2
S1134EB0002B01D1002301E042F6AF7318460C37F2
S1134EC0BD465DF8047B704780B582B000AFFEF745
S1134ED0EDFD78607B6801224FF4E1310120FDF79C
S1134EE055FA00BF0837BD4680BD80B582B000AF1B
S1134EF00346FB80B7F9063000211846FEF7A4FEEE
S1134F0000BF0837BD4680BD80B485B000AFF860EF
S1134F10B9601346FB71FB79002B0BD0BB681B0CEB
S1134F20C3F30B02FB68134404331A464FF4803373
S1134F3013600AE0BB681B0CC3F30B02FB68134449
S1134F4008331A464FF48033136000BF1437BD464C
S1134F505DF8047B704780B485B000AF78600B4681
S1134F60FB701346BB70FB78032B12D97B685A681D
S1134F70FB78032101FA03F3DB431340FB60BB78A6
S1134F8003F00302FB789A40FB681A437B685A607B
S1134F9011E07B685A68FB78072101FA03F3DB43CD
S1134FA01340FB60BB7803F00702FB789A40FB6870
S1134FB01A437B685A6000BF1437BD465DF8047B12
S1134FC0704780B582B000AF0346FB80B7F9063066
S1134FD003211846FFF7E4F900BF0837BD4680BD3A
S1134FE080B485B000AFF860B9607A603B60BB689C
S1134FF003F00701FB691B0103F01002FB680A437D
S11350001A607B68002B02D07B683A681A6000BF84
S11350101437BD465DF8047B704780B485B000AF9B
S1135020F860B9607A603B60BB69002B02D0BB6951
S1135030FA691A6000BF1437BD465DF8047B7047F7
S113504008B5FFF775FBBDE80840FDF78DBAFEE72C
S113505000F081BAC368826923F0200310B5C360ED
S11350600446836A9A420ED000F0B4F8E36823F44D
S1135070405323F0100343F01003E360A36AA361D9
S11350802369E3622360E36823F4804323F040034D
S1135090E36010BDCB6823F4002270B50C46CA60EF
S11350A09906054602D52046FFF7D4FFD4E9023617
S11350B05A1C10DAB0050ED4C3F1FF2346F490361F
S11350C003F57F03E660FE33A36023685A1C226065
S11350D01D70E8B270BD41F28A023240022A07D044
S11350E0002346F08006A360E6604FF0FF30F1E74E
S11350F04AF210033340B3F5004F0AD10021204691
S1135100FFF774FAE368990602D52046FFF7A2FF79
S1135110E66846F4903316F4706FE3600ED160696C
S113512000F038FA00B372051ED504F1240323619C
S113513023600123E36146F49233E36013F4106FB8
S11351402168266926D0E36A99422CBFC6EB010187
S1135150C6EB0301B9B9731CE3622360E3695A1E09
S11351602363A2603570B4E74FF48070FFF72EFA22
S11351704FF48073E268E36146F4943320611A4388
S11351802060E260DAE722463046FFF785F900281E
S1135190E1D0AAE74A1CEDB222600D70E26A2168F0
S11351A091422CBFC6EB0101C6EB0201E2695B052B
S11351B0226303D40A2D01D08A4209DC0023E6626B
S11351C026602246A3603046FFF766F900288CD19A
S11351D028467FE738B5016804460569C36AC06894
S11351E020F40022E26000F08202022A02D04FF092
S11351F0FF3038BD10F48030FBD0994238BF1946D7
S11352008D4208D1E3680020E56223F480332560F1
S1135210A060E360EDE72246491B2846FFF73CF90E
S11352200028EFD0E3E7A8B14FF0805340F80C3CDE
S113523050F8042C72B11368B3F1805F0AD150F8AE
S1135240083C516803330B4440F8083C936840F829
S1135250043CEDE7704738B505460C4615F8010BDC
S113526070B1A368013B002BA36004DB23685A1CC4
S113527022601870F2E72146FFF70CFF431CEDD1C2
S113528038BD421C10B5830716D1034650F8041BE1
S1135290A1F1013424EA010414F0803FF5D011F0A7
S11352A0FF0F11D011F47F4F0CD011F47F0F14BFF6
S11352B003460333981A04E010F8013B002BE2D1B3
S11352C0801A10BD0233F5E70133F3E770B50D46DC
S11352D006461046144600F02DF82B78722B1AD08F
S11352E0772B05D0612B23D1082348F2020201E079
S11352F00423022215F8011F2B290FD0622912D092
S11353001B07E260666104D5022200212046FFF7F4
S11353106DF9204670BD00230122EBE742F0030241
S113532043F00203E6E742F0040243F00103E1E73D
S11353300024EEE7F0B5C46889B00546A10722D081
S1135340220718D4D0E90467FFF76CFA384600F056
S11353501BF9230502D53046FFF765FFA40DA4050C
S113536014F1A54F07D12022296A684600F01BF9E1
S1135370684600F00BF83C2200212846FFF768FE3F
S1135380002009B0F0BD4FF0FF30FAE710B5044635
S1135390FFF777FF01462046BDE8104000F0FDB856
S11353A0C36870B513F00306044611D09B0611D5EB
S11353B0856AFFF74FFEE368204623F44053E36019
S11353C0FFF708FF0022064629462046FFF70EF99C
S11353D0304670BD836905681D440369ED1AEAE728
S11353E05FF0000C30B51C0022D112006FD0914246
S11353F006D305460846002100F06FF80446284607
S113540000F06BF80A462146BDE830401CF0404FDE
S113541008BF704703D54942404261F100015FEA89
S11354208C0C38BF70475B42524263F100037047F3
S113543042D41C0C04BF1B040CF1100C13F07F4F5E
S113544004BF1B020CF1080C13F0704F04BF1B01C6
S11354500CF1040C13F0404F04BF0CF1020C5FEA92
S113546083035CBF0CF1010C5B00CCF1200E22FA2B
S11354700EF4234302FA0CF200FA0CF520FA0EF0B3
S113548001FA0CF4204321FA0EF114461A4600F0F6
S113549024F8A4FB0023AA1A71EB03033CBF1B19D5
S11354A00138CCF1200E22FA0CF203FA0EF4224356
S11354B023FA0CF30021A7E7821A71EB03033CBF24
S11354C002460B464FF0000141F100009CE700202A
S11354D00021BDE8304000F03DB80423B1EB122FA9
S11354E009D2090241EA10610002013B08BF70477A
S11354F0B1EB122FF5D30018494134BF9142891AF8
S11355004041494134BF9142891A4041494134BF25
S11355109142891A4041494134BF9142891A40411C
S1135520494134BF9142891A4041494134BF9142B3
S1135530891A4041494134BF9142891A4041494145
S113554034BF9142891A4041A3F1010313F00F0FB4
S1135550D2D170477047034613F0030F0ED101F008
S1135560FF0141EA012141EA0141043A24BF43F821
S1135570041BB2F10402F9D202F10402013A24BF7D
S113558003F8011BFAE770474FF0FF3070474FF004
S1135590FF3070474FF0FF3070474FF0FF307047D7
S11355A04FF0FF3070474FF0FF30704710467047A0
S11355B02E2E2F7574696C69746965732F66736C0C
S11355C05F64656275675F636F6E736F6C652E638E
S11355D03A333635203A204E554C4C20213D206339
S11355E0680000002E2E2F7574696C6974696573E8
S11355F02F66736C5F64656275675F636F6E736F4C
S11356006C652E633A333636203A203020213D2013
S113561073697A65000000002E2E2F7574696C6919
S1135620746965732F66736C5F64656275675F6325
S11356306F6E736F6C652E633A343239203A206290
S1135640756620213D204E554C4C00002E2E2F75A2
S113565074696C69746965732F66736C5F646562E1
S113566075675F636F6E736F6C652E633A343831A0
S1135670203A2063680000002E2E2F7574696C692F
S1135680746965732F66736C5F64656275675F63C5
S11356906F6E736F6C652E633A353936203A206B22
S11356A05374617475735F53657269616C4D616E97
S11356B0616765725F53756363657373203D3D2055
S11356C073746174757300002E2E2F7574696C6980
S11356D0746965732F66736C5F64656275675F6375
S11356E06F6E736F6C652E633A363038203A206BD8
S11356F05374617475735F53657269616C4D616E47
S1135700616765725F53756363657373203D3D2004
S113571073746174757300002E2E2F7574696C692F
S1135720746965732F66736C5F64656275675F6324
S11357306F6E736F6C652E633A363139203A206B85
S11357405374617475735F53657269616C4D616EF6
S1135750616765725F53756363657373203D3D20B4
S113576073746174757300FF2E2E2F6472697665ED
S113577072732F66736C5F636C6F636B2E633A3165
S11357803533203A20216279706173735874616CE7
S11357904F73630040787D0180F0FA0200E1F50563
S11357A0405973072E2E2F647269766572732F66C3
S11357B0736C5F636C6F636B2E683A393631203AD1
S11357C020696E646578203C3D2036002E2E2F64BF
S11357D07269766572732F66736C5F6770696F2E7A
S11357E0633A3537203A20696E7374616E636520BD
S11357F03C2041525241595F53495A4528735F67CF
S113580070696F4261736573290000002E2E2F6446
S11358107269766572732F66736C5F6770696F2E39
S1135820633A313037203A2070696E203C2033329D
S113583000FFFFFF0000000000801B4000C01B4071
S113584000001C4000401C4000000C40FFFF1A01F7
S11358501E001A020C031E012E2E2F647269766537
S113586072732F66736C5F636C6F636B2E683A3967
S11358703631203A20696E646578203C3D2036003C
S11358802E2E2F647269766572732F66736C5F6C4B
S113589070756172742E633A313232203A20696E27
S11358A07374616E6365203C2041525241595F53C9
S11358B0495A4528735F6C707561727442617365EF
S11358C0732900002E2E2F647269766572732F6619
S11358D0736C5F6C70756172742E633A313335206A
S11358E03A2068616E646C65000000002E2E2F64FF
S11358F07269766572732F66736C5F6C7075617212
S1135900742E633A313533203A2068616E646C65D5
S1135910000000002E2E2F647269766572732F6664
S1135920736C5F6C70756172742E633A313730201A
S11359303A206461746100002E2E2F6472697665CA
S113594072732F66736C5F6C70756172742E633A38
S1135950313834203A206461746100002E2E2F64A3
S11359607269766572732F66736C5F6C70756172A1
S1135970742E633A323338203A20636F6E66696757
S1135980000000002E2E2F647269766572732F66F4
S1135990736C5F6C70756172742E633A32333920A4
S11359A03A20636F6E6669672D3E62617564526169
S11359B074655F42707300002E2E2F6472697665E1
S11359C072732F66736C5F6C70756172742E633AB8
S11359D0323431203A2046534C5F464541545552A7
S11359E0455F4C50554152545F4649464F5F5349B9
S11359F05A456E286261736529203E3D20636F6EAF
S1135A006669672D3E74784669666F57617465727E
S1135A106D61726B000000002E2E2F647269766532
S1135A2072732F66736C5F6C70756172742E633A57
S1135A30323432203A2046534C5F46454154555245
S1135A40455F4C50554152545F4649464F5F534958
S1135A505A456E286261736529203E3D20636F6E4E
S1135A606669672D3E72784669666F576174657220
S1135A706D61726B000000002E2E2F6472697665D2
S1135A8072732F66736C5F6C70756172742E633AF7
S1135A90353138203A20636F6E6669670000000074
S1135AA02E2E2F647269766572732F66736C5F6C29
S1135AB070756172742E633A353633203A20626110
S1135AC07564526174655F42707300002E2E2F64FA
S1135AD07269766572732F66736C5F6C7075617230
S1135AE0742E633A383331203A20646174610000C3
S1135AF02E2E2F647269766572732F66736C5F6CD9
S1135B0070756172742E633A383631203A206461BC
S1135B10746100002E2E2F647269766572732F668D
S1135B20736C5F6C70756172742E633A393434200F
S1135B303A2068616E646C65000000002E2E2F64AC
S1135B407269766572732F66736C5F6C70756172BF
S1135B50742E633A31303038203A2068616E646CB8
S1135B60650000002E2E2F647269766572732F66AD
S1135B70736C5F6C70756172742E633A31303039B6
S1135B80203A2072696E674275666665720000008D
S1135B902E2E2F647269766572732F66736C5F6C38
S1135BA070756172742E633A31303331203A206853
S1135BB0616E646C650000002E2E2F647269766538
S1135BC072732F66736C5F6C70756172742E633AB6
S1135BD031303635203A2068616E646C650000000F
S1135BE02E2E2F647269766572732F66736C5F6CE8
S1135BF070756172742E633A31303636203A2078EB
S1135C00666572002E2E2F647269766572732F6634
S1135C10736C5F6C70756172742E633A3130363711
S1135C20203A20786665722D3E646174610000003C
S1135C302E2E2F647269766572732F66736C5F6C97
S1135C4070756172742E633A31303638203A207898
S1135C506665722D3E6461746153697A6500000063
S1135C602E2E2F647269766572732F66736C5F6C67
S1135C7070756172742E633A31313034203A206881
S1135C80616E646C650000002E2E2F647269766567
S1135C9072732F66736C5F6C70756172742E633AE5
S1135CA031313237203A2068616E646C650000003F
S1135CB02E2E2F647269766572732F66736C5F6C17
S1135CC070756172742E633A31313238203A206330
S1135CD06F756E74000000002E2E2F647269766555
S1135CE072732F66736C5F6C70756172742E633A95
S1135CF031313731203A2068616E646C65000000F0
S1135D002E2E2F647269766572732F66736C5F6CC6
S1135D1070756172742E633A31313732203A2078CB
S1135D20666572002E2E2F647269766572732F6613
S1135D30736C5F6C70756172742E633A31313733F2
S1135D40203A20786665722D3E646174610000001B
S1135D502E2E2F647269766572732F66736C5F6C76
S1135D6070756172742E633A31313734203A207879
S1135D706665722D3E6461746153697A6500000042
S1135D802E2E2F647269766572732F66736C5F6C46
S1135D9070756172742E633A31323933203A206857
S1135DA0616E646C650000002E2E2F647269766546
S1135DB072732F66736C5F6C70756172742E633AC4
S1135DC031333231203A2068616E646C6500000022
S1135DD02E2E2F647269766572732F66736C5F6CF6
S1135DE070756172742E633A31333232203A206313
S1135DF06F756E74000000002E2E2F647269766534
S1135E0072732F66736C5F6C70756172742E633A73
S1135E1031333434203A2068616E646C6500FFFFCE
S1135E2000000000004018400080184000C01840E6
S1135E3000001940004019400080194000C019407A
S1135E4000001A40FFFF18051C000C001801020393
S1135E5006031A050E06FFFF00000000004018406C
S1135E600080184000C0184000001940004019404C
S1135E700080194000C0194000001A402E2E2F63E4
S1135E806F6D706F6E656E742F756172742F6C70A8
S1135E90756172745F616461707465722E633A3205
S1135EA03235203A2068616E646C65002E2E2F63B3
S1135EB06F6D706F6E656E742F756172742F6C7078
S1135EC0756172745F616461707465722E633A32D5
S1135ED03236203A20636F6E666967002E2E2F6378
S1135EE06F6D706F6E656E742F756172742F6C7048
S1135EF0756172745F616461707465722E633A32A5
S1135F003237203A20636F6E6669672D3E696E737F
S1135F1074616E6365203C202873697A656F662816
S1135F20735F4C7075617274416461707465724220
S1135F3061736529202F2073697A656F66284C5038
S1135F40554152545F54797065202A292900000074
S1135F502E2E2F636F6D706F6E656E742F75617268
S1135F60742F6C70756172745F61646170746572B2
S1135F702E633A323238203A20735F4C7075617266
S1135F807441646170746572426173655B636F6EC2
S1135F906669672D3E696E7374616E63655D0000AA
S1135FA02E2E2F636F6D706F6E656E742F75617218
S1135FB0742F6C70756172745F6164617074657262
S1135FC02E633A323937203A2068616E646C65007A
S1135FD02E2E2F636F6D706F6E656E742F756172E8
S1135FE0742F6C70756172745F6164617074657232
S1135FF02E633A333138203A2068616E646C650050
S11360002E2E2F636F6D706F6E656E742F756172B7
S1136010742F6C70756172745F6164617074657201
S11360202E633A333139203A2064617461000000F0
S11360302E2E2F636F6D706F6E656E742F75617287
S1136040742F6C70756172745F61646170746572D1
S11360502E633A333230203A206C656E67746800E0
S11360602E2E2F636F6D706F6E656E742F75617257
S1136070742F6C70756172745F61646170746572A1
S11360802E633A333339203A2068616E646C6500BC
S11360902E2E2F636F6D706F6E656E742F75617227
S11360A0742F6C70756172745F6164617074657271
S11360B02E633A333430203A206461746100000066
S11360C02E2E2F636F6D706F6E656E742F756172F7
S11360D0742F6C70756172745F6164617074657241
S11360E02E633A333431203A206C656E677468004D
S11360F02E2E2F636F6D706F6E656E742F736572C5
S113610069616C5F6D616E616765722F7365726939
S1136110616C5F6D616E616765722E633A3734330B
S1136120203A20777269746548616E646C6500007A
S11361302E2E2F636F6D706F6E656E742F73657284
S113614069616C5F6D616E616765722F73657269F9
S1136150616C5F6D616E616765722E633A373434CA
S1136160203A206275666665720000002E2E2F6349
S11361706F6D706F6E656E742F73657269616C5F9D
S11361806D616E616765722F73657269616C5F6DB5
S1136190616E616765722E633A373435203A206C3C
S11361A0656E6774680000002E2E2F636F6D706F2C
S11361B06E656E742F73657269616C5F6D616E617B
S11361C06765722F73657269616C5F6D616E61677B
S11361D065722E633A373530203A2068616E646CFC
S11361E0650000002E2E2F636F6D706F6E656E74E8
S11361F02F73657269616C5F6D616E616765722F83
S113620073657269616C5F6D616E616765722E633F
S11362103A373630203A207265616448616E646CA6
S1136220650000002E2E2F636F6D706F6E656E74A7
S11362302F73657269616C5F6D616E616765722F42
S113624073657269616C5F6D616E616765722E63FF
S11362503A373631203A206275666665720000006E
S11362602E2E2F636F6D706F6E656E742F73657253
S113627069616C5F6D616E616765722F73657269C8
S1136280616C5F6D616E616765722E633A37363299
S1136290203A206C656E6774680000002E2E2F6310
S11362A06F6D706F6E656E742F73657269616C5F6C
S11362B06D616E616765722F73657269616C5F6D84
S11362C0616E616765722E633A373637203A20680B
S11362D0616E646C650000002E2E2F636F6D706F0D
S11362E06E656E742F73657269616C5F6D616E614A
S11362F06765722F73657269616C5F6D616E61674A
S113630065722E633A373738203A20636F6E6669B8
S1136310670000002E2E2F636F6D706F6E656E74B4
S11363202F73657269616C5F6D616E616765722F51
S113633073657269616C5F6D616E616765722E630E
S11363403A373833203A2073657269616C48616E5C
S1136350646C65002E2E2F636F6D706F6E656E74A6
S11363602F73657269616C5F6D616E616765722F11
S113637073657269616C5F6D616E616765722E63CE
S11363803A383833203A2073657269616C48616E1B
S1136390646C65002E2E2F636F6D706F6E656E7466
S11363A02F73657269616C5F6D616E616765722FD1
S11363B073657269616C5F6D616E616765722E638E
S11363C03A393334203A2073657269616C48616EDE
S11363D0646C65002E2E2F636F6D706F6E656E7426
S11363E02F73657269616C5F6D616E616765722F91
S11363F073657269616C5F6D616E616765722E634E
S11364003A393335203A20777269746548616E648D
S11364106C6500002E2E2F636F6D706F6E656E7449
S11364202F73657269616C5F6D616E616765722F50
S113643073657269616C5F6D616E616765722E630D
S11364403A393630203A20777269746548616E644F
S11364506C6500002E2E2F636F6D706F6E656E7409
S11364602F73657269616C5F6D616E616765722F10
S113647073657269616C5F6D616E616765722E63CD
S11364803A393635203A2068616E646C6500000044
S11364902E2E2F636F6D706F6E656E742F73657221
S11364A069616C5F6D616E616765722F7365726996
S11364B0616C5F6D616E616765722E633A39383560
S11364C0203A2073657269616C48616E646C650082
S11364D02E2E2F636F6D706F6E656E742F736572E1
S11364E069616C5F6D616E616765722F7365726956
S11364F0616C5F6D616E616765722E633A3938361F
S1136500203A207265616448616E646C6500000025
S11365102E2E2F636F6D706F6E656E742F736572A0
S113652069616C5F6D616E616765722F7365726915
S1136530616C5F6D616E616765722E633A313031F3
S113654035203A207265616448616E646C650000B0
S11365502E2E2F636F6D706F6E656E742F73657260
S113656069616C5F6D616E616765722F73657269D5
S1136570616C5F6D616E616765722E633A313032B2
S113658030203A2068616E646C6500002E2E2F6303
S11365906F6D706F6E656E742F73657269616C5F79
S11365A06D616E616765722F73657269616C5F6D91
S11365B0616E616765722E633A31323331203A205D
S11365C073657269616C48616E646C6500000000FB
S11365D02E2E2F636F6D706F6E656E742F736572E0
S11365E069616C5F6D616E616765722F7365726955
S11365F0616C5F6D616E616765722E633A3132332F
S113660038203A2073657269616C48616E646C6508
S113661000FFFFFF2E2E2F636F6D706F6E656E741B
S11366202F73657269616C5F6D616E616765722F4E
S113663073657269616C5F706F72745F7561727497
S11366402E633A313338203A2073657269616C43A2
S11366506F6E6669670000002E2E2F636F6D706F7A
S11366606E656E742F73657269616C5F6D616E61C6
S11366706765722F73657269616C5F706F72745FA6
S1136680756172742E633A313339203A207365721E
S113669069616C48616E646C650000002E2E2F6386
S11366A06F6D706F6E656E742F73657269616C5F68
S11366B06D616E616765722F73657269616C5F707D
S11366C06F72745F756172742E633A323032203A9D
S11366D02073657269616C48616E646C65000000CA
S11366E02E2E2F636F6D706F6E656E742F736572CF
S11366F069616C5F6D616E616765722F7365726944
S1136700616C5F706F72745F756172742E633A327C
S11367103639203A2073657269616C48616E646C25
S1136720650000002E2E2F636F6D706F6E656E74A2
S11367302F73657269616C5F6D616E616765722F3D
S113674073657269616C5F706F72745F7561727486
S11367502E633A323730203A2062756666657200DD
S11367602E2E2F636F6D706F6E656E742F7365724E
S113677069616C5F6D616E616765722F73657269C3
S1136780616C5F706F72745F756172742E633A32FC
S11367903731203A206C656E677468002E2E2F63A3
S11367A06F6D706F6E656E742F73657269616C5F67
S11367B06D616E616765722F73657269616C5F707C
S11367C06F72745F756172742E633A323833203A93
S11367D02073657269616C48616E646C65000000C9
S11367E02E2E2F636F6D706F6E656E742F736572CE
S11367F069616C5F6D616E616765722F7365726943
S1136800616C5F706F72745F756172742E633A327B
S11368103834203A20627566666572002E2E2F6326
S11368206F6D706F6E656E742F73657269616C5FE6
S11368306D616E616765722F73657269616C5F70FB
S11368406F72745F756172742E633A323835203A10
S1136850206C656E677468002E2E2F6472697665ED
S113686072732F66736C5F636C6F636B2E683A3858
S11368703930203A20627573795368696674203C14
S11368803D2043434D5F4E4F5F425553595F57413F
S1136890495400002E2E2F647269766572732F6638
S11368A0736C5F636C6F636B2E683A393237203ACE
S11368B020627573795368696674203C3D204343B4
S11368C04D5F4E4F5F425553595F57414954000045
S11368D02E2E2F647269766572732F66736C5F63F4
S11368E06C6F636B2E683A393631203A20696E64D6
S11368F06578203C3D203600640000000000000064
S11369000100000000000000010000000000000081
S1136910000000002E2E2F647269766572732F6654
S1136920736C5F636C6F636B2E683A393631203A4F
S113693020696E646578203C3D2036000300000029
S11369402A2A2A20617373657274206661696C65F2
S113695064203A20002A2A2A205F437379735F61F6
S11369606C6C6F63206661696C65640A0072007701
S107697000FFFFFF22
S107697400A4781FE0
S9032305D4
