S01C000046726565646F6D5F4C6F676963416E616C797A65722E6865781B
S113000000300020FD170000E5080000F1080000A2
S1130010F1080000F1080000F1080000F1080000F8
S1130020F1080000F1080000F1080000F1080000E8
S1130030F1080000F1080000F1080000F1080000D8
S1130040C5080000F1080000F1080000F1080000F4
S1130050F1080000F1080000F1080000F1080000B8
S1130060F1080000F1080000F1080000F1080000A8
S1130070C9110000F1080000F1080000F1080000B7
S1130080F1080000F1080000F1080000F108000088
S1130090F1080000F1080000F1080000F108000078
S11300A0F1080000F1080000F1080000F108000068
S11300B0F1080000F1080000F1080000F108000058
S1130400FFFFFFFFFFFFFFFFFFFFFFFF7EFFFFFF79
S113041080B584B000AF7860254B9B69002B36D142
S1130420244BFB60FB687A685A60FB6801221A70EF
S1130430214A2149214BCB588021890419431F4B60
S1130440D1501F4B00221A601D4B00225A601C4BD6
S11304500022DA601A4B00225A61194B194A9A6039
S1130460174B2C22DA60164B174A1A61174B174A9E
S1130470116D174A0A40C02189000A431A65104BBE
S113048009221A600A4BFA689A61FB680CE0084B6F
S11304909B69FB60FB687A685A60FB681B780133D0
S11304A0DAB2FB681A70FB68181CBD4604B080BD44
S11304B018F0FF1F04F0FF1F007004403C10000000
S11304C0009003407FBB0000C05D000000D00440EA
S11304D0FFF8FFFE80B500AF364A3649364BCB589D
S11304E0802149041943344BD150344B00221A6003
S11304F0324B8022DA60314B80225A612F4B8022AA
S1130500DA612E4B80225A622C4B8022DA622B4B0A
S113051080225A63294B294A1268A0218A431A600F
S1130520264A26498423C958254B19408423D1508F
S1130530224B224AD16841220A40DA601F4B1F4AEB
S1130540516910220A4029210A435A611B4B1B4A54
S1130550D16941220A40DA61184B184A516A412292
S11305600A405A62154B154AD16A41220A40DA629E
S1130570124B124A516B41220A405A630F4B00221C
S11305809A610E4B0D4A9268120C120401210A431F
S11305909A600A4B094A5268120C12045A60074BBB
S11305A0064A1268520A520208210A431A60BD46DA
S11305B080BDC046007004403C1000000080034031
S11305C01FFDF8FF80B584B000AF7860104BFB606E
S11305D0FB687A689A60FB6801221A71FB680D4A0D
S11305E0DA800D4BFA68DA610020FFF711FF021C74
S11305F0FB681A60FB681B68002B04D1064B0022C1
S1130600DA61002300E0FB68181CBD4604B080BD1D
S11306100CF0FF1FFF7F000018F0FF1F90B500AF24
S1130620131C041C002B0AD002E00A1C22700134A3
S11306301A1C501E8241D2B2013B002AF5D1BD469C
S113064090BDC04680B584B000AF7860104B1B6984
S1130650FB60FB68002B08D100F044F8031CFB602E
S1130660FB68002B01D100230DE0F968094A7B687F
S1130670081C111C1A1C00F07DF8031CBB60044B01
S1130680BA685A61BB68181CBD4604B080BDC04638
S113069018F0FF1FCC25000080B584B000AF78604F
S11306A07B68DA68C0239B0313401A0D0C4B92003D
S11306B0D358FB607B68DA68C023DB0213405A0C12
S11306C0074B9200D358BB60FA68BB689A4201D9C1
S11306D0FB6800E0BB68181CBD4604B080BDC04682
S11306E0FC25000080B582B000AF1C4B7B607B68AA
S11306F0181C00212422FFF791FF194B7A681A6015
S1130700184A1849C0239B00CB58FF218B438021F2
S11307101943C0239B00D150124B124A1268012185
S11307200A431A60104A104982235B01CB58802186
S11307304900194382235B01D1500B4A0A490B4BF0
S1130740CB5802211943094BD150094B7A681A61DD
S11307507B68181CBD4602B080BDC04638F0FF1F40
S11307605CF0FF1F00E100E0007004403C1000005A
S113077018F0FF1F90B58BB000AFF860B9607A60D5
S1130780BB681B687B627A6A131CDB009B189B00A6
S1130790FA68D3183B627A6A131C5B009B189B00AF
S11307A0224A9B18FB61FB695B68BB61FB699B6820
S11307B07B617B6900221A70BB699B6880225204AA
S11307C01A43BB699A60BB69BA68043213CA13C37B
S11307D012681A60BB699B681B021A0A3B6A1A6199
S11307E03B6AFA695A603B6ABA691A603B6A7A687A
S11307F05A613B6ABA681833183203CA03C3BA6829
S11308002023D15C3A6A2023D154BB69181CFFF71A
S113081043FF021C3B6A9A60BB681A7D7B691A70AD
S11308203B6A181CBD460BB090BDC046F0250000C5
S113083080B584B000AF78607B681B68FB60FB68A0
S11308409B68BB60BA68E223DB05134034D0FB68C5
S11308509B68802252041A43FB689A60BB681B029F
S11308601A0AFB689A60BA68E023DB05134019D0C2
S1130870FB68DA68124B1A40FB68DA607B68DA6856
S1130880B968E023DB050B401A437B68DA607B68B8
S1130890DB69002B10D07B68DA697B685B69181C04
S11308A0904709E07B689B69002B05D07B689A69B7
S11308B07B685B69181C9047BD4604B080BDC04688
S11308C0FFFFFFBF80B582B000AF054B1B687B60A4
S11308D07B68181CFFF7ACFFBD4602B080BDC04664
S11308E05CF0FF1F80B500AF01F04EFDBD4680BD3A
S11308F080B500AFFFBEBD4680BDC04680B500AF29
S11309004D4A4E494E4BD1504E4A88235B0100213B
S1130910D1504C4A4C4BC0218902D150494A4949D3
S11309204A4BCB58F82189011943484BD150484BC5
S11309309B78DBB21A1C0823134007D0444B444A6B
S11309409278D2B208210A43D2B29A703D4A3E4B01
S11309504049D1503B4A3B493F4BCB588021490247
S113096019433D4BD150374B364A1268C021090315
S11309700A431A60334A3349374BC958374B0B4043
S1130980802149041943344BD150354B344A916C7E
S1130990344A0A409A64324B314AD16C314A0A4093
S11309A0DA64314B24225A70304B80221A702E4B59
S11309B09A221A702C4B2C4AD278D1B21F220A40A8
S11309C0D2B2DA70284B01221A71274B00225A71D5
S11309D0C046254B9B79DBB21A1C10231340F8D177
S11309E0C046214B9B79DBB21A1C0C231340082B05
S11309F0F7D11D4B40225A71C0461B4B9B79DBB289
S1130A001A1C0C231340082BF7D1C046164B9B79B4
S1130A10DBB21A1C40231340F8D0134B1A221A706D
S1130A20C046114B9B79DBB21A1C0C2313400C2BD0
S1130A30F7D1BD4680BDC04600E000E000000000E4
S1130A40080D00000070044044100000381000003D
S1130A5000D007400000011004100000FFFFFFFC5D
S1130A6000900440FFF8FFFE00400640005006409E
S1130A7080B500AF414B414A1169414A0A40E02127
S1130A80C9000A431A613F4B3E4A5279D2B21F2130
S1130A908A43D2B25A713B4B3A4A1279D2B20721F5
S1130AA08A43D2B21A71384B374A1278D2B2D2B2D0
S1130AB073218A43D2B250210A43D2B2D2B21A70FD
S1130AC0314B314A5278D2B2D2B263218A43D2B284
S1130AD040210A43D2B2D2B25A702B4B2A4A92789E
S1130AE0D2B219218A43D2B29A70284B00221A70CA
S1130AF0274B274A5168224A0A408021C9000A43E9
S1130B005A60244A2349C4239B00C958224B1940E4
S1130B10C4239B00D150194B184A116D184A0A403E
S1130B20E021C9000A431A651A4A1A49C1239B00E5
S1130B30C9581A4B1940C1239B00D15000F03EFD07
S1130B40002000F02FF8002000F0F6F8144B9B680A
S1130B50181C00F025F9002000F09EF8104BDB680B
S1130B60181C00F0DBF8FFF7B5FC0020FFF76AFD66
S1130B700020FFF727FD62B6BD4680BD009004400B
S1130B80FFF8FFFE00F0074000D0074000E00740F8
S1130B9000C0044000E100E0FF00FFFFFFFF00FF92
S1130BA018F0FF1F80B584B000AF78602D4BFB6058
S1130BB0FB687A681A602C4B2B4A5269FF218A43DE
S1130BC05A612A4B294A1168294A0A40802149005E
S1130BD00A431A60254B254A5168254A0A40802158
S1130BE049000A435A60214B204A9168204A0A402E
S1130BF0802149000A439A601C4B1C4AD1681C4A54
S1130C000A40802149000A43DA60184B174A1169E7
S1130C10174A0A40802149000A431A61134B134AB8
S1130C205169134A0A40802149000A435A610F4B13
S1130C300E4A91690E4A0A40802149000A439A618A
S1130C400A4B0A4AD1690A4A0A40802149000A43E8
S1130C50DA61084BFA685A60FB68181CBD4604B098
S1130C6080BDC04664F0FF1F80F00F4000B0044018
S1130C70FFF8FFFE18F0FF1F80B584B000AF786066
S1130C80044B1A69FF231340FB60FB68181CBD4624
S1130C9004B080BD80F00FF880B584B000AF7860F8
S1130CA0114BFB60FB687A681A60104B0F4A52695B
S1130CB0802109030A435A610C4B0C4A11680C4AFF
S1130CC00A401A600B4B0B4AD16C0B4A0A40802134
S1130CD049000A43DA64094BFA68DA60FB68181CB5
S1130CE0BD4604B080BDC04668F0FF1F40F00F4011
S1130CF0FFFFF7FF00A00440FFF8FFFE18F0FF1FFE
S1130D0080B582B000AF7860034B802212039A60F2
S1130D10BD4602B080BDC04640F00FF880B582B039
S1130D2000AF7860034B802212035A60BD4602B0C4
S1130D3080BDC04640F00FF880B584B000AF786045
S1130D40114BFB60FB687A681A60104B0F4A5269BA
S1130D508021C9020A435A610C4B0C4A11680C4A9F
S1130D600A401A600B4B0B4A916C0B4A0A408021D3
S1130D7049000A439A64094BFA689A60FB68181C94
S1130D80BD4604B080BDC0466CF0FF1F40F00F406C
S1130D90FFFFFBFF00A00440FFF8FFFE18F0FF1F59
S1130DA080B582B000AF7860034B8022D2025A60D3
S1130DB0BD4602B080BDC04640F00FF880B582B099
S1130DC000AF7860034B8022D202DA60BD4602B0E5
S1130DD080BDC04640F00FF880B584B000AF7860A5
S1130DE0614BFB60FB6800221A81FB6800221A82B7
S1130DF0FB680022DA60FB6800225A82FB6800224A
S1130E001A83FB6800225A61FB687A68DA61574BDF
S1130E10FA681A60564A5649564BCB588021C90085
S1130E201943544BD150544B534A5168534A0A40C6
S1130E30802189000A435A604F4B4F4A91684F4AB8
S1130E400A40802189000A439A604D4A4C49C323D1
S1130E509B00CB58FF218B4380211943C3239B0064
S1130E60D150474B464A1268802149010A431A600F
S1130E70444B444AD278D2B208218A43D2B2DA70BF
S1130E80404B404AD278D2B204218A43D2B2DA70BB
S1130E90FB6800221A80FB6800225A60394B00224A
S1130EA09A70384B00229A71364B00229A72354B55
S1130EB000225A712E4A2E49334BC958334B0B40EA
S1130EC08021C9041943304BD1502E4B2D4A12783E
S1130ED0D2B21F218A43D2B21A702A4B68225A70A6
S1130EE0284B284A927AD2B2D2B21F218A43D2B274
S1130EF003210A43D2B2D2B29A72224B214AD27A45
S1130F00D2B2D2B202210A43D2B2D2B2DA721D4BA9
S1130F101C4AD278D2B2D2B208210A43D2B2D2B297
S1130F20DA70184B174AD278D2B2D2B204210A43EB
S1130F30D2B2D2B2DA70134B124AD278D2B2202192
S1130F400A43D2B2DA700F4B0E4A9279D2B20F2111
S1130F500A43D2B29A710E4BFA681A60FB68181CE5
S1130F60BD4604B080BDC04670F0FF1F90F0FF1F67
S1130F70007004403410000000900440FFF8FFFEAD
S1130F8000E100E000A0064004100000FFFFFFF3B2
S1130F9018F0FF1F80B586B000AFF860B960BB1DC4
S1130FA01A80FB687B61BB1D1B88002B01D1842345
S1130FB033E07B691B8A002B01D008232DE03B1C06
S1130FC01333EFF3108072B61870164B1B78DBB234
S1130FD00133DBB2134A191C1170012B04D13B1CE1
S1130FE013331A78104B1A707B69BA68DA607B691C
S1130FF0BA1D12881A827B6900221A81094B1B7858
S1131000DBB2013BDBB2074A191C1170002B03D180
S1131010054B187880F310880023181CBD4606B0D1
S113102080BDC04660F0FF1F3C2A002080B586B01A
S113103000AFF860B960BB1D1A80FB687B61BB1D03
S11310401B88002B01D1842348E07B691B8B002B78
S113105001D0082342E03B1C1333EFF3108072B637
S11310601870204B1B78DBB20133DBB21D4A191C0C
S11310701170012B04D13B1C13331A781A4B1A70CC
S11310807B69BA685A617B69BA1D12881A837B69C5
S113109000225A827B691B88012213439AB27B691E
S11310A01A80124B114AD278D2B2802149420A43A3
S11310B0D2B2DA700D4B0D4A9279D2B29A71094BC1
S11310C01B78DBB2013BDBB2064A191C1170002B02
S11310D003D1054B187880F310880023181CBD46F3
S11310E006B080BD60F0FF1F3C2A002000A006402F
S11310F090B583B000AF7860124BDB79DBB21C1C77
S11311007B681B8A002B1AD07B68DB68E2B21A70FA
S11311105A1C7B68DA607B681B8901339AB27B684E
S11311201A817B681A897B681B8A9A4207D17B687B
S113113000221A827B68DB69181C00F071FABD4634
S113114003B090BD00A0064080B582B000AF7860C7
S11311507B685A8A7B681B8B9A421CD2194A7B682B
S11311605B691978D1715A1C7B685A617B685B8A08
S113117001339AB27B685A827B685A8A7B681B8BDC
S11311809A421CD17B6800221A837B68DB69181C95
S113119000F086FA13E00B4B0A4AD278D1B27F22D0
S11311A00A40D2B2DA70074B064A9279D2B29A71E7
S11311B07B681B88012293439AB27B681A80BD46E0
S11311C002B080BD00A00640F0B5474680B482B0AE
S11311D000AF3A4B1B687B60394B1B79DBB21C1C9C
S11311E000250026221C0F2313404BD0344B0F2222
S11311F01A71334BDB79DBB29846221C022313406D
S113120013D0221C202313400CD04246002A09D1BB
S1131210731CDEB27B681B88022213439AB27B687C
S11312201A8002E004232B439DB2221C082313409E
S113123002D001232B439DB2221C0123134002D070
S113124002232B439DB2221C0423134002D0082303
S11312502B439DB27B685A682B1C1A437B685A60E7
S11312602023221C9A43131C9CB2002E05D07B68B9
S1131270DB69181C00F0A0FA04E07B68DB69181C29
S113128000F052FA221C2023134003D07B68181C60
S1131290FFF72EFF7B681B881A1C0123134007D01D
S11312A0221C8023134003D07B68181CFFF74CFFDB
S11312B0BD4602B004BC9046F0BDC04690F0FF1F8E
S11312C000A0064080B584B000AF786039607B68C8
S11312D0FB603B1C0B33EFF3108072B61870144B99
S11312E01B78DBB20133DBB2114A191C1170012BDC
S11312F004D13B1C0B331A780E4B1A70FB685A68E6
S11313003B681A60FB6800225A60094B1B78DBB209
S1131310013BDBB2064A191C1170002B03D1054BAB
S1131320187880F310880023181CBD4604B080BDD3
S113133060F0FF1F3C2A002080B500AF044B1A6800
S1131340044B101C191C0122FFF724FEBD4680BD6E
S1131350402A0020DCF0FF1F80B584B000AF786025
S11313603B1C0F3300221A702D4B1B88002B4ED0D0
S11313703B1C0E33EFF3108072B61870294B1B78A8
S1131380DBB20133DBB2274A191C1170012B04D1E3
S11313903B1C0E331A78244B1A70214B1B88013BDB
S11313A09AB21F4B1A80214B1B881A1C2049895C56
S11313B07A68117001339AB21C4B1A801B4B1B883C
S11313C03F2B02D9194B00221A801A4B1B881A1C76
S11313D0194B134001D0192300E000233A1C0F32AB
S11313E01370144B1A88154B13409AB2114B1A8080
S11313F00C4B1B78DBB2013BDBB20A4A191C11709F
S1131400002B06D1084B187880F3108801E00A23DA
S113141002E03B1C0F331B78181CBD4604B080BD92
S113142096F0FF1F60F0FF1F3C2A002098F0FF1F7A
S11314309CF0FF1F94F0FF1F41080000B6F7FFFF68
S113144080B584B000AF021CFB1D1A70304B1A88A3
S113145080235B009A4201D10B2354E03B1C0F33E1
S1131460EFF3108072B618702A4B1B78DBB201338D
S1131470DBB2284A191C1170012B04D13B1C0F3319
S11314801A78254B1A70224B1B8801339AB2204BD1
S11314901A80224B1B881A1C2149F81D0078885495
S11314A001339AB21D4B1A801C4B1B88FF2B02D9A7
S11314B01A4B00221A801B4B1B881A1C2023134032
S11314C012D1184B1B88202213439AB2154B1A8051
S11314D0154B1A68154B1B88191C114BCB18101C83
S11314E0191C0122FFF7A2FD0A4B1B78DBB2013B5A
S11314F0DBB2084A191C1170002B03D1064B187873
S113150080F310880023181CBD4604B080BDC0467B
S1131510DEF0FF1F60F0FF1F3C2A0020E2F0FF1FF7
S1131520E4F0FF1F94F0FF1F402A0020E0F0FF1FAB
S113153080B582B000AFFB1DEFF3108072B6187057
S1131540144B1B78DBB20133DBB2124A191C117045
S1131550012B03D1FB1D1A780F4B1A700F4B00227D
S11315601A800F4B00221A800E4B00221A80094B5E
S11315701B78DBB2013BDBB2064A191C1170002B4D
S113158003D1054B187880F310880023181CBD463E
S113159002B080BD60F0FF1F3C2A0020DEF0FF1F78
S11315A0E2F0FF1FE0F0FF1F80B500AF024B1B8885
S11315B0181CBD4680BDC04696F0FF1F80B500AF25
S11315C00F4B00221A800F4B00221A800E4B002270
S11315D01A800E4B00221A800D4B00221A800D4BEC
S11315E000221A800C4B00221A800020FFF7F4FB23
S11315F0021C0A4B1A60FFF79FFEBD4680BDC04621
S113160094F0FF1F96F0FF1F98F0FF1F9AF0FF1F42
S1131610DEF0FF1FE0F0FF1FE2F0FF1F402A002072
S113162080B582B000AF7860174B1B883F2B18D869
S1131630154B1B8801339AB2134B1A80134B1B882A
S11316401A1C134908781349885401339AB20F4B72
S11316501A800E4B1B883F2B0AD90C4B00221A8090
S113166006E00D4B1B88402213439AB20A4B1A80A2
S11316700A4B1A68064B101C191C0122FFF78AFC3E
S1131680BD4602B080BDC04696F0FF1F9AF0FF1F12
S1131690DCF0FF1F9CF0FF1F94F0FF1F402A002086
S11316A080B582B000AF78601A4B1B8801339AB2C0
S11316B0184B1A80174B1B88FF2B02D9154B00229D
S11316C01A80154B1B88013B9AB2134B1A80124B9C
S11316D01B88002B13D0114B1B88202213439AB272
S11316E00E4B1A800E4B1A680A4B1B88191C0D4BA3
S11316F0CB18101C191C0122FFF798FC06E0074BBD
S11317001A88DF2313409AB2044B1A80BD4602B0F4
S113171080BDC046E0F0FF1FDEF0FF1F94F0FF1F06
S1131720402A0020E4F0FF1F80B584B000AF786049
S11317301F4B1A683B1C0C33101C191CFFF7C2FD0D
S1131740FB68002B31D0FA680223134001D0042334
S113175000E00023174A128813439AB2154B1A80EB
S1131760FA680823134001D0802300E00023114AC3
S1131770128813439AB20F4B1A80FB689AB2012362
S113178013409AB20B4B1B8813439AB2094B1A802D
S1131790FA680423134001D0022300E00023054A21
S11317A0128813439AB2034B1A80BD4604B080BD1D
S11317B0402A002094F0FF1F80B582B000AF78600B
S11317C0044B1B88022213439AB2024B1A80BD4673
S11317D002B080BD94F0FF1F80B500AF054A064BF0
S11317E0D31A054A101C00211A1C00F0F7FDBD464F
S11317F080BDC046442A002004F0FF1F00F0BEFE56
S1131800FFF77CF8FFF7E8FF00F090FE00F02CFEF5
S113181000F0C2FE044B0020191C00F00DF8031C5C
S1131820181C00F0BFFDC046E4F1FF1F80B582B074
S113183000AF7860FEE7C04680B500AFFFF718F947
S113184000F098FDFEE7C04680B500AF3E4B3E4A2F
S11318501278D2B2D2B2802149420A43D2B2D2B271
S11318601A70394B384A1278D2B240218A43D2B224
S11318701A70354B344A1278D2B2D2B23F218A431D
S1131880D2B219210A43D2B2D2B21A702F4A80239B
S11318905B002F49D1502D4A2C4986235B00C9583F
S11318A02C4B194086235B00D150284A27498623B4
S11318B05B00C958284B194086235B00D150234A4A
S11318C0224986235B00C958244B0B4080214903DD
S11318D0194386235B00D1501C4A214982235B00B3
S11318E0D1501A4A194986235B00C9581D4B194027
S11318F086235B00D150154A144986235B00CB58DC
S113190080210903194386235B00D1500F4A0F49F4
S113191086235B00C958144B0B408021890219436C
S113192086235B00D150094A084986235B00CB58C3
S113193080210906194386235B00D150034A86237C
S11319405B00D358BD4680BD0010024000800040BB
S113195090F00F40FF0FFFFFFFFFBFFFFFFFCFFF20
S113196020F2FF1FFFF0FFFFFFFFF9FF80B500AF7C
S1131970074B64229A60064B32229A61044B044A54
S1131980526981218A4301210A435A61BD4680BDBF
S11319900080034080B582B000AF7860044B7A6861
S11319A09A60034B7A6852089A61BD4602B080BDC2
S11319B00080034080B500AF0F4A104982235B00CA
S11319C0D1500D4A0C4984235B00CB585B0E590659
S11319D00B4B1B68194384235B00D150064A06490C
S11319E086235B00CB588021C905194386235B00FD
S11319F0D150BD4680BDC0460080004020F2FF1F8C
S1131A0000F0FF1F80B500AF024B01221A70BD46E3
S1131A1080BDC046202A002080B582B000AF021CE1
S1131A20FB1D1A70C046FB1D1B78181CFFF708FD30
S1131A30031C002BF7D1BD4602B080BD80B582B037
S1131A4000AF786007E07B681B78181CFFF7E4FFA1
S1131A507B6801337B607B681B78002BF3D1BD4628
S1131A6002B080BD80B582B000AF021C3960FB1D9E
S1131A701A70FB1D1B78181CFFF7CEFF3B681B0E6A
S1131A80DBB2181CFFF7C8FF3B681B0CDBB2181C49
S1131A90FFF7C2FF3B681B0ADBB2181CFFF7BCFF51
S1131AA03B68DBB2181CFFF7B7FFBD4602B080BD30
S1131AB080B582B000AF0A1CFB1D011C1970BB1D50
S1131AC01A70FB1D1B78181CFFF7A6FFBB1D1B78A3
S1131AD0181CFFF7A1FFBD4602B080BD80B582B0DF
S1131AE000AFFFF725FD00237B600AE0094A7B680D
S1131AF0D3181B78DBB2181CFFF78EFF7B68013309
S1131B007B607A68044B1B689A42EFD3BD4602B0EF
S1131B1080BDC04620F2FF1F00F0FF1F80B584B0D7
S1131B2000AF78607B68632B39D00CD80B2B3FD087
S1131B3004D8032B42D0072B3DD042E0182B34D0DD
S1131B40312B2FD03DE0244A93421ED0224A9342A7
S1131B5005D8C72B20D0214A93421AD031E0204A1D
S1131B6093420AD01F4A934203D01F4A934208D09B
S1131B7027E096235B01FB6026E0F023DB00FB609B
S1131B8022E0F0239B00FB601EE0F0235B00FB607F
S1131B901AE0C023FB6017E06023FB6014E03023ED
S1131BA0FB6011E01823FB600EE00C23FB600BE0EC
S1131BB00623FB6008E00423FB6005E00223FB60CE
S1131BC002E03023FB60C046FB68013B181CFFF7B2
S1131BD0E1FEBD4604B080BDE70300008F010000B4
S1131BE09F0F00000F270000CF07000080B582B0D0
S1131BF000AFC046FB1D181CFFF7AEFB031C002BF7
S1131C00F8D1FB1D1B78181CBD4602B080BDC04630
S1131C1090B587B000AF3B1C173300221A703B1CF1
S1131C20163300221A7000233B61C64B00221A604F
S1131C30C44B00225A60C34B00229A60C14B00225D
S1131C40DA60C04B00221A61BE4B00225A61BD4BC0
S1131C5000229A61BB4B0022DA61BA4B00221A625D
S1131C60B84B00225A62B74B00229A62B54B00224D
S1131C70DA626320FFF752FFB34BFB6000E0C0461B
S1131C803B6901333B613A69FB689A420BD93B1CBF
S1131C9017331B78002B04D1AC4B9B68181CFFF73F
S1131CA08DF800233B61AA4B1B78DBB2002B16D0C6
S1131CB0A74B00221A703B1C173300221A703B1CDE
S1131CC0163300221A70FFF709FFA04B9B68181CFB
S1131CD0FFF766F89D4BDB68181CFFF71FF8FFF74A
S1131CE063FC031C002BCAD03C1C0B34FFF77EFFA3
S1131CF0031C23703B1C0B331B78C22B00D138E22E
S1131D001CDC802B00D1C8E20CDC012B4ED002DCA1
S1131D10002B35D029E3022B00D1B4E0042B00D1F1
S1131D20B6E022E3822B00D1FAE200DACEE2C02B45
S1131D3000D1E2E0C12B00D187E116E3C92B00D129
S1131D40CDE10EDCC52B00D1A4E103DCC42B00D112
S1131D500CE10AE3C62B00D130E2C82B00D12AE102
S1131D6003E3CC2B00D14BE103DCCA2B00D14AE2C4
S1131D70FBE2CD2B00D1D7E1CE2B00D168E2F4E217
S1131D80734B00221A703B1C173300221A703B1C41
S1131D90163300221A706D4B9B68181CFFF700F86D
S1131DA06A4BDB68181CFEF7B9FFDFE2694BE022DF
S1131DB092011A60664B00221A703B1C17330122F1
S1131DC01A70604B1B68002B0BD1604B9B68181C6E
S1131DD0FEF7E6FF3B1C163301221A70FFF7EAFDFB
S1131DE0C4E25A4B9B68181CFEF7DAFF574BDB68BA
S1131DF0181CFEF785FF3FE0544B5B68181CFEF788
S1131E003BFF031CDBB27B603B1C16331B78002BAF
S1131E1017D14C4B1B68002B13D04A4B1B687A68B4
S1131E201A40484B5B689A420BD1484BDB68181C3C
S1131E30FEF774FF3B1C163301221A70FFF7BAFD3C
S1131E4020E0FFF7B1FB031C002B15D0FFF7CEFEFB
S1131E50031C002B10D13E4B00221A703B1C17337D
S1131E6000221A703B1C163300221A70374BDB68B1
S1131E70181CFEF753FF05E03B1C16331B78002BA0
S1131E80BAD073E272E2344B181CFFF7D7FD6DE24F
S1131E900120FFF7C1FD314B181CFFF7CFFD0020D7
S1131EA0FFF7BAFD0220FFF7B7FD2D4B181CFFF713
S1131EB0C5FD0020FFF7B0FD0320FFF7ADFD294B62
S1131EC0181CFFF7BBFD0020FFF7A6FDE0239B01D4
S1131ED02120191CFFF7C6FD234B2320191CFFF7F3
S1131EE0C1FD40200821FFF7E3FD41200221FFF757
S1131EF0DFFD0020FFF790FD38E2FFF777FE031CBB
S1131F001A1C104B1A600F4B1C68FFF76FFE031C62
S1131F101B02221C1A430B4B1A600A4B1C68FFF766
S1131F2065FE031C1B04221C1A43064B1A60054B56
S1131F301C68FFF75BFE031C1B06221C1A43014BA3
S1131F401A6013E2E8F1FF1F90D0030018F0FF1F9E
S1131F50202A002000F0FF1F9C250000A42500007B
S1131F60BC250000C425000000366E01FFF73EFECC
S1131F70031C1A1CE84BDA60E74BDC68FFF736FEFB
S1131F80031C1B02221C1A43E34BDA60E24BDC689D
S1131F90FFF72CFE031C1B04221C1A43DE4BDA60E1
S1131FA0DD4BDC68FFF722FE031C1B06221C1A43D0
S1131FB0D94BDA60DAE1FFF719FE031C1A1CD64B81
S1131FC09A61D54B9C69FFF711FE031C1B02221C6E
S1131FD01A43D14B9A61D04B9C69FFF707FE031C4F
S1131FE01B04221C1A43CC4B9A61CB4B9C69FFF710
S1131FF0FDFD031C1B06221C1A43C74B9A61B5E165
S1132000FFF7F4FD031C1A1CC34B5A62C24B5C6AF3
S1132010FFF7ECFD031C1B02221C1A43BE4B5A6241
S1132020BD4B5C6AFFF7E2FD031C1B04221C1A4330
S1132030B94B5A62B84B5C6AFFF7D8FD031C1B0608
S1132040221C1A43B44B5A6290E1FFF7CFFD031CE4
S11320501A1CB14B5A60B04B5C68FFF7C7FD031CF8
S11320601B02221C1A43AC4B5A60AB4B5C68FFF753
S1132070BDFD031C1B04221C1A43A74B5A60A64B2C
S11320805C68FFF7B3FD031C1B06221C1A43A24B1A
S11320905A606BE1FFF7AAFD031C1A1C9E4B1A61E0
S11320A09D4B1C69FFF7A2FD031C1B02221C1A4353
S11320B0994B1A61984B1C69FFF798FD031C1B048C
S11320C0221C1A43944B1A61934B1C69FFF78EFD33
S11320D0031C1B06221C1A438F4B1A6146E1FFF7AF
S11320E085FD031C1A1C8C4BDA618B4BDC69FFF7F2
S11320F07DFD031C1B02221C1A43874BDA61864BAD
S1132100DC69FFF773FD031C1B04221C1A43824B7A
S1132110DA61814BDC69FFF769FD031C1B06221C95
S11321201A437D4BDA6121E1FFF760FD031C1A1CA1
S1132130794B9A62784B9C6AFFF758FD031C1B028B
S1132140221C1A43744B9A62734B9C6AFFF74EFD30
S1132150031C1B04221C1A436F4B9A626E4B9C6A2D
S1132160FFF744FD031C1B06221C1A436A4B9A62A8
S1132170FCE0FFF73BFD031C1A1C674B9A60664B9F
S11321809C68FFF733FD031C1B02221C1A43624B9D
S11321909A60614B9C68FFF729FD031C1B04221CF9
S11321A01A435D4B9A605C4B9C68FFF71FFD031C50
S11321B01B06221C1A43584B9A60D7E0FFF716FD02
S11321C0031C1A1C544B5A61534B5C69FFF70EFDF8
S11321D0031C1B02221C1A434F4B5A614E4B5C6971
S11321E0FFF704FD031C1B04221C1A434A4B5A61CB
S11321F0494B5C69FFF7FAFC031C1B06221C1A43BB
S1132200454B5A61B2E0FFF7F1FC031C1A1C424B28
S11322101A62414B1C6AFFF7E9FC031C1B02221CD7
S11322201A433D4B1A623C4B1C6AFFF7DFFC031C4C
S11322301B04221C1A43384B1A62374B1C6AFFF7E3
S1132240D5FC031C1B06221C1A43334B1A628DE077
S1132250FFF7CCFC031C1A1C2F4BDA622E4BDC6AF2
S1132260FFF7C4FC031C1B02221C1A432A4BDA622C
S1132270294BDC6AFFF7BAFC031C1B04221C1A431B
S1132280254BDA62244BDC6AFFF7B0FC031C1B0607
S1132290221C1A43204BDA6268E0FFF7A7FC031CF8
S11322A03B60FFF7A3FC031C1B023A6813433B602B
S11322B0FFF79CFC031C1B043A6813433B60FFF7C5
S11322C095FC3B68181CFFF729FC4FE0FFF78EFCD8
S11322D0031C1A1C114B1A60FFF788FC031C1B0219
S11322E01A1C0E4B1B681A430C4B1A60FFF77EFC3A
S11322F0031C1B041A1C094B1B681A43074B1A6066
S1132300FFF774FC031C1B061A1C044B1B681A43BE
S1132310024B1A602AE0C046E8F1FF1F18F2FF1FC3
S1132320FFF764FC031C1A1C114B1A60FFF75EFCD8
S1132330031C1B021A1C0E4B1B681A430C4B1A601D
S1132340FFF754FC031C1B041A1C094B1B681A439B
S1132350074B1A60FFF74AFC031C1B061A1C044BAC
S11323601B681A43024B1A6000E0C04687E4C0466B
S11323701CF2FF1F80B500AFFFF7F8FAFFF764FA0D
S1132380FFF746FCFCE7C04680B500AFBD4680BD04
S113239080B582B000AF7860FFF734FBBD4602B071
S11323A080BDC04638B5051C00F0DAF800F080F8AE
S11323B0084C2368002B02D0984700202060064C6C
S11323C02168002902D0884700222260281CFFF7D8
S11323D02DFA38BD242A0020282A002010B5041C18
S11323E000F002F8201C10BD30B5C9B2031C1F2A2E
S11323F031D944420323234005D0D21AC5180170B1
S11324000130A842FBD1002905D00D060C042C4351
S11324100B02214319435409031C002C0ED0251C24
S1132420013D196059609960D960196159619961D8
S1132430D9612033002DF3D16301C318D006400FB6
S113244007D0041C1D1C013C02C5002CFBD18000DC
S11324501B18032422409D18002A03D0197001334D
S1132460AB42FBD130BD000010B50B4C0B4B9C4272
S113247002D001CC8047F9E7094C0A48844202D0D3
S113248008CC9847F9E7084C08498C4202D004CCA0
S11324909047F9E710BDC0460C2600000C2600004A
S11324A00C2600000C2600000C2600000C26000060
S11324B010B5084C084B9C4202D004CC9047F9E775
S11324C0064C0748844203D0043C21688847F8E757
S11324D010BDC0460C2600000C2600000C2600008F
S11324E00C26000000B588421FD0002A1DD003230B
S11324F0194207D1184205D19A4203D908C9043AAE
S113250008C0F2E70123194209D1184207D19A42BF
S113251005D90B88023A038002310230E5E70B78D3
S1132520013A037001310130DFE700BD38B50B4DCE
S1132530002D11D000242B191968002906D02B195D
S113254058689A68FFF7CEFF0C34F4E75A68002AFB
S1132550F5D198680028F2D138BDC0461026000095
S1132560054B10B51C68002C04D0A068616888472E
S11325702468F8E710BDC046382A0020054B181C13
S1132580002805D0854681B00020C043009001B0EA
S1132590F746704700300020F746704731414C53EE
S11325A0000000004652444D2D4B4C32355A204C0D
S11325B06F6769634C6F67676572000056322E312E
S11325C00000000056322E30000000000000000021
S11325D000000000000000000100000080001AA0BC
S11325E09900000091230000000000000100000099
S11325F000000000008100400010024004000000C0
S10F2600010000000200000000000000C7
S107260C003800008E
S11326100C26000000F0FF1F040000000000000072
S10B26200000000000000000AE
S90317FDE8
