S01E000074696E794B32325F4B424F4F545F6C65645F64656D6F2E737265631D
S11300000016FF1FD9040000450500004505000047
S113001045050000450500004505000000000000FE
S11300200000000000000000000000004505000082
S1130030450500000000000045050000F908000027
S11300404505000045050000450500004505000084
S11300504505000045050000450500004505000074
S11300604505000045050000450500004505000064
S11300704505000045050000450500004505000054
S11303C06B636667FFFFFFFFFFFFFFFFFFFFFFFF9A
S11303D0FFFF8813FFFFFFFFFFFFFFFFFFFFFFFF8C
S11303E0FFFFFFFFFFFFFFFFFFFFFFFFFFFFFFFF19
S11303F0FFFFFFFFFFFFFFFFFFFFFFFFFFFFFFFF09
S1130400FFFFFFFFFFFFFFFFFFFFFFFFFEFFFFFFF9
S113041010B5054C237833B9044B13B10448AFF33A
S113042000800123237010BD6804FF1F000000003A
S11304309C09000008B5064B1BB106480649AFF3FA
S113044000800648036813B1054B03B1984708BD03
S1130450000000009C0900006C04FF1F6404FF1FDF
S113046000000000154B002B08BF134B9D46A3F55D
S1130470803A00218B460F461348144A121A00F0A2
S11304807FFA0F4B002B00D098470E4B002B00D067
S113049098470020002104000D000D48002802D0D8
S11304A00C48AFF3008000F045FA2000290000F06A
S11304B081F900F02BFA00BF000008000016FF1FAE
S11304C000000000000000006804FF1F8804FF1FF4
S11304D0000000000000000072B60E480E4988605B
S11304E00E4A0E4B0D4C0D4D0C4E0C4FB846B946F2
S11304F0BA46BB46BC460A4885460A4880470A486D
S113050080470A48804762B604480449084A90472D
S1130510FFF7FEBF0000000000ED00E00000000057
S11305200016FF1FAD060000090600009D0600002E
S1130530B507000072B600F0B9F800F065F862B6CD
S1130540FFF790FFFFF7FEBF80B400AF154B4FF0ED
S1130550FF32C3F88020134B4FF0FF32C3F88420DE
S1130560104B4FF0FF32C3F888200E4B4FF0FF3290
S1130570C3F88C200B4B4FF0FF32C3F89020094B8B
S11305804FF0FF32C3F89420064B4FF0FF32C3F80C
S11305909820044B4FF0FF32C3F89C20BD465DF811
S11305A0047B704700E100E080B400AF154B4FF0CE
S11305B0FF32C3F88021134B4FF0FF32C3F884217C
S11305C0104B4FF0FF32C3F888210E4B4FF0FF322F
S11305D0C3F88C210B4B4FF0FF32C3F89021094B29
S11305E04FF0FF32C3F89421064B4FF0FF32C3F8AB
S11305F09821044B4FF0FF32C3F89C21BD465DF8AF
S1130600047B704700E100E080B487B000AF1C4B6E
S11306101C4A9A601C4B7B611C4B3B611C4B7B60EE
S11306207A683B69D31ABB607A693B699A420ED0F7
S11306300AE07B695A1C7A613A69511C3961127863
S11306401A70BB68013BBB60BB68002BF1D1114B36
S1130650FB60114B3B603A68FB68D31ABB6007E050
S1130660FB685A1CFA6000221A70BB68013BBB602D
S1130670BB68002BF4D11C37BD465DF8047B704782
S113068000ED00E0000000000004FF1FC4090000AA
S11306902C0A00006804FF1F8804FF1F80B500AF08
S11306A0FFF752FFFFF780FF80BD00BF80B400AFAB
S11306B00B4B0B4AD2F8882042F47002C3F888200E
S11306C0084B4CF22052DA81064B4DF62812DA819F
S11306D0044B4FF4E9721A80BD465DF8047B704701
S11306E000ED00E00020054080B483B000AF1A495B
S11306F0194B03F5815318331B6843F4785201F501
S1130700815318331A601449134B03F5805304338F
S11307101B6843F4403201F5805304331A6000230C
S1130720FB7111E00D4B02224FF4807143F822104B
S11307300B4B0B4A51690222012000FA02F20A43D0
S11307405A61FB790133FB71FB79002BEAD00C373A
S1130750BD465DF8047B70470070044000B004405F
S113076080F00F4080B483B000AF7860064B064A37
S1130770D1680222012000FA02F20A43DA600C373F
S1130780BD465DF8047B704780F00F4080B483B0B1
S113079000AF7860064B064A51680222012000FA35
S11307A002F20A435A600C37BD465DF8047B704779
S11307B080F00F4080B500AFFFF796FF00F080F89F
S11307C00020FFF7E3FF0020FFF7CCFF4FF47A701F
S11307D000F082F8F7E700BF80B483B000AF0346AF
S11307E03960FB7197F90730002B0BDA0D49FB795F
S11307F003F00F03043B3A68D2B21201D2B20B44A5
S11308001A7609E0084997F907303A68D2B212011A
S1130810D2B20B4483F800230C37BD465DF8047B49
S1130820704700BF00ED00E000E100E080B582B059
S113083000AF78607B68013BB3F1807F01D3012373
S11308400FE00A4B7A68013A5A604FF0FF300F21EB
S1130850FFF7C2FF054B00229A60044B07221A607F
S1130860002318460837BD4680BD00BF10E000E0F5
S113087080B400AF034B1B681846BD465DF8047B8B
S1130880704700BF8404FF1F80B483B000AF78605A
S1130890034B7A681A600C37BD465DF8047B7047D9
S11308A08404FF1F80B400AF044B1B685A1E034B23
S11308B01A60BD465DF8047B704700BF8404FF1FC7
S11308C080B500AF034B1B689B0A1846FFF7AEFFC9
S11308D080BD00BF0004FF1F80B582B000AF786008
S11308E07868FFF7D1FF00BFFFF7C2FF0346002B74
S11308F0FAD10837BD4680BD80B500AFFFF7B8FF19
S11309000346002B01D0FFF7CDFF80BD08B5074B90
S1130910044613B10021AFF30080054B1868836AC5
S113092003B19847204600F033F800BF00000000F0
S11309309809000070B50E4B0E4DED1AAD10002451
S11309401E46AC4204D056F8242090470134F8E700
S113095000F024F8084D094BED1AAD1000241E4692
S1130960AC4204D056F8242090470134F8E770BD17
S1130970BC090000BC090000C0090000BC0900005B
S113098002440346934202D003F8011BFAE770477E
S1130990FEE700BF430000000404FF1FF8B500BFDA
S11309A0F8BC08BC9E467047F8B500BFF8BC08BC4C
S10709B09E467047A4
S10B09B4B0FAFF7F010000000E
S10709BC35040000FA
S10709C0110400001A
S11309C400004001000000000000000000000000DE
S11309D4000000000000000000000000000000000F
S11309E40000000094090000000000000000000062
S11309F400000000000000000000000000000000EF
S1130A0400000000000000000000000000000000DE
S1130A1400000000000000000000000000000000CE
S10B0A240000000000000000C6
S90304D91F
