S3150000000030F5FF1F61060000690600006B06000060
S315000000106D0600006F06000071060000000000007B
S315000000200000000000000000000000007505000050
S315000000307506000000000000FD0500004D060000EA
S315000000407B0600007B0600007B0600007B060000A6
S315000000507B0600007B0600007B0600007B06000096
S315000000607B0600007B0600007B0600007B06000086
S315000000707B0600007B0600007B0600007B06000076
S315000000807B0600007B0600007B0600007B06000066
S315000000907B0600007B0600007B0600007B06000056
S315000000A07B0600007B0600007B0600007B06000046
S315000000B07B0600007B0600007B0600007B06000036
S315000000C07B0600007B0600007B060000F717000099
S315000000D07B0600007B0600007B0600007B06000016
S315000000E07B0600007B0600007B0600007B06000006
S315000000F07B0600007B0600007B0600007B060000F6
S315000001007B0600007B0600007B0600007B060000E5
S31500000400FFFFFFFFFFFFFFFFFFFFFFFFFEFDFFFFF9
S3150000041000F002F800F068F80AA090E8000C8244A8
S315000004208344AAF10107DA4501D100F05DF8AFF285
S31500000430090EBAE80F0013F0010F18BFFB1A43F0BC
S3150000044001031847D0440000104500000A444FF04D
S31500000450000C10F8013B13F0070408BF10F8014B1D
S315000004601D1108BF10F8015B641E05D010F8016B62
S31500000470641E01F8016BF9D113F0080F1EBF10F8C6
S31500000480014BAD1C0C1B09D16D1E58BF01F801CBE9
S31500000490FAD505E014F8016B01F8016B6D1EF9D56C
S315000004A09142D6D370470000103A24BF78C878C16D
S315000004B0FAD8520724BF30C830C144BF04680C6064
S315000004C0704700000023002400250026103A28BFAC
S315000004D078C1FBD8520728BF30C148BF0B607047B0
S315000004E01FB51FBD10B510BD03F044FB1146FFF745
S315000004F0F7FF00F0EFF903F062FB03B4FFF7F2FF3A
S3150000050003BC03F063FB00008546084780F30988B7
S315000005107047EFF309807047684680F309880448FE
S315000005200078C00714BF0220032080F314887047A8
S315000005300C410000DFF818C0EFF305831B0618BF57
S315000005406047EFF31483DB0708BF604700DF70479F
S315000005507B300000DFF818C0EFF305831B0618BFD9
S315000005606047EFF31483DB0708BF604700DF70477F
S31500000570B3300000EFF30980816911F8021C39BB22
S3150000058090E80F10E047EFF3098C194B93E806004B
S31500000590914218D059B10CB44FF0010381F82130C3
S315000005A02CE9F00FC1F824C002F091FF0CBC1A60D0
S315000005B0D2F824C0BCE8F00F92F821308CF30988F9
S315000005C01BB192F82000CCF800006FF0020E7047C5
S315000005D010B5084A1268914209D8074C54F82140D0
S315000005E090E80F10A047EFF3098C8CE80F0010BDC0
S315000005F054E0FF1FDC3B0000DC3B000002F006FF7E
S31500000600114B93E8060091421BD00CB44FF0000347
S3150000061081F82130EFF3098C2CE9F00FC1F824C0E2
S3150000062002F055FF0CBC1A60D2F824C0BCE8F00FEB
S315000006308CF3098892F821301BB192F82030CCF85F
S3150000064000306FF0020E704754E0FF1F02F026FFE5
S31500000650D6E7000002F021FF02F020FFD0E70000FD
S315000006600948804709480047FEE7FEE7FEE7FEE740
S31500000670FEE7FEE7FEE7FEE7FEE7FEE7044805497C
S31500000680054A064B70470000A10600001104000051
S3150000069030F2FF1F30F5FF1F30F3FF1F30F3FF1F4F
S315000006A059484CF22051C1814DF62811C1814FF4B1
S315000006B0E971018055494FF4881048645448002177
S315000006C0017054480173242242709A220270C27843
S315000006D002F01F02C27003220271417181798907FB
S315000006E0FCD58179C1F381010229FAD10271402139
S315000006F0417181798906FCD581794906FCD51A2193
S3150000070001708179C1F381010329FAD18179490602
S31500000710FCD5704730B53F4908783F4B84094FF404
S3150000072000404FF001020FD00C78B2EB941F58D165
S315000007304B78DB075ED0087A3849C0F3420002FAEC
S3150000074000F0B1FBF0F055E04C7964063ED40C782D
S31500000750640710D40C7BE40700D118460B78C3F36A
S31500000760C20302FA03F3DBB2B0FBF3F04B7813F0EB
S31500000770300F00D04009C97801F0E00111F01F0FD9
S3150000078038D14911082935D2DFE801F004070B0FEB
S3150000079013171A1D00EB800005E000EB8000000235
S315000007A028E0C0EB0010C00124E000EB800040020E
S315000007B020E04FF4377148431CE04FF4B761FAE785
S315000007C040F69501F7E740F67131F4E70879497983
S315000007D000F01F00401CB3FBF0F001F01F011831C0
S315000007E0E9E70C780225B5EB941F0BD1097BC90705
S315000007F000D118460549496C02EB1171B0FBF1F0C6
S315000008000749086030BD0000002005400080044014
S31500000810005006400040064000127A0000093D00E4
S3150000082000E0FF1F00F0C9BD00F0D3BD35490968DF
S3150000083008B1012000E0022002F066B9002464201D
S31500000840DFF8C4C000DF204600F0F7FD24B1002425
S31500000850DFF8B8C000DFF6E70124F9E70024DFF887
S31500000860B0C000DF274E00231A460F213060AFF2DA
S315000008703300DFF8A0C000DF706000F0DEFC01F09E
S31500000880DDF9012001F0E6F900224FF6FF710320A1
S31500000890DFF884C000DFC820DFF880C000DF00205A
S315000008A001F0D8F9DFF878C000DFC00701D00A25CB
S315000008B000E03225DFF86CC0706800DF204600F0EB
S315000008C0BBFD2CB100242846DFF850C000DFF5E759
S315000008D00124F8E710B500F093FD00F0C4FD40B91F
S315000008E0FFF71AFE00221146AFF28F00DFF838C07C
S315000008F000DF01F02DF84FF4A04003C8FFF704FE17
S31500000900002010BD04E0FF1FB9380000C938000000
S31500000910EF3500006B360000612A0000B338000096
S315000009202B2B0000D73600005B370000FEE7704730
S31500000930FEE77047704710B502F059FE30B117490F
S3150000094000EB400001EB4010603810BD144810BDAC
S31500000950144910B50246086800B1FEE71248106057
S3150000096001220A6002F0B6FB012010BD10B5044654
S3150000097002F03DFE002805D04FF6FF71DFF82CC0CF
S31500000980206800DF10BD10B5044602F030FE0028D6
S3150000099003D0DFF81CC0206800DF10BD8C0E0020DD
S315000009A0901500200CE0FF1FCC1000208B310000BA
S315000009B0E530000000207047002070470020704797
S315000009C000207047002070470020704700207047C5
S315000009D000207047002070470020704700207047B5
S315000009E000207047002070470020704700207047A5
S315000009F0002902D0DFF888C000DF7047DFF884C026
S31500000A0000DF70470022DFF880C000DF704700F08B
S31500000A10C4BA2DE9F0411D4C1D4F002525603868EC
S31500000A2038B100231A4603211A48DFF86CC000DFEC
S31500000A302060DFF85CE0194E00240EF1080E00BFBE
S31500000A4046F824505EF8240038B100231A460221E5
S31500000A50DFF844C000DF46F82400641C0F2CEFD9F1
S31500000A600F4C25607868002807D000231A4602211B
S31500000A700C48DFF824C000DF2060BDE8F0810000EC
S31500000A80992A00002B2B0000612A000044E0FF1F7A
S31500000A9040410000000000006B36000094F1FF1F8B
S31500000AA030E0FF1F00000000FE4900228A61CA6193
S31500000AB00A6250B14A62487808B1072000E008206F
S31500000AC008610A724A728A72CA624FF4A0400A63C7
S31500000AD0C860CA700A714A718A718A62CA71F34A19
S31500000AE0F1481060012008707047DFF8C4C300DFCA
S31500000AF0EC4DF04F4FF6FF7A4FF480694FF4A04665
S31500000B004FF40038A863002251460C20DFF8A8C332
S31500000B1000DF0228F7D1DFF8A4C300DF0446000790
S31500000B2005D5E14A4946E86803DF00F076FA600732
S31500000B30E9D5386800F010FC3446204602DF04F59B
S31500000B4080644445F9D300F068FADCE700273C46A8
S31500000B50DFF85CC300DFD34E4FF4E0487063002239
S31500000B6064214046DFF850C300DF022810D0002C75
S31500000B70F5D0DFF84CC300DFC01B40F6B831884221
S31500000B80EDD906200024B070204600F031FAE6E7E1
S31500000B90DFF828C300DF0546C00417D50120F07131
S31500000BA03220DFF820C300DFF07901280ED196F855
S31500000BB02000C00705D0BC4A4FF48061F06800F001
S31500000BC031FA012000F014FA0020F071A80404D5CF
S31500000BD0DFF8ECC200DF074601246804BFD5002415
S31500000BE0BDE710B5AF4C606A01280AD060790128CC
S31500000BF009D000F00EFA0420A16B01F085FF012058
S31500000C006062002010BD0320A070002000F0F0F903
S31500000C10012010BD2DE9FC5F0024DFF8888207461D
S31500000C20A146A24601940094072904D198F8010030
S31500000C30012804D00D2420464FF0010B07E00C24B8
S31500000C40F9E707EB4011C97AC9067BD4401C102886
S31500000C50F7D3254612E007EB45166946304600F005
S31500000C601BFAF0B101281CD002281AD0032818D08C
S31500000C70042816D0052878D020346D1C102DEAD310
S31500000C80B9F1000F09D0D8F81C20D8F810100020B0
S31500000C901144C8F81010FFF707FF0198012862D029
S31500000CA034E0F1694346C8F818100029E5D0728B84
S31500000CB06FF0060C0CEBC20201F2FF11490A1A632F
S31500000CC0D96131785F2907D02E2905D0E5290DD1C4
S31500000CD003280BD0012809D01869904201D14FF0A2
S31500000CE00109C3F818A0C8F81CA0C6E7587A194627
S31500000CF001280FD118469B7A63B9046B836AA34215
S31500000D0008D304228270002000F072F94FF0FF3001
S31500000D10BDE8FC9F886A08B30B6B98421ED2101A76
S31500000D200A6A121AC869824218D381F800A0C1075C
S31500000D304FEA500500D06D1C00244FF4A0464FF436
S31500000D40806707E011E006EB8420574A394600F039
S31500000D5069F9641CAC42F6D30120D5E781F808B0E6
S31500000D6000982C4648612046D2E788F802B0CAE7C8
S31500000D7070B54C4E04460D463078002834D05248A3
S31500000D800068002830D04FF40071284602F074FE47
S31500000D90092C32D806F13C0000EBC4014A6850F831
S31500000DA03410284602F023FE012C1ED0072C1BD13E
S31500000DB07078002818D106F13C0000F13804C06BA9
S31500000DC020222844414902F012FEB17806F194002F
S31500000DD050F8210002F0ECFD626805F11C01505448
S31500000DE0062061681A35485570BD70780028FBD119
S31500000DF0FF2068720F20A87270BD112C07D0192C25
S31500000E0009D0212CF8D1BDE8704000F016BA2F4960
S31500000E10A022203102E02D495022C0312846BDE8EB
S31500000E20704002F0E4BD2DE9F0411E4E04460A462C
S31500000E30307800284FD00125072C01D0082C1CD172
S31500000E40E1B21046FFF7E6FE401C16D0F07810B16E
S31500000E50012802D011E035710FE0D6E9071088426B
S31500000E6002D1726A012A0DD0336BB26A9A4204D15A
S31500000E70884202D9706A01287ED0292C2BD330797A
S31500000E8058B10BE0F079002825D1F571716BBDE8FA
S31500000E90F0414FF4805001F037BEF570F06AE0B1D2
S31500000EA0401C15E01400002078E0FF1FF40000202D
S31500000EB0EF35000000E0FF1F612A00002B2B000029
S31500000EC0AD380000B3380000DC00002028440000E4
S31500000ED0A04202D0B572BDE8F081B07918B9306988
S31500000EE0844200D93461FFF77CFE0128F3D0706A92
S31500000EF00128F0D1B07A002720B13069844201D1AF
S31500000F00B77277723069A042E5D8B17951B9A0427B
S31500000F100CD1B5714FF40050716B01F0F5FDB46260
S31500000F20B07918B1B079012805D00FE03069A04238
S31500000F300CD0052029E0B07A40B9B06AA04205D0AD
S31500000F40316A0844A04201D002201EE0F07901284F
S31500000F5000D1F771B07920B13069844201D1B772FE
S31500000F607772F462306A401C3062C007704801D064
S31500000F7000F500706F4900E009E0086000F05CF8D9
S31500000F800128A8D1307A30B10420B0700020BDE825
S31500000F90F04100F02DB875729DE7674810B5C17A2B
S31500000FA0012489B9654AC47200234CF60501AFF2E3
S31500000FB06340DFF88CC100DF00231A460A21AFF236
S31500000FC0D540DFF87CC100DF5E494FF41830086079
S31500000FD05D494FF4007008605C485D4904604FF459
S31500000FE0987008605349524808605A48046010BD1A
S31500000FF070B5514D044668700120FFF755FD204637
S31500001000FFF714FC696BBDE870404FF4804001F0B7
S315000010107BBD51490820086070474F490820803938
S315000010200860704710B5FFF7F4FF4348816B08204E
S3150000103001F06AFD002010BD70B53F4C4FF480658D
S3150000104094F82000C00716D1394A2946E068FFF710
S31500001050E9FF20B1E06800F58060E06018E0D4E9BF
S315000010600701814203D10120FFF7C2FF12E0E068C9
S3150000107000F58060E060D4E9071088420AD1C00715
S31500001080F1D02B4A2946E068FFF7CCFF0028EAD0CA
S31500001090012070BD002070BDF0B5067A437A827AD1
S315000010A0057800202D4F14E007EBC00494F801C02A
S315000010B0B4450DD194F802C09C4509D1E478944218
S315000010C006D107EBC00252680A6017F83000F0BD7F
S315000010D0401C17F83040052CE6D1A6F1610400202B
S315000010E0192C02D9413E192E1FD8A3F16104192CDF
S315000010F004D92034192C01D9202B16D1A2F1610371
S31500001100192B04D92033192B01D9202A0DD1A5F189
S315000011106102192A02D92032192A06D82E2D04D0A6
S315000011205F2D02D008600520F0BD08600620F0BDE6
S3150000113078E0FF1FF40000201400002078F0FF1F65
S315000011406B3600000C010020E8000020EC000020B7
S31500001150F0000020DC00002084E100E038450000BB
S31500001160F0B5064600200346054617E03478A4F19C
S315000011703007092F01D830230AE0A4F14107052FD3
S3150000118001D8372304E0A4F16107052F00D85723BF
S3150000119000FB0240C01A761C6D1CEDB28D42E5D3F1
S315000011A0F0BD2DE9F041674E2420674F3070707016
S315000011B0B0701820F0700425796800200A5C72551A
S315000011C06D1C401CC0B2EDB20428F7D3002405EB19
S315000011D0440081194A1CC4F10300C300F868D840D2
S315000011E0C0B200F058F8641CE4B2042CEFD3083502
S315000011F0EDB2002405EB440081194A1CC4F103003A
S31500001200C3003869D840C0B200F045F8641CE4B2A7
S31500001210042CEFD30835E8B200213154BDE8F08143
S31500001220484810B5001D02F0C3FB022101EB400047
S31500001230C0B210BD43481D3070477CB5424D0024F6
S315000012402878C8B905F10C0000F022F91022042113
S315000012506868FFF785FFE968102248402861082181
S315000012603A48FFF77DFF296948402861FFF799FF53
S3150000127000F01DF80120287035480021354D8DF805
S3150000128004100090684600F039F810B12855641C27
S31500001290F8E701207CBD2D4B10B5113B03EB101474
S315000012A000F00F0024780C70185C107010BD2DE94A
S315000012B0F041244C201D02F07BFBC3B2022004F156
S315000012C01D0500EB430028700320022268700021F0
S315000012D0084605E0CE070BD05618A855491CC9B2DA
S315000012E0B1EB430FF6D302EB4301C9B2685495E75D
S315000012F004EB510657183679EE55EFE7F0B5114B6A
S3150000130001261B1D104C0025017919B1A168097829
S3150000131079B905710268511C01601278402A0CD116
S315000013200F78412F09D1A3600671491C0160197815
S3150000133029B1A06810F8012BA0601046F0BD057118
S31500001340E2E7000040F1FF1FC40000207D480000D6
S315000013504947000078E0FF1F254810B54CF22051A0
S31500001360C1814DF62811C181018821F0010101805A
S31500001370214820494FF4003201600021C0E90112E2
S31500001380D202C2604FF0A05242614FF40062826105
S3150000139080F82010491E416200F042FB002800D070
S315000013A0012010BD0020704710B51449124800F006
S315000013B0E7FA002800D0012010BD10B501460F4BFA
S315000013C04FF480620C4800F0E4FA002800D00120B7
S315000013D010BD38B50C460949009113460146224610
S315000013E0054800F07BFB002800D0012038BD000036
S315000013F0002005400000024018110020771B000065
S315000014001E48816B41F4A05181631D498015086116
S315000014101C481021016041611B4940F213104860CD
S3150000142070471849C03908B1C83100E0C4310868AE
S3150000143040F0100008607047F3E7F2E70F498A6B47
S3150000144042F001028A6311498860052048600868F5
S3150000145040F00100086008680006FCD5086820F026
S3150000146001000860704700B50220FFF7E7FF054856
S31500001470C038006D00F0020000BD0000008004408E
S3150000148000C00440C0F00F4000A00440000004402B
S3150000149004490A6ECB6D5A408B6D496D4B405A40DC
S315000014A00260704700800440FE49082008607047CB
S315000014B0FD4908200870FD48416841F4A0214160BB
S315000014C0816C21F00F01816400218164416B41F43C
S315000014D08021416301DFF64890F80C1141F080014C
S315000014E080F80C1190F80C110906FBD4F149090A91
S315000014F000F89C1FEF49090C0175EE49090E0176AB
S31500001500FF2100F81C1CEC499C38096811B1042124
S31500001510022201E000210A461143ED3041F0190193
S3150000152000F8691C4021C174C17F41F04001C177B8
S315000015307047E2490028087806D040F0010008709C
S31500001540102081F87400704720F0010001F8740B38
S31500001550087820F01000087070470120D449002256
S3150000156001EB800383F8C020401C1028F8D3D14833
S315000015700823438000F160034360C82303700272AE
S3150000158000F1E0034361C2610D20803181F8400023
S31500001590C54B4FF055305860087D40F00200087585
S315000015A0FF200870087208730A767047C34810381F
S315000015B0017841F0200101707047C0481038017869
S315000015C021F0200101707047BD494CF25030097876
S315000015D089070ED5B94A117841F0040102F8941929
S315000015E000E000BF401EFCD212F8940F20F0040069
S315000015F0107070477047002904D1B04900F07F0091
S31500001600091D087070477047F0B5A74BA94DA94E44
S315000016105A685FEA006C4FF000044FF0010705F1CD
S31500001620600500F00F010CD507EB4100874017431A
S3150000163006EB411005EB01225F608032C461426116
S31500001640F0BD4FEA400C07FA0CF7BA435A60964AC7
S31500001650125C06EB411005EB0121428041608821B6
S3150000166001700472F0BD014680788988020601D4B3
S315000016708D4A1154C8E770478D49020608D500F017
S315000016800F0001EB800010F8C01F41F0050105E0D6
S3150000169001EB800010F8C01F41F00901017070478E
S315000016A08349020608D500F00F0001EB800010F810
S315000016B0C01F21F0050105E001EB800010F8C01FF6
S315000016C021F0090101707047794900F00F0001EB24
S315000016D0800010F8C01F41F0020101707047744984
S315000016E000F00F0201EB820111F8C02F22F0020276
S315000016F00A7089E77047F0B505004FEA0070DFF819
S31500001700B4C14FEA90630CEBC30E4FF00006BEF86F
S31500001710020006D11CF83320C2F383020D2A00D141
S315000017200126644C0022603404EB831702E0BC5CA3
S315000017308C54521C8242FAD35B4A525DAEF80220A8
S31500001740594D5A081CF833E06C68CEF3801E24FA13
S3150000175002F707F00107774501D0696806E00EB188
S31500001760897941B10121914061406960D140C90741
S3150000177004D0C82103E024F00101F6E788210CF823
S3150000178033104E490A7822F020020A70F0BD70B577
S3150000179000F00F000223474D03EB800405EBC40065
S315000017A00023428005F1600000EB841002E0CE5C6D
S315000017B0C6545B1C9342FAD33B4E6108706820FA0C
S315000017C001F3DB0701D0882300E0C82305F8343095
S315000017D001238B4043401046736070BD37490C317E
S315000017E00878097940F2FF7202EA0121084370473E
S315000017F02D48806870472DE9F041304D143D2C7816
S315000018002879803D04402C4FE0070BD0FFF7A5FE5A
S3150000181000F022FA396811B1042001F075F90120AF
S3150000182085F88000E00609D5FFF7C0FE396811B1DA
S31500001830102001F069F9302085F88000A00609D54E
S31500001840FFF7BBFE396811B1202001F05DF92020B9
S3150000185085F88000600707D5396811B1402001F08E
S3150000186053F9042085F880000F4E022C0DD195F80F
S315000018708800B060396811B1802001F045F9FF2079
S3150000188085F88800022085F88000200759D505F1E3
S315000018909000A84601780C0901780078C1F3C001D0
S315000018A010E0000004E100E010E0FF1F00800440AB
S315000018B0002007400012002044E0FF1F942007404C
S315000018C022E0FF1F204F214DC0F3800009D10022E6
S315000018D002EB4102024417F83220C2F383020D2ABA
S315000018E00AD0A20002EB41010E1817F83600C0F329
S315000018F08300012810D015E0706820F002007060A7
S31500001900387E20F080003876387C20F080003874ED
S31500001910296899B102200FE055F8241011B104206E
S3150000192001F0F2F817F83600C0F38300092805D154
S3150000193055F8241011B1082001F0E6F8082188F8BE
S315000019408010BDE8F08100000012002094F1FF1F16
S3150000195030B5094C2068094B98420BD04FF4A04291
S315000019601946002052F8205041F82050401C3E28CD
S31500001970F8D3236030BD000008ED00E000E0FF1F53
S3150000198008B544220B468DF800206A460021984788
S3150000199008BD2DE9F8430746984616467B680020A1
S315000019A08A194FF480658B4203D8BC681C44944264
S315000019B00DD2FB688B4203D83C691C44944202D288
S315000019C00220BDE8F883CC1A04F5000400E0CC1A26
S315000019D0B4FBF5F105FB114111B14FF48070F0E74E
S315000019E0B6FBF5F105FB1161A9B10120E9E78DF818
S315000019F00090200C8DF80100200A8DF802008DF869
S31500001A0003406A4603213846434698470028D8D102
S31500001A10761B2C4401E04FF00909002EE7D1D0E7F0
S31500001A20F0B5016800240A781206FCD570220A7007
S31500001A3002680321D171016880258D710268002139
S31500001A4051710368FC221A710268D173026815701D
S31500001A50026813781B06FCD5567A127A02F00F0C30
S31500001A604FF400425710BCF1100F11D2DFE80CF012
S31500001A70080A0D0F080808080F1E0D0808080808B0
S31500001A80026105E04FF4C042FAE7076100E0016138
S31500001A9006F00F02102A1BD2DFE802F00B0B0B0D2B
S31500001AA0101316191C1E0B0B0B0B0B0B4FF40052CD
S31500001AB0E6E7C1610CE04FF40061FAE74FF480619C
S31500001AC0F7E74FF40071F4E74FF48071F1E7C56171
S31500001AD02046F0BD4021ECE72021EAE72DE9FC474E
S31500001AE0164607461D4600208A19DDF828808B0712
S31500001AF003D04FF48070BDE8FC87B30701D0012006
S31500001B00F9E77B688B4203D8BC681C4494420CD22C
S31500001B10FB688B4203D83C691C44944201D20220E4
S31500001B20E9E7CC1A04F5000400E0CC1A4FF00609E8
S31500001B30002EE0D08DF80090200C8DF80100200AD0
S31500001B408DF802008DF80340E8788DF80400A87837
S31500001B508DF8050068788DF8060028788DF807005E
S31500001B606A4607213846434698470028C3D1241DB4
S31500001B70361F2D1DDCE770B5044600680025037886
S31500001B801B06FCD57023037000203AE00C2836D2E1
S31500001B90DFE800F0060A0E12161A1E22262A2E3238
S31500001BA026681378F3712AE026685378B37126E025
S31500001BB026689378737122E02668D37833711EE025
S31500001BC026681379F3721AE026685379B37216E021
S31500001BD026689379737212E02668D37933720EE021
S31500001BE02668137AF3730AE02668537AB37306E01D
S31500001BF02668937A737302E02668D37A3373401C9F
S31500001C00C0B28842C2D921688020087003E0606AA9
S31500001C10411C00D08047206800780006F7D5206870
S31500001C200078810601D5042506E0C10601D5082500
S31500001C3002E0C00700D01025284670BDB24910B595
S31500001C400020C870FEF7E3FEFEF7E3FEBDE8104095
S31500001C50FFF72EBCFFF76DBCAC484FF001120178C0
S31500001C60A948C180002101704170C0E902210161CB
S31500001C707047A5484078002800D001207047A24947
S31500001C8020310020FFF737BD10B59F4CA04818340F
S31500001C90A28801788A4200D9CAB212B99A490020AC
S31500001CA0087180202168FFF772FD216801442160D8
S31500001CB0A188081AA08010BD10B5934C00201834D6
S31500001CC02168FFF718FD216801442160A188081AE0
S31500001CD0A08010BD002211468020FFF758BD8D4917
S31500001CE00020FFF708BD2DE9F047DFF81C82044607
S31500001CF008F12008844D80074FF0000AA8F1080675
S31500001D0024D5FFF7BCFF98F800004746C009FFF747
S31500001D10B2FCF888B0803878C0F3411111B10129BE
S31500001D205AD17CE098F801207B4FDFF8F0910C2A1D
S31500001D3052D2DFE802F0060C821C822A3A823E4426
S31500001D40526101F0F7FF32E0FFF79EFF83E00020CB
S31500001D5002F02EF8002870D0FFF7BCFF386820B1DB
S31500001D606969002977D0082050E0484652E00120F2
S31500001D7002F01EF880B3FFF7ADFF38680028F4D0F4
S31500001D806969002967D0042040E010F01F0F54D184
S31500001D9098F80200012140F08000287000F07F00D2
S31500001DA0FFF729FCFFF796FF55E001F01FFF98B1FA
S31500001DB0CAE710F01F0F40D15348401C1AE002F04A
S31500001DC047F848B1FFF786FF386818B16969F9B175
S31500001DD001201BE052481DE02FE000F01F00012803
S31500001DE02BD1687848B398F80400A978884224D2A1
S31500001DF04C4908443060A7E702F0EEF8E8B1FFF777
S31500001E0069FF386828B1696911B10220FEF7F0FD53
S31500001E1021E045480168F1B1084680471BE010F013
S31500001E201F000AD0012808D1FEF7C6FD98B900F0B8
S31500001E307FF880B9FEF7CCFD68B998F8001009065E
S31500001E4004D4B8F8060008B1002000E08020FFF7AF
S31500001E503BFCA6F804A0600723D598F80000474687
S31500001E6000061CD4B088E0B1FFF726FFB088C0B9E1
S31500001E703878C0F3411161B101290AD110F01F0071
S31500001E8007D0012805D1FEF799FD50B9FEF7A2FD4E
S31500001E9038B98020FFF718FCA6F804A001E0FFF788
S31500001EA01EFF200713D598F80000000606D5B08857
S31500001EB0297908430BD0FFF7E7FE08E028780106EA
S31500001EC005D500F07F0028700021FFF794FB60061F
S31500001ED002D50020FFF703FC200604D5BDE8F04735
S31500001EE08020FFF7FCBBBDE8F0870B48006850B1C7
S31500001EF04FF6FF7420462146FEF784FDFEF77EFD71
S31500001F00FFF7F1FEF6E700001CE0FF1F244100008A
S31500001F1028410000090000203C4100003841000033
S31500001F2030410000080000203441000000F045B8B0
S31500001F3010B51248124A0179127891421BD14278A3
S31500001F404188C088FE2A09D0FF2A14D199B990B9D0
S31500001F5000F055F878B1FFF7BDFE0AE059B901283F
S31500001F6009D100F055F830B1074906480860FFF777
S31500001F708BFE012010BD002010BD00003CE0FF1FBD
S31500001F80294100000900002034E0FF1F7047704718
S31500001F907047704710B50446FFF796FB200605D537
S31500001FA004F00F014FF48030884001E00120A0408A
S31500001FB0FB490A681043086010BDFA48007900F032
S31500001FC08F01080605D501F00F004FF480328240DC
S31500001FD001E001228A40F448007840F080008842FF
S31500001FE00CD1EF490968114208D0F049F04A096856
S31500001FF0914203D10D22ED49FFF7C9BB7047ED4968
S3150000200000200860E9490860EB4908700120704724
S31500002010EA490020087001207047E44910B5E448F9
S315000020200860E1480D22007840F08000FFF7AFFB22
S31500002030E1490520087010BDDF4910B54868C86041
S3150000204008B1012010BDD9481F38816859B1007BFD
S31500002050000604D5D448007840F0800001E0D84856
S315000020600078FFF797FFD14901200873FFF7D5FFE6
S31500002070002010BD2DE9F041CF4DCB480026AA69BE
S315000020800078696AC94F40F080008046914206D3C5
S315000020900024FFF77FFF3E73FFF7BFFF08E0CA4843
S315000020A0C849007831F81040E86A844200D30446F3
S315000020B0FFF7C2FF00B90024A86A20B364B1A96A79
S315000020C0E869224601444046FFF761FBA86A2044BE
S315000020D0A862E86A001BE862D5E90410AA6A4143CF
S315000020E0914203D1AE62696A08446862B868001B0F
S315000020F0B860002C05D0E86AB0B12878022800D074
S315000021003E73BDE8F081002CE6D0E96A28690144F7
S31500002110491EB1FBF0F26869824200D90246E969BC
S31500002120686AFEF725FECAE703202870E8E72DE96E
S31500002130F041A14D00269D4FA969686A884207D3E0
S315000021409F482E630078FFF725FF3E73FFF765FF74
S31500002150FFF772FF00B92E6300209C4905E0AB6AC9
S31500002160EC690A5C0344401CE2542A6B9042F6D3A5
S31500002170A86A11000844A862EA6AA2EB0102EA62B0
S3150000218022D092B988B129690844401EB0FBF1F407
S315000021906869844200D904462246E969686AFEF7FE
S315000021A042FEAE62686A20440DE0D5E9041202FBE5
S315000021B001F3834208D1E969686AFEF734FEAE622C
S315000021C06969686A08446862B968286B091AB9605F
S315000021D0002896D0E86A10B12878052891D13E7378
S315000021E0BDE8F04119E78CE72DE9F041724C002576
S315000021F06E4EA169606A884207D3714825630078EC
S31500002200FFF7C8FE3573FFF708FFFFF715FF20B18C
S31500002210206B08B3A06A10B10FE0256320E0E16AE5
S3150000222020690144491EB1FBF0F26069824200D97F
S315000022300246E169606AFEF79BFD00206349A36AD6
S31500002240226B0BE0D4F81CC01F181CF8077011F89D
S3150000225000C0674501D0256202E0401C9042F1D3E0
S31500002260A16A206B0A18A262E16A0B1AE362D4E93A
S3150000227004714F43974203D1A562626A11446162B9
S31500002280B168091AB16000280CD013B1207805286E
S3150000229008D1206A20B100203073BDE8F041BCE6C9
S315000022A00120F9E72DE770B5404C434D1F3CD4F8AB
S315000022B0110000BA20F0FF01207D01430020C5E98E
S315000022C00910E07B2F280AD004DC28280BD02A2806
S315000022D017D104E0A8280DD0AA2812D106E0FFF7EE
S315000022E0ABFE002826D0E08A41BA0AE0FFF7A4FE3A
S315000022F000281FD0D4F8150000BA20F0FF01207E78
S3150000230001432869294E4143E962A068012568B165
S31500002310884210D0207B000604D52348007840F080
S31500002320800001E026480078FFF734FE3573FFF79A
S3150000233074FE002070BD012070BD70B51B481B4D9A
S315000023401F380224816831B1007B000608D41C487E
S315000023500078FFF71FFE2C73FFF75FFE002070BDAD
S31500002360012070BD10B51148134C1F388068216BD1
S31500002370884202D82063032000E0042020700A4827
S315000023801249226B007840F08000FFF700FA0748F8
S31500002390226B8168891A81600021017310BD0000DB
S315000023A028E0FF1F3CE0FF1F2A410000F3F1FF1F5A
S315000023B0555342532CE0FF1FD8000020090000208F
S315000023C02B4100002C4100001FE0FF1FD810002009
S315000023D0F74810B5816800F11F0469B1007B00065B
S315000023E004D5F448007840F0800001E0F248007817
S315000023F0FFF7D0FD012004E0FFF71EFE0028CDD038
S3150000240000202073BDE8104007E6C7E710B5FFF7C8
S3150000241094FF0028C2D0E9487021E94B01700021E1
S315000024204170DC685A6832EA040406D006248470D7
S31500002430282404734173DA6009E0DAB1DC4A1F32FA
S31500002440127BDAB105228270202202734173C170B9
S315000024500171417181710A22C271017241728172E8
S31500002460C1728173C1730174417412201863BDE88F
S31500002470104077E7022282703A22E6E78170017304
S31500002480E4E78BE710B5FFF758FF002886D0CB4B63
S31500002490002080211870597002219970D97020246B
S315000024A01C7158719871D871C648016808200A785D
S315000024B012B11A54491C00E01C54401CC0B2242816
S315000024C0F5D3BF4924200863BDE810404AE765E715
S315000024D0B74810B5817C00F11F0421B1012020739B
S315000024E0BDE8104099E5C07CB54900F001004860A0
S315000024F0FFF74FFD0020F2E7AD48C07CC107AC48AE
S3150000250000F11F0000D00121017386E510B5FFF729
S3150000251014FF00281AD0FFF78FFD002816D0A74811
S31500002520032100220170A64942700B7ADB018370F9
S31500002530C270042008639E491F318A68042A02D9A2
S315000025409B4A90608860BDE810400BE726E710B50F
S31500002550FFF7F3FE00281ED0FFF76EFD00281AD005
S315000025609648002106220170954B427081701A7AB6
S31500002570D201C270017141718171C1718C4908200B
S315000025801F3118638A68082A02D9894A90608860D0
S31500002590BDE81040E6E601E710B5FFF7CEFE0028DD
S315000025A01BD0FFF749FD002817D0854A834891695B
S315000025B0491E0B0E03700B0C43700B0A8370C1701F
S315000025C011690B0E03710B0C43710B0A8371C171F8
S315000025D008201063BDE81040C4E6DFE610B5FFF73B
S315000025E0ACFE002828D0FFF727FD002824D073482A
S315000025F00021734A0170417081700821C170916990
S315000026000B0E03710B0C43710B0A8371C17102210E
S31500002610017211690B0C43720B0A8372C172644911
S315000026200C201F3110638A680C2A02D9604A906018
S315000026308860BDE8104095E6B0E65D4900201F3190
S315000026400873EAE470B5FFF778FE00281CD05B48F3
S3150000265002225B4D02704270554C03202A631F34E0
S315000026602870A068022802D951488260A2605148A9
S315000026705249007840F08000FFF789F8A068296B7E
S31500002680401AA0600120207370BD10B5FFF755FEFB
S31500002690002818D049482022002102704170484C79
S315000026A0C17703202263207042484449007840F0F5
S315000026B08000FFF76CF83E48226B1F308168891A4C
S315000026C081600121017369E62DE9F0473C4E002047
S315000026D0374D3A4A316B02E0135C2B54401C88425A
S315000026E0FAD3344C0127DFF8D09020781F2940F028
S315000026F0800A6BD128683449884267D12C4C6868B7
S315000027001F346060A868A060687B18B9A87B08B110
S31500002710102801D9277381E0E87B4FF002082828AA
S315000027206AD01BDC1A285BD00DDC0428F2D005DC4D
S31500002730E8B30328EED1BDE8F04767E61228E9D1F1
S31500002740BDE8F0479EE61B2844D01E2845D0232826
S3150000275049D02528DED1BDE8F0471DE791286DD088
S3150000276013DC35286AD009DC2A2816D02F28D1D1C7
S31500002770287C800756D4002020734FE05528C9D006
S315000027805A28C7D1BDE8F047E1E69E2831D0A128F6
S315000027902CD0A82830D0AA28BCD1FFF784FD002869
S315000027A003D0287B000647D43770BDE8F0870EE0DB
S315000027B0D4F1FF1F2A4100002B410000D810002051
S315000027C0D8000020040000205553424339E0BDE8FC
S315000027D0F047FDE5BDE8F0477AE6BDE8F0478BE651
S315000027E0BDE8F04792E6BDE8F047F7E6BDE8F047FA
S315000027F028E7BDE8F04748E7FFF755FD0028D4D0A5
S31500002800287B000604D586F80080BDE8F04731E451
S3150000281099F80000FFF7BEFB84F80C80BDE8F0478E
S31500002820FFF7FBBBFFF73FFD0028BED0287B000665
S3150000283002D437703762B8E75046EBE7BDE8F04799
S31500002840FBE65046FFF7A6FB2078534C00F00F013D
S315000028504FF48030884021684D460843206099F83F
S315000028600000FFF797FB287887402068074306207B
S315000028702760307099E7494910B50878022808D0D2
S31500002880032810D0042812D0052801D10020087092
S3150000289084E54348C07B282801D0A828F8D1BDE8A4
S315000028A01040FFF7E7BBBDE81040FFF7B6BB3D4859
S315000028B0007840F08000FFF76DFBF4E7374810B56D
S315000028C0007878B1012810D005281CD03648007849
S315000028D0FFF760FB324902201F310873BDE8104044
S315000028E0FFF79BBBBDE81040EEE62D48C07B2A28CB
S315000028F003D02F2804D0AA2805D1BDE8104016E43D
S31500002900BDE8104070E449E5B5E7274810B527490A
S315000029100078FEF7F0FE21490863BDE81040CDE7D8
S3150000292010B50446400702D50020FFF7EEFF20074A
S3150000293002D5BDE810409EE730E51D48006860B14D
S315000029404FF6FF7420462146FEF75CF8FEF756F870
S315000029500007F7D5FFF78FFFF4E71548006868B161
S315000029604FF6FF7420462146FEF74CF8FEF746F870
S315000029704007F7D50020FFF7C8FFF3E70C480068CB
S3150000298050B14FF6FF7420462146FEF73BF8FEF79E
S3150000299035F8FFF7C5FFF6E72CE0FF1FD80000204B
S315000029A0D4F1FF1F2A4100002B410000D81000205F
S315000029B03C41000010B5428C920803D1234A12888C
S315000029C0C2F38D02836A03EB82035A0700D51B1FED
S315000029D0403B4FF08072C3E90E120022144643F8C2
S315000029E02240521C0E2AFAD3C2691A624362C1629D
S315000029F0806A1749016010BD16480068C0010BD5F2
S31500002A0015480068C00707D01348803800680028BA
S31500002A1002DA12490120087070474FF06042D36F06
S31500002A20002BFCD0C36AD367D36F002BFCD0C078D1
S31500002A3040EA0120A2F87C0070474FF06041CA6F5F
S31500002A40002AFCD081F87C00704700000441000099
S31500002A50A52E5AE2FCED00E0800E00E048E0FF1FE4
S31500002A6070B5034645480D460468208B42B133EAEB
S31500002A70000101D0062109E098432083022070BDA1
S31500002A8010EA030101D06183F6E705216383284636
S31500002A9000F084FD012070BD024670B5384800EB99
S31500002AA0810050F8044C002C22D0208B1043208348
S31500002AB06178658B062918D0052919D1284217D0C7
S31500002AC005EA00016183A8432083204600F023F92C
S31500002AD0208BA843208301206070022084F8200008
S31500002AE02046BDE8704000F03CBD35EA0001EAD062
S31500002AF070BD234A02EB810151F8041C002902D063
S31500002B000A8B82430A83704702461D4810B500EBC4
S31500002B10810050F8040C002806D0114600F00FF989
S31500002B20BDE8104000F067BC10BD14480068408B3B
S31500002B30704710B50446008B084320836278618B8A
S31500002B40062A16D0052A17D1084215D001EA000236
S31500002B50628388432083204600F0DDF80120607000
S31500002B60022084F820002146BDE81040054800F008
S31500002B700BB831EA0002ECD010BD000054E0FF1F94
S31500002B8060E0FF1F00F2FF1F30B502780024022A22
S31500002B9003D0012A01D0032A00D101248B7800E05A
S31500002BA01046426812B195789D42F9D24A6041605A
S31500002BB01CB102B19160886030BD0020FBE7014680
S31500002BC04068002342684A600A78022A05D0012A32
S31500002BD003D0032A01D04360704742680AB191606E
S31500002BE04360836070476A494A6842600022826097
S31500002BF0486070476649674B48681B6882789B78CF
S31500002C009A4202D142684A60704700207047816844
S31500002C1039B142684A604168002901D080688860FD
S31500002C2070475B4906E04A68824202D140684860C4
S31500002C30704711460029F6D1704710B583680446DF
S31500002C402BB9607801280DD1514B03E09B681878A9
S31500002C500028FBD02046FFF7DAFF2146BDE81040EA
S31500002C60184691E710BD4A4A10B51832D368ABB181
S31500002C7013469B8A03E08CB12246A48A2344D46877
S31500002C808B42F8D3C460D0600261C46804B120618D
S31500002C90591A8182908A401A908210BD0024C4601D
S31500002CA0D060C91A02619182848210BD70B5384E17
S31500002CB01836F06800282DD0B08A401EB082002554
S31500002CC022E0A06838B161684160606810B1A1680F
S31500002CD081606560A56021462D48FFF755FFA08AF3
S31500002CE0B0826078042804D12B49E08A0988084418
S31500002CF0A0820120607084F82000E068F060E0683F
S31500002D0008B10661E5602561B08A002802D1F46841
S31500002D10002CD6D170BD10B5016900290ED0C2684D
S31500002D20CA60C36800223BB18B8A848A23448B82A3
S31500002D30C3681961C26000E08A82026110BDF0B406
S31500002D40164FBC1CFE783D46D4E84F3FB34202D135
S31500002D50BFF32F8F0EE05B1CC4E8423F002AF3D17D
S31500002D60D5E84F3F5A1CB24200D10022C5E8442F95
S31500002D70002CF5D1FA789A4205D907EBC302C2E9CD
S31500002D800101F0BC7047F0BC0220FDF7D1BD000088
S31500002D9000F2FF1F54E0FF1F5CE0FF1F680E0020DB
S31500002DA00122027000224270426002814281103983
S31500002DB08281C1F38F01C18170472DE9F041174629
S31500002DC00C468189994D4268002602B149B1C389F2
S31500002DD0994229D1BFB195490968BAB1FFF7D4FE26
S31500002DE01BE0FFF7ECFE0746C0690460042087F885
S31500002DF020003846FFF78FFF384600F0B2FB286800
S31500002E0080F8206025E00120BDE8F0814160296856
S31500002E104E60296888600121417028680821C461D4
S31500002E20384600F0BBFBEEE7018900EB81010C613F
S31500002E3000F10C01D1E85F2F521CC1E8532F002B83
S31500002E40F8D10189491C89B20181C289914200D118
S31500002E5006810020D8E72DE9F04104468089734FAA
S31500002E6090460D460026A8B3608904EB80000069F1
S31500002E7008606089401C80B26081E189884200D187
S31500002E8066816068E0B12046FFF799FE80F8206011
S31500002E902189054604EB8101C06908612089401C2F
S31500002EA080B22081E189884200D126812846FFF739
S31500002EB032FF284600F055FB386880F8206007E0AE
S31500002EC00C34D4E85F0F401EC4E8510F0029F8D136
S31500002ED0002099E7FFE7B8F1000F07D05349606873
S31500002EE0096828B12046FFF74FFE06E001208BE770
S31500002EF0616038684660386884600821404600F0A2
S31500002F004DFB3868C561F1E7C1898089081A7047A9
S31500002F1010B5FFF714FFBDE8104000F06CBA10B50D
S31500002F2004468089002822D0608904EB800000696D
S31500002F3008606078012807D10220607000212046D1
S31500002F40FFF7FDFE00F057FA04F10C00D0E85F1F12
S31500002F50491EC0E8521F002AF8D16089401C80B281
S31500002F606081E189884201D100206081042010BD82
S31500002F702DE9F041044640680F46002204F10C0595
S31500002F8020B16078022819D0A089A0B3A089E18970
S31500002F90884245D2208904EB80000761D5E85F0F9F
S31500002FA0401CC5E8510F0029F8D12089401C80B289
S31500002FB02081E189884200D1228125E71746627087
S31500002FC02046FFF7FCFD80F820702189064604EBB9
S31500002FD08101C0690861D5E85F0F401CC5E8510F43
S31500002FE00029F8D12089401C80B22081E1898842DD
S31500002FF00BD1278109E0FFE72046FFF7E0FD0646F3
S31500003000C0690421076086F82010012070703046E0
S31500003010FFF781FE3146BDE8F0410548FFF7B4BD34
S31500003020BDE8F0410320FDF783BC000054E0FF1F1C
S3150000303000F2FF1F10B5002A06DA22F00042D21D68
S3150000304022F00703102203E0D21C22F003030C2215
S3150000305013B19C188C4201D9012010BD02440144D1
S315000030608360C0E90021C91AD018884202D81060CE
S315000030700246F9E70020106010BD014651E8000F36
S3150000308028B1036841E80032002AF7D17047BFF340
S315000030902F8F704710B50446FDF74CFA002807D06D
S315000030A0A1680246002903D0002308C2091FFCD1EB
S315000030B010BD814202D342688A4201D8012070477E
S315000030C050E8002F0A6040E80012002AF8D10020DC
S315000030D0704700000321017000214170418041606A
S315000030E0816070472DE9F0470446408820B13F4E85
S315000030F0A1683268914202D0FF20BDE8F087401EE9
S315000031000004000C60803ED131686078DFF8E08012
S31500003110887061684FF00009012739B32046FFF730
S315000031204EFD0546052085F820002846FFF7F3FDED
S315000031306780A560A87860703168D8F804008A783E
S315000031408078824201D328460AE02948FFF71CFD11
S3150000315029462748FFF718FD306847706F7010E062
S3150000316000F0FFF9316881F820900CE0D8F80410DF
S315000031708A783168824206D91D48FFF705FD306816
S3150000318047700020ECE70020B7E770B5174D0E46F4
S3150000319004464188286839B1A168814208D160880F
S315000031A0401C6080002070BDA06080786070F6E7EB
S315000031B076B162788078824203D28870A068FFF781
S315000031C03CFD606830B120462968FFF7DDFC08E069
S315000031D0012070BD28686060296800204860286862
S315000031E084600921304600F0D9F9F1E754E0FF1F69
S315000031F000F2FF1F022202700022426041807047E7
S3150000320010B5416889B1FFF7DAFC0446032084F85B
S3150000321020002046FFF77FFD204600F0A2F9234953
S315000032200020096881F8200002E04188491C41809D
S31500003230002010BD10B50C46418819B1491E4180C9
S31500003240002010BD34B1194A4368116823B1FFF755
S315000032509BFC07E0012010BD416013680021596006
S31500003260116888600721204600F098F9F2E710B54A
S315000032700021FFF764FDBDE8104000F0BCB810B5B2
S31500003280416879B1FFF79BFC0446FFF744FD012036
S315000032906070032084F820002146BDE810400448F1
S315000032A0FFF772BC4188491C418010BD54E0FF1FE6
S315000032B000F2FF1F30B58D4901228D4C48684FF052
S315000032C0E023002808DA052018610A70226800EA5F
S315000032D09260887040060EE000F01F0502FA05F5C0
S315000032E0401103EB8000C0F880510A702068C0F3DB
S315000032F000708870C006206030BD10B54FF6FF74B0
S31500003300FFF7D8FF7B48C16801B1848A7A48016813
S3150000331019B18088A04200D20446204610BDF0B5FF
S31500003320724A002310465168714C80784FF0E026AF
S31500003330002907DA072131611370517840EA8100CC
S3150000334080060CE001F01F070125BD40491106EB80
S315000033508101C1F8005113705178084300072060BD
S315000033605370F0BD2DE9F041054664480126016819
S315000033704E700068FFF737FC61490020614F086016
S315000033805C49C868D0B1888AA84211D83A682C1A14
S31500003390104438608E828846FFF788FC8CB1386806
S315000033A0641E401C3860D8F80C000028F4D108E0F0
S315000033B03B685A19401B3A60888202E03868284404
S315000033C038604D4F386870B1B888A84209D82C1AB1
S315000033D0BE8000F08FFA34B13868641E0028F8D138
S315000033E001E0401BB8804848FFF7E9FB00F0B4F85D
S315000033F0BDE8F04193E73D48017811B101214170E4
S3150000340070473B494FF080500860704770B53B48A5
S315000034100121026851700068FFF7E5FB3B4D6C78AF
S3150000342016E005EBC40148680278E2B1012A1FD014
S31500003430FFF725FFE878641C844200D10024334856
S31500003440801CD0E84F1F491EC0E8421F002AF8D151
S31500003450A8780028E5D16C702B48FFF7B0FBBDE8D3
S31500003460704000F079B8098989B2FFF762FBE1E79D
S315000034708968FFF77DFDDDE7254801684FF0E0200C
S315000034804161002181610721016119481C300168F1
S3150000349041F07F410160401770477047174810B5EB
S315000034A00268012151700068FFF79DFBFDF742FAA3
S315000034B014480168491C0160FFF7F8FB00F01AFA8E
S315000034C01148FFF77CFBBDE8104000F045B80B48FB
S315000034D00068D0E90910814203D300680D4988428B
S315000034E002D00120FDF724BA704700001001002029
S315000034F004ED00E018F2FF1F1801002054E0FF1F42
S315000035004CE0FF1F5CE0FF1F00F2FF1F680E00206B
S3150000351008410000A52E5AE270B504460020154663
S31500003520207001226270A1706060A060E06020617E
S31500003530A082E0822083608384F8200084F8210042
S31500003540608C18B9C648FFF798FDA0622946204648
S31500003550BDE87040FFF72EBAC249486002214170AB
S31500003560704770B504000ED0BE4DA17801262868BC
S31500003570827891420BD9FFF736FB286846702046C1
S31500003580BDE87040E8E7B848FFF719FBF8E7667052
S315000035902146BDE87040B448FFF7F6BA70B50D464F
S315000035A0002811D04FF6FF71AE4C884204D2226833
S315000035B001461046FFF757FB20684570AA48FFF7FB
S315000035C0FEFABDE87040C7E770BD70B5FFF712FBA5
S315000035D004000BD0A34DA4482968FFF7D5FA296843
S315000035E0012048702046BDE87040B5E770BD9D4893
S315000035F00068002800D0C078704770B5994D002645
S3150000360070B19A4A128890421DD8994A02EB8000FE
S3150000361050F8044CBCB1A1702868A04202D014E056
S315000036202868817090484068807888421BD98E4807
S315000036302968FFF7A9FA296801204870286880F8E8
S31500003640206000200DE0FF2070BD2046FFF7F5FA50
S315000036506078012807D18448FFF7B1FA296881F814
S315000036602060FFF77EFF002070BD2DE9F0411E4669
S31500003670174680460C4611F0FF0F00D14C1C7D48C2
S31500003680FFF7FBFC050024D0C4F30F20AF6268846B
S31500003690E1B242462846EE61FFF73EFF0124744838
S315000036A0724905E000EB840252F8042C22B1641C36
S315000036B00A889442F6D9002400EB840040F8045CA2
S315000036C0EC702846FFF74DFF6648006880F82040FA
S315000036D02046BDE8F08170B5624C654E0025216834
S315000036E010B1CA7882421AD14D70FCF712FF2168D8
S315000036F04862FFF7ECFE2068C17806EB810141F8CD
S31500003700045C816A5648FFF7D4FC216859488D62EB
S31500003710FFF7CFFC00202560FFF723FF19E0534990
S315000037200988884217D806EB800656F8044C94B1EF
S315000037302046FFF76CFA2046FFF7EDFA46F8045CE0
S315000037404748A16AFFF7B5FC21464A48A562FFF73C
S31500003750B0FC002070BDFF2070BD2DE9F04781460A
S3150000376016468846002005464149404A02E041F88F
S315000037702050401C13889842F9D33F4830220188D4
S315000037803C48FFF757FC3D48008880B240F00042B5
S315000037903B4801683248FFF74DFC3A480822018849
S315000037A039480068FFF746FC384CFF27384AE7706F
S315000037B0658400212046FFF7AFFE2B4804210170E7
S315000037C0456034480170C56005618582606A2030B5
S315000037D0FCF79CFE234831490460022060702E48A5
S315000037E0057045700978C170FDF7A3F82C4801688B
S315000037F041F47F0101600068390601EA002028498A
S31500003800C0431439B0FA80F00968C0F10800C1F36A
S315000038100221814200DB481C2149091F0B686FF019
S315000038208072824063F317020A60FFF725FE1D4986
S31500003830002808600CDB1C49475400F01F020121D8
S31500003840914040114FF0E02202EB8000C0F80011D9
S31500003850324641464846BDE8F047002305E70000EA
S315000038605002002054E0FF1F00F2FF1F004100003D
S3150000387060E0FF1F20010020184100000441000005
S315000038801C410000224100000000002060150020BD
S315000038902D09000018F2FF1F680E002020410000CD
S315000038A020ED00E01401002000E400E00F4800686D
S315000038B070470321FFF772BE0D490C4A0968C8829A
S315000038C012881044888270470948016807488A8A26
S315000038D00088CB8AA2EB00001A4480B28A820104D7
S315000038E002D40421FFF75ABE704700005CE0FF1FB8
S315000038F054E0FF1F70B52A4D2868002815D0A88807
S31500003900284E401EA8800AE0E088FDF710F8A0883F
S31500003910A8802068286021463068FFF7CAFBA8887F
S31500003920002802D12C68002CEED170BD70B50D4672
S3150000393004000AD01B48006838B1FFF79EFB002838
S3150000394004D01749C5808A8804E0002070BD194656
S315000039509B881A44A24202D20B68002BF7D10B684F
S31500003960121B0360828008608A888388D21A8A8044
S3150000397070BD10B50A4A02E000290FD00A46116848
S315000039808142F9D101681160918883881944918038
S31500003990014604480068FFF78CFB002010BD0000BC
S315000039A018010020000000200048704790150020F4
S315000039B010B5431C02E010F8011B71B18107FAD162
S315000039C04FF0013202C88C1A8C4314EAC211F9D0A6
S315000039D0C01A0A0603D0C01E10BDC01A10BD0A04C4
S315000039E001D0801E10BD0902FCD0401E10BD032A66
S315000039F040F2308010F0030C00F0158011F8013B06
S31500003A00BCF1020F624498BF11F801CB00F8013BEC
S31500003A1038BF11F8013BA2F1040298BF00F801CBB0
S31500003A2038BF00F8013B11F0030300F04A80083A62
S31500003A30C0F0088051F8043B083A51F804CBA0E8DE
S31500003A400810F5E7121D5CBF51F8043B40F8043B33
S31500003A50AFF30080D20724BF11F8013B11F801CB68
S31500003A6048BF11F8012B24BF00F8013B00F801CB39
S31500003A7048BF00F8012B70474FF000020429C0F040
S31500003A80128010F0030C00F05080CCF1040CBCF155
S31500003A90020F18BF00F8012BA8BF20F8022BA1EBDC
S31500003AA00C0100F042B85FEAC17C24BF00F8012B8C
S31500003AB000F8012B48BF00F8012B7047704770478C
S31500003AC0704710B5203AC0F00B80B1E81850203A84
S31500003AD0A0E81850B1E81850A0E81850BFF4F5AFA8
S31500003AE05FEA027C24BFB1E81850A0E8185044BF32
S31500003AF018C918C0BDE810405FEA827C24BF51F89F
S31500003B00043B40F8043B08BF7047D20728BF31F892
S31500003B10023B48BF11F8012B28BF20F8023B48BFE3
S31500003B2000F8012B70474FF0000200B5134694468B
S31500003B309646203922BFA0E80C50A0E80C50B1F1FF
S31500003B402001BFF4F7AF090728BFA0E80C5048BF13
S31500003B500CC05DF804EB890028BF40F8042B08BFB1
S31500003B60704748BF20F8022B11F0804F18BF00F8AD
S31500003B70012B70477546FFF717FFAE4605006946ED
S31500003B80534620F00700854618B020B5FCF776FDB1
S31500003B90BDE820404FF000064FF000074FF0000848
S31500003BA04FF0000B21F00701AC46ACE8C009ACE8C9
S31500003BB0C009ACE8C009ACE8C0098D4670470446A8
S31500003BC0AFF300802046FCF798FC0000014918205E
S31500003BD0ABBEFEE7260002007047000003000000AF
S31500003BE0A914000025080000290800007CB54649F4
S31500003BF0A1F120050878A1F1080410F01F0002D0F9
S31500003C0001287BD168E04048CE7820383F4AC17809
S31500003C102030082E807871D2DFE806F07004134257
S31500003C207070082D3A482060122052E0107808B9CA
S31500003C30012963D019B1374820600A2049E0364887
S31500003C40FAE712780AB9012958D019B13349009117
S31500003C50002108E03249FAE7009A137813B1538835
S31500003C601A440092491C8842F6D10098017891B313
S31500003C70206040882DE012780AB901293ED019B19A
S31500003C8028490091002108E02749FAE7009A1378AD
S31500003C9013B153881A440092491C8842F6D1E4E7CE
S31500003CA022490091032801D000210BE0FDF7C2FA5A
S31500003CB02060FDF7B5FA0CE0009B1A780AB11A44A9
S31500003CC00092491C8842F7D10098017819B120600A
S31500003CD00078019006E011E001A96846FCF76AFE4B
S31500003CE000280CD0A188019881420BD9104980B2D6
S31500003CF0A0800978491E084202D003E000207CBD5E
S31500003D000120287101207CBD3CE0FF1F25410000F9
S31500003D10884100009B4100009A410000BD4100001F
S31500003D209C410000BF410000BE410000C0410000B0
S31500003D302841000070B51C481B4C0078A4F108040B
S31500003D4010F01F000AD0184AA4F11803174D59782D
S31500003D501279012806D0022824D109E012481A381F
S31500003D6020601DE0F1B1987882421BD2002015E058
S31500003D7002F08F00020605D500F00F064FF48032E0
S31500003D80B24001E00122824009B900070AD19868D1
S31500003D90104207D0D868104000D001202880256046
S31500003DA0012070BD002070BD3CE0FF1F090000200F
S31500003DB070B5264B024619461878498810F01F0040
S31500003DC0A3F1200604D0012829D0022827D111E02A
S31500003DD0012924D132B10120FDF70CFCF08840F016
S31500003DE0020005E00020FDF705FCF08820F0020047
S31500003DF0F08029E0187900F08F04200605D504F03C
S31500003E000F004FF48035854001E00125A54070780C
S31500003E1028B1200703D0B068284200D009B100209D
S31500003E2070BD2AB12046FDF74FFCF06828430AE032
S31500003E303069284208D12046FDF751FC2046FEF79E
S31500003E4075F8F068A843F060012070BD3CE0FF1FE4
S31500003E502DE9F05F5A480026017811F01F0F7DD139
S31500003E60574F8078203FB1464FF0010A4FF4803B10
S31500003E70002879D0534801783846C07809B9012816
S31500003E806CD008B1504C68E0504C66E0607802286F
S31500003E9004D0042844D005285DD143E04848617920
S31500003EA0807881423AD178702079B87000204849EC
S31500003EB0484A02E001F80090401C13889842F9D362
S31500003EC00125B8460AFA05F0D8F80810084202D0CB
S31500003ED02846FDF7E5FBD8F808100BFA05F008426E
S31500003EE003D045F08000FDF7DBFB6D1C102DE9D3F8
S31500003EF04FF00110C8E902090120C8F81090FDF73B
S31500003F0082FBE0794006B8F8060002D540F00100D1
S31500003F1001E020F00100A8F806001CE060881BE024
S31500003F20E67818E0BEB9A07800F08F05280604D51B
S31500003F3005F00F010BFA01F001E00AFA05F0B96885
S31500003F4001432046B960FDF78EFB2846FDF794FB3A
S31500003F502846FDF759FB2078044401E02AE003E0F7
S31500003F602078002892D120E04D4687F80190012460
S31500003F705E46B9680AFA04F0084202D02046FDF708
S31500003F808FFBB96806FA04F0084203D044F08000BB
S31500003F90FDF786FB641C102CEBD34FF00110C7E92C
S31500003FA0020500203D61FDF72EFB054879788078F3
S31500003FB0884202D00020BDE8F09F0120FBE7000008
S31500003FC03CE0FF1F25410000BD4100009C41000070
S31500003FD008000020264100002DE9F84F434800273D
S31500003FE03E460078BA4600F01F00B94601287BD14C
S31500003FF03E4920394878002873D0002000903C487C
S3150000400002780846C0780AB901286DD08B4608B1F7
S31500004010384C62E0384C60E06078022804D004280E
S3150000402009D0052857D118E061799BF80100814233
S3150000403051D0608850E02D48A778E67801794FF096
S315000040400009B94247D18078B04244D1012000909E
S315000040502A4810F807A0C6553DE024490879B84219
S3150000406039D1A07800F08F085FEA086005D508F01E
S315000040700F004FF48035854002E0012505FA08F56A
S315000040808878B04215D1DBF8081020462943CBF8D2
S315000040900810DBF80C10A943CBF80C10FDF7E3FA77
S315000040A04046FDF7E9FA4046FDF7AEFA49EA05094A
S315000040B011E056450FD119EA050F0CD1DBF80810AF
S315000040C04046A943CBF80810DBF80C10A943CBF8FF
S315000040D00C10FDF7E5FA20780444207800289BD1DF
S315000040E00098BDE8F88FFFE70020FAE73CE0FF1FE5
S315000040F025410000BD4100009C4100000800002051
S3150000410006000000B8010001FF5207000100000090
S3150000411010270000000000002C010000180C000011
S315000041200400000000000100080002024000000236
S315000041300000000000000000000000000100000078
S315000041400000000000000000EB1E00000000000060
S315000041507D290000000000000000000000000000B3
S315000041600000000000000000000000000000000049
S315000041700000000000000000000000000000000039
S3150000418000000000000000001201100100000008FD
S31500004190280D0402000101020301000009022000AB
S315000041A001010080FA090400000208065004070510
S315000041B082024000000705020240000000000000E5
S315000041C0040309040A034D004200450044001E038F
S315000041D04D00420045004400200043004D005300BE
S315000041E0490053002D004400410050001A033000DE
S315000041F03000300031004100300030003000300027
S3150000420030003000300010035500530042005F00BC
S315000042104D0053004300EB3C904D5357494E342E0E
S315000042203100020801000220003001F00300010005
S3150000423001000000000000000000000029741902BF
S31500004240274D626564205553422020204641543153
S3150000425032202020000000000000000000000000C6
S315000042600000000000000000000000000000000048
S315000042700000000000000000000000000000000038
S315000042800000000000000000000000000000000028
S315000042900000000000000000000000000000000018
S315000042A00000000000000000000000000000000008
S315000042B000000000000000000000000000000000F8
S315000042C000000000000000000000000000000000E8
S315000042D000000000000000000000000000000000D8
S315000042E000000000000000000000000000000000C8
S315000042F000000000000000000000000000000000B8
S3150000430000000000000000000000000000000000A7
S315000043100000000000000000000000000000000097
S315000043200000000000000000000000000000000087
S315000043300000000000000000000000000000000077
S315000043400000000000000000000000000000000067
S315000043500000000000000000000000000000000057
S315000043600000000000000000000000000000000047
S315000043700000000000000000000000000000000037
S315000043800000000000000000000000000000000027
S315000043900000000000000000000000000000000017
S315000043A00000000000000000000000000000000007
S315000043B000000000000000000000000000000000F7
S315000043C000000000000000000000000000000000E7
S315000043D000000000000000000000000000000000D7
S315000043E000000000000000000000000000000000C7
S315000043F000000000000000000000000000000000B7
S3150000440000000000000000000000000000000000A6
S315000044100000000055AAF0FFFFFFFFFFFFFFFF00AF
S3150000442000000000000000004641494C20202020EA
S315000044305458542018B174768E418E4100008E7601
S315000044408E410600070000002E202020202020207C
S315000044502020201000A5858A734373430000868AB6
S3150000446073430300000000002E2E20202020202071
S315000044702020201000A5858A734373430000868A96
S3150000448073430000000000004247007500690064A5
S315000044900000000F00FFFFFFFFFFFFFFFFFFFFFF12
S315000044A0FFFF0000FFFFFFFF0149006E006400658B
S315000044B00078000F00FF6500720056006F006C0068
S315000044C0750000006D006500494E444558457E3133
S315000044D02020202000A7858A734373430000868A24
S315000044E0734304004C0000007B00390036003600A0
S315000044F0310039003800320030002D003700370017
S31500004500440031002D0034004600380038002D00EC
S3150000451038004600350033002D00360032004400D6
S315000045203900370046003500460034004600460094
S3150000453039007D00000000000042494E00000000E6
S315000045400062696E00000000015041520000000048
S3150000455002444F570000000003435244000000008D
S315000045600500000000000000424F4F544C4F4144EC
S31500004570455220280000000000000000000085755C
S315000045808E41000000000000412E006600730065A9
S315000045900076000F00DA65006E0074007300640098
S315000045A000000000FFFFFFFF46534556454E7E3193
S315000045B02020201200477D758E418E4100007D75BA
S315000045C08E4102000000000042650072005F006933
S315000045D0006E000F00A86400650078000000FFFF71
S315000045E0FFFF0000FFFFFFFF012E006D0065007456
S315000045F00061000F00A864006100740061005F00A4
S315000046006E000000650076004D45544144417E3100
S3150000461020202022003285758E418E41000085754E
S315000046208E41000000000000412E0054007200611F
S315000046300073000F00256800650073000000FFFF8F
S31500004640FFFF0000FFFFFFFF5452415348457E31F4
S3150000465020202022003285758E418E41000085750E
S315000046608E4100000000000042200049006E0066F6
S31500004670006F000F007272006D0061007400690027
S315000046806F0000006E000000015300790073007493
S315000046900065000F00726D00200056006F006C0070
S315000046A0750000006D00650053595354454D7E3129
S315000046B02020201600A5858A734373430000868A4E
S315000046C07343030000000000424F4F544C4F4144D7
S315000046D048544D2018B174768E418E4100008E7676
S315000046E08E41050000020000002E20202020202000
S315000046F0202020203200477D758E418E41000088A3
S31500004700758E410200000000002E2E202020202061
S31500004710202020201000477D758E418E4100007DAF
S31500004720758E410000000000004E4F5F4C4F472041
S315000047302020202020083285758E418E410000857C
S31500004740758E410000000000003C212D2D206D6279
S315000047506564204D6963726F636F6E74726F6C6C03
S315000047606572205765627369746520616E642041C5
S31500004770757468656E7469636174696F6E205368D9
S315000047806F7274637574202D2D3E0D0A3C212D2DFC
S315000047902056657273696F6E3A203032303120428E
S315000047A075696C643A2046656220323520323031B4
S315000047B0342031363A35303A3231202D2D3E0D0A2D
S315000047C03C68746D6C3E0D0A3C686561643E0D0A7A
S315000047D03C6D65746120687474702D6571756976B9
S315000047E03D22726566726573682220636F6E74651A
S315000047F06E743D22303B2075726C3D687474703A5D
S315000048002F2F6D6265642E6F72672F6465766963FC
S31500004810652F3F636F64655F626C3D4041222F3EAA
S315000048200D0A3C7469746C653E6D6265642057655B
S3150000483062736974652053686F72746375743C2F74
S315000048407469746C653E0D0A3C2F686561643E0DA3
S315000048500A3C626F64793E3C2F626F64793E0D0AB2
S315000048603C2F68746D6C3E0D0A0D0A0030313233F0
S31500004870343536373839414243444546006B346651
S315000048806C75356673004D424544202020206D69C5
S3150000489063726F6E74726F6C6C6572202020312E9D
S315000048A030200042414420455854454E53494F4E0E
S315000048B02046494C450053574420504F52542049F6
S315000048C04E2055534500535744204552524F5200EF
S315000048D042414420535441525420534543544F526D
S315000048E0004E4F5420434F4E534543555449564569
S315000048F020534543544F5253005245534552564553
S315000049004420424954530054494D454F55540030B4
S31500004910323031005449000000E0FF1F6000000003
S31500004920A8040000B4490000000000202001000097
S31500004930A8040000B449000060E0FF1FD014000086
S31500004940C4040000D44A000020010020D014000056
S31500004950C4040000006CDC0200000000000000003F
S3150000496000000000000000005555555500000000ED
S315000049700000000000000000000000000000000031
S315000049800000000000000000000000000000000021
S315000049900000000000000000000000000000000011
S315000049A00000000000000000000000000000000001
S315000049B00000000000000000864800000000000023
S315000049C000000000000000000101000000000000DF
S315000049D0000000000050000007000000000000007A
S315000049E000000000000000000000000000000000C1
S315000049F000000000000000000000000000000000B1
S31500004A0000000000164200000002000016440000EC
S31500004A1010000000264400000000000026440000AC
S31500004A2000000000264400000000000026440000AC
S31500004A300000000026440000000000006845000059
S31500004A4080010000E846000001000000E946000081
S31500004A506000000078E0FF1F00020000C64800006A
S31500004A60A3480000E1480000B6480000F9480000ED
S31500004A70D048000007490000000000000F49000070
S31500004A800000000000000000000000000000000020
S31500004A900000000000000000000000000000000010
S31500004AA00000000000000000000000000000000000
S31500004AB000000000000000000000000000000000F0
S31500004AC000000000000000000000000000000000E0
S31500004AD000000000FFFFFFFFFFFFFFFFFFFFFFFFDC
S31500004AE0FFFFFFFFFFFFFFFFFFFFFFFFFFFFFFFFD0
S31500004AF0FFFFFFFFFFFFFFFFFFFFFFFFFFFFFFFFC0
S31500004B00FFFFFFFFFFFFFFFFFFFFFFFFFFFFFFFFAF
S31500004B10FFFFFFFFFFFFFFFFFFFFFFFFFFFFFFFF9F
