S00F0000424C5F426C696E6B2E686578A0
S113400000300020C9430000414100004941000044
S11340104941000049410000494100004941000074
S11340204941000049410000494100004941000064
S11340304941000049410000494100004941000054
S11340404941000049410000494100004941000044
S11340504941000049410000494100004941000034
S11340604941000049410000494100004941000024
S11340704941000049410000494100004941000014
S11340804941000049410000494100004941000004
S113409049410000494100004941000049410000F4
S11340A049410000494100004941000049410000E4
S11340B049410000494100004941000049410000D4
S11340C0C046C046C04670470020C046C046C046F1
S11340D0C046C04601300928F7D9C046704710B51C
S11340E0041C642C04D9643CFFF7EEFFA4B2F8E787
S11340F00A2C04D90A3CFFF7E3FFA4B2F8E710BD89
S113410010B5041C0548844204D9FFF7E8FF044BAA
S1134110E418F7E7A0B2FFF7E2FF10BD60EA000081
S1134120A015FFFF10B5041C002C05D00348013C6A
S1134130FFF7E6FFA4B2F7E710BDC046EB5100005D
S113414008B500F07BF908BDFFBE7047214B224A39
S1134150224910B5D1508824214B62010020985087
S1134160C02120488C02204A1C509C58B02149018F
S1134170214399501D4A082194780C4202D0947826
S1134180214391701A4900221A505C581948204062
S113419058501C68C0200003204318605C5816481F
S11341A020408024640420435850144B0621197085
S11341B05A70D8781F24124904408020DC7008709B
S11341C01A715A719A79D106FCD59C790C20044253
S11341D0FBD110BD080D000000E000E0004000002D
S11341E000700440441000003810000000D0074064
S11341F004100000FFFFFEFFFFFFFFFC004006402D
S113420000500640224A38B522481369E021034091
S1134210C9000B431361204B1F255C79AC435C71CF
S11342201C790725AC431C711C4B73251C78AC43CB
S113423050252C431C705C786325AC4340252C43EB
S11342405C709C781925AC439C70154B00241C7041
S1134250156D284001431165C120124A8300D558C9
S11342601149201C2940D15000F082F80F4D2868D4
S113427000F09EF8201C00F047F8686800F068F829
S1134280201C00F015F8A86800F036F862B638BDB6
S113429000900440FFF8FFFE00F0074000D0074004
S11342A000E0074000E100E0FFFF00FF00F0FF1F17
S11342B00B4B0C4A802110605869C90201435961B3
S11342C01868094901401960084B0949986C014074
S11342D08020400001439964064B101C9A6070478B
S11342E040F00F400CF0FF1FFFFFFBFF00A0044055
S11342F0FFF8FFFE00F0FF1F8022024BD00258603F
S11343007047C04640F00FF80B4B0C4A80211060F8
S11343105869090301435961186809490140196042
S1134320084B0949D86C0140802040000143D964FE
S1134330064B101C5A60704740F00F4010F0FF1FEE
S1134340FFFFF7FF00A00440FFF8FFFE00F0FF1F8F
S11343508022024B100358607047C04640F00FF8AB
S11343608022024B1003D8607047C04640F00FF81B
S11343700A4B0B4A022110605869084358611868B7
S113438088431860074B0849586801408020400062
S113439001435960054B101C1A607047C0F00F4070
S11343A014F0FF1F00C00440FFF8FFFE00F0FF1FE1
S11343B0014B02225A607047C0F00FF8014B0222F1
S11343C0DA607047C0F00FF800F026F9FFF7BEFE80
S11343D00848094A0021121A00F04EF800F0F4F8D7
S11343E000F090F800F026F90449002000F00AF8E3
S11343F000F026F800F0FF1F34F0FF1F18F0FF1F35
S113440000B5FEE710B5FFF7FDFE0B4C2068FFF783
S1134410D5FFFA204000FFF785FE6068FFF7A0FF94
S1134420FA214800FFF77EFE2068FFF7C7FFFA2253
S11344305000FFF777FEE8E700F0FF1F7047000029
S113444038B5051C00F0DAF800F080F8084C236851
S1134450002B02D0984700202060064C21680029D8
S113446002D0884700222260281CFFF7C9FF38BD0C
S11344701CF0FF1F20F0FF1F10B5041C00F002F811
S1134480201C10BD30B5C9B2031C1F2A31D94442C7
S11344900323234005D0D21AC51801700130A84265
S11344A0FBD1002905D00D060C042C430B0221433B
S11344B019435409031C002C0ED0251C013D19601E
S11344C059609960D960196159619961D961203342
S11344D0002DF3D16301C318D006400F07D0041C8C
S11344E01D1C013C02C5002CFBD180001B180324B9
S11344F022409D18002A03D019700133AB42FBD12E
S113450030BD000010B50B4C0B4B9C4202D001CCCB
S11345108047F9E7094C0A48844202D008CC9847FE
S1134520F9E7084C08498C4202D004CC9047F9E7DB
S113453010BDC0463846000038460000384600002A
S113454038460000384600003846000010B5084CD4
S1134550084B9C4202D004CC9047F9E7064C07482C
S1134560844203D0043C21688847F8E710BDC04664
S1134570384600003846000038460000384600003F
S113458000B588421FD0002A1DD00323194207D149
S1134590184205D19A4203D908C9043A08C0F2E77F
S11345A00123194209D1184207D19A4205D90B882F
S11345B0023A038002310230E5E70B78013A0370D6
S11345C001310130DFE700BD38B50B4D002D11D0AE
S11345D000242B191968002906D02B1958689A68E9
S11345E0FFF7CEFF0C34F4E75A68002AF5D1986837
S11345F00028F2D138BDC04638460000054B10B53E
S11346001C68002C04D0A068616888472468F8E717
S113461010BDC04630F0FF1F054B181C002805D004
S1134620854681B00020C043009001B0F746704732
S10B463000300020F74670473A
S11346383846000000F0FF1F0000000000000000E2
S10B4648000000000000000066
S90343C9F0
