S00F0000424C5F426C696E6B2E686578A0
S11380000030002025900000B5900000BD900000D5
S1138010BD900000BD900000BD900000BD90000028
S1138020BD900000BD900000BD900000BD90000018
S1138030BD900000BD900000BD900000BD90000008
S1138040BD900000BD900000BD900000BD900000F8
S1138050BD900000BD900000BD900000BD900000E8
S1138060BD900000BD900000BD900000BD900000D8
S1138070BD900000BD900000BD900000BD900000C8
S1138080BD900000BD900000BD900000BD900000B8
S1138090BD900000BD900000BD900000BD900000A8
S11380A0BD900000BD900000BD900000BD90000098
S11380B0BD900000BD900000BD900000BD90000088
S11390007047000008B500F0A9F8044B186800F098
S11390104BF8FA20400000F003F9F6E708F0FF1FD0
S113902000B5FEE700F0F4F900F04AF80848094AF0
S11390300021121A00F01CF900F0C2F900F05EF9E8
S113904000F0F4F904490020FFF7DCFF00F0F4F825
S113905000F0FF1F24F0FF1F00F0FF1F0A4B0B4A14
S113906002211060586908435861186888431860E1
S1139070074B08495868014080204000014359606B
S1139080054B101C1A607047C0F00F4004F0FF1F1E
S113909000C00440FFF8FFFE08F0FF1F014B02224E
S11390A05A607047C0F00FF8014B0222DA60704733
S11390B0C0F00FF808B5FFF7A3FF08BDFFBE704767
S11390C01B4B1C4A1C4910B58820D1501B4B002255
S11390D044011B491A515C589020400120435850C8
S11390E0184919485A5019495C58204058501C686E
S11390F0C0200003204318605C5815482040802499
S1139100640420435850134B062119705A70D878C0
S11391101F24114904408020DC7008701A715A71B0
S11391209A79D106FCD59C790C200442FBD110BD60
S1139130080D000000E000E0008000000070044022
S11391403810000044100000FFFFFEFF0410000070
S1139150FFFFFFFC00400640005006401C4A38B5A3
S113916013691C4CE0212340C9000B4313611A4BC3
S11391701F255879A843587118790725A8431871F1
S1139180164B73251878A84350252843187058782F
S11391906325A84340252843587098781925A84387
S11391A098700F4B00201870156D2C4021431165E9
S11391B0C1240C4AA300D5580B492940D150FFF7CC
S11391C04DFF0A480068FFF769FF62B638BDC04624
S11391D000900440FFF8FFFE00F0074000D0074075
S11391E000E0074000E100E0FFFF00FF08F0FF1F80
S11391F007B56B460733002119701A78842A04D8FE
S1139200C04618780130C1B2F6E707BD10B5041C9A
S1139210642C04D9643CFFF7EBFFA4B2F8E710BD5B
S113922010B5041C002C06D0FA208000013CFFF786
S1139230EDFFA4B2F6E710BD38B5051C00F0DAF86E
S113924000F080F8084C2368002B02D098470020D7
S11392502060064C2168002902D088470022226041
S1139260281CFFF7DDFE38BD0CF0FF1F10F0FF1FB8
S113927010B5041C00F002F8201C10BD30B5C9B2B2
S1139280031C1F2A31D944420323234005D0D21A98
S1139290C51801700130A842FBD1002905D00D0684
S11392A00C042C430B02214319435409031C002CC6
S11392B00ED0251C013D196059609960D96019616F
S11392C059619961D9612033002DF3D16301C31829
S11392D0D006400F07D0041C1D1C013C02C5002C05
S11392E0FBD180001B18032422409D18002A03D0C0
S11392F019700133AB42FBD130BD000010B50B4CEB
S11393000B4B9C4202D001CC8047F9E7094C0A4838
S1139310844202D008CC9847F9E7084C08498C42AB
S113932002D004CC9047F9E710BDC0463094000049
S11393303094000030940000309400003094000019
S11393403094000010B5084C084B9C4202D004CC69
S11393509047F9E7064C0748844203D0043C21684F
S11393608847F8E710BDC0463094000030940000F0
S1139370309400003094000000B588421FD0002AC9
S11393801DD00323194207D1184205D19A4203D9AB
S113939008C9043A08C0F2E70123194209D1184266
S11393A007D19A4205D90B88023A03800231023070
S11393B0E5E70B78013A037001310130DFE700BDC6
S11393C038B50B4D002D11D000242B191968002934
S11393D006D02B1958689A68FFF7CEFF0C34F4E7CF
S11393E05A68002AF5D198680028F2D138BDC046E1
S11393F030940000054B10B51C68002C04D0A06804
S1139400616888472468F8E710BDC04620F0FF1F54
S1139410054B181C002805D0854681B00020C043A8
S1139420009001B0F746704700300020F7467047BF
S11394303094000000F0FF1F000000000000000056
S10B9440000000000000000020
S903902547
