S015000074696E794B32325F426C696E6B792E733139A4
S113A0000000012091A1000019A2000031BD000050
S113A0101DA200001FA2000021A2000000000000F9
S113A02000000000000000000000000023A2000067
S113A03025A200000000000027A2000029A20000C1
S113A040A9BA0000B1BA0000B9BA0000C1BA000050
S113A050C9BA0000D1BA0000D9BA0000E1BA0000C0
S113A060E9BA0000F1BA0000F9BA000001BB00002F
S113A07009BB000011BB000019BB000021BB00009C
S113A08029BB000031BB000039BB000041BB00000C
S113A09049BB000051BB000059BB000061BB00007C
S113A0A069BB000071BB000079BB000081BB0000EC
S113A0B089BB000091BB000099BB0000A1BB00005C
S113A0C0A9BB0000B1BB0000B9BB0000C1BB0000CC
S113A0D0C9BB0000D1BB0000D9BB0000E1BB00003C
S113A0E0E9BB0000F1BB0000F9BB000001BC0000AB
S113A0F009BC000011BC000019BC000021BC000018
S113A10029BC000031BC000039BC000041BC000087
S113A11049BC000051BC000059BC000061BC0000F7
S113A12069BC000071BC000079BC000081BC000067
S113A13089BC000091BC000099BC0000A1BC0000D7
S113A140A9BC0000B1BC0000B9BC0000C1BC000047
S113A150C9BC0000D1BC0000D9BC0000E1BC0000B7
S113A160E9BC0000F1BC0000C4C5000000000020F0
S113A17004000000C4C500000000FF1F0000000030
S113A18004000020C40000000000FF1F00000000C5
S113A19010B572B6104B4FF420429A6000F05CFB8D
S113A1A00E4B07E003F10C049A685968186800F034
S113A1B01BF823460A4A9342F4D306E01C46596826
S113A1C054F8080B00F01FF82346064A9342F5D3CF
S113A1D062B601F0A4FEFEE700ED00E068A1000015
S113A1E080A1000090A10000002393420AD210B481
S113A1F050F8044B41F8044B04339342F8D35DF810
S113A200044B7047704700238B4204D2002240F86D
S113A210042B0433F8E77047FEE7FEE7FEE7FEE7AA
S113A220FEE7FEE7FEE7FEE7FEE7FEE7FFFFFFFFD0
S113A230FFFFFFFFFFFFFFFFFFFFFFFFFFFFFFFF2A
S113A240FFFFFFFFFFFFFFFFFFFFFFFFFFFFFFFF1A
S113A250FFFFFFFFFFFFFFFFFFFFFFFFFFFFFFFF0A
S113A260FFFFFFFFFFFFFFFFFFFFFFFFFFFFFFFFFA
S113A270FFFFFFFFFFFFFFFFFFFFFFFFFFFFFFFFEA
S113A280FFFFFFFFFFFFFFFFFFFFFFFFFFFFFFFFDA
S113A290FFFFFFFFFFFFFFFFFFFFFFFFFFFFFFFFCA
S113A2A0FFFFFFFFFFFFFFFFFFFFFFFFFFFFFFFFBA
S113A2B0FFFFFFFFFFFFFFFFFFFFFFFFFFFFFFFFAA
S113A2C0FFFFFFFFFFFFFFFFFFFFFFFFFFFFFFFF9A
S113A2D0FFFFFFFFFFFFFFFFFFFFFFFFFFFFFFFF8A
S113A2E0FFFFFFFFFFFFFFFFFFFFFFFFFFFFFFFF7A
S113A2F0FFFFFFFFFFFFFFFFFFFFFFFFFFFFFFFF6A
S113A300FFFFFFFFFFFFFFFFFFFFFFFFFFFFFFFF59
S113A310FFFFFFFFFFFFFFFFFFFFFFFFFFFFFFFF49
S113A320FFFFFFFFFFFFFFFFFFFFFFFFFFFFFFFF39
S113A330FFFFFFFFFFFFFFFFFFFFFFFFFFFFFFFF29
S113A3406B63666700A00000C8250000047C5D25DF
S113A35001108813FFFFFFFFFFFFFFFFFEFFFEFF5B
S113A360FFFFFFFFFFFFFFFFFFFFFFFFFFFFFFFFF9
S113A370FFFFFFFFFFFFFFFFFFFFFFFFFFFFFFFFE9
S113A380FFFFFFFFFFFFFFFFFFFFFFFFFFFFFFFFD9
S113A390FFFFFFFFFFFFFFFFFFFFFFFFFFFFFFFFC9
S113A3A0FFFFFFFFFFFFFFFFFFFFFFFFFFFFFFFFB9
S113A3B0FFFFFFFFFFFFFFFFFFFFFFFFFFFFFFFFA9
S113A3C0FFFFFFFFFFFFFFFFFFFFFFFFFFFFFFFF99
S113A3D0FFFFFFFFFFFFFFFFFFFFFFFFFFFFFFFF89
S113A3E0FFFFFFFFFFFFFFFFFFFFFFFFFFFFFFFF79
S113A3F0FFFFFFFFFFFFFFFFFFFFFFFFFFFFFFFF69
S113A400FFFFFFFFFFFFFFFFFFFFFFFFFEFFFFFF59
S113A410FFFFFFFFFFFFFFFFFFFFFFFFFEBDFFFF8B
S113A42080B483B000AF084B7B6003E000BF7B685F
S113A430013B7B607B68002BF8DC00BF0C37BD461A
S113A4405DF8047B704700BF40420F0080B500AF49
S113A45001F05FFD01F013FD01F01EFD094801F05C
S113A4608DFA0421084801F047FCFFF7D9FFFFF7F4
S113A470D7FF0421044801F04DFCFFF7D1FFFFF79B
S113A480CFFFEEE748C3000080F00F4080B483B0F4
S113A49000AF7860084B1B6823F440227B689B0460
S113A4A003F44023044913430B6000BF0C37BD463B
S113A4B05DF8047B704700BF0070044080B483B033
S113A4C000AF78600B4B03F5805304331B6823F40F
S113A4D040327B681B0403F4403306491A4301F5F8
S113A4E0805304331A6000BF0C37BD465DF8047B0B
S113A4F0704700BF0070044080B485B000AF78603E
S113A5007B6849F69702934202D80023FB7308E064
S113A5107B68074A934202D80123FB7301E00223BC
S113A520FB73FB7B18461437BD465DF8047B70470C
S113A53000127A0080B582B000AF78600A497B6867
S113A5405A6801F5825304331A607B681B781846F5
S113A550FFF7B4FF7B685B781846FFF797FF00BFEF
S113A5600837BD4680BD00BF0070044080B485B08C
S113A57000AF0346FB71174B1B7BDBB203F00302F6
S113A580FB799A4202D00123FB7301E00023FB73A1
S113A590104B1B7BDBB223F00303DAB2FB7903F02D
S113A5A00303DBB20B491343DBB20B73FB7B002BBE
S113A5B009D040F2DC53BB6000E000BFBB685A1E08
S113A5C0BA60002BF9D1002318461437BD465DF854
S113A5D0047B70470040064080B584B000AF7860CB
S113A5E07B68002B02D11B4800F0EEF90023FB73BB
S113A5F07B685B7803F01F03DAB2FB7B1343FB73C6
S113A600154AFB7B1371144B5B79DBB223F01F03F8
S113A610DAB27B689B7803F01F03DBB20E49134365
S113A620DBB24B710C4B1B79DAB27B681B7813439A
S113A630DBB2094A43F04003DBB2137100BF064B9F
S113A6409B79DBB203F04003002BF8D000BF103736
S113A650BD4680BD5CC400000040064080B584B0A7
S113A66000AF78607B681B681846FFF745FF034618
S113A670FB737B681B791946194801F08FFB7B68D3
S113A68006331946164801F069FB164B5B78DBB2BA
S113A69023F03C03DAB2FB7B1B01DBB203F0300393
S113A6A0DBB21343DAB27B685B790E491343DBB246
S113A6B04B707B685B79002B0DD0094B1B78DBB2A8
S113A6C05BB2002B07DA00BF064B9B79DBB203F0C9
S113A6D00203002BF8D000BF1037BD4680BD00BF79
S113A6E0005006400040064080B582B000AF0346EB
S113A6F03960FB713B68002B02D1234800F064F9F8
S113A700224B5B78DBB2214A23F00203DBB25370A5
S113A7101E4B1B78DBB203F03B03DBB21B4A63F036
S113A7207F03DBB2137000BF184B9B79DBB203F0DD
S113A7301C03082BF8D1154B5B79DBB2134A23F0C9
S113A7404003DBB2537100BF104B9B79DBB203F0C3
S113A7502003002BF8D13868FFF73EFF0B4B5B79E1
S113A760DBB20A4A43F04003DBB2537100BF074B2C
S113A7709B79DBB203F02003002BF8D000231846AA
S113A7800837BD4680BD00BF84C4000000400640B9
S113A79080B582B000AF03463A60FB710B46BB71D3
S113A7A03B68002B02D1114800F00EF9FB791846E2
S113A7B0FFF7DCFEBB7939681846FFF795FF0C4BB1
S113A7C01B78DBB20A4A03F03F03DBB2137000BF0D
S113A7D0074B9B79DBB29B0803F00303032BF7D1F0
S113A7E0002318460837BD4680BD00BFACC4000036
S113A7F00040064080B584B000AFF860B9607A606C
S113A8007B68002B02D1134800F0DEF87B681B78CC
S113A810002B0AD1FB685A690121BB6801FA03F3D2
S113A820DB431A40FB685A610FE07B685B781A4689
S113A830B968F86801F0CCFAFB685A690121BB6871
S113A84001FA03F31A43FB685A6100BF1037BD468F
S113A85080BD00BF14C5000080B500AF0B4BD3F81A
S113A86088300A4A43F47003C2F88830084B4CF22B
S113A8702052DA81064B4DF62812DA81044B4FF44C
S113A880E9721A8001F0D8FA00BF80BD00ED00E043
S113A8900020054080B400AF054B03F58253043318
S113A8A0044A1A6000BFBD465DF8047B704700BFD0
S113A8B0007004400000230180B483B000AF7860CE
S113A8C0044A7B68136000BF0C37BD465DF8047B07
S113A8D0704700BF0400002080B483B000AF03467B
S113A8E0FB710B4B1B78DBB223F03803DAB2FB7934
S113A8F0DB00DBB203F03803DBB205491343DBB200
S113A9000B7000BF0C37BD465DF8047B704700BF79
S113A9100040064080B500AFAA21144801F093FA24
S113A920124801F070FA00BF104801F09BFA034688
S113A930802BF9D1FFF7AEFF0D48FFF78FFE0D4BCB
S113A9401846FFF7B9FF00231846FFF7C5FF002399
S113A950094A00211846FFF71BFF0848FFF7EAFDE4
S113A960074B084A1A6000BF80BD00BF00E00740E3
S113A9704CC5000000127A0040C5000044C5000028
S113A98000000020000E270780B582B000AF0A48FF
S113A99001F088FA094B1B88BB803B1D1A46022133
S113A9A00748FFF727FF01220221064801F094FA25
S113A9B000BF0837BD4680BD0B00381054C50000E9
S113A9C080F00F4000B0044010B50F4904460F4812
S113A9D001F0ADFB0C49204601F0A9FB0C49D1F86C
S113A9E08030013B002BC1F8803008DB8B6F5A1C90
S113A9F08A670A221A70BDE8104000F00BB878315B
S113AA000A2001F0B3FAF6E7800000205CC50000DC
S113AA100800002018200149ABBE70472600020040
S113AA202DE9F041D5685769EB0280460E4614467D
S113AA3005D5384601F064FC45F01005A061124BC1
S113AA402B408BB1A169384601F06CFC002806DA72
S113AA50E36843F08003E3604FF0FF3011E025F436
S113AA60003525F01005E56032464146384601F0D0
S113AA7065FC20F00043F61AA3691E44A661002871
S113AA80E6D1BDE8F08100BF10000200F8B5304FF8
S113AA903C68002851D10020F8BD2368B3F1805FE1
S113AAA039D1D4E9013252B11168B1F1805F06D1D4
S113AAB0516803330B4463609368A360F1E7AB42CE
S113AAC007DB734505DC20464FF0005340F80C3B90
S113AAD0E2E7634511D920464FF00051656040F824
S113AAE00C1B5B1B00EB8501A160033B4FF0805402
S113AAF040F82540C1E90132CEE762B9A0EB8300FA
S113AB0000F086FF0130C6D04FF00053C4E9003591
S113AB1004F10C00C0E72646A468002CBDD10C301B
S113AB2000F076FF431CB6D04FF00053C0E9003567
S113AB30846056B938600C30AEE7C31C9D0800260B
S113AB4005F10A0C05F1030EE7E7B060F3E700BF77
S113AB50C000002010B5FFF799FF044628B917225A
S113AB60034901F0EBFBFFF755FF204610BD00BF82
S113AB7071C500002DE9F843C6683D4B33400446D7
S113AB800D4690461BB902273846BDE8F883D0F835
S113AB901490484601F0BAFB07460028F3D1B8F1F7
S113ABA0010F2CD0B8F1020F2ED0B8F1000FEAD16A
S113ABB0002DE8DBB00404D52368E26A9A4238BF6A
S113ABC0E362A169A9420EDC2368E26A934238BFBA
S113ABD0134622695818801AA84204DB206B01EB43
S113ABE0000CAC4534DC0023C4E9013346F02006F4
S113ABF0A56226F4032626F04006E660C4E7204654
S113AC0000F038F80544D3E7484601F079FBB0F189
S113AC10000CE26804DA42F08002E2600127B3E744
S113AC20E36A1846A3691946236883422CBFC918EE
S113AC3009180B4621699206A3EB010303D5A26A06
S113AC409342B8BF13466345ACBFED186544AFE704
S113AC506D1AB10744BF281AA060F10744BF9B1ABC
S113AC60EB1A154448BF6360256026F02006C0E750
S113AC7003001000C3689A0705D10F4B21221A6004
S113AC804FF0FF30704703F020021B030AD512B1C6
S113AC90806A0138704703688269006913441B1A8B
S113ACA0581E70470AB1806A704703688269006958
S113ACB01344181A704700BFC400002010B5174A87
S113ACC01749002001F073FA4FF480734FF4806247
S113ACD00021124800F07CFE124A1349012001F0C1
S113ACE066FA4FF480734FF4806200210D4800F03F
S113ACF06FFE0E4B1B68022B0EDD0D4A0A49022023
S113AD0001F055FA4FF480734FF480620021084833
S113AD10BDE8104000F05CBE10BD00BF080000207C
S113AD2089C50000440000208BC5000058C5000000
S113AD30800000202DE9F04F9FB0CDE90A23DDF813
S113AD40A4B0002305460C93DDF8A08018F8010B8D
S113AD5018B90C981FB0BDE8F08F25281AD00C9BA9
S113AD60DDE90A671946DA175C1CB1421346BB4198
S113AD7008DAAB68013B002BAB6007DB2B685A1C7D
S113AD802A6018700C94CDF8A080DDE7294601F004
S113AD90EDF8F7E700240AE02D2F04D0302F11D16D
S113ADA044F4007401E044F00104DDF81C804346DF
S113ADB013F8017B07932B2F14D0EDD8202F14D038
S113ADC0232F15D02A2F16D000230A21A7F13002F1
S113ADD0D0B209281DD801FB0323079A12F8017B7E
S113ADE00792F3E744F00204DFE744F00404DCE7ED
S113ADF044F00804D9E75E46079A56F8043B1778EE
S113AE00002B08F10202BCBF5B4284F00104B3468C
S113AE1007922E2F23EAE3793DD1079B1F782A2F2F
S113AE2010D0013307934FF000080A22A7F1300332
S113AE30D9B209290ED802FB0838079B13F8017B05
S113AE400793F3E75E46079B56F8048B5F7802335B
S113AE50B3460793B8F1000F1DDB44F010046C2FC8
S113AE600ED1079B1F786C2F15BF079B5F780133AA
S113AE70023307BF44F060040793079344F02004AF
S113AE804C2F01D0712F09D1079B13F8017B44F09B
S113AE906004079312E04FF00008E0E7682F62D1E6
S113AEA0079B1F78682F04D15F7844F480740233C1
S113AEB0EFE7079B0133079344F08004672F00F307
S113AEC0AF80652F80F20D83472F00F00A8357DC93
S113AED0412F00F00083452F00F00383002F00F082
S113AEE03F8114F0010609F1FF3A0FD10C9B14F4D1
S113AEF0007F14BF3024202498464FEAE3790C9B4A
S113AF00BAF1010A03F1010340F1F0800C9B1946E8
S113AF10DA175C1C13460A46DDE90A0182428B41BA
S113AF2009DAAB68013B002BAB60C0F2FB802B68F5
S113AF305A1C2A601F70002E00F0E8842646E7178A
S113AF40D0464FF02009B8F1010840F1F0802346C3
S113AF50BAF1000FA8BF53440C935E46B3460C9C51
S113AF60DDF81C800EE76A2F05D144F04004079BEE
S113AF7013F8017B8DE77A2FF9D0742F9ED1F6E771
S113AF80612F00F0A88221DC582FAAD1610640F17C
S113AF9056810BF1070626F00706F6E80223CDE9F1
S113AFA0042314F0800100F05281BDF810100491C4
S113AFB000230593B949BA4814F0080F08BF08469E
S113AFC0E30601D524F40074B6498EE1632F00F042
S113AFD08880642F85D1660655BF5E460BF107064F
S113AFE056F8042B26F007064CBFF6E80223D317C5
S113AFF0200640F1618212B2D317002A73F10001D6
S113B00080F25F82524263EB4303CDE90423A648F6
S113B01014F0100100F0698124F40074002164E14B
S113B020702F00F0598106DC6E2F00F09D8000F334
S113B030F081692FCEE7752F00F01482782F00F08D
S113B0400F81732F7FF44DAF5E46984B56F804ABD7
S113B050BAF1000F08BF9A46504601F080F88346C3
S113B060E00602D5C345A8BFC34614F00103A9EB0B
S113B0700B07049313D10C9A14F4007F14BF3023EC
S113B080202390464FEAE2793C46013C40F184801B
S113B0900C9A27EAE7731A44013F0C92FF1A0C9B9F
S113B0A0002498464FEAE3795C45C0F290800C9BFB
S113B0B0BBF1000FA8BF5B440C93049B002B3FF42F
S113B0C04DAF0C9B3C4698464FEAE3794FF0200A7B
S113B0D0013C40F19A800C9B002FA8BFDB190C9314
S113B0E03CE75E4656F8047BB346FAE6DDE90A120D
S113B0F0884579EB020208DAAA68013A002AAA60B4
S113B10009DB2A68511C2960147018F1010849F1FF
S113B11000090C93F3E629462046049300F026FF29
S113B120049BF2E72946384600F020FF03E7DDE9F7
S113B1300A23964277EB030309DAAB68013B002B41
S113B140AB6008DB2B685A1C2A6083F80090013638
S113B15047F10007F7E62946202000F007FFF6E74D
S113B160079B013B0793F8E660060BF10406DBF846
S113B17000300C9A04D51046D117C3E90001EDE65E
S113B180A10601D51A60E9E6E70501D51A70E5E6DE
S113B1902406F7D51A80E1E6DDE90A12884579EB41
S113B1A0020208DAAA68013A002AAA6008DB2A68BF
S113B1B0511C2960137018F1010849F1000964E772
S113B1C018462946089300F0D1FE089BF3E7DDE911
S113B1D00A23904579EB03030ADAAB68013B002BA1
S113B1E0AB600CDB2B685A1C2A601AF804201A7016
S113B1F018F1010804F1010449F1000954E7294652
S113B2001AF8040000F0B2FEF2E7DDE90A239045E3
S113B21079EB030309DAAB68013B002BAB6009DB74
S113B2202B685A1C2A6083F800A018F1010849F120
S113B23000094DE72946202000F098FEF5E75E4618
S113B240002156F8042B1046CDE90401A9E6E205D5
S113B2507FF5B0AE049B03F0FF00CDE90401A9E63D
S113B260610629D50BF1070626F00706F6E8022346
S113B270CDE9042314F0800126D0BDF81010049108
S113B2800023059305490A4814F0080F08BF08462F
S113B290E30601D524F40074064926E088C50000BD
S113B2A094C50000A0C500009CC500008DC5000029
S113B2B097C50000B1C500005E46002156F8042B76
S113B2C01046CDE90401D5E7E205DBD5049B03F084
S113B2D0FF00CDE90401D5E75E46002156F8042BB2
S113B2E01046CDE90401AE49AE480C9BDDE90AAB3A
S113B2F0BAEB030A6BEBE37BCDE908ABCDE9108035
S113B3000DF1580C4FF0FF30CDE91200E646002055
S113B3104FF05508013020280EF8018BFAD114F4AF
S113B320826F04BF01201090672F00F31381652FF3
S113B33080F2AA81472F00F0A78100F3EB80412F10
S113B34000F0A281452F00F09F81002714F4806350
S113B3500D9300F0A98100231093129B002BC4BF0E
S113B36003F1FF331093139B002B03DD109A013B71
S113B37013441093109B119807EB030A00F0EFFE9F
S113B380A9EB0A0AAAEB0003049304F001030E9349
S113B39040F201231C4200F0B1814FF0000AD04674
S113B3A04FEAEA79119B5A1C119293F800B0BBF151
S113B3B0000F40F0AD810E9B93B914F4007F049C00
S113B3C014BF30232023D0464FEAEA79013C40F1F0
S113B3D0BB81049B5A1E23EAE373D21A04929A4453
S113B3E00D9B002B00F0CB8130245F4500F3DD8101
S113B3F00E9B5BB1049CD0464FEAEA792027013CBE
S113B40040F16B82049B002BA8BF9A440C9B5344CD
S113B41065E6660616D50BF1070626F00706F6E87C
S113B4200223CDE9042314F0800113D0BDF81010D9
S113B4300491002305935C4814F0080F5B4908BF8E
S113B4400846E5E55E46002156F8042B1046CDE992
S113B4500401E8E7E005EED5049B03F0FF00CDE925
S113B4600401E8E7620617D50BF1070626F0070684
S113B470F6E80223CDE9042314F0800114D0BDF8CA
S113B480101004910023059314F0100102D024F449
S113B49000740021454828E75E46002156F8042B35
S113B4A01046CDE90401E7E7E305EDD5049B03F07D
S113B4B0FF00CDE90401E7E7E1057FF59EAD52B257
S113B4C09AE5CDE90423A20703D414F0040F384805
S113B4D0B4E738489CE5E3065CBF44F010044FF041
S113B4E00D080BF1070626F00706F6E8022314F010
S113B4F0100FCDE914234FF000014FF000024FF07C
S113B500000308BF4FF0060844F48064CDE9042327
S113B5100846EAE6612F00F0B780642F00F0B0809F
S113B520582F4FF000077FF411AFDDE904231343D4
S113B5303FF40CAF049B03F00F000137085C0CF8D8
S113B540010B1809059B40EA03704FEA131ECDE96D
S113B550040EEAE7702F20D01BDC692F00F09080E6
S113B5606F2F4FF000077FF4F1AEDDE9042313439E
S113B5703FF4ECAE049B03F0070130310CF8011BDF
S113B580D908059B41EA4371D8080137CDE9041075
S113B590EBE7752F74D0782FC3E70027C5E700BF0A
S113B5A0B1C5000097C500009AC5000088C5000019
S113B5B06FC500009EC50000049B049A5908059BB2
S113B5C04FEA530E41EAC371049B4FEA9308059B6B
S113B5D048EA837811EB08014FEA93004EEB000030
S113B5E04FEA111848EA007811EB08014FEA101EDF
S113B5F040EB0E004FEA112848EA006811EB0801FD
S113B6004FEA102E40EB0E004FEA114E4EEA004E68
S113B61011EB0E014FEA104840EB08000918049B97
S113B6204FF0000E40EB0E004FEAD10E13F1060A64
S113B6304EEA407E059B4FEAD008AEFB0B0143F176
S113B64000030BFB0811BAEB000A63EB01004FEA9D
S113B6501A1343EA007313EB0E0E4FEA101141EB79
S113B660080830320EEB8E03A2EB4302CDE904E866
S113B6700CF8012B0137DDE9042313439CD165E663
S113B68000274FF00A0BF6E713AB039312AB0293B8
S113B69010AB019311AB0093384623462A9F16AA98
S113B6A014A9B847074651E6109B0D9ADB1B48BF07
S113B6B013465EE6DDE90823904579EB030309DAD6
S113B6C0AB68013B002BAB6013DB2B685A1C2A6070
S113B6D083F800A018F1010849F10009ABEB080355
S113B6E0002BE7DA049B23EAE37AABEB0A03049327
S113B6F055E62946202000F039FCEBE7049B4FF087
S113B70000084FF0000903F1FF3B4FF0200AE5E782
S113B710DDE90823904579EB03030AF1010A09DA0C
S113B720AB68013B002BAB6009DB2B685A1C2A6019
S113B73083F800B018F1010849F1000932E62946FE
S113B740584600F013FCF5E7DDE90812884579EB6B
S113B750020208DAAA68013A002AAA6008DB2A6809
S113B760511C2960137018F1010849F100092DE6F4
S113B770184629460F9300F0F9FB0F9BF3E7D046D8
S113B7804FEAEA793024109B013B002B10936EDAC8
S113B790D0464FEAEA793B46002B03F1FF3400F32D
S113B7A08180002FA8BFBA4422E616ABD04613F816
S113B7B00B003C284FEAEA7931D03E2841D1139B53
S113B7C0013B002B13932FDBDDE90823904579EB34
S113B7D003030AF1010A08DAAB68013B002BAB60F2
S113B7E02ADB2B685A1C2A601C7018F1010849F1E5
S113B7F00009E4E7DDE90823904579EB03030AF146
S113B800010A08DAAB68013B002BAB600FDB2B6845
S113B8105A1C2A601C7018F1010849F10009129B96
S113B820013B002B1293E5DA0BF1010BDDE5294610
S113B830302000F09BFBEEE72946302000F096FB19
S113B840D3E7DDE90823904579EB03030AF1010A04
S113B850EADAAB68013B002BAB6004DB2B685A1CB3
S113B8602A601870E0E7294600F080FBDCE7DDE998
S113B8700823904579EB03030AF1010A08DAAB685F
S113B880013B002BAB6008DB2B685A1C2A601C7040
S113B89018F1010849F1000975E72946302000F044
S113B8A065FBF5E7DDE90823904579EB03030ADA44
S113B8B0AB6816AA013B002BAB60105D09DB2B685B
S113B8C05A1C2A60187018F1010849F1000923462E
S113B8D062E7294600F04AFBF5E7DDE908239045D5
S113B8E079EB030308DAAB68013B002BAB6008DBA0
S113B8F02B685A1C2A601F7018F1010849F10009CD
S113B9007DE52946202000F031FBF5E75E460C94E6
S113B910FFF724BBF0B50D4695B016461F46044606
S113B92010B931BB012504AC3C22002105A800F06C
S113B9303CFC0A2308936FF0004307930E4B0594D5
S113B9400024CDE901736A1E2346009605A8FFF77B
S113B950F1F9079B013BA3420546079304DB059BD2
S113B9601C70284615B0F0BD05A9204600F0FEFA6B
S113B970F7E74FF0FF35F4E75BC100000FB473B590
S113B98006AB012153F8046B019332466846FFF776
S113B990C1FF041E13DD651C2846FFF777F80090ED
S113B9A068B1019B32462946FFF7B4FF074B009963
S113B9B0186D224600F0C2FC009800F0A0FB20465F
S113B9C002B0BDE8704004B0704700BF080000201A
S113B9D070B5C468A50708D0B2F5007F11D0B2F5E0
S113B9E0806F04D0B2F5807F0BD0012008E000F115
S113B9F024010123144301610160C361C460002078
S113BA0070BD024D5E1EAE42F4D9EEE7FEFFFF00AC
S113BA1070B50B4D2B680BB90A4B2B60C41C2E68F8
S113BA2024F003043444204600F032F810B92C60AA
S113BA30304670BD044B0C221A604FF0FF36F7E716
S113BA40BC000020C8000020C4000020F7B5044654
S113BA5098B103B0BDE8F04000F013BC07FB0460EC
S113BA6000F00FFC002818BF4FF0FF350134019B94
S113BA70A342F3DC284603B0F0BD034B034E1B681E
S113BA80019305463C27F2E758C500000800002052
S113BA90044B23B1984234BF00200120704718465C
S113BAA0704700BFC810002008B5FEF7BEFB08BDF4
S113BAB008B5FEF7BAFB08BD08B5FEF7B6FB08BD2E
S113BAC008B5FEF7B2FB08BD08B5FEF7AEFB08BD2E
S113BAD008B5FEF7AAFB08BD08B5FEF7A6FB08BD2E
S113BAE008B5FEF7A2FB08BD08B5FEF79EFB08BD2E
S113BAF008B5FEF79AFB08BD08B5FEF796FB08BD2E
S113BB0008B5FEF792FB08BD08B5FEF78EFB08BD2D
S113BB1008B5FEF78AFB08BD08B5FEF786FB08BD2D
S113BB2008B5FEF782FB08BD08B5FEF77EFB08BD2D
S113BB3008B5FEF77AFB08BD08B5FEF776FB08BD2D
S113BB4008B5FEF772FB08BD08B5FEF76EFB08BD2D
S113BB5008B5FEF76AFB08BD08B5FEF766FB08BD2D
S113BB6008B5FEF762FB08BD08B5FEF75EFB08BD2D
S113BB7008B5FEF75AFB08BD08B5FEF756FB08BD2D
S113BB8008B5FEF752FB08BD08B5FEF74EFB08BD2D
S113BB9008B5FEF74AFB08BD08B5FEF746FB08BD2D
S113BBA008B5FEF742FB08BD08B5FEF73EFB08BD2D
S113BBB008B5FEF73AFB08BD08B5FEF736FB08BD2D
S113BBC008B5FEF732FB08BD08B5FEF72EFB08BD2D
S113BBD008B5FEF72AFB08BD08B5FEF726FB08BD2D
S113BBE008B5FEF722FB08BD08B5FEF71EFB08BD2D
S113BBF008B5FEF71AFB08BD08B5FEF716FB08BD2D
S113BC0008B5FEF712FB08BD08B5FEF70EFB08BD2C
S113BC1008B5FEF70AFB08BD08B5FEF706FB08BD2C
S113BC2008B5FEF702FB08BD08B5FEF7FEFA08BD2D
S113BC3008B5FEF7FAFA08BD08B5FEF7F6FA08BD2E
S113BC4008B5FEF7F2FA08BD08B5FEF7EEFA08BD2E
S113BC5008B5FEF7EAFA08BD08B5FEF7E6FA08BD2E
S113BC6008B5FEF7E2FA08BD08B5FEF7DEFA08BD2E
S113BC7008B5FEF7DAFA08BD08B5FEF7D6FA08BD2E
S113BC8008B5FEF7D2FA08BD08B5FEF7CEFA08BD2E
S113BC9008B5FEF7CAFA08BD08B5FEF7C6FA08BD2E
S113BCA008B5FEF7C2FA08BD08B5FEF7BEFA08BD2E
S113BCB008B5FEF7BAFA08BD08B5FEF7B6FA08BD2E
S113BCC008B5FEF7B2FA08BD08B5FEF7AEFA08BD2E
S113BCD008B5FEF7AAFA08BD08B5FEF7A6FA08BD2E
S113BCE008B5FEF7A2FA08BD08B5FEF79EFA08BD2E
S113BCF008B5FEF79AFA08BD80B483B000AF786047
S113BD0039607B683A685A6000BF0C37BD465DF8FD
S113BD10047B704780B483B000AF786039607B687F
S113BD203A689A6000BF0C37BD465DF8047B7047E3
S113BD3004207146084202D0EFF3098001E0EFF3DA
S113BD40088081690A884BF6AB639A4200D0FEE70B
S113BD500231816120210160704700BF80B485B049
S113BD6000AF786039607B681B78FB73FB7B03F062
S113BD705F03FB733B681A78FB7B1343FB737B689D
S113BD80FA7B1A703B685B789B01DAB27B689A7025
S113BD9000BF1437BD465DF8047B704780B485B09E
S113BDA000AF78600B46FB707B681B78FB73FB7BF2
S113BDB023F00F03FB73FA7BFB781343FB737B685D
S113BDC0FA7B1A7000BF1437BD465DF8047B7047D8
S113BDD080B485B000AFF860B9601346FB71FB799D
S113BDE0002B05D10122BB689A40FB689A6004E0ED
S113BDF00122BB689A40FB685A6000BF1437BD46F5
S113BE005DF8047B704780B485B000AF78607B68D0
S113BE105B78FB73FB7B23F06003FB73FB7B43F0DA
S113BE206003FB737B68FA7B5A700023184614374F
S113BE30BD465DF8047B704780B400AF00BFBD46CB
S113BE405DF8047B704780B483B000AF78600B4624
S113BE50FB707B68FA781A7000BF0C37BD465DF83A
S113BE60047B704780B483B000AF78607B68DB7874
S113BE70DBB218460C37BD465DF8047B704780B5CD
S113BE8000AFFEF747FD00BF80BD80B400AF00BF28
S113BE90BD465DF8047B704780B500AFFFF7F5FF42
S113BEA000BF80BD80B485B000AF78607B681B0C98
S113BEB003F1804303F58E23FB60FB6819687B68FC
S113BEC09BB201229A40FB680A431A6000BF1437F0
S113BED0BD465DF8047B704780B485B000AFF86060
S113BEE0B9601346FB71FB68BA6853F8223023F437
S113BEF0E062FB791B0203F4E06342EA0301FB689E
S113BF00BA6843F8221000BF1437BD465DF8047BBD
S113BF10704780B500AFFEF737FD00BF80BD08B5A0
S113BF20FEF7CCFEBDE80840FEF790BAC36882690C
S113BF3023F0200310B5C360836A9A4204460ED0EE
S113BF4000F0B4F8E36823F4405323F0100343F003
S113BF501003E360A36AA3612369E3622360E368D7
S113BF6023F4804323F04003E36010BDCB6823F443
S113BF70002270B50C46CA609906054602D52046D3
S113BF80FFF7D4FFD4E902365A1C10DAB0050ED4F8
S113BF90C3F1FF2303F57F03FE33A360236846F454
S113BFA090365A1CE66022601D70E8B270BD41F202
S113BFB08A023240022A07D0002346F08006A3609A
S113BFC0E6604FF0FF30F1E74AF210033340B3F577
S113BFD0004F0AD100212046FEF7CCFDE368990604
S113BFE002D52046FFF7A2FFE66846F4903316F424
S113BFF0706FE3600ED1606900F088F900B37205D8
S113C0001ED504F12403236123600123E36146F474
S113C0109233E36013F4106F2168266926D0E36A33
S113C02099422CBFC6EB0101C6EB0301B9B9731CDD
S113C030E3622360E36923635A1EA2603570B4E7A8
S113C0404FF48070FEF786FD4FF48073E268E3617D
S113C05046F494331A4320612060E260DAE7224612
S113C0603046FEF7DDFC0028E1D0AAE74A1CEDB219
S113C07022600D70E26A216891422CBFC6EB010177
S113C080C6EB0201E26922635B0503D40A2D01D0E9
S113C0908A4209DC0023E6622660A3602246304619
S113C0A0FEF7BEFC00288CD128467FE738B501682E
S113C0B00569C36A0446C06820F40022E26000F007
S113C0C08202022A02D04FF0FF3038BD10F48030D3
S113C0D0FBD0994238BF19468D4208D1E368E56226
S113C0E0002023F480332560A060E360EDE722465E
S113C0F0491B2846FEF794FC0028EFD0E3E7A8B1DB
S113C1004FF0805340F80C3C50F8042C72B1136883
S113C110B3F1805F0AD150F8083C516803330B44F3
S113C12040F8083C936840F8043CEDE7704738B5A4
S113C13005460C4615F8010B70B1A368013B002BB2
S113C140A36004DB23685A1C22601870F2E72146BE
S113C150FFF70CFF431CEDD138BD0020704710B52C
S113C160421C8307044616D1234654F8041BA1F14C
S113C170013020EA010010F0803FF5D011F0FF0FEC
S113C18011D011F47F4F0CD011F47F0F14BF23464C
S113C1900333981A04E010F8013B002BE1D1801A14
S113C1A010BD0233F5E70133F3E700F08AB870B548
S113C1B00D4606461046144600F02DF82B78722BD7
S113C1C017D0772B18D0612B23D1082348F2020211
S113C1D015F8011F2B2912D0622915D01B07E26024
S113C1E0666104D5022200212046FEF7C3FC2046E6
S113C1F070BD00230122EBE704230222E8E742F0AA
S113C200030243F00203E3E742F0040243F00103B4
S113C210DEE70024EBE7F0B5C468A10789B0054662
S113C22022D0220718D4D0E90467FFF70FFC384660
S113C23000F060F8230502D53046FFF760FFA40D37
S113C240A40514F1A54F07D12022296A684600F0FD
S113C2506FF8684600F00BF83C2200212846FFF7EF
S113C260A4FF002009B0F0BD4FF0FF30FAE710B58D
S113C2700446FFF774FF01462046BDE8104000F075
S113C2804BB8C36870B513F00306044611D09B067F
S113C29011D5856AFFF74AFEE36823F44053E3604F
S113C2A02046FFF703FF0022064629462046FEF7F4
S113C2B061FC304670BD836905681D440369ED1A4D
S113C2C0EAE7034613F0030F0ED101F0FF0141EA40
S113C2D0012141EA0141043A24BF43F8041BB2F1AD
S113C2E00402F9D202F10402013A24BF03F8011B4B
S113C2F0FAE7704703B469460220ABBE02B0704748
S113C30003B469460C20ABBE02B0704703B469465F
S113C3100920ABBE02B0704703B469460E20ABBE21
S113C32002B0704703B469460A20ABBE02B070473E
S113C3300FB469460D20ABBE04B070470FB4694614
S113C3400520ABBE04B0704748656C6C6F20576F16
S113C350726C640A00FFFFFF2E2E2F6472697665EB
S113C36072732F66736C5F636C6F636B2E633A3208
S113C3703138203A20675F7874616C304672657199
S113C380000000002E2E2F647269766572732F668A
S113C390736C5F636C6F636B2E633A323233203A93
S113C3A020675F7874616C333246726571000000F7
S113C3B02E2E2F647269766572732F66736C5F63B9
S113C3C06C6F636B2E633A333535203AB4C688D626
S113C3D074616C3046726571000000002E2E2F646B
S113C3E07269766572732F66736C5F636C6F636BCF
S113C3F02E633A333734203A20675F7874616C30A7
S113C40046726571000000002E2E2F6472697665F5
S113C41072732F66736C5F636C6F636B2E633A3356
S113C4203939203A20675F7874616C33324672651B
S113C430710000002E2E2F647269766572732F6668
S113C440736C5F636C6F636B2E633A373638203AD4
S113C450206D6367706C6C30636C6B002E2E2F64E0
S113C4607269766572732F66736C5F636C6F636B4E
S113C4702E633A31303134203A20636F6E66696737
S113C480000000002E2E2F647269766572732F6689
S113C490736C5F636C6F636B2E633A313836342090
S113C4A03A20636F6E666967000000002E2E2F64C9
S113C4B07269766572732F66736C5F636C6F636BFE
S113C4C02E633A32313435203A20636F6E666967E1
S113C4D000FFFFFF2E2E2F647269766572732F663C
S113C4E0736C5F6770696F2E633A3637203A206940
S113C4F06E7374616E6365203C2041525241595FF2
S113C50053495A4528735F6770696F426173657355
S113C510290000002E2E2F647269766572732F66CF
S113C520736C5F6770696F2E633A313030203A2044
S113C530636F6E66696700FF07000001000000007A
S113C540400106FF000000000000340100127A00E0
S113C550000400000101FFFF030000002A2A2A2032
S113C560617373657274206661696C6564203A2036
S113C570002A2A2A205F437379735F616C6C6F63AE
S113C580206661696C65640A0072007700286E7524
S113C5906C6C290030580030780030002D002B00DE
S113C5A030313233343536373839414243444546E5
S113C5B0003031323334353637383961626364657B
S10BC5C06600FFFF00004001CA
S503025D9D
S903A191CA
