S0150000633A5C746D705C4441506C696E6B2E733139B6
S1130000C00E00204106000049060000D50B000088
S11300104D0600004F06000051060000F4C5FFDF46
S1130020939D939B00999697F1000000550500005D
S11300305506000000000000DD0500002D0600004C
S11300405B0600005B0600005B0600005B06000028
S11300505B0600005B0600005B0600005B06000018
S11300605B0600005B0600005B0600005B06000008
S11300705B0600005B0600005B0600005B060000F8
S11300805B0600005B0600005D0D00005B060000DF
S11300905B0600005B0600005B0600005B060000D8
S11300A05B0600005B0600005B0600005B060000C8
S11300B05B0600005B0600005B0600005B060000B8
S11300C05B0600005B0600005B060000F90D000003
S11300D05B0600005B0600005B0600005B06000098
S11300E05B0600005B0600005B0600005B06000088
S11300F05B0600005B0600005B0600005B06000078
S11301005B0600005B0600005B0600005B06000067
S1130400FFFFFFFFFFFFFFFFFFFFFFFFFEFDFFFFFB
S113041000F002F800F058F80AA090E8000C8244BA
S11304208344AAF10107DA4501D100F04DF8AFF297
S1130430090EBAE80F0013F0010F18BFFB1A43F0BE
S113044001031847EC7300001C7400000A4410F800
S1130450014B14F00F0508BF10F8015B240908BF15
S113046010F8014B6D1E05D010F8013B6D1E01F80C
S1130470013BF9D1641E03D0641E01F8015BFBD17A
S11304809142E4D370470000103A24BF78C878C181
S1130490FAD8520724BF30C830C144BF04680C6086
S11304A0704700000023002400250026103A28BFCE
S11304B078C1FBD8520728BF30C148BF0B607047D2
S11304C01FB51FBD10B510BD00F029FB1146FFF785
S11304D0F7FF03F0FDFB00F047FB03B4FFF7F2FF67
S11304E003BC00F04BFB00008546084780F30988F5
S11304F07047EFF309807047684680F30988044821
S11305000078C00714BF0220032080F314887047CA
S1130510D86B0000DFF818C0EFF305831B0618BF83
S11305206047EFF31483DB0708BF604700DF7047C1
S1130530A5490000DFF818C0EFF305831B0618BFB8
S11305406047EFF31483DB0708BF604700DF7047A1
S1130550B14B0000EFF30980816911F8021C39BB2B
S113056090E80F10E047EFF3098C194B93E806006D
S1130570914218D059B10CB44FF0010381F82130E5
S11305802CE9F00FC1F824C004F0A6FD0CBC1A60DD
S1130590D2F824C0BCE8F00F92F821308CF309881B
S11305A01BB192F82000CCF800006FF0020E7047E7
S11305B010B5084A1268914209D8074C54F82140F2
S11305C090E80F10A047EFF3098C8CE80F0010BDE2
S11305D07CE1FF1F8C0B00008C0B000004F068FC16
S11305E0114B93E8060091421BD00CB44FF000036A
S11305F081F82130EFF3098C2CE9F00FC1F824C005
S113060004F06AFD0CBC1A60D2F824C0BCE8F00FF8
S11306108CF3098892F821301BB192F82030CCF881
S113062000306FF0020E70477CE1FF1F04F016FEED
S1130630D6E7000003F07EFC04F010FED0E70000D3
S11306400948804709480047FEE7FEE7FEE7FEE762
S1130650FEE7FEE7FEE7FEE7FEE7FEE7044805499E
S1130660054A064B70470000D90C00001104000035
S1130670C00B0020C00E0020C00C0020C00C0020C5
S113068000487047600B002040EA010310B59B0747
S11306900FD1042A0DD310C808C9121F9C42F8D0E8
S11306A020BA19BA884201D9012010BD4FF0FF3099
S11306B010BD1AB1D30703D0521C07E0002010BDAF
S11306C010F8013B11F8014B1B1B07D110F8013B3B
S11306D011F8014B1B1B01D1921EF1D1184610BD1C
S11306E010B5431C02E010F8011B71B18107FAD167
S11306F04FF0013202C88C1A8C4314EAC211F9D0AB
S1130700C01A0A0603D0C01E10BDC01A10BD0A04C8
S113071001D0801E10BD0902FCD0401E10BD40EA6D
S1130720010370B59B072ED14FF00136042A2AD35A
S113073008C810C99D1B9D43121F15EAC61517D082
S1130740D8B2E1B2401A50EA056110D198B2A1B210
S1130750401A50EA05410AD123F07F4024F07F413A
S1130760401A50EA052102D1180EA0EB146070BDA6
S1130770A342DBD018BA21BA884201D9012070BD46
S11307804FF0FF3070BD0AB9002070BD10F8013B76
S113079011F8014B63B1A3420AD1521E08D010F8DC
S11307A0013B11F8014B1BB1A34201D1521EEDD103
S11307B0181B70BD421E12F8013F002BFBD111F82B
S11307C0013B002B02F8013BF9D17047032A40F2A8
S11307D0568010F0030C00F0158011F8013BBCF1B9
S11307E0020F624498BF11F801CB00F8013B38BFF7
S11307F011F8013BA2F1040298BF00F801CB38BF05
S113080000F8013B11F0030300F0B080121FC0F0A8
S11308103680A1EB0301022BD1F800C000F0118057
S113082000F21E804FEA1C2351F804CF121F43EA42
S11308300C6340F8043BBFF4F5AF01F1010100F093
S11308401EB84FEA1C4351F804CF121F43EA0C436D
S113085040F8043BBFF4F5AF01F1020100F00FB81A
S11308604FEA1C6351F804CF121F43EA0C2340F8EB
S1130870043BBFF4F5AF01F10301AFF30080D207ED
S113088024BF11F8013B11F801CB48BF11F8012B2B
S113089024BF00F8013B00F801CB48BF00F8012B4E
S11308A07047431A28BF9A427FF690AF032A104438
S11308B0114440F2498010F0030F1EBF11F8013DAE
S11308C0521E00F8013D10F0030F7FF4F6AF11F053
S11308D0030300F0FA80121FC0F03680A1EB03017D
S11308E0022BD1F800C0C0F0118000F21E804FEA44
S11308F00C4351F804CD121F43EA1C4340F8043D55
S1130900BFF4F5AF01F1020100F01EB84FEA0C6329
S113091051F804CD121F43EA1C2340F8043DBFF4F0
S1130920F5AF01F1010100F00FB84FEA0C2351F8C3
S113093004CD121F43EA1C6340F8043DBFF4F5AF35
S113094001F10301AFF30080D20724BF11F8013D88
S113095011F801CD48BF11F8012C24BF00F8013D66
S113096000F801CD48BF00F8012C704710B5203ABB
S1130970C0F00B80B1E81850203AA0E81850B1E854
S11309801850A0E81850BFF4F5AF5FEA027C24BF0A
S1130990B1E81850A0E8185044BF18C918C0BDE801
S11309A010405FEA827C24BF51F8043B40F8043BCA
S11309B008BF7047D20728BF31F8023B48BF11F87F
S11309C0012B28BF20F8023B48BF00F8012B7047D9
S11309D002F0FF0343EA032242EA024200F002B8B3
S11309E04FF000020429C0F0128010F0030C00F054
S11309F01B80CCF1040CBCF1020F18BF00F8012BD2
S1130A00A8BF20F8022BA1EB0C0100F00DB85FEA9F
S1130A10C17C24BF00F8012B00F8012B48BF00F86B
S1130A20012B70474FF0000200B5134694469646DA
S1130A30203922BFA0E80C50A0E80C50B1F12001ED
S1130A40BFF4F7AF090728BFA0E80C5048BF0CC09B
S1130A505DF804EB890028BF40F8042B08BF7047F9
S1130A6048BF20F8022B11F0804F18BF00F8012B6B
S1130A707047427801788378C07841EA022141EADC
S1130A80034141EA006070474FEA102208704A703F
S1130A904FEA10428A704FEA1062CA70704770477A
S1130AA070477047431A28BF9A427FF65FAF1044DD
S1130AB010F0030F11441EBF11F8013D521E00F83F
S1130AC0013D10F0030F7FF4F6AF103AC0F00A8036
S1130AD010B531E91850103A20E91850BFF4F9AFB5
S1130AE0BDE81040530724BF31E9081020E908107D
S1130AF044BF51F8043D40F8043D12F0030F08BF11
S1130B007047D20728BF31F8023D48BF11F8012CC5
S1130B1028BF20F8023D48BF00F8012C70477546F5
S1130B20FFF7AEFDAE4605006946534620F00700C8
S1130B30854618B020B5FFF791FDBDE820404FF081
S1130B4000064FF000074FF000084FF0000B21F0B3
S1130B500701AC46ACE8C009ACE8C009ACE8C00980
S1130B60ACE8C0098D46704710B50446AFF3008069
S1130B702046BDE81040FFF7B0BC00000149182032
S1130B80ABBEFEE726000200704700000000000034
S1130B904EF2010CC1F6FF7C6047000070B50A4DAF
S1130BA004460146094B2846EA6802F0F3FB28B9DB
S1130BB0002321462846EA6802F0CAFD04494A682F
S1130BC042F470024A6070BD440B00206B66656B92
S1130BD000F001406C2203A1002001F055FE00F05A
S1130BE03BF800002E2E5C2E2E5C2E2E5C736F754F
S1130BF07263655C6461706C696E6B5C626F6F7468
S1130C006C6F616465725C6D61696E2E63000000D7
S1130C10094810B54CF22051C1814DF62811C1810B
S1130C20018821F001010180044802F0FDFB002845
S1130C3000D0012010BD000000200540440B00201E
S1130C4000F01F02012191404009800000F1E020E2
S1130C50C0F8001170470000BFF34F8F04480168CB
S1130C60044A01F4E06111430160BFF34F8FFEE7D2
S1130C700CED00E00400FA05BFF34F8F044801684F
S1130C80044A01F4E06111430160BFF34F8FFEE7B2
S1130C900CED00E00400FA05FEB50C460B460646D2
S1130CA0014615460A4802F017FD50B900200121FB
S1130CB0CDE9001002902B4622463146044802F04A
S1130CC07DFD04494A6842F470024A60FEBD00009A
S1130CD0440B002000F001401C484CF22051C1811B
S1130CE04DF62811C1814FF4E971018018494FF480
S1130CF088104864174800210170174801732422A2
S1130D0042709A220270C27802F01F02C27003225B
S1130D100271417181798907FCD58179C1F381011F
S1130D200229FAD102714021417181798906FCD5E9
S1130D3081794906FCD51A2101708179C1F38101B9
S1130D400329FAD181794906FCD570470020054072
S1130D5000800440005006400040064038B5224A56
S1130D6011792248D0F80832D0F80C52204CAB420A
S1130D701FD00B0614D5D0F80432C5185B1CC0F87C
S1130D8004322B78D371D0F80432C3F30803C0F8CB
S1130D900432D0F80C325B1CC0F80C320120206005
S1130DA0880605D511F0060F09D0D0798DF800001A
S1130DB038BDD07820F08000D0700020EFE7D279E1
S1130DC00C48D0F800124318491CC0F800121A70DD
S1130DD0D0F80012C1F30801C0F80012D0F80812CC
S1130DE0491CC0F8081238BD00B0064094E1FF1F4A
S1130DF030E0FF1FA4E3FF1F02490820C1F880016F
S1130E0001F0ACBC04E000E001078A0E044911447F
S1130E1011F8C02F22F002020A7001F037BC000062
S1130E2000200740014680784A790B7943EA022181
S1130E30020601D4014A115401F028BC3CE0FF1F12
S1130E40704700000A49002811F8940F06D040F0BA
S1130E5001000870102081F87400704720F0010030
S1130E6001F8740B087820F0100008707047000037
S1130E700020074010B50B4C0B48A2880078824232
S1130E8000D902461AB90749002014390871802094
S1130E90216801F087FC216801442160A188081AB7
S1130EA0A08010BD58E0FF1F1A6A000010B5064C60
S1130EB00020A288216801F099F82168014421608A
S1130EC0A188081AA08010BD58E0FF1F70470000D9
S1130ED00949020607D5000701EB906010F8C01F0E
S1130EE021F0050105E001EB800010F8C01F21F09E
S1130EF009010170704700000020074009490206FB
S1130F0007D5000701EB906010F8C01F41F0050100
S1130F1005E001EB800010F8C01F41F009010170E9
S1130F2070470000002007402DE9F047684F044651
S1130F30A7F1080580074FF00009A5F1140620D594
S1130F4001F004FC3878C009FFF7C0FFF888A880D6
S1130F503878C0F3411111B1012966D157E079788D
S1130F60DFF870810C2960D2DFE801F0060C5F1312
S1130F705F18275F2B31384601F06AF91FE0FFF74D
S1130F8079FF5EE0002005E001F0F0FBD8F80000F6
S1130F9039E0012001F09CF9C0B3F5E710F01F0F10
S1130FA043D1B878012140F08000307000F07F0018
S1130FB001F0B6FB01F0DAFB43E001F09FF828B33F
S1130FC0DDE710F01F0F30D141481B3812E001F06B
S1130FD0CFF9D8B101F0CAFB3F4813E000F01F007D
S1130FE0012822D1707888B13879B17888421CD22E
S1130FF03A4908442860C2E701F080FA30B101F0B0
S1131000B5FB37480068E0B180471AE00DE010F006
S11310101F000AD0012808D100F06AF888B900F04E
S113102069F870B900F062F858B93878000603D44A
S1131030F88808B1002000E0802001F07BFBA5F8CF
S11310400490600721D5387800061CD4A888E0B144
S1131050FFF72CFFA888C0B93878C0F3411161B1FB
S113106001290AD110F01F0007D0012805D100F092
S11310703BF850B900F036F838B9802001F05AFB3B
S1131080A5F8049001E001F077FB200712D5387829
S1131090000606D5A888317908430BD0FFF7EAFE8D
S11310A008E03078010605D500F07F00307000219B
S11310B001F036FB600602D50020FFF7A5FE2006EE
S11310C004D5BDE8F0478020FFF79EBEBDE8F08759
S11310D060E0FF1F806A0000786A000038E0FF1FAC
S11310E07C6A000000207047002070470020704791
S11310F00020704710B51548154A017912789142BD
S113110022D101464278C8788B788C7943EA002052
S1131110CB79FE2A44EA032109D0FF2A14D198B9D5
S113112091B900F0A9FE78B101F020FB0AE058B9AA
S1131130012909D100F074FB30B107490548086062
S1131140FFF798FE012010BD002010BD60E0FF1FD6
S11311501B6A0000B4E5FF1F58E0FF1F2DE9F041B2
S11311603C4E96F8800096F8905086F8800096F8E9
S113117084400440E00707D001F058FA04F03AFE36
S11311803548006800B18047E00605D501F0FEFA55
S11311903248006800B18047A00605D501F0B6FAD0
S11311A02F48006800B18047600703D52D480068C8
S11311B000B18047022C08D12B48016811B196F880
S11311C088008847FF2086F8880020073DD52C0931
S11311D0C5F3C000C5F38001244E254D09D100227A
S11311E002EB40020A4416F83220C2F383020D2AAD
S11311F00AD0A20002EB4000471816F83700C0F3EB
S11312008300012811D015E01A48416821F0020139
S11312104160307E20F080003076307C20F0800009
S11312203074296889B102200EE055F8241009B100
S11312300420884716F83700C0F38300092804D136
S113124055F8241009B108208847BDE8F04123204F
S1131250FFF7F6BC00200740246A0000286A00005B
S11312602C6A0000306A0000346A000000E8FF1FA6
S1131270386A00003CE0FF1F10B522484024047087
S11312802148416841F4A0214160816C21F00F01A3
S1131290816400218164416B41F4802141632320F6
S11312A0FFF7CEFC194890F80C1141F0800180F84A
S11312B00C1190F80C110906FBD41549090A80F8A1
S11312C09C101349090C80F8B0101149090E80F8DC
S11312D0B410FF2180F880100E49096801B104217F
S11312E00D4A126802B10222114341F0190180F83B
S11312F0841080F8004190F80C1141F0400180F80E
S11313000C1110BD3CE0FF1F00800440002007408A
S113131000E8FF1F306A0000346A000070B500F076
S11313200DF900282AD016480224164E0470447081
S113133003203463307014480546FFF79AFB0228F3
S113134008D9114920461F39FFF79EFB294620463C
S1131350FFF79AFB0D4822460949007840F08000C7
S113136001F020FA2846FFF784FB316B401A294626
S1131370FFF78AFB044901200839087370BD000097
S1131380F4E5FF1F68E0FF1F87EBFF1F1C6A0000E6
S1131390114910B50878022808D0032810D0042871
S11313A012D0052801D10020087010BD0B48C07B65
S11313B0282801D0A828F8D1BDE8104000F074BA5C
S11313C0BDE8104000F096BD0548007840F080006C
S11313D000F0AAFDF4E7000068E0FF1F60EBFF1FC8
S11313E01C6A00001B4910B5087870B301280ED0A0
S11313F005281DD0072823D01748007800F094FD55
S1131400164902200873BDE8104000F073BD13486C
S11314101F38C07B2A2803D02F2805D0AA2818D12A
S1131420BDE8104000F01EBBBDE8104000F0AABAB1
S1131430BDE8104040F2394209A1002001F024BA6D
S113144000200870086B1F2803D1BDE8104000F08D
S1131450E1B810BD68E0FF1F1D6A00007FEBFF1FAD
S11314602E2E5C2E2E5C2E2E5C736F757263655C63
S11314707573625C6D73635C757362645F6D7363D3
S11314802E630000104910B54868C86008B10120F7
S113149010BD0E48FFF7EDFA68B10C480838007B20
S11314A0000604D50A48007840F0800001E00948AD
S11314B0007800F039FD054901201731087300F068
S11314C019FD002010BD000068E0FF1F68EBFF1F3E
S11314D01C6A00001D6A0000134810B5007900F072
S11314E08F01080605D501F00F004FF480328240C9
S11314F001E001228A400D48007840F080048C42CB
S113150010D10B48006810420CD00A48FFF7B1FA1A
S11315100949884206D12046BDE810400D220549FC
S113152001F040B910BD000060E0FF1F1C6A00001C
S113153050E0FF1F7FEBFF1F5553425370B50B481C
S1131540FFF797FA094C0225173440B1A4F11F00A4
S1131550007B000608D40648007800F0E5FC2573FB
S113156000F0C8FC002070BD012070BD68EBFF1FB7
S11315701D6A000070B51148FFF77BFA104C216B0F
S1131580884202D82063032000E0042020700D4824
S11315900D49226B007840F0800001F003F9074800
S11315A01F300546FFF765FA216B401A2946FFF7FD
S11315B06BFA024900201731087370BD68EBFF1FF6
S11315C068E0FF1F1C6A0000F4E5FF1F064810B521
S11315D0028807480549007800F008FD05490863BA
S11315E0BDE81040FFF7FEBE226A0000F4E5FF1FCD
S11315F01D6A000068E0FF1F10B50446400702D5CD
S11316000020FFF7E3FF200703D5BDE81040FFF7F4
S1131610BFBE10BD2DE9F05F7A4E326B1F2A01D296
S1131620134600E01F230020774D784902E00C5C4C
S11316302C54401C9842FAD3DFF8D8810127DFF8F4
S1131640D0A198F800001F2A40F0800B69D16E48A1
S1131650FFF70FFA7049884263D1281DFFF709FA92
S1131660694C1F34211DFFF70FFAA4F11700FFF78F
S113167000FA04F10801FFF707FA687B18B9A87BA0
S113168008B1102801D9277389E0E87B4FF00209DB
S11316902A283ED022DC1A2850D00FDC0428F2D0AD
S11316A006DCE8B30328EED1BDE8F05F00F0A2BB8E
S11316B01228E8D1BDE8F05F00F0BAB8232845D07D
S11316C007DC1B2836D01E28DDD1BDE8F05F00F012
S11316D0DDB825283ED02828D5D147E09E2841D022
S11316E00FDC5528CFD004DC2F2853D03528CAD19D
S11316F003E05A2826D09128C5D1BDE8F05F00F058
S113170043BCA1282AD0A3285CD0A8282ED0AA287C
S1131710B9D100F0ABFA002806D0287B000601E01E
S113172004E053E049D43770BDE8F09FBDE8F05FB2
S113173000F032BCBDE8F05F00F00CBCBDE8F05F27
S113174000F064BABDE8F05F00F02CBABDE8F05FC9
S113175000F012BBBDE8F05F00F0E6BABDE8F05F50
S1131760FFF7DCBDBDE8F05F00F098BB00F07EFA47
S11317700028D9D0287B000605D586F80090BDE85E
S1131780F05F00F091B89AF8000000F0CDFB84F807
S11317900C9004E0287C800705D400202073BDE869
S11317A0F05F00F0A7BB00F061FA0028BCD0287BF2
S11317B0000602D437703762B6E798F8000040F0AC
S11317C08000E2E7584600F0AFFB5CE74446584629
S11317D000F0AAFB2078114C00F00F014FF4803088
S11317E0884021685546084320609AF8000000F0BC
S11317F09BFB2878874020680743062027603070C9
S113180092E7000068E0FF1F60EBFF1FF4E5FF1F95
S11318101D6A00001C6A00005553424354E0FF1F38
S1131820024900200870012070470000B4E5FF1F42
S113183010B5FFF783FE002820D0114B0020802133
S11318401870597002219970D97020241C71587134
S11318509871D8710B48016808200A7812B11A549B
S1131860491C00E01C54401CC0B22428F5D306498E
S113187024200863BDE81040FFF77CBE10BD0000C3
S1131880F4E5FF1F34E0FF1F68E0FF1F0548C07C3C
S1131890C107044800F11F0000D00121017300F0CA
S11318A029BB000060EBFF1F2DE9F041304D314FA3
S11318B0DFF8C480A969686A002688420AD33878A8
S11318C0002440F0800000F02FFB88F80C6000F04A
S11318D011FB08E02A492948097830F81140E86AE0
S11318E0844200D30446FFF7CDFD00B90024A86A62
S11318F068B374B1A96AE86922460144387840F0B3
S1131900800000F04FFFA86A2044A862E86A001B28
S1131910E862D5E90410AA6A4143914203D1AE6258
S1131920696A08446862144808300746FFF7A1F85A
S1131930001B3946FFF7A8F8002C06D0E86A0028F7
S113194003D10320287088F80C60BDE8F081002CD6
S1131950DFD0E96A28690144491EB1FBF0F26869E5
S1131960824200D90246E969686A04F001FAC1E7D3
S113197068E0FF1F1C6A00007FEBFF1F1E6A000067
S113198047E0FF1F2DE9F041324EDFF8CC800025FF
S1131990B169706A884208D330483563007800F032
S11319A0C3FA88F80C5000F0A5FAFFF76BFD20B1DC
S11319B0306B10B3B06A10B10FE035631DE0F16A0B
S11319C030690144491EB1FBF0F27069824200D9CA
S11319D00246F169706A04F0CBF90020204A336BA7
S11319E0B16A08E0F7690C183C5D175CBC4201D091
S11319F0356202E0401C9842F4D3346BB06A01199A
S1131A00B162F06A071BF762D6E9042042438A42B6
S1131A1003D1B562716A084470620F480830054604
S1131A20FFF727F8001B2946FFF72EF8002C0ED0ED
S1131A3017B1307805280AD1306A30B1002088F80F
S1131A400C00BDE8F04100F055BA0120F7E7BDE80D
S1131A50F081000068E0FF1F7FEBFF1F1D6A00009C
S1131A60F4E5FF1F2DE9F041DFF80481414F002622
S1131A70D8F81810D8F82400884208D33E48C8F88B
S1131A803060007800F050FA3E7300F033FAFFF74C
S1131A90F9FC08B9C8F83060D8F83010D8F8280034
S1131AA00844D8F81010401E884206D9BDE8F04119
S1131AB0FD2232A1002000F0E7BE0020384907E0F3
S1131AC0D8F82830D8F81C400A5C0344401CE2547F
S1131AD0D8F830209042F3D3D8F8280011000844F5
S1131AE0C8F82800D8F82C20A2EB0102C8F82C2052
S1131AF022D0454692B988B129690844401EB0FBFA
S1131B00F1F46869844200D904462246E969686AA6
S1131B1004F048F9AE62686A20440CE0D5E9041286
S1131B205143814208D1E969686A04F03BF9AE6225
S1131B306969686A084468620E4808300546FEF719
S1131B4098FFD8F830402946001BFEF79DFF002C73
S1131B500BD0D8F82C0018B198F80000052804D14F
S1131B603E73BDE8F04100F0C5B9BDE8F081000066
S1131B7068E0FF1F7FEBFF1F1D6A00002E2E5C2E06
S1131B802E5C2E2E5C736F757263655C7573625C7C
S1131B906D73635C757362645F6D73632E630000C1
S1131BA0F4E5FF1F70B5FFF7C9FC002826D0FFF746
S1131BB069FC002822D01248002106220170114B32
S1131BC0427081701A7A0824D201C2700171417185
S1131BD08171C1710C481C630546FEF74AFF082851
S1131BE008D9094920461F39FEF74EFF29462046E9
S1131BF0FEF74AFFBDE87040FFF7BCBC70BD0000B3
S1131C00F4E5FF1F68E0FF1F87EBFF1F70B5FFF7C8
S1131C1095FC002822D0FFF735FC00281ED0104880
S1131C200321002201700F49427004240B7ADB0166
S1131C308370C2700C480C630546FEF71AFF042833
S1131C4008D9094920461F39FEF71EFF29462046B8
S1131C50FEF71AFFBDE87040FFF78CBC70BD0000B2
S1131C60F4E5FF1F68E0FF1F87EBFF1F2DE9F0413C
S1131C702948FEF7FEFE284D00BA113D20F0FF046E
S1131C80287D264E04430020C6E90940E87B2F281E
S1131C900AD004DC28280BD02A281CD104E0A82868
S1131CA010D0AA2817D109E0FFF7ECFB00282FD0A9
S1131CB0E87DA97D41EA002044BA0CE0FFF7E2FB8D
S1131CC0002825D01448001DFEF7D3FE00BA20F0EA
S1131CD0FF04287E0443306944430F48F462093802
S1131CE0FEF7C7FE0C4F01260E3768B1A04211D093
S1131CF0287B000604D50A48007840F0800001E003
S1131D000848007800F010F93E7300F0F3F8002062
S1131D10BDE8F0810120FBE771EBFF1F68E0FF1FC6
S1131D201C6A00001D6A000010B5FFF707FC0028BC
S1131D301CD0FFF7A7FB002818D00D4A0D48916965
S1131D40491E0B0E03700B0C43700B0A8370C17099
S1131D5011690B0E03710B0C43710B0A8371C17172
S1131D6008201063BDE81040FFF704BC10BD00005C
S1131D7068E0FF1FF4E5FF1F70B5FFF7DFFB0028E5
S1131D8030D0FFF77FFB00282CD017480021174ADA
S1131D900170417081700821C17091690C240B0E8F
S1131DA003710B0C43710B0A8371C171022101721F
S1131DB011690B0C43720B0A8372C1720C481463D1
S1131DC00546FEF756FE0C2808D9094920461F3956
S1131DD0FEF75AFE29462046FEF756FEBDE870403F
S1131DE0FFF7C8BB70BD0000F4E5FF1F68E0FF1FEC
S1131DF087EBFF1F10B5FFF7A1FB002835D01B4868
S1131E0070211B4B017000214170DC685A6832EA72
S1131E10040406D006248470282404734173DA6011
S1131E2008E0DAB1134A127BE2B105228270202263
S1131E3002734173C1700171417181710A22C271CF
S1131E40017241728172C1728173C17301744174F0
S1131E5012201863BDE81040FFF78CBB0222827089
S1131E603A22E5E781700173E3E710BDF4E5FF1F53
S1131E7068E0FF1F7FEBFF1F054910B500200860D5
S1131E800449FEF701FE044907200870012010BD33
S1131E9054E0FF1F7FEBFF1F68E0FF1F70B5FFF7E3
S1131EA04DFB00281DD00F482022002102704170F4
S1131EB00D4CC1770320226320700C480949007837
S1131EC040F0800000F06EFC09480546FEF7D1FDA5
S1131ED0216B401A2946FEF7D7FD05490120083930
S1131EE0087370BDF4E5FF1F68E0FF1F1C6A000063
S1131EF087EBFF1F10B508490848FEF7C5FD0848E1
S1131F000D220549007840F0800000F04BFC0549A3
S1131F100520087010BD00007FEBFF1F555342538E
S1131F201C6A000068E0FF1F10B5044600F002FCC4
S1131F30200605D504F00F014FF48030884001E0FD
S1131F400120A04002490A681043086010BD000047
S1131F5050E0FF1F0A4810B5817C00F11F0429B12D
S1131F6001202073BDE81040FFF7C4BFC07C0549C1
S1131F7000F00100486003F013FF0020F1E70000C7
S1131F8060EBFF1F68E0FF1F024900200873FFF7A2
S1131F90B1BF00007FEBFF1F10B51048FEF769FDCD
S1131FA00E4C173478B1A4F11F00007B000604D551
S1131FB00B48007840F0800001E00A480078FFF701
S1131FC0B3FF012004E0FFF75DFA002805D00020EC
S1131FD02073BDE81040FFF78DBF10BD68EBFF1FF5
S1131FE01C6A00001D6A0000704700002DE9F05FC4
S1131FF006004FEA0670DFF8BC904FEA906409EBE4
S1132000C40B9246BBF8025088464FF0000706D135
S113201019F83400C0F383000D2800D10127AA4524
S113202006D240F2B31224A1002000F02DFC554644
S113203020490020603101EB841103E00B5C08F8B7
S11320400030401CA842F9D329488246825DABF88F
S11320500220DAF80410660819F83400F14001F09F
S11320600101C0F38010814209D117B198F806002C
S113207060B101211E48B140001D02F00CF9DAF8EC
S11320800400F040C00708D0C82107E018486FF0EA
S11320900101001D02F0F3F8F1E78821154809F861
S11320A0341010F8941F21F0200101702846BDE877
S11320B0F09F000000E8FF1F2E2E5C2E2E5C2E2EBB
S11320C05C736F757263655C6869635F68616C5C9F
S11320D0667265657363616C655C6B323064785CF1
S11320E0757362645F4D4B323044352E63000000DB
S11320F03CE0FF1F00200740FFF7EEB92DE9FC414B
S1132100474BA3F11C051878A3F1080410F01F0035
S113211002D001286AD16AE042484149DE78027857
S11321203F4889781C38082EC07876D2DFE806F05C
S113213075041145757508303B482060122053E042
S1132140002A6AD018B1394820600A204CE0384887
S1132150FAE70AB9012860D018B136480090002087
S11321600BE03548FAE7009A13782BB1D3789678C8
S113217046EA03231A440092401C8142F3D100989A
S1132180017899B32060C178827842EA01202BE07B
S113219062B318B12948009000200BE02848FAE700
S11321A0009A13782BB1D378967846EA03231A441D
S11321B00092401C8142F3D1E1E7224800900329B8
S11321C001D0002008E001F009FC0BE000990A7836
S11321D00AB111440091401C99788142F6D10098CB
S11321E0017819B120600078019006E015E001A99A
S11321F0684600F02BF800280DD0A1880198814290
S113220008D9114980B2A0800978491E084201D139
S1132210012028710120BDE8FC810020FBE70000BB
S113222060E0FF1F176A0000846A0000976A0000DC
S1132230966A0000B96A0000986A0000BB6A000050
S1132240BA6A0000BC6A00001A6A000000207047E5
S113225070B51D481C4C0078A4F1080410F01F0050
S11322600AD0194AA4F11405184B69781279012887
S113227006D0022826D109E01348163820601FE052
S113228001B3A87882421DD2002015E002F08F002D
S1132290020605D500F00F064FF48032B24001E08B
S11322A00122824009B900070CD1A868104209D064
S11322B0E868104000D001201870000A58702360AC
S11322C0012070BD002070BD60E0FF1FB4E5FF1F5A
S11322D070B5264B024619461878498810F01F003D
S11322E0A3F11C0604D0012829D0022827D111E02B
S11322F0012924D132B1012000F052FAF08840F0D3
S1132300020005E0002000F04BFAF08820F0020003
S1132310F08029E0187900F08F04200605D504F038
S11323200F004FF48035854001E00125A540707809
S113233028B1200703D0B068284200D009B100209A
S113234070BD2AB1204600F0F5F9F06828430AE090
S11323503069284208D12046FEF756FD2046FFF793
S1132360CBFEF068A843F060012070BD60E0FF1F61
S11323702DE9F05F5B480026017811F01F0F6FD143
S1132380584F80781C3FB1464FF0010A4FF4803B10
S113239000287BD0544801783846C07809B9012810
S11323A05ED008B1514C6CE0514C6AE06078022870
S11323B004D0042847D0052861D146E04948617912
S11323C0807881423AD1787020794B49B8700020E6
S11323D0484A098802E002F80090401C8842FAD377
S11323E00125B8460AFA05F0D8F80810084202D0C8
S11323F02846FEF76DFDD8F808100BFA05F00842E0
S113240003D045F08000FEF763FD6D1C102DE9D369
S11324104FF00110C8E902090120C8F81090FEF736
S11324200FFDE0794006B8F8060002D540F001003F
S113243001E020F00100A8F8060020E0E078A1788F
S113244041EA00201CE0E67819E0C6B9A07800F063
S11324508F05280605D505F00F010BFA01F002E0FF
S11324603AE00AFA05F0B96801432046B960FEF77C
S1132470D9FC2846FEF742FD284600F007F92078EB
S113248004442078002891D121E0FFE74D4687F8E5
S1132490019001245E46B9680AFA04F0084202D0A9
S11324A02046FEF715FDB96806FA04F0084203D089
S11324B044F08000FEF70CFD641C102CEBD34FF0AD
S11324C00110C7E9020500203D61FEF7B9FC05488B
S11324D079788078884202D00020BDE8F09F0120FE
S11324E0FBE7000060E0FF1F176A0000B96A000004
S11324F0986A000038E0FF1F186A00002DE9F84FC1
S1132500454800273E460078BA4600F01F00B94609
S113251001287ED140491C394878002876D0002013
S113252000903E4802780846C0780AB9012870D065
S11325308B4608B13A4C65E03A4C63E06078022877
S113254004D004280CD005285AD11BE061799BF8EB
S11325500100814254D0E078A17841EA002050E0A3
S11325602D48A778E67801794FF00009B94247D1A0
S11325708078B04244D1012000902B4810F807A085
S1132580C6553DE024490879B84239D1A07800F015
S11325908F085FEA086005D508F00F004FF4803516
S11325A0854002E0012505FA08F58878B04215D186
S11325B0DBF8081020462943CBF80810DBF80C1090
S11325C0A943CBF80C10FEF72DFC4046FEF796FC11
S11325D0404600F05BF849EA050911E056450FD181
S11325E019EA050F0CD1DBF808104046A943CBF8D3
S11325F00810DBF80C10A943CBF80C10FEF768FCAC
S1132600207804442078002898D10098BDE8F88FF9
S1132610FFE70020FAE7000060E0FF1F176A0000F0
S1132620B96A0000986A000038E0FF1F01201449CD
S1132630002201EB800383F8C020401C1028F8D34B
S113264010484023438000F160034360C8230370B3
S1132650027200F1E0034361C2610D2081F8C00001
S1132660094B4FF05530586011F8940F40F00200B8
S113267001F81409FF200870087208730A7670477D
S11326800020074000E8FF1F3CE0FF1F2DE9F04158
S113269005461C4E00064FF000084FF00101A6F15C
S11326A0600705F00F0418D501EB44008140EFF3F7
S11326B0108010F0010F72B6134A136843EA010345
S11326C0136000D162B607EB441006EB042180319D
S11326D0C0F81C804161BDE8F08168008140C943B5
S11326E0094801F0CCFD0848001F415D07EB441088
S11326F0418006EB042141608821017080F8088044
S1132700E9E7000060E8FF1F40E0FF1F034810F8FE
S1132710841F21F020010170704700000020074051
S1132720002904D1024900F07F0081F89800704725
S1132730002007400007810E0348084410F8C01F1A
S113274041F002010170704700200740082202494D
S11327500020FFF74BBC000060E0FF1F0248416807
S11327604FF4007001F0A0BAC0E0FF1F0022114630
S1132770802000F017B800000248034902780020C6
S1132780FFF734BC1A6A0000B4E5FF1F034810F8D1
S1132790841F41F0200101707047000000200740B1
S11327A07047000070B5154600F00F00022202EBDE
S11327B08004114A002302EBC400458002F160004A
S11327C000EB841002E0CE5CC6545B1CAB42FAD32F
S11327D00A4960084968C140C90701D0882100E05E
S11327E0C82102F83410012181400448001D01F081
S11327F052FD284670BD000000E8FF1F3CE0FF1FAB
S11328000020704710B5002A06DA22F00042D21DDB
S113281022F00703102203E0D21C22F003030C224F
S113282013B19C188C4201D9012010BD024401440B
S11328308360C0E90021C91AD018884202D8106008
S11328400246F9E70020106010BD000010B50446F0
S113285002F082FD002805D04FF6FF71DFF808C0B2
S1132860206800DF10BD0000494E000010B504468A
S113287002F072FD002803D0DFF808C0206800DFF2
S113288010BD0000994D00002DE9F04116460F4699
S113289000281CD1EFF3108000F0010572B600236C
S11328A01A461946184600F0B3F8040003D131461D
S11328B0384600F0F7F805B962B6002C07D1EFF3FB
S11328C00380C00603D1BDE8F04103F0CDBCBDE8F0
S11328D0F081000010B524220D490E48FEF746F899
S11328E003F0B0FD0C4803F0A7FD03F025FC0B49F1
S11328F00B4A0C4B08604FF40071B0FBF1F011600F
S1132900094901221A60086009490848086010BD95
S1132910286C0000B0FDFF1F092E00009CE0FF1F83
S113292078E0FF1F7CE0FF1F80E0FF1FB0FBFF1F6C
S113293084E0FF1F044841788078814201D001205F
S113294070470020704700004CE1FF1F00F036BBC9
S113295000F034BB00207047012070472DE9F0419E
S11329604B212148FEF73CF84B272048FEF781F81D
S11329701F4E1E4C1C4DB04215D16079217941EA9D
S113298000234B2B01D21A4601E04FF04B0201D930
S11329901F4601E04FF04B0714491348FDF716FF9B
S11329A0002085F847004B211048FEF719F80F491D
S11329B03046FEF769F82771380A60714122E91D33
S11329C0E01DFDF703FF95F8490015F8481F41EA9B
S11329D0002204F8482F100A6070A878A070BDE89F
S11329E0F04100F093B80000E4F1FF1F001F002045
S11329F0646C766B10B5054C4121E01DFDF7F0FFCA
S1132A00002004F8480F607010BD0000001F002073
S1132A102DE9F0471A4F81461D4616468846F81D93
S1132A20FDF75EFE441CB9F1000002D04146FDF7FB
S1132A30D7FF002006B1308005B12870F87900284E
S1132A401CD0444502D8F91D224604E0A4EB08003A
S1132A50C1194246C91DB9F1000F06D097F84900C3
S1132A6097F8483043EA0020308016B14846FDF715
S1132A70ADFE15B197F84A0028700120BDE8F08733
S1132A80001F002002488079002800D001207047F0
S1132A90001F002002488079002800D001207047E0
S1132AA0E4F1FF1F2DE9F04188460746FDF718FEC3
S1132AB0124D441C41263146E81DFDF791FF412C7F
S1132AC002D83946224602E0413CE11932462C46FE
S1132AD0E81DFDF77BFE84F848804FEA182084F84F
S1132AE0490000F0A9F808B1012003E000F0A6F8BD
S1132AF000B1022084F84A00BDE8F081001F0020E4
S1132B000149887170470000001F0020704770471A
S1132B10704700002DE9F0410F4606464FF0FF34A0
S1132B200025DFF83C8012E0705D082101F010FF01
S1132B3084EA006408204146002C02DA81EA440455
S1132B4000E06400401E10F0FF00F5D16D1CBD4292
S1132B50EADB2021204601F0FBFEC043BDE8F08102
S1132B60B71DC1042DE9F0410E4617462021C0438C
S1132B7001F0EEFE04460025DFF83C8012E0705DB3
S1132B80082101F0E5FE84EA006408204146002C97
S1132B9002DA81EA440400E06400401E10F0FF0001
S1132BA0F5D16D1CBD42EADB2021204601F0D0FEA8
S1132BB0C043BDE8F0810000B71DC10470B51446E0
S1132BC00D460646FF2A07D84FF4EE7209A10020ED
S1132BD0FFF75AFE022070BD00F01AFC08B10E2067
S1132BE070BD2A462146304600F0A6FD0028F7D0E5
S1132BF01C2070BD2E2E5C2E2E5C2E2E5C736F75E9
S1132C007263655C6461706C696E6B5C647261674D
S1132C102D6E2D64726F705C6961705F666C617398
S1132C20685F696E74662E6300000000C10600F0E0
S1132C300F0000D40930704701207047002070470E
S1132C4010B500231A4600F0F1F9002800D0012045
S1132C5010BD10B503F084F9012800D0002010BD88
S1132C602DE9F041154E4FF400444FF4FE35307811
S1132C70012806D04FF49B7211A10020FFF704FE37
S1132C8009E0B078022748B14FF49E720CA10020ED
S1132C90FFF7FAFD37700220BDE8F081204600F00E
S1132CA02BF810B137701E20F6E704F58064AC42AF
S1132CB0F4D30120B0700020EEE7000028E1FF1FEC
S1132CC02E2E5C2E2E5C2E2E5C736F757263655CEB
S1132CD06461706C696E6B5C647261672D6E2D64E7
S1132CE0726F705C6961705F666C6173685F696E56
S1132CF074662E630000000070B51F4E04463078E1
S1132D00012805D0FE221DA10020FFF7BDFD18E01B
S1132D104FF48060B4FBF0F100FB1141022511B1C6
S1132D204FF4837208E0F17869B1D6E902121144D4
S1132D30A14208D040F20D1210A10020FFF7A4FD1B
S1132D403570022070BDB4F5F84F11D30121F17034
S1132D50C6E90240204600F061FF222803D0002883
S1132D60F0D0357070BD204600F052FB0028F9D039
S1132D7035701D2070BD000028E1FF1F2E2E5C2E33
S1132D802E5C2E2E5C736F757263655C6461706C6F
S1132D90696E6B5C647261672D6E2D64726F705C1A
S1132DA06961705F666C6173685F696E74662E63D7
S1132DB0000000004FF480607047000010B5242824
S1132DC004D2064951F82000002805D1832204A129
S1132DD00020FFF759FD0AA010BD00003C6B000065
S1132DE02E2E5C2E2E5C2E2E5C736F757263655CCA
S1132DF06461706C696E6B5C6572726F722E6300D5
S1132E0000000000704700002DE9F0411E46154601
S1132E100C46074603F0A4FB022C1ED0002C2FD135
S1132E20384602F04DFC03282AD0304603F05EF900
S1132E30800725D4384602F043FC0746304603F0A9
S1132E4057F90446304603F057F901463B462246FB
S1132E502846BDE8F04102F0A9BD0A480068A8422E
S1132E600ED1304603F044F90446304603F044F9E9
S1132E700646384602F024FC034622463146E7E77C
S1132E80BDE8F081B0FDFF1F2DE9F0411B4E044663
S1132E901746B07F8846550258B92946404602F085
S1132EA0CBFB032802D0214602F02CFDB07F002882
S1132EB00FD07068A0420CD8B068A0420BD008D9DB
S1132EC0F068401C00D1F460F068A04200D20446CF
S1132ED0F460BDE8F081B0692A461044B061E0199D
S1132EE0B060F07F20B1BDE8F041002002F0AABD3F
S1132EF041462046BDE8F04102F0ACBCB0FDFF1FE6
S1132F00F0B518A185B0096804910278002104ABDA
S1132F105C5C944224D0491C0329F9D312A10022F9
S1132F2091E878006F46815C8DE87800A1F1610C2E
S1132F30BCF1190F14D9202901D2052910D14FF061
S1132F40000C17F80CE08E450AD00CF1010CBCF112
S1132F50100FF6D3521C0B2AE5D3012005B0F0BDA7
S1132F600020FBE7E5002000222A2B2C2E2F3A3BE1
S1132F703C3D3E3F5B5C5D7C10B530B15B1E19424D
S1132F8001D11A4203D0652010BD042010BD03688E
S1132F908B4204D8406811441844884201D2662008
S1132FA010BD002010BD00000349884201D06B20F1
S1132FB070470020704700006B66656B70B50D4D5F
S1132FC000202C7874B100212970A97809B100F08F
S1132FD033FB022C05D06978032902D0002800D1E4
S1132FE0212070BD40F2331203A10020FFF74CFCF6
S1132FF0022070BDFCE0FF1F2E2E5C2E2E5C2E2EB8
S11330005C736F757263655C6461706C696E6B5C34
S1133010647261672D6E2D64726F705C666C61738F
S1133020685F6465636F6465722E63003EB51D4618
S11330300446302901D3012000E00020402211A1E0
S1133040FFF722FC0C2204F120016846FDF7BEFBC9
S11330501949019888420BD118490098884201D136
S113306002203EBD1549FC39884208D101203EBDED
S1133070204602F04FFF00B90DB103203EBD0020F1
S11330803EBD00002E2E5C2E2E5C2E2E5C736F75C2
S11330907263655C6461706C696E6B5C64726167B9
S11330A02D6E2D64726F705C666C6173685F64650D
S11330B0636F6465722E6300009996978F9E939B4D
S11330C02DE9FF5F4FF00005DDF838905FEA030853
S11330D0934607462C4614D05FEA090011D000201D
S11330E0C8F800000646C9F80000FFF7A5FDDFF8A0
S11330F08CA090B14FF40040022F04D0032F0AD0CB
S113310023E0652234E0BBF1000F04D00199814231
S113311001D0182519E006460EE0FFF78FFD98B19F
S1133120012F02D0032F0AD00FE0BBF1000F03D010
S1133130019808B1172508E0DAF8004005E01048C6
S113314086681048046800E01925FFF705FC08B9F3
S1133150012F04D02DB1284604B0BDE8F09F1925F5
S1133160F9E724B1C8F80060C9F80040F3E79D22EC
S113317005A10020FFF788FB0220EDE7246C000086
S1133180C06F0000046C00002E2E5C2E2E5C2E2ED0
S11331905C736F757263655C6461706C696E6B5CA3
S11331A0647261672D6E2D64726F705C666C6173FE
S11331B0685F6465636F6465722E630010B50C4CC0
S11331C0207830B1AC220BA10020FFF75DFB022078
S11331D010BDFF2230211448FDF7FAFB01202070B6
S11331E0002060706060A060E060A070E07010BDBE
S11331F0FCE0FF1F2E2E5C2E2E5C2E2E5C736F7552
S11332007263655C6461706C696E6B5C6472616747
S11332102D6E2D64726F705C666C6173685F64659B
S1133220636F6465722E630034F3FF1F2DE9FE4F54
S1133230484F0546894638781446012807D0C122EC
S113324045A10020FFF720FB0220BDE8FE8FF8789F
S11332504FF0010A18B9BD60FD6087F803A0B87883
S11332604FF00308002852D1F868854201D10121AA
S113327000E000212044F86031B37868C0F13006E2
S1133280A64200D916464149324608444946FDF74C
S11332909DFA7868A41B3044B144354478603028E2
S11332A02BD302D14FF0010001E04FF000004FF0AA
S11332B0E30229A1FFF7E8FAD7E901120123334811
S11332C0FFF7B4FE787001E087F8018001A8009050
S11332D002AB01227878B968FFF7F2FEE8B9B87852
S11332E0FC2280F001001CA1FFF7CEFA019800F047
S11332F049F990B987F802A001E0B87880B1D7E91C
S11333000120224900F0B0F838B9B87840B122461B
S11333104946284600F0A8F810B187F8008094E7E1
S11333207878012804D0022805D003280FD105E0BD
S11333304FF4F84004E04FF4FE3001E01448C06854
S11333402919814203D30220387010207DE7002020
S11333507BE70000FCE0FF1F2E2E5C2E2E5C2E2E41
S11333605C736F757263655C6461706C696E6B5CD1
S1133370647261672D6E2D64726F705C666C61732C
S1133380685F6465636F6465722E630034F3FF1FC6
S1133390C06F00002DE9F047074616460C46184654
S11333A0FFF702FE002829D104233246214638467D
S11333B0FFF7E2FD050021D12644F868761EB6FB2E
S11333C0F0F100FB116121B1B6FBF0F1491C484357
S11333D0461EDFF83480DFF834A04FF00909B44208
S11333E00BD8D8F8000004608AF80790FDF7D0FBEA
S11333F00546B86900B1804715B12846BDE8F08795
S1133400F8680444EBE70000BC6F000000000240D1
S113341010B5EFF3108101F0010472B6FDF7BEFBA5
S1133420002C00D162B610BDA8B10D49C96C0D4A7B
S113343001F0706102EBD151098809030DD000221B
S1133440C0E90021012181608902C0E903124261BF
S11334508261104670470420704764207047000062
S113346000800440F66900002DE9F84F364E04460A
S11334700025307817468846012805D0782233A1E4
S11334800020FFF701FA0BE070694FF0020A844252
S113349009D280222DA10020FFF7F6F986F800A0BA
S11334A00220BDE8F88FB0784FF0010B48B986F8D8
S11334B002B0204601F0CCFF050002D086F800A03F
S11334C040E0B1464E46D6E901028118A14214D823
S11334D0B1698B682A499847050002D089F800A091
S11334E030E0B168FF2226480091FDF771FA86F8B2
S11334F001B071680098084470600FB3D6E9030105
S11335000844A04204D8204601F0A2FF0500E5D1FA
S11335107068B168B146201A0E1AB74200D23E460E
S11335201749324608444146FDF750F936B10020A8
S113353089F801003444B044BF1BC3E70120F7E716
S1133540C9F814402846ACE70CE1FF1F2E2E5C2E70
S11335502E5C2E2E5C736F757263655C6461706C97
S1133560696E6B5C647261672D6E2D64726F705C42
S1133570666C6173685F6D616E616765722E63006E
S113358064F3FF1F70B51D4D0446287808B1462228
S11335902BE04CB3606838B3A06828B3E06818B374
S11335A0206908B36069F8B1A069E8B1FF224FF45B
S11335B080611348FDF70CFA01266E700020A87094
S11335C06860A860E8602861C5E905042068804750
S11335D0002808D1A8690069804704000BD0A869B5
S11335E040688047204670BD4C2206A10020FFF7AA
S11335F04BF9022070BD2E7070BD00000CE1FF1F5E
S113360064F3FF1F2E2E5C2E2E5C2E2E5C736F75C2
S11336107263655C6461706C696E6B5C6472616733
S11336202D6E2D64726F705C666C6173685F6D6182
S11336306E616765722E630070B5184C00252078A2
S113364010B1012807D00FE0CA2215A10020FFF70E
S11336501BF9022070BD607830B9A0691D498368E8
S1133660D4E9010298470546A069406880470646A8
S1133670FF224FF480611748FDF7AAF9012060701A
S11336800021A1706160A160E1602161616121702C
S11336900EB1304670BD284670BD00000CE1FF1F1E
S11336A02E2E5C2E2E5C2E2E5C736F757263655C01
S11336B06461706C696E6B5C647261672D6E2D64FD
S11336C0726F705C666C6173685F6D616E61676573
S11336D0722E630064F3FF1F2DE9F05F1E46150090
S11336E00F4680461ED004233246FFF745FC0400F3
S11336F016D1DFF83C90DFF83CB04FF0060A76B103
S1133700D9F80000076002CD41608BF807A0FDF7EF
S11337103FFA0446D8F8180000B1804724B1204687
S1133720BDE8F09F0420FBE7361F3F1DE7E70000DC
S1133730BC6F00000000024010B5EFF3108303F0EB
S1133740010472B6FDF7A8FA002C00D162B610BDD0
S11337502DE9F047994615460F4604460423FFF722
S11337600BFC002824D1D4E90101B0FBF1F8794223
S1133770C8F1000001404E42BE4200D14644B5B1FA
S1133780F41BAC4200D92C460A49A00809680F6012
S113379009490122CA71020ACA72887281F8099021
S11337A0FDF7F6F9002803D12D1B2744E6E7002096
S11337B0BDE8F087BC6F0000000002402DE9F05F17
S11337C01C00DDE90B87DDF8289016460D4622D053
S11337D00423FFF7D1FB00281BD1DFF848A0DFF852
S11337E048B0002E15D0DAF80000056002228BF8EC
S11337F007208BF80B9021688160FDF7C9F960B14F
S1133800B8F1000F01D0C8F80050002F01D00021FA
S11338103960BDE8F09F0420FBE7241D2D1D361FF1
S1133820DFE70000BC6F00000000024003460122F5
S11338300149002018470000E0FDFF1F0248006D09
S1133840C0F340007047000000F00F40F8B5164880
S1133850816B41F4A0518163144E85153561144C7C
S11338601020C4F8C000C4F8D400D4F8C80040F054
S11338701000C4F8C800606D20F0020060650D48B7
S11338804560FFF7D9F948B9B56154F8C00F40F065
S113389040002060606940F040006061064800908C
S11338A0401E0090FCD1F8BD0080044000C00440DC
S11338B000F00F4000A0044040420F00AFF300802E
S11338C00449102210B1C1F8C8207047C1F8C420BF
S11338D07047000000F00F40FFF7F2BF70B5104CC6
S11338E0002047F6FC316060A060E0602061FFF7D3
S11338F011F960600B494FF40040FFF70BF94FF4E6
S11339008065A06029464FF4F840FFF703F9E060B2
S113391029464FF4FE30FFF7FDF8206170BD00002A
S1133920A0E0FF1FFC7B010000487047B4E0FF1FCC
S11339300021064B0A6A01209A4200D00020496AFD
S1133940034A914200D0002070470000939D939B4E
S11339500099969700B5FFF7EBFF002801D00020EF
S1133960806A00BD0148406870470000A0E0FF1F66
S11339700148806870470000A0E0FF1F00487047BE
S11339802CECFF1F00487047EAEBFF1F0120C10326
S1133990054B0A6A9A4200D00020496A034A9142C0
S11339A000D00020704700008F9E939B009996974B
S11339B000B5FFF7EBFF002802D04FF40040806A07
S11339C000BD000000487047DDEBFF1F0048704752
S11339D00BECFF1F00487047ACEBFF1F004870471B
S11339E035ECFF1F00487047B9E0FF1F70B5FFF7C3
S11339F075FF1F4800F032FF01F0CAFC1C4831215A
S1133A002030FDF70FF81A481A492030FCF7D2FE8F
S1133A10174819A12030FCF7CDFE15495E31A1F1FC
S1133A203E00FCF7C7FE1249A031A1F18000FCF76B
S1133A30C1FE0F4800242030FCF752FE0C4AC1B2EC
S1133A400220A93200EB41001070032050700220C4
S1133A500023A2F1890508E02E5D1654401CC0B273
S1133A601354401C641CC0B2E4B28C42F4D370BD45
S1133A708CEBFF1FB4E0FF1F30303030000000003B
S1133A8010B5124C207830B1612211A10020FEF74C
S1133A90FBFE022010BD002211461046FDF7B8F8C7
S1133AA008B11A2010BD00206070A070E070A06002
S1133AB0E060207120616061A0614FF48061124870
S1133AC0FCF78EFF01202070002010BD28E1FF1FAD
S1133AD02E2E5C2E2E5C2E2E5C736F757263655CCD
S1133AE06461706C696E6B5C647261672D6E2D64C9
S1133AF0726F705C6961705F666C6173685F696E38
S1133B0074662E630000000064F7FF1F2DE9F05F68
S1133B10324F0446164638788B464FF400424FF431
S1133B20FE31012808D04FF4BC722DA10020FEF70D
S1133B30ABFE0220BDE8F09F9246544502D389466D
S1133B404C4501D31F20F5E7FFF778F8A8B3C4F577
S1133B50FE35281FB04201D9324600E02A1F5946DB
S1133B60B846B869FEF7FEFF0746C8F81800B4F572
S1133B70044F09D22848A4F500442044324659464B
S1133B80FCF724FE0020D5E7A019484523D10BEB10
S1133B90050010F8015C001FFCF76BFF65F31F6064
S1133BA04546874201D02320C4E75A463146204681
S1133BB0FFF7C2FD10B11C20BCE70CE04FF480629B
S1133BC015495046FEF7FAFF0446FFF787FE012029
S1133BD068702046AEE72220ACE7000028E1FF1F12
S1133BE02E2E5C2E2E5C2E2E5C736F757263655CBC
S1133BF06461706C696E6B5C647261672D6E2D64B8
S1133C00726F705C6961705F666C6173685F696E26
S1133C1074662E630000000064F7FF1F70B504464D
S1133C2012484FF400454FF4FE310078012807D0C4
S1133C304FF4DD720EA10020FEF726FE022070BDB7
S1133C40AC4201D38C4201D31F2070BDFEF7F6FFB6
S1133C5048B12846844206D12946BDE870404FF455
S1133C608072FEF7ABBF222070BD000028E1FF1F69
S1133C702E2E5C2E2E5C2E2E5C736F757263655C2B
S1133C806461706C696E6B5C647261672D6E2D6427
S1133C90726F705C6961705F666C6173685F696E96
S1133CA074662E63000000000246084810B500EB5D
S1133CB0810050F8040C002806D0114601F040F9A8
S1133CC0BDE8104001F02CB910BD0000D4F1FF1F75
S1133CD010B5FFF7BBFDFEF741FEFFF7AFFD68B17E
S1133CE00B4CA06802F016F940B1FEF7D3FE28B9D8
S1133CF00849A068086003C8FCF7F6FBFCF7FCFB66
S1133D00054A06490648DFF81CC000DF002010BD44
S1133D10C06F000008ED00E028EDFF1F0A2003003B
S1133D20413D00000D510000044901220A7008B110
S1133D30022000E00120487070470000C0E0FF1F2F
S1133D400126FEF7A7FE18B16420DFF810C100DFDA
S1133D50DFF80CC100DF434F78600020FFF7B0FDAF
S1133D600020FFF7ABFD0020FFF7B6FDFFF73EFE96
S1133D7001F0D2FF012002F097FA002001F0CAFFFF
S1133D804FF0000887F803800120C7F80880B87056
S1133D900B244346344A48F60B013448DFF8D0C0BC
S1133DA000DF4FF6FF7940F2032A002249465046CD
S1133DB0DFF8C0C000DFDFF8C0C000DF05468005C3
S1133DC001D5FDF7CBF9E8072CD05A2002F084FA8C
S1133DD0F878012806D1B86810B1401EB86001D146
S1133DE087F80380B87858B301280ED0032814D07C
S1133DF0042817D1F878A8B90CB1641E12D1002098
S1133E0001F088FF87F802800CE00CB1641E09D130
S1133E10012001F07FFF032003E001F073FF08B1EC
S1133E200220B870A807C0D538780028BDD07878AB
S1133E30012801D00228B8D1012E03D0012602E0C6
S1133E40FCF70AFF00260EB1012801D0012000E092
S1133E50002038703046FFF73FFDA6E7B54A000062
S1133E6059530000C0E0FF1FA0ECFF1F09580000D9
S1133E70DD520000754B0000BD4A0000FFF79EB9FB
S1133E8010B5044640F20111FCF7AAFD00F074FDE0
S1133E9000202070BDE81040FFF790B9012805D03C
S1133EA0022805D0032814D0CF2202E0C32200E068
S1133EB0C72209A10020FEF7E7FCBFF34F8F10488B
S1133EC00168104A01F4E06111430160BFF34F8FB0
S1133ED0FEE7CB22EDE700002E2E5C2E2E5C2E2E6C
S1133EE05C736F757263655C6461706C696E6B5C46
S1133EF05254585F436F6E6669672E63000000007A
S1133F000CED00E00400FA05FEE700000748016834
S1133F104FF0E020416100218161072101610448E3
S1133F20016841F07F41016040177047D46B000085
S1133F3020ED00E0704770472DE9FF5F05460198CA
S1133F40109C05EB000ADFF8EC910020206099F842
S1133F500300DFF8E4B11F4600281BD0002089F8D5
S1133F6003005E469BF80020311D1846FCF72EFC2A
S1133F7030782168074408442060D9F80400B178F7
S1133F8072786FF30F0042EA01210843317801444B
S1133F90C9F80410B2E028780A2815D00D2813D0E7
S1133FA03A287DD099F800104E46002979D0FEF7C2
S1133FB03DFE00F00F0270781BF800301A430BF836
S1133FC00020401C707094E05B4A0021084613787E
S1133FD05B1D04E0165C401C3144C9B2C0B283428C
S1133FE0F8D809B104268DE099F80210002944D1CB
S1133FF0012189F802109BF802109BF801204E461B
S113400042EA012191FA91F88BF801804FEA1821D4
S11340108BF802109BF8030020B101282ED004284D
S11340206BD12DE04449252201F12500FCF7CEFB9C
S11340307068B146010C090441EA08015E468142F8
S113404004D0012089F8030002265BE03278311D98
S11340503846FCF7BBFB30782168074408442060ED
S1134060D9F80400B17873786FF30F0043EA0121A3
S1134070084331780844C9F804003EE0012641E0D1
S113408021680E98FF22411A3846FCF7A1FC2068EB
S1134090D9F80420121A0F980260AAEB050201E075
S11340A012E01DE00198821A029802609BF8052034
S11340B09BF8043043EA022040BA0004C9F8040023
S11340C0022004B0BDE8F09F25211B48FCF788FCC2
S11340D0002089F8000089F8010089F802000CE04A
S11340E07178252923D2FEF7A1FD727801010BF81E
S11340F002103078D8B1002030706D1C55457FF423
S11341004AAF002621680E98FF22411A3846FCF770
S11341105FFC2168D9F80400411A0F9801600198E6
S1134120AAEB0501411A029801603046C9E7012053
S1134130E2E7000044E1FF1F64FBFF1F2DE9F05F8D
S1134140DFF8F8800446154698F800008B464FF4D3
S1134150FE3A012805D0A12239A10020FEF794FBE4
S11341603FE04FF48070B4FBF0F3820000FB134394
S1134170114602260BB1AA222DE0854204D3B5FBD9
S1134180F0F300FB135008B1B12224E0B4FBF1F0CA
S113419002FB10402844884201D9B8221BE098F859
S11341A0020078B998F8030050B1D8F808008442A6
S11341B004D3D8F80C100844A04203D8C6220AE05D
S11341C0C02208E098F8040070B1D8E9040108445A
S11341D0A04209D0CE221AA10020FEF755FB88F890
S11341E000600220BDE8F09F6719B4F5F84F00D2D3
S11341F0BFB94FF0010988F804902A465946204671
S1134200C8E90445FFF782FC222804D00028E9D03D
S113421088F80060E6E75A4629462046FFF78CFAFC
S113422018B188F800601C20DCE7574503D3FFF77A
S113423055FB88F801900020D4E7000028E1FF1F17
S11342402E2E5C2E2E5C2E2E5C736F757263655C55
S11342506461706C696E6B5C647261672D6E2D6451
S1134260726F705C6961705F666C6173685F696EC0
S113427074662E63000000004FF480707047EFF303
S1134280108212F0010F72B6036803EA010303609F
S113429000D162B67047EFF3108212F0010F72B6CC
S11342A0036883EA0103036000D162B6704700002B
S11342B02DE9F0418846044610444FF48061B1EB87
S11342C0402F08D240F2262213A10020FEF7DCFA88
S11342D00020BDE8F081560231464046FCF780FBE1
S11342E060024509102D15D24FF40077B7EB442F27
S11342F001D9012000E000204FF40C7206A1FEF762
S1134300C3FA604207EB4022104800EB45114046D7
S1134310FCF75CFA3046DCE72E2E5C2E2E5C2E2E4B
S11343205C736F757263655C6461706C696E6B5C01
S1134330647261672D6E2D64726F705C766972743D
S113434075616C5F66732E6300000000E408002052
S113435010B50B464FF4007408B1002010BD22467E
S113436002491846FCF732FA204610BD2402002008
S11343702DE9F0410C4610B10020BDE8F081204F3A
S11343803878012837D0022837D0002508461DA1E7
S113439001F076FD0646A0191DA101F071FD064449
S11343A0A0191D4901F06CFD0644A0191BA101F0E0
S11343B067FD0644A0191AA101F062FD0644A01984
S11343C0798801F066FD0644A01914A101F058FD96
S11343D0064475B1A01914A101F052FD0644A019B8
S11343E0294601F04DFD851960190CA101F048FD25
S11343F046193046C1E70FA5C8E711A5C6E7000076
S113440058E1FF1F4173736572740D0A00000000C8
S113441046696C653A200000E0FFFF1F0D0A0000AA
S11344204C696E653A200000536F757263653A20DB
S113443000000000426F6F746C6F6164657200006D
S11344404170706C69636174696F6E0070B50C467D
S113445008B1002070BD08467DA101F011FD05469C
S1134460601988A101F00CFD0544FFF7B3FA014679
S1134470601901F005FD0544601985A101F000FDF6
S11344800544601983A101F0FBFC0544FFF776FAAB
S11344900146601901F0F4FC054460197CA101F0A7
S11344A0EFFC054460197EA101F0EAFC0544FEF727
S11344B051FA08B17EA100E07EA1601901F0E0FC90
S11344C00544601972A101F0DBFC054460197AA16E
S11344D001F0D6FC0544FEF73FFA08B174A100E0F0
S11344E074A1601901F0CCFC0544601968A101F0C5
S11344F0C7FC0544FEF7A0FB08B175A600E077A64B
S1134500601979A101F0BCFC05446019314601F041
S1134510B7FC054460195EA101F0B2FC05446019C2
S1134520314601F0ADFC0544601973A101F0A8FC0B
S11345300544FFF757FA0146601901F0A1FC054450
S1134540601953A101F09CFC0544FEF775FBA0B96A
S1134550FFF7EEF988B160196AA101F091FC0544F6
S1134560FFF7F8F901466019042201F0BCFC054488
S1134570601947A101F084FC0544FEF75FFBA0B974
S1134580FFF704FA88B1601964A101F079FC0544CD
S1134590FFF70EFA01466019042201F0A4FC054459
S11345A060193BA101F06CFC0544601960A101F0A5
S11345B067FC0544601961A101F062FC05446019BF
S11345C033A101F05DFC0544601967A101F058FCBA
S11345D005446019012101F05CFC054460192CA11B
S11345E001F04EFC0544601963A101F049FC054447
S11345F0601966A101F044FC0544601924A101F08E
S11346003FFC0544FFF794F980B1601960A101F003
S113461037FC0544FFF7A6F90146601901F008FCD0
S1134620054460191AA101F02BFC054460195DA131
S113463001F026FC0544FFF79BF90146601901F0DF
S1134640F7FB0544601912A101F01AFC284470BD5F
S113465023204441504C696E6B204669726D77612A
S11346607265202D207365652068747470733A2F09
S11346702F6D6265642E636F6D2F6461706C696E5B
S11346806B0D0A00556E697175652049443A200026
S11346900D0A00004849432049443A200000000024
S11346A04175746F2052657365743A2000000000F0
S11346B031000000300000004175746F6D61746951
S11346C06F6E20616C6C6F7765643A2000000000A7
S11346D0426F6F746C6F616465720000496E74653B
S11346E072666163650000004461706C696E6B20E2
S11346F04D6F64653A2000002056657273696F6ED1
S11347003A200000426F6F746C6F616465722056CA
S1134710657273696F6E3A2000000000496E74651B
S113472072666163652056657273696F6E3A200024
S1134730476974205348413A20000000626535619E
S11347406664333464623265666531653038643773
S11347503266613233623361363861623236323501
S113476064396133000000004C6F63616C204D6F4D
S113477064733A200000000055534220496E74656A
S11347807266616365733A20000000004D53440073
S1134790426F6F746C6F61646572204352433A20B8
S11347A030780000496E7465726661636520435217
S11347B0433A2030780000002DE9F0410D460646CA
S11347C001F06AFDFEF7FAFA0746FBF789FF044693
S11347D016B10020BDE8F081024639462846FBF7B1
S11347E0F5FF0D202855601C0A212954A01CF1E76F
S11347F010B50C4608B1002010BD4FF400712046DE
S113480001F000FA2046BDE81040FBF769BF000044
S11348102DE9F041084D06460F462846FBF760FF98
S1134820044616B10020BDE8F08102462946384608
S1134830FBF7CCFF2046F6E7BC77000010B50B462B
S11348404FF4007408B1002010BD224602491846F6
S1134850FBF7BCFF204610BD2400002004490A6E6B
S11348600260CA6D42608A6D8260496DC1607047A2
S11348700080044010B5084654022146FCF7B0F805
S1134880204610BD70B5234D4FF0FF346878A978E9
S1134890884201D0012000E0002040F2E3121EA172
S11348A0FDF7F2FF6878022803D0B0B1012818D0D0
S11348B020E026484FF4FA74007FD8B1012809D0CB
S11348C0022817D0032815D0621C13A10020FDF77D
S11348D0DBFF0FE044F620640CE0A878022808D03F
S11348E008E0A878022801D018B103E040F6C41407
S11348F000E00024601C05D140F2052206A1FDF76A
S1134900C3FF0024A868A04201D9012070BD002083
S113491070BD00004CE1FF1F2E2E5C2E2E5C2E2E4F
S11349205C736F757263655C6461706C696E6B5CFB
S1134930647261672D6E2D64726F705C7666735F4E
S11349406D616E616765722E63000000B0FDFF1F2C
S113495070B5034600200246012609E0DC0704D0B6
S11349608D1A6D1E06FA05F420435B08521CD2B260
S11349708A42F3D370BD000010B525210748FCF727
S11349802FF8064825212530FCF72AF80448002191
S11349904160017041708170C17010BD64FBFF1FE4
S11349A044E1FF1F0146EFF3108000F0010272B6EC
S11349B0086808B103680B60002A00D162B670472A
S11349C070B50D46002812D04FF6FF71084C88428E
S11349D004D222680146104600F0D4FA20684570DB
S11349E0044800F0F8F8BDE8704000F087BB70BDE3
S11349F07CE1FF1FE40A00207047000070B51A4EE6
S1134A00F06800282ED0B08A401EB082002523E032
S1134A10A06838B161684160606810B1A1688160C4
S1134A206560A56010482146183800F0CFFAA08AC6
S1134A30B0826078042804D10C49E08A09880844CB
S1134A40A0820120607084F82000E068F060E068D3
S1134A5008B10661E5602561B08A002802D1F468D6
S1134A60002CD5D170BD0000FC0A002084E1FF1F9A
S1134A7070B504000FD00D4DA17801262868827806
S1134A8091420CD900F0BEFA286846702046BDE871
S1134A90704000F033BB064800F09DF8F7E76670FD
S1134AA02146BDE87040024800F090BA7CE1FF1F47
S1134AB0E40A00200321FFF783BF000001480068D7
S1134AC0408B70477CE1FF1F10B50446008B084300
S1134AD020836278618B062A16D0052A17D10842F2
S1134AE015D001EA0002628388432083204600F047
S1134AF0ADFA01206070022084F820002146BDE850
S1134B001040034800F062BA31EA0002ECD010BD54
S1134B10E40A0020024670B5154800EB810050F805
S1134B20044C002C22D0208B104320836178658BA9
S1134B30062918D0052919D1284217D005EA000101
S1134B406183A8432083204600F080FA208BA84389
S1134B50208301206070022084F820002046BDE8F4
S1134B607040FFF785BF35EA0001EAD070BD000050
S1134B70D4F1FF1F70B503460C480D460468208B22
S1134B8042B133EA000101D0062109E098432083B1
S1134B90022070BD10EA030101D06183F6E705210C
S1134BA063832846FFF70CFF012070BD7CE1FF1FE3
S1134BB0814202D342688A4201D801207047EFF350
S1134BC0108212F0010F72B603680B60016000D10D
S1134BD062B60020704701464068002342684A607C
S1134BE00A78022A05D0012A03D0032A01D043609F
S1134BF0704742680AB19160436083607047000067
S1134C0070B5044600201546207001226270A17020
S1134C106060A060E0602061A082E0822083608305
S1134C2084F8200084F82100608C18B90448FFF748
S1134C30B9FEA06229462046BDE8704000F004B8E1
S1134C4018F1FF1F7047000010B5428C920803D181
S1134C500E4A1288C2F38D02836A03EB82035A0759
S1134C6000D51B1F4FF0807243E902120022144644
S1134C70403B43F82240521C0E2AFAD3C2691A62FE
S1134C804362C162806A0249016010BDD06B0000BA
S1134C90A52E5AE20349044A0968C88212881044BE
S1134CA0888270477CE1FF1F84E1FF1F0748016889
S1134CB007488A8A0088CB8A101A1A4480B28A82EA
S1134CC0010402D40421FFF77BBE70477CE1FF1F7F
S1134CD084E1FF1F2DE9F041044640680F46002699
S1134CE020B16078022818D0A08980B3A089E18916
S1134CF0884241D2208904EB8000076172B6A08902
S1134D00401CA08162B62089401C80B22081E189C8
S1134D10884200D12681BDE8F08166702046FFF705
S1134D205AFF80F820602189054604EB8101C0699F
S1134D30086172B6A089401CA08162B62089401C1B
S1134D4080B22081E18988420BD1268109E0FFE706
S1134D502046FFF740FF0546C0690421076085F837
S1134D60201001206870284600F070F92946BDE83B
S1134D70F041044800F02AB9BDE8F0410320FFF7F0
S1134D808DB80000E40A0020032101700021417065
S1134D9041804160816070472DE9F04704464088B6
S1134DA020B1274EA1683268914202D0FF20BDE8AD
S1134DB0F087401E0004000C60803ED131686078AA
S1134DC0DFF88080887061684FF00009012739B3EB
S1134DD02046FFF700FF0546052085F820002846F9
S1134DE000F034F96780A560A87860703168D8F85D
S1134DF004008A788078824201D328460AE0114868
S1134E0000F0E4F829460F4800F0E0F830684770F5
S1134E106F7010E0FFF72CFE316881F820900CE0F1
S1134E20D8F804108A783168824206D9054800F01F
S1134E30CDF8306847700020ECE70020B7E70000A9
S1134E407CE1FF1FE40A002070B5184D0E460446AD
S1134E504188286839B1A168814208D16088401C22
S1134E606080002070BDA06080786070F6E776B145
S1134E7062788078824203D28870A06800F0CCF80F
S1134E80606830B12046296800F0A0F808E00120ED
S1134E9070BD2868606029680020486028688460C4
S1134EA009213046FFF78CFDF1E700007CE1FF1F8C
S1134EB070B51848012102685170006800F0A2F82A
S1134EC0154D6C7812E005EBC40148680278C2B154
S1134ED0012A1BD000F0E6F8E878641C844200D173
S1134EE0002472B6A878401EA87062B6A87800287C
S1134EF0E9D16C700948FFF76EFEBDE8704000F020
S1134F00FDB8098989B2FFF7DFFDE5E78968FFF796
S1134F10E1FEE1E77CE1FF1FB0F1FF1FE40A00209E
S1134F200548017811B101214170704703494FF0E0
S1134F30805008607047000074E1FF1F04ED00E03A
S1134F40F0B40F4FBC1CFE783D4672B6BA78B2423C
S1134F5007D2521C22702A78531CB34200D100237A
S1134F602B7062B6FB78934205D907EBC202C2E903
S1134F700101F0BC7047F0BC0220FEF78FBF0000B7
S1134F80B0F1FF1F104A10B5D368ABB113469B8A2A
S1134F9003E08CB12246A48A2344D4688B42F8D31C
S1134FA0C460D0600261C46804B12061591A81826E
S1134FB0908A401A908210BD0024C460D060C91A3F
S1134FC002619182848210BDFC0A002030B502780F
S1134FD00024022A03D0012A01D0032A00D101248B
S1134FE08B7800E01046426812B195789D42F9D260
S1134FF04A6041601CB102B19160886030BD0020FC
S1135000FBE7000003494A6842600022826048606E
S113501070470000E40A002010B5836804462BB9E9
S1135020607801280ED1084B03E09B6818780028AB
S1135030FBD0204600F01EF82146BDE8104018467B
S1135040FFF7C4BF10BD0000E40A002010B50169D9
S113505000290ED0C268CA60C36800223BB18B8AA3
S1135060848A23448B82C3681961C26000E08A8207
S1135070026110BD816839B142684A604168002903
S113508001D0806888607047054906E04A6882421A
S113509002D140684860704711460029F6D1704734
S11350A0E40A002010B5416879B1FFF794FD044685
S11350B0FFF7CCFF01206070032084F82000214614
S11350C0BDE810400348FFF781BF4188491C418077
S11350D010BD0000E40A002006480068D0E9091069
S11350E0814203D300680449884202D00120FEF7BC
S11350F0D5BE70477CE1FF1FA52E5AE202494860E5
S113510002214170704700007CE1FF1F2DE9F04748
S11351101646414A81468846002005463D49128884
S113512002E041F82050401C9042FAD33B48302220
S113513001883B48FDF766FB3A48008880B240F09E
S11351400042394801683948FDF75CFB38480822B9
S1135150018838480068FDF755FB374CFF27374A6C
S1135160E770658400212046FFF74AFD3448042196
S11351700170456033480170C56005618582606ACD
S11351802030FBF7B3F930483149046002206070E5
S11351902E48057045700978C170FFF753FD2D48FE
S11351A0016841F47F0101600068390601EA0020CA
S11351B02849C0431439B0FA80F00968C0F10800E6
S11351C0C1F30221814200DB481C2249091F0B68FC
S11351D06FF08072824063F317020A60FEF796FE56
S11351E01D49002808600DDB00F1E02181F80074FE
S11351F000F01F02012191404011800000F1E020E5
S1135200C0F80011324641464846BDE8F047002345
S113521000F064B8D4F1FF1FCC6B0000E46B000015
S113522048F0FF1FD06B0000E86B000018F1FF1F6F
S1135230EE6B0000CCE0FF1F140B0020093F0000C0
S1135240E40A0020FC0A00207CE1FF1FB0F1FF1FEC
S1135250EC6B000020ED00E078E1FF1F0C4810B576
S11352600268012151700068FFF7CCFEFFF7C4FB10
S113527008480168491C0160FFF7C0FB00F00EF804
S11352800548FFF7A8FCBDE81040FFF737BF000052
S11352907CE1FF1F84E1FF1FE40A002070B50D4D7F
S11352A02868002815D0A8880B4E401EA8800AE064
S11352B0E088FEF740FEA088A88020682860214688
S11352C03068FFF775FCA888002802D12C68002CF0
S11352D0EED170BD88E1FF1FCCE0FF1F2DE9F04146
S11352E01E46174680460C4611F0FF0F00D14C1C99
S11352F01548FFF757FB051E23D0200AAF626884C8
S1135300E1B242462846EE61FFF77AFC10490124D7
S11353100E48098805E000EB840252F8042C1AB107
S1135320641C8C42F7D9002400EB840040F8045C30
S1135330EC702846FFF79CFB0648006880F8204084
S11353402046BDE8F081000048F0FF1FD4F1FF1FA4
S1135350CC6B00007CE1FF1F02480068002800D0ED
S1135360C07870477CE1FF1F10B5074C60780028B7
S113537008D106494FF4007201F58060FBF7F6FA94
S11353800120607010BD00005CE1FF1FE4040020F8
S11353902DE9F0470024DFF8AC8025462646C8F8FE
S11353A0004088F8044021212748FBF719FB2648D0
S11353B021212130FBF714FB234809214230FBF75C
S11353C031FB214FA7F15E09781959F8241000F038
S11353D02FFD641C2844E4B2C5B2042CF4D37E55DA
S11353E00025194F2C462137A7F16F09781959F870
S11353F0241000F01DFD641C2844E4B2C5B2042C42
S1135400F4D31049104C14397E55423420460968AF
S113541000F00EFDC0B2042226540C48016809486D
S1135420FBF7D4F9074888F80460401D3021017067
S113543032214170342181703121C1700671BDE87F
S1135440F0870000B4E0FF1FEAEBFF1F90E1FF1FAD
S11354502DE9F0412C4E0746B0694169384688472A
S11354600546B069816938468847044635B12CB190
S11354704FF4806845450AD8012009E040F21B1228
S113548022A10020FDF700FA0220BDE8F0810020EF
S11354904FF490721DA1FDF7F7F9B8FBF5F105FB88
S11354A0118048B1002040F2211218A1FDF7ECF957
S11354B0AC4203D3012002E00120F4E700204FF4C2
S11354C0917212A1FDF7E0F9B4FBF5F005FB104071
S11354D0C0B1002040F223120CA1FDF7D5F9B7FBAF
S11354E0F4F004FB1070381AC6E9030470604445F4
S11354F000D344462146FF221148B460FBF768FA02
S11355000020C2E70120E5E70CE1FF1F2E2E5C2EF0
S11355102E5C2E2E5C736F757263655C6461706CB7
S1135520696E6B5C647261672D6E2D64726F705C62
S1135530666C6173685F6D616E616765722E63008E
S113554064F3FF1F10B5094C207840B100F08CF8CB
S11355506068C168064888470021217010BDC122D7
S113556004A10020FDF790F9022010BDD0E0FF1F38
S113557030F2FF1F2E2E5C2E2E5C2E2E5C736F7568
S11355807263655C6461706C696E6B5C64726167A4
S11355902D6E2D64726F705C66696C655F737472D6
S11355A065616D2E6300000070B5134C05462078CC
S11355B008B1862202E0022D06D38C220FA100201E
S11355C0FDF762F9022070BDDFF864C000DFA0605F
S11355D04FF482711748FBF725FA01202070064822
S11355E00C3000EB051060604168124888470028C1
S11355F0E9D00321217070BDD0E0FF1F2E2E5C2E58
S11356002E5C2E2E5C736F757263655C6461706CC6
S1135610696E6B5C647261672D6E2D64726F705C71
S113562066696C655F73747265616D2E630000005A
S11356305953000030F2FF1F2DE9F041094D0E4689
S11356400746002405EB04103146026838469047AB
S113565010B12046BDE8F081641CE4B2022CF1D301
S11356600320F7E7DCE0FF1FDFF818C000DF06497E
S11356708968884201D1012000E00020632203A14F
S1135680FDF702B959530000D0E0FF1F2E2E5C2E07
S11356902E5C2E2E5C736F757263655C6461706C36
S11356A0696E6B5C647261672D6E2D64726F705CE1
S11356B066696C655F73747265616D2E63000000CA
S11356C010B500F1080103220C4607A0FBF727F8E8
S11356D0002806D00322214604A0FBF720F808B1D5
S11356E0032010BD012010BD42494E00484558001A
S11356F070B5154D06460C462878012806D0A5221B
S113570012A10020FDF7C0F8022070BDFFF7ACFF26
S11357106868224631468368194898470446102829
S113572006D0112C06D02CB103202870204670BD61
S11357300220FAE72878012800D00020B32203A130
S1135740FDF7A2F8F2E70000D0E0FF1F2E2E5C2E3A
S11357502E5C2E2E5C736F757263655C6461706C75
S1135760696E6B5C647261672D6E2D64726F705C20
S113577066696C655F73747265616D2E6300000009
S113578030F2FF1FDFF81CC000DF07494968884278
S113579001D1012000E000204FF4AD7203A1FDF718
S11357A073B80000595300004CE1FF1F2E2E5C2EED
S11357B02E5C2E2E5C736F757263655C6461706C15
S11357C0696E6B5C647261672D6E2D64726F705CC0
S11357D07666735F6D616E616765722E63000000AB
S11357E04FF6FF710248DFF80CC000DF704700007D
S11357F0D4FDFF1F494E0000884203D3904201D8D4
S1135800012070470020704700240320DFF834C0D3
S113581000DF0D4E0325DFF834C000DF0220DFF87F
S113582030C0716800DFB4FBF5F005FB1040641C68
S1135830E4B20028EFD10120DFF814C0716800DF62
S1135840E9E70000954C0000C0E0FF1FAD4C0000EC
S1135850154B00002DE9F0411C4C15460E46E07F27
S113586038B1BDE8F04140F28E2219A10020FDF7C5
S11358700BB8E8051ED0002040F2922214A1FDF7D7
S113588003F8607F40F2932211A1FCF7FDFF294643
S11358903046FFF72DFF0027012610280CD01128D1
S11358A00FD084F82070216929442161BDE8F041BA
S11358B000F0C8B80120DFE7FFF744FE6777E6771A
S11358C000E0002084F82060EDE70000B0FDFF1F39
S11358D02E2E5C2E2E5C2E2E5C736F757263655CAF
S11358E06461706C696E6B5C647261672D6E2D64AB
S11358F0726F705C7666735F6D616E616765722E40
S11359006300000070B51B4D06460C46687F0028F6
S113591011D0002040F2532217A1FCF7B5FF601C00
S113592000D001204FF4157213A1FCF7ADFF686895
S1135930401C02D002E00120ECE76C6095F82300E3
S1135940032801D185F823606868A04203D195F843
S11359502300B04201D0032007E03046FFF724FEC5
S113596018B90121AC606977A977BDE8704000F0EF
S113597069B80000B0FDFF1F2E2E5C2E2E5C2E2E6B
S11359805C736F757263655C6461706C696E6B5C8B
S1135990647261672D6E2D64726F705C7666735FDE
S11359A06D616E616765722E6300000030B4174C40
S11359B0257F032D02D025683DB107E030BC40F2BD
S11359C0122213A10020FCF75FBF20606068401C16
S11359D000D1616094F82300032801D184F82330B6
S11359E06069904201D903200CE04D1C02D0656827
S11359F08D42F8D194F823109942F4D1904200D208
S1135A006261002030BC00F01DB80000B0FDFF1F33
S1135A102E2E5C2E2E5C2E2E5C736F757263655C6D
S1135A206461706C696E6B5C647261672D6E2D6469
S1135A30726F705C7666735F6D616E616765722EFE
S1135A40630000002DE9F0470446102803D0112C10
S1135A5001D0012000E0002040F2B3223DA1FCF778
S1135A6013FF494D287F032808D0296871B1D5E96F
S1135A70050282420AD348B1012008E0BDE8F0479C
S1135A8040F2B72233A10020FCF7FEBE002085F8C7
S1135A90210095F8229019B995F82310032901D013
S1135AA0012100E00021884620B195F8201009B1B9
S1135AB0012600E00026E97F11B108B1012000E0D1
S1135AC000208246E8680027401C10D06868401C0B
S1135AD000D0012040F2D3221EA1FCF7D5FE696854
S1135AE0E868401A29694002814200D9012703204D
S1135AF00CB128771BE0B9F1000F09D00FB10624CF
S1135B00F7E7B8F1000FF4D0002EF2D10424F0E747
S1135B10BAF1000FEDD10EB1022003E0B8F1000F8D
S1135B2002D0012028770FE0287F032809D1687F5D
S1135B3028B1FFF707FD0021697704B9044613482B
S1135B400470B9F1000F03D1BDE8F04700F08CBB3D
S1135B50BDE8F0872E2E5C2E2E5C2E2E5C736F75A6
S1135B607263655C6461706C696E6B5C64726167BE
S1135B702D6E2D64726F705C7666735F6D616E61FD
S1135B806765722E63000000B0FDFF1F4CE1FF1F2C
S1135B9010B50D4C207830B100202070FCF730FE99
S1135BA040B11B2010BD822208A10020FCF76CFE2E
S1135BB0022010BD607810B9FDF73EF808B100204E
S1135BC010BD212010BD000028E1FF1F2E2E5C2EE9
S1135BD02E5C2E2E5C736F757263655C6461706CF1
S1135BE0696E6B5C647261672D6E2D64726F705C9C
S1135BF06961705F666C6173685F696E74662E6359
S1135C00000000002DE9F047894604468046FAF773
S1135C10E7FE3748FAF764FD024635492046FAF7AD
S1135C20D5FD00E0641C2078402802D00028F9D17A
S1135C303DE06078622849D012DC522855D008DC57
S1135C40422843D044284AD0482842D04D2817D16E
S1135C5036E0542840D0552835D0562810D141E09C
S1135C60722842D006DC642839D0682831D06D28E7
S1135C7006D125E074282FD0752824D0762831D079
S1135C801CA005462046FAF72BFD07462846FAF7DE
S1135C9027FD0646BA1EA11CA019FAF702FE3246D9
S1135CA029462046FAF792FD20780028BBD1A4EBC0
S1135CB00800A9EB00012046BDE8F047FAF790BEC2
S1135CC0FDF780FEDDE7FDF785FEDAE7FDF72CFE44
S1135CD0D7E7FDF757FED4E7FDF778FED1E7FDF7E8
S1135CE04DFECEE7FDF77EFECBE704480068C8E72B
S1135CF04C6C00004552524F52000000386B0000BB
S1135D0000F018B802484078002800D001207047FD
S1135D1044E0FF1FFBF796B8054910B50020C87092
S1135D20FFF7EEFFFCF760F9BDE81040FBF7A4BAFB
S1135D3044E0FF1F10B5DFF824C000DF084CDFF893
S1135D4028C06060074800DFFCF7C4FD00206070D5
S1135D500649A070A060086010BD000059530000FF
S1135D604CE1FF1FD4FDFF1F894D00006CE0FF1FB5
S1135D7070B514460D460646FFF704FD074B186838
S1135D80002809D00020FDF7CFFF224629463046DF
S1135D90BDE8704000F01ABB70BD00006CE0FF1F4E
S1135DA07047000070B514460D460646FFF7EAFC3E
S1135DB00D480068002815D00C48002383600C4867
S1135DC0007F03280ED00020FDF7AEFF22462946AF
S1135DD0304600F06BFC224629463046BDE8704050
S1135DE0FDF752B870BD00006CE0FF1F4CE1FF1FCF
S1135DF0B0FDFF1F06484FF0011201780548C1802D
S1135E00002101704170C0E9022101617047000066
S1135E10166A000044E0FF1F10B5EFF3108000F095
S1135E20010472B6FCF7E6FD002C00D162B610BD89
S1135E3070B50D460446090E00F014F80646A01984
S1135E40C5F3074100F00EF80644A019C5F3072175
S1135E5000F008F80644E9B2A01900F003F8304451
S1135E6070BD0000054A02EB111301F00F011B780D
S1135E700370515C4170022070470000F06B000019
S1135E800346002001E01A54401C0A5C002AFAD19F
S1135E907047F0B50646002002460B460A2504E08A
S1135EA0B3FBF5F3401C42F10002002BF8D150EA99
S1135EB0020301D10120002200231F460EE0B1FBA2
S1135EC0F5F405FB1414B1FBF5F13034B0EB030C1D
S1135ED0BCF1010C03F1010306F80C401C1A77EB2A
S1135EE00204ECD3F0BD2DE9F04115460E460746F9
S1135EF0FFF7CFFF0446A8420AD23022294638468B
S1135F00FAF766FD281B38443146FFF7C2FF2846DE
S1135F10BDE8F081F8B5054600200424009022462F
S1135F2029466846FAF752FC0C4E0098D6E904124A
S1135F30FFF762FC00280FD0291904226846FAF7FB
S1135F4045FCD6E902120098FFF756FC002803D05E
S1135F50241D0C2CF0D90120F8BD0000C06F0000F6
S1135F6001783A290AD1007A302809D0322807D09A
S1135F70332805D0342803D0352801D000207047B9
S1135F80012070472DE9FF5F994692468B460098A1
S1135F90FCF7B6FF40F2511240A1FCF775FC4C49E6
S1135FA000264C4D087BCA7A497B42EA00204843CC
S1135FB009EB0001491EB1FBF0F7B9F1000F19D04C
S1135FC00024A7F10108EE6809E0E968481C82B2E0
S1135FD0414800F065FCE868401C641CE8604445E6
