S01600004652444D2D4B4C30335A5F4C45442E7372656330
S113000000060020E9040000290E0000F9040000A5
S113001000000000000000000000000000000000DC
S1130020000000000000000000000000F9040000CF
S11300300000000000000000F90400005521000049
S1130040F9040000F9040000F9040000F9040000B8
S1130050F9040000F9040000F9040000F9040000A8
S1130060F9040000F9040000F9040000F904000098
S1130070F9040000F9040000F9040000F904000088
S1130080F9040000F9040000F9040000F904000078
S1130090F9040000F9040000F9040000F904000068
S11300A0F9040000F9040000F9040000F904000058
S11300B0F9040000F9040000F9040000F904000048
S11303C0FFFFFFFFFFFFFFFFFFFFFFFFFFFFFFFF39
S11303D0FF108813FFFFFFFFFFFFFFFFFEFF00007A
S1130400FFFFFFFFFFFFFFFFFFFFFFFFFEBDFFFF3B
S113041010B5064C2378002B07D1054B002B02D0D6
S1130420044800E000BF0123237010BD6CFFFF1FD0
S1130430000000002C39000008B5084B002B03D045
S11304400748084900E000BF07480368002B03D0B1
S1130450064B002B00D0984708BDC04600000000A2
S11304602C39000070FFFF1F68FFFF1F0000000011
S1130470164B002B00D1144B9D46402292029A1A2F
S1130480924600218B460F461348144A121A01F073
S11304907FFF0F4B002B00D098470E4B002B00D052
S11304A098470020002104000D000D48002802D0C8
S11304B00C4800E000BF01F045FF2000290000F0D7
S11304C0CDFC01F017FFC046000008000006002024
S11304D000000000000000006CFFFF1F3C00002033
S11304E0000000000000000072B600F04BFF00F0B6
S11304F091FF62B6FFF7BCFF00480047F904000013
S1130500002934D00123002210B488422CD30124C2
S11305102407A14204D2814202D209011B01F8E757
S1130520E400A14204D2814202D249005B00F8E710
S1130530884201D3401A1A434C08A04202D3001B3C
S11305405C0822438C08A04202D3001B9C0822436F
S1130550CC08A04202D3001BDC082243002803D0AD
S11305601B0901D00909E3E7101C10BC70470028DF
S113057001D00020C04307B4024802A140180290F1
S113058003BDC046190000000029F0D003B5FFF7F1
S1130590B9FF0EBC4243891A1847C0467047C0468B
S11305A0002B11D1002A0FD1002900D1002802D03C
S11305B00021C943081C07B4024802A14018029054
S11305C003BDC046D9FFFFFF03B4684601B50298D6
S11305D000F044F8019B9E4602B00CBC7047C04634
S11305E09C460304F0B51B0C17043F0C150C1E1C91
S11305F0041C000C7E436B4347434543FB18300CFB
S11306001818874202D980235B02ED18030CED18F9
S113061063465C434A433604360CA118000480192F
S11306204919F0BDF0B583B0161C1F1C0090019150
S113063000F04CF8041C0D1C221C2B1C301C391C13
S1130640FFF7CEFF009A019B121A8B410899201CD8
S11306500A604B60291C03B0F0BDC046F0B583B0FE
S1130660141C1D1C0090019100F00CFA221C2B1C80
S1130670061C0F1CFFF7B4FF009A019B121A8B4152
S11306800899301C0A604B60391C03B0F0BDC046A9
S11306901C2101231B04984201D3000C10391B0AAE
S11306A0984201D3000A08391B09984201D3000972
S11306B0043902A2105C40187047C04604030202C9
S11306C0010101010000000000000000F0B54446F3
S11306D05F4656464D46F0B41C1C85B0002900DA2E
S11306E0DBE00F1C0021061C8A46101C191C002C80
S11306F000DAC9E00196009089468046002951D16C
S1130700B84200D871E0FFF7C3FF002809D02023C6
S11307104546311C1B1A85408740D940A8460F43E3
S113072086404246150C13041B0C291C381C9B469E
S1130730FFF7E6FE5B464343041C291C381C99461C
S1130740FFF722FF330C08041843814509D94044BC
S1130750631E804500D978E1814500D875E1023CEB
S113076040444946411A8946081C291CFFF7C8FE23
S11307705A464243071C291C48469346FFF704FF88
S113078036040904360C0E43B34507D946447B1E90
S1130790B04502D8023FB34500D81F1C24042743A8
S11307A0002403E0B94211D9002400275246381C22
S11307B0211C002A03D03B1C00215842A14105B052
S11307C03CBC90469946A246AB46F0BD081CFFF7D8
S11307D05FFF041E00D0BFE0B94500D242E1019D95
S11307E00099071C8D424741E0E7002804D101200D
S11307F00021FFF785FE80464046FFF749FF0028A9
S113080052D1414644460B043C1B1B0CA3460D0C21
S113081000930124291C5846FFF772FE009F81466D
S11308204743291C5846FFF7AFFE330C090419430C
S11308308F4208D94B464144013B884502D88F4238
S113084000D91AE19946C91B8B46081C291CFFF7DD
S113085057FE009B291C4343071C58460093FFF78F
S113086093FE3604009D0904360C0E43B54207D9A5
S113087046447B1EB04502D8023FB54200D81F1C37
S113088049460E04374391E75246D243031C0C1CDD
S1130890924600215842A1412CE7002746428F414D
S11308A0012149428A4620E720231B1A4246351C6F
S11308B082403C1CDD40DC4087402B1C150C3B4334
S11308C0291C8640201C009317049046FFF718FE4D
S11308D03F0C011C794381468B46201C291CFFF7E1
S11308E053FE009C0904230C19438B450CD94B4639
S11308F04144013B884500D9BDE08B4500D8BAE0AE
S113090002225242914441445C460C1B201C291C87
S11309100194FFF7F5FD391C4143041C8B460198F3
S1130920291CFFF731FE009A090413041B0C194318
S11309308B4509D94144631E884500D997E08B450E
S113094000D894E0023C41445B46CB1A49469B469E
S11309500B041C4300975DE7009D20231B1A4A46A5
S11309608240DD401543391C009AD94082408846B4
S1130970311C0092D9403A1C82400B1C1343019352
S11309802F0C2B041B0C391C40460293FFF7B8FDB7
S1130990029A81464243391C40469346FFF7F4FDD0
S11309A0019A0904130C19438B450AD94B4649197A
S11309B0013B8D425DD88B455BD902235B42994450
S11309C049195A468A1A101C391C0392FFF798FDDC
S11309D0029B80464343391C03989B46FFF7D4FD92
S11309E0019A090413041B0C19438B450AD9434685
S11309F04919013B8D4238D88B4536D902235B42D5
S1130A00984449195D464D1BAB464946009D0F0469
S1130A10424617432A04120C3B042D0C1B0C380CC1
S1130A20111C594342436B436843D3180D0C5B19A3
S1130A308C469A4202D98022520280181D0C401919
S1130A4083450CD303D00024B0E61C1C89E665461C
S1130A502A041B04120C9B18A6409E42F3D2013FA9
S1130A600024A3E600240127A0E69846CAE71C1C3C
S1130A706AE79946A5E7994646E70222524291441D
S1130A804144E0E6F0B55F4656464D464446F0B470
S1130A900D1C85B0061C9246984602900191039263
S1130AA01F1C141C8346A946002B59D1AA4269D99C
S1130AB0101CFFF7EDFD00280AD020231B1A311C5F
S1130AC0D94085400B1C2B43864084409946B3464D
S1130AD0250C23041B0C291C48469846FFF710FDDF
S1130AE04646071C4643291C4846FFF74DFD5A4617
S1130AF00904130C19438E4209D909197B1E8C422F
S1130B0000D957E18E4200D854E1023F0919891BEC
S1130B108946081C291CFFF7F3FC43464343061C83
S1130B20291C48469846FFF72FFD5A46130409042A
S1130B301B0C1943884508D90919731E8C4200D926
S1130B4036E1023E884500D832E1380430430027BC
S1130B50391C05B03CBC90469946A246AB46F0BD54
S1130B60019A934262D8181CFFF792FD041E60D1CB
S1130B70019B9F4200D22CE1029F03998F42604166
S1130B800027E5E7002A04D101200021FFF7B8FC83
S1130B90041C201CFFF77CFD002800D0B9E02304CE
S1130BA02D1B1B0CA946260C98460127311C4846D0
S1130BB0FFF7A6FC41464143051C8A464846311CC2
S1130BC0FFF7E2FC5A460804130C1843824507D980
S1130BD000196B1E844202D8824500D910E11D1C05
S1130BE05346C31A181C311C9A46FFF789FC414628
S1130BF04143814688465046311CFFF7C5FC5A469E
S1130C00130409041B0C194388450BD94B460919D5
S1130C10013B8C4200D9CFE0884500D8CCE00223C8
S1130C205B42994428044946084391E70027002081
S1130C308EE720231B1A424657468240DF40174363
S1130C40524682400192321CDA40291CD940854028
S1130C50131C2B4302933D0C3B041B0C8846081CBD
S1130C60291C9A46FFF74CFC534643438146291CF2
S1130C7040469B46FFF788FC029A0904130C19436B
S1130C808B4506D94B46C919013B8F4200D8ABE0CE
S1130C9099465A468A1A101C291C9346FFF730FCC1
S1130CA053464343291C804658469A46FFF76CFC3A
S1130CB0029A090415042D0C29438A4506D9434692
S1130CC0C919013B8F4200D886E098465746CF1B8E
S1130CD0BA464946019F0804424610433D042D0C80
S1130CE003043F0C1B0C020C291C594355437B4342
S1130CF07A43EB180F0CDB198C469D4202D98027EE
S1130D007F02D2191D0C521992455FD356D0002789
S1130D101EE720231B1A311C2F1CD940DF408540BD
S1130D200B1C84402B4386400193B3462304260CBA
S1130D301B0C381C311C9846FFF7E2FB4246424329
S1130D40051C311C381C9146FFF71EFC019F090449
S1130D503B0C1943894507D909196B1E8C424DD8A0
S1130D6089454BD9023D09194A468A1A101C311C7F
S1130D709246FFF7C5FB43464343071C311C5046CC
S1130D809946FFF701FC019A090413041B0C19434B
S1130D90894507D909197B1E8C422DD889452BD941
S1130DA0023F09194B46CB1A2D0499462F43FDE601
S1130DB01E1CCAE61F1CAAE6994633E761460A04CC
S1130DC01B04120C9B18A6409E42A0D20138002797
S1130DD0BEE600270120BBE68A4500D875E702235A
S1130DE05B429844C91971E78B4500D850E7022348
S1130DF05B429944C9194CE71F1CD3E71D1CB3E798
S1130E00023D0019ECE6C04680B500AF00F040FB9F
S1130E10BD4680BD80B500AF01F07CF900F0E4F878
S1130E20FFF7F2FFBD4680BD80B582B000AF00F091
S1130E306BFF00F0A7FF00F0CFFF00237B6007E00B
S1130E4000F06CFF322001F023F97B6801337B60F2
S1130E507B68092BF4DDBD4602B080BD80B500AFD0
S1130E60FFF7D8FF01F00DF800F082FF642001F0D5
S1130E700FF900F087FFFA235B00181C01F008F952
S1130E8000F0F6FF031C1A1C014B1A80ECE7C04665
S1130E902800002010B5141C00290CD001380128AA
S1130EA009D8064B1A78002A05D05868221C9B687A
S1130EB09847201C01E00120404210BD88FFFF1F1D
S1130EC010B5141C002809D1064B1A78002A05D045
S1130ED05868221CDB689847201C01E0012040422E
S1130EE010BDC04688FFFF1F08B50A4B1A68002AC8
S1130EF001D1094A1A601A6808491018884206D9AB
S1130F0001F0F2F90C2303600120404201E0186073
S1130F10101C08BD98FFFF1F400000204000002067
S1130F201F2303408021DA0549051143420904487F
S1130F3092001218081C104301229A400260704764
S1130F402880044008B5054800F076F8044B196879
S1130F50C9B20131FFF7D4FA08BDC04600400640CB
S1130F6044801C5E08B5012806D9D62105484900ED
S1130F70054A064B01F09AF9054B185CFFF7D0FFC0
S1130F8008BDC046E0320000C43200002C3300002B
S1130F90DE32000008B5054B1B685A0703D4FFF77F
S1130FA0D1FF000901E0FFF7CDFF08BD10E000E02C
S1130FB00A4B00229A641A1C40329A631A1C30327B
S1130FC09A621A1C20329A611A1C10329A60044ADE
S1130FD01360044B9B60DB607047C046B0FFFF1F8B
S1130FE09CFFFF1FA0FFFF1F08B5FFF7E1FF01F003
S1130FF0BBF8002008BD0000842252050243031CF4
S11310001078C0B2002805D108499A1D0A43127805
S1131010012A09D180220133520513431B78012B85
S113102001D1034800E003487047C046000008119E
S113103000127A0080841E0010B50D4A831D1343EC
S11310401B78041CDBB2002B0FD0012B07D1FFF758
S1131050D3FF084B08341C432378D84006E0002013
S1131060022B03D1044B186800E0044810BDC046AD
S1131070000008110000901030000020006CDC0219
S113108008B51F2905D90B482E210B4A0B4B01F03B
S11310900DF914308023012A04D11B058A4018431A
S11310A0111C04E0DB04184301238B40D943016085
S11310B008BDC04684340000B9340000B0340000D8
S11310C008B51F2905D907484221074A074B01F0F3
S11310D0EDF801238B40002A01D0436000E08360D7
S11310E008BDC04684340000CC340000B034000095
S11310F008B50348FF21034A034B01F0D7F8C04663
S11311003635000013370000B23500000368F7B528
S11311101E0AFF273E40264A1F40B3009A58051C6A
S11311200192244A301C9C58FFF71CFF1F2F01D941
S1131130FFF7DEFFBB00E4181F4B8022234352005D
S11311401A6001980022391CFFF79AFF2A79842338
S11311505B05234352001A6080236A795B052343AD
S11311601A60AA7990235B05234312011A60EB7974
S1131170124A14431A042260002B18D0104B9B5DB2
S1131180002B14D05BB2002B04DA0E485D210E4A0A
S11311900E4B05E01F2B05DD0A480B4A0C4B5E2164
S11311A001F084F801229A40131C0A4A1360F7BD27
S11311B0E4340000EC34000000001014000018189F
S11311C0F4340000BC350000F6340000443600005E
S11311D05336000000E100E0F8B50368FF25041C65
S11311E0180A2840144A1D4083009F58134A9E58E9
S11311F0FFF7B8FE1F2D01D9FFF77AFFAB00F618F1
S11312000F4B8022334352001A60381C291C0122E0
S1131210FFF736FF381C291C6268FFF751FF227A5A
S113122088235B05334392001A6098235B051E43B1
S1131230637A9B013360F8BDE4340000EC340000B1
S11312400000101438B50C1C002802D1002C09D160
S113125012E003680133F9D0051C0835FFF756FF87
S1131260281CF6E72368013306D0251C201C0C3506
S1131270FFF7B2FF2C1CF5E738BD000010B5031CC6
S1131280FF24000A0A1C2040034980004058191C0E
S11312902140FFF7F5FE10BDE4340000010A08B553
S11312A0FF231940074A89008A5818401F2805D986
S11312B00548B321054A064B00F0F8FF012383409B
S11312C0536008BDE43400007E3600002737000078
S11312D0B0340000010A08B5FF231940074A890009
S11312E08A5818401F2805D90548BF21054A064BCE
S11312F000F0DCFF01238340936008BDE434000068
S11313007E36000008350000B0340000010A08B53C
S1131310FF231940074A89008A5818401F2805D915
S11313200548CB21054A064B00F0C0FF012383404A
S1131330D36008BDE43400007E360000FA360000B5
S1131340B0340000010A08B5FF231940094A890096
S11313508A5818401F2806D99B2107484900074A84
S1131360074B00F0A3FF1369C340181C0123184066
S113137008BDC046E43400007E360000203500007D
S1131380B0340000184B8822002152019950174AAA
S113139022211170164A8021490299501968154A70
S11313A00A401A60144A1549985801409950144A41
S11313B080219858890001439950124B124AD968E8
S11313C01140D96019690A401A61104B0221802228
S11313D019721A761970052159700D490A70997994
S11313E00C221142FBD170470070044000E007401A
S11313F044100000FFFFF3FF04100000FFFFFFF0A4
S11314003810000000900440FFF8FFFE0040064042
S113141000500640154B164930B51A1E8A420CD0AE
S1131420144C0023A408A34204D098000D5801339F
S11314301550F8E7104B9A6001E00F4A93600F4A89
S11314400F490023891A8B4204D0D45C0D48C4543C
S11314500133F8E70C4A0D490023891A8B4204D062
S1131460D018002404700133F8E730BD00FEFF1FDC
S1131470000000000001000000ED00E0543900000D
S1131480C039000000FFFF1F6CFFFF1F3C0000205D
S113149080B500AF00F010FE00F01EFC00F024FC4C
S11314A000F02AFC00F00AFC00F068F8BD4680BD9C
S11314B008B500F0EFFB002800D01B2008BDF7B5ED
S11314C01F1C08AB1E880D1C141CFFF7F1FF1B2307
S11314D0002818D1002D07D06A46211C281C06328A
S11314E000F008FA041E07D16A46381C311C063283
S11314F000F09AFB041E02D000F0B2FB02E000F000
S1131500AFFB041C231C181CFEBD0000F7B51E1CF9
S113151008AB151C0F1C1C88FFF7CAFF1B220028F0
S113152027D12B19102B24DC031CDAB299B21248F0
S1131530954205D0FA5CC2540133102BF5D1191C25
S11315400C19A4B20F2908D96A46063200F0D2F960
S1131550041E0AD000F084FB0AE0A142F4D03278E1
S11315604B1C4254013699B2ECE700F079FB041CA1
S1131570221C101CFEBDC0460000002070471FB591
S11315800C1C6946131C0F3101220C700092FFF7EA
S113159096FF04B010BD1FB50B1C69460F310B70CC
S11315A06B460E331A7001220092FFF7AFFF05B0AD
S11315B000BD000080B500AF294B1B68181C2949E9
S11315C0FEF79EFF031C284A5A43284B9A4217D918
S11315D0234B1A68264B9A4212D9214B1A68254B81
S11315E09A4202D800F01AFD0AE01D4B1B68181C31
S11315F01C49FEF785FF031C9BB2181C00F024FD58
S1131600174B1B68181C1749FEF77AFF031CFA22B4
S11316105A43164B9A4221D9114B1B68181C114985
S1131620FEF76EFF031CFA225A43134B9A4202D868
S113163000F0F4FC12E00A4B1B68181C0949FEF781
S11316405FFF031CFA225343181CFA239900FEF788
S113165057FF031C9BB2181C00F0F6FCBD4680BD6E
S113166000FFFF1F40420F00E2040000E7030000F8
S11316703F420F00BFD8A700F72A000080B584B00E
S113168000AF021CFB1D1A703B1C0F3380221A7022
S11316903B1C0E3308221A7049E0FB1D3A1C0F3222
S11316A01B7812781340DBB2002B03D0002000F02B
S11316B073FC04E0012000F06FFC00F055FCFFF720
S11316C079FF3B1C0F333A1C0F32127852081A7000
S11316D0002000F007FCFFF76DFF3B1C0C330122D8
S11316E052421A8006E03B1C0C331A883B1C0C3314
S11316F0013A1A8000F0E8FB031C01225340DBB2DC
S1131700002B04D03B1C0C331B88002BEBD1FFF7C0
S113171051FF012000F0E6FB00F0CCFBFFF74AFF8D
S11317203B1C0E331A783B1C0E33013A1A703B1CD7
S11317300E331B78002BB0D1BD4604B080BDC0462B
S113174080B582B000AFFB1D00221A70002000F0AB
S113175023FCFFF72FFFBB1D08221A7037E000207F
S113176000F0C0FBFFF726FF3B1D012252421A8006
S113177004E03B1D1A883B1D013A1A8000F0A4FBCB
S1131780031C01225340DBB2002B03D03B1D1B88FA
S1131790002BEED1FFF70EFFFA1DFB1D1B78DB18A3
S11317A0137000F0EBFB031C002B04D0FB1D1A7814
S11317B0FB1D01321A70012000F094FB00F07AFB4B
S11317C0FFF7F8FEBB1D1A78BB1D013A1A70BB1D4A
S11317D01B78002BC3D1FB1D1B78181CBD4602B01F
S11317E080BDC04680B582B000AF002000F0D4FBBD
S11317F0FFF7E0FE002000F075FBFFF7DBFEBB1DEA
S1131800012252421A8004E0BB1D1A88BB1D013A12
S11318101A8000F059FB031C01225340DBB2002B59
S113182003D0BB1D1B88002BEED100F0A7FB031CCB
S1131830181CBD4602B080BD80B584B000AF021C48
S1131840FB1D1A70FFF7B6FEFB1D1B78002B03D09F
S1131850002000F0A1FB04E0012000F09DFB00F05B
S113186083FBFFF7A7FE002000F03CFBFFF7A2FE7E
S11318703B1C0E33012252421A8006E03B1C0E33FD
S11318801A883B1C0E33013A1A8000F01DFB031C1E
S113189001225340DBB2002B04D03B1C0E331B88C7
S11318A0002BEBD1FFF786FE012000F01BFB00F0BC
S11318B001FBFFF77FFE002000F06EFBFFF77AFECE
S11318C0BD4604B080BDC04680B500AFFFF772FED0
S11318D0012000F061FB00F047FB002000F002FB58
S11318E0FFF768FE002000F057FBFFF763FEBD46DC
S11318F080BDC04690B587B000AFF8607A603B1CED
S11319000A330A1C1A807B6800221A803B1C163397
S1131910802252001A80002000F03EFB002000F0DC
S1131920E1FAFFF747FE3B1C1433012252421A80AE
S113193006E03B1C14331A883B1C1433013A1A800A
S113194000F01CFB031C01225340DBB2002B04D02B
S11319503B1C14331B88002BEBD1FFF72BFE3B1CE5
S113196014331B88002B01D1082387E0012000F0E9
S113197013FB00F0F9FAFFF71DFE012000F0B2FAA4
S113198000F098FAFFF716FE3E4B1B78181CFFF781
S113199075FE3C1C1334FFF725FF031C23703B1C0E
S11319A016333A1C16321288013A1A803B1C16333D
S11319B01B88002B04D03B1C13331B78002BAAD1AB
S11319C03B1C13331B78002B01D0082356E0012065
S11319D000F088FA00F06EFAFFF7ECFD002424E032
S11319E0231CFA68D3181B78181CFFF747FEFFF76F
S11319F0F9FE031C002B08D0012000F073FA00F05C
S1131A0059FAFFF761FF082338E0012000F06AFA71
S1131A1000F050FAFFF7CEFD7B681B8801339AB2C1
S1131A207B681A80231C01339CB23B1C0A331B883D
S1131A30A342D5D8FFF7BEFD3B1C1433012252420A
S1131A401A8006E03B1C14331A883B1C1433013AF9
S1131A501A8000F093FA031C01225340DBB2002BDE
S1131A6004D03B1C14331B88002BEBD13B1C1433D8
S1131A701B88002B01D1082300E00023181CBD465D
S1131A8007B090BD10000020B0B586B000AFF8607C
S1131A907A601A1C3B1C0A3319803B1C09331A70E8
S1131AA07B6800221A803B1C1633802252001A8065
S1131AB03B1C09331B78002B64D1002000F06CFA26
S1131AC0002000F00FFAFFF775FD3B1C14330122D0
S1131AD052421A8006E03B1C14331A883B1C143310
S1131AE0013A1A8000F04AFA031C01225340DBB287
S1131AF0002B04D03B1C14331B88002BEBD1FFF7C5
S1131B0059FD3B1C14331B88002B01D1082385E0AD
S1131B10012000F041FA00F027FAFFF74BFD012005
S1131B2000F0E0F900F0C6F9FFF744FD3D4B1B78E7
S1131B300133DBB2181CFFF7A1FD3C1C1334FFF783
S1131B4051FE031C23703B1C16333A1C16321288B8
S1131B50013A1A803B1C16331B88002B04D03B1C13
S1131B6013331B78002BA8D13B1C13331B78002B99
S1131B7001D0082352E0012000F0B4F900F09AF9F2
S1131B80FFF718FD002443E0231CFA68D518FFF77B
S1131B90D7FD031C2B703B1C1433012252421A80C4
S1131BA006E03B1C14331A883B1C1433013A1A8098
S1131BB000F0E4F9031C01225340DBB2002B04D0F3
S1131BC03B1C14331B88002BEBD13B1C14331B88A8
S1131BD0002B01D1082321E0221C3B1C0A331B8863
S1131BE0013B9A4208D13B1C28331B78002B06D1B9
S1131BF00120FFF721FE02E00020FFF71DFE7B68B5
S1131C001B8801339AB27B681A80231C01339CB26F
S1131C103B1C0A331B88A342B6D80023181CBD46BC
S1131C2006B0B0BD1000002080B586B002AFF860E9
S1131C307A603B1C0A330A1C1A80F9683B1C0A337D
S1131C401A887B6800200090081C111C1A1C0023B1
S1131C50FFF71AFF031C181CBD4604B080BDC04624
S1131C6080B500AFFFF7A6FC012000F095F900F065
S1131C707BF9FFF79FFC002000F034F9FFF79AFC92
S1131C80002000F089F9FFF795FC0023181CBD46DD
S1131C9080BDC04680B582B000AF021CFB1D1A7027
S1131CA0FB1D1B78DB18DAB2034B1A700023181CD7
S1131CB0BD4602B080BDC0461000002080B500AF14
S1131CC0044B00221A7000F099F900F03DF9BD466A
S1131CD080BDC0461000002080B500AF00F038F889
S1131CE000F012F8BD4680BD80B500AF00F064F886
S1131CF000F048F8BD4680BD80B500AF00F086F81E
S1131D0000F06AF8BD4680BD80B500AF85235B0056
S1131D10181CFFF7C3FABD4680BDC04680B500AFAE
S1131D2085235B00181CFFF7F1FABD4680BDC04651
S1131D3080B500AF85235B00181C0121FFF79EFAD4
S1131D40024B01221A70BD4680BDC046110000201E
S1131D5080B500AF044A054B101C191CFFF772FA3A
S1131D60FFF7E6FFBD4680BD58370000403700004E
S1131D7080B500AF0E23FF33181CFFF7ABFABD4646
S1131D8080BDC04680B500AF0E23FF33181CFFF79B
S1131D9085FABD4680BDC04680B500AF0E23FF3333
S1131DA0181C0121FFF76AFA024B01221A70BD4682
S1131DB080BDC0461200002080B500AF044A054B28
S1131DC0101C191CFFF73EFAFFF7E6FFBD4680BD65
S1131DD0803700006837000080B500AF0C23FF3364
S1131DE0181CFFF75BFABD4680BDC04680B500AF46
S1131DF00C23FF33181C0121FFF740FA024B012288
S1131E001A70BD4680BDC0461300002080B500AFE7
S1131E10044A054B101C191CFFF714FAFFF7E6FFE0
S1131E20BD4680BDA8370000903700001FB50223CF
S1131E3003AC00931D20231C06490122FFF73FFB3E
S1131E40031C0020834203D12078637800021843E6
S1131E5004B010BDB837000008B5FFF7E7FF034B27
S1131E6000B21B888010C01A00B208BD1400002004
S1131E7008B5FFF7F1FFC3179B0F1818801000B2C5
S1131E8008BD37B56C4607341D202A21221CFFF7F4
S1131E9076FB00280DD1237801252B4209D1281C7B
S1131EA000F0F6F822781D202A432A212270FFF739
S1131EB072FB3EBD80B500AF0423FF33181CFFF74F
S1131EC009FABD4680BDC04680B500AF0423FF3388
S1131ED0181CFFF737FA031C5A1E9341DBB2181C77
S1131EE0BD4680BD80B582B000AF021CFB1D1A70D8
S1131EF0FB1D1B78002B02D000F016F801E000F067
S1131F0003F8BD4602B080BD80B500AF0423FF33A3
S1131F10181C0021FFF7B2F9024B00221A70BD46CB
S1131F2080BDC0461A00002080B500AF0423FF33F3
S1131F30181C0121FFF7A2F9024B01221A70BD46B9
S1131F4080BDC0461A00002080B500AF044A054B8E
S1131F50101C191CFFF776F9FFF7D6FFBD4680BDAC
S1131F60D4370000BC37000080B500AF82235B008B
S1131F70181CFFF7AFF9BD4680BDC04680B500AF61
S1131F8082235B00181CFFF7DDF9031C5A1E9341E2
S1131F90DBB2181CBD4680BD80B582B000AF021C08
S1131FA0FB1D1A70FB1D1B78002B02D000F016F8E5
S1131FB001E000F003F8BD4602B080BD80B500AF7B
S1131FC082235B00181C0021FFF758F9024B002202
S1131FD01A70BD4680BDC0461B00002080B500AF0E
S1131FE082235B00181C0121FFF748F9024B0122F0
S1131FF01A70BD4680BDC0461B00002080B500AFEE
S1132000044A054B101C191CFFF71CF9FFF7D6FFF7
S1132010BD4680BDFC370000E4370000C046C04622
S1132020C046704701B40020C046C046C046C04602
S113203001300928F8D9C046C046C046C046C0464B
S1132040C046C04601BC704710B5041C642C04D9BA
S1132050643CFFF7E7FFA4B2F8E70A2C04D90A3C72
S1132060FFF7DCFFA4B2F8E710BD000010B5041CB4
S11320700548844204D9FFF7E7FF044BE418F7E767
S1132080A0B2FFF7E1FF10BD60EA0000A015FFFF5A
S113209038B5084BFA21041C89001868FEF730FA99
S11320A0051C002C05D0281C013CFFF7DFFFA4B25F
S11320B0F7E738BD00FFFF1F7047000080B582B00E
S11320C000AF78600A1CFB1C1A707B680F481A1852
S11320D0FB1C1B785B09DBB20D495B189B00D31812
S11320E01A1CFB1C19781F230B40DB0513438022A9
S11320F052051343FA1C11781F220A400121081CBF
S11321009040021C1A60BD4602B080BD341000002D
S1132110FDFFFF3F80B500AF0C4B181C8921FFF772
S1132120CDFF0A4B181C8A21FFF7C8FF084B8022F9
S113213012021A60002000F07DF8002000F090F8F0
S1132140002000F0A3F8BD4680BDC04600700440E6
S113215030000020024B1A88013292B21A80704774
S11321601C0000200000000038B5194C0025256033
S1132170A5602268042313432360FEF70BFF114B71
S11321800F4A291CFEF72CFA0F4A104BFEF708FAE7
S11321900143A94205D10F4864210F4A0F4B00F0B7
S11321A085F80F4B01386060196A80220902090A18
S11321B0D2050A431A620723236038BDC046C046CD
S11321C0E80300000000000040420F00000000008F
S11321D010E000E00C38000033380000253800001F
S11321E000ED00E0C046C04680B584B000AFF860A2
S11321F0B960FB1D1A70BB681F2B06D909490A4A2E
S11322000A4B081CFF2100F051F8BB689B00FA68D8
S1132210D318074A1343FA1D127812021A60BD46F6
S113222004B080BD3C32000040380000B8320000E9
S11322300000101480B582B000AF7860074B181C02
S113224000210322FFF7D0FF044B181C02210322B4
S1132250FFF7CAFFBD4602B080BDC04600900440EF
S113226080B582B000AF7860074B181C03210022B0
S1132270FFF7BAFF044B181C04210022FFF7B4FF38
S1132280BD4602B080BDC0460090044080B582B017
S113229000AF7860044B181C01210322FFF7A4FF50
S11322A0BD4602B080BDC046009004407FB5061C08
S11322B009480068C068002A02D0151C074C01E0D8
S11322C0074C251C1A1C0091331C064901940295E5
S11322D000F026F800F09CFC64FFFF1F5438000057
S11322E08F38000061380000014B18687047C04601
S11322F064FFFF1F084B10B5041C002B02D0002103
S113230000E000BF054B1868836A002B00D0984793
S1132310201C00F091FFC04600000000943800002B
S11323200EB403B503AB04CB054A011C1068039A31
S1132330019300F011F902B008BC03B01847C0467D
S113234064FFFF1F70B50E4B0E4D0024ED1AAD1047
S11323501E1CAC4204D0A300F35898470134F8E79C
S113236001F0E4FA084B094D0024ED1AAD101E1CCF
S1132370AC4204D0A300F35898470134F8E770BD89
S11323804C3900004C3900004C3900005039000031
S1132390031C8218934202D019700133FAE7704784
S11323A030B5002940D004390B68002B00DAC91875
S11323B01E4A1368141C002B02D14B60116033E0D9
S11323C099420FD208680A189A4205D113685268D4
S11323D0C01808604A6000E04B60216024E08A4233
S11323E003D8131C5A68002AF9D11D685C198C4261
S11323F00BD10968691858181960904214D11468EF
S11324005268091919605A600EE08C4202D90C23F3
S1132410036009E008680C18944203D114685268F8
S1132420001908604A60596030BDC046240000208D
S113243070B50323CD1C9D430835061C0C2D01D219
S11324400C2501E0002D3FDB8D423DD3204B1C6861
S11324501A1C211C002913D00868431B0DD40B2B14
S113246002D90B60CC181EE08C4202D16368136061
S11324701AE0486860600C1C16E00C1C4968E9E727
S1132480144C2068002803D1301C00F025F820608B
S1132490301C291C00F020F8431C15D0C41C032355
S11324A09C4384420AD12560201C0B300722231D43
S11324B09043C31A0BD05A42E25008E0211A301C50
S11324C000F00AF80130EED10C233360002070BD17
S11324D0240000202000002038B5074C0023051CF0
S11324E0081C2360FEF700FD431C03D12368002B66
S11324F000D02B6038BDC046380000200023C25CE9
S11325000133002AFBD1581E7047936810B5013B74
S11325109360002B05DA9469A34208DBCBB20A2B43
S113252005D01368581C10601970C8B201E000F09F
S1132530A5FA10BDF8B5061C0F1C141CD518AC4226
S113254008D02178301C3A1CFFF7DFFF0134431C0C
S1132550F5D100E00020F8BDF0B59FB0061C0F1CBB
S113256003920593002804D08169002901D100F069
S11325705FFC754B9F4201D1776808E0734B9F4223
S113258001D1B76803E0724B9F4200D1F768BB8961
S11325901A070AD53B69002B07D006AD00236B61EF
S11325A020236B763023AB763BE0301C391C00F0E3
S11325B0BDFA0028F1D001204042C2E0059A111D65
S11325C012680591002A76DB0992013423782E2BB8
S11325D000D181E021785F48032200F0E9FC002863
S11325E007D05C492A68431A402098401043286069
S11325F001342178631C584806220393297600F09D
S1132600D7FC002800D18AE0544B002B7ED1059BD7
S1132610072207339343083305936A6904995318CF
S11326206B61039C2378002B04D10399611A0291F6
S113263010D003E0252BF8D00134F3E7301C391C0B
S1132640039A029BFFF776FF013075D06A690299FD
S113265053186B612378002B6ED0012252426A60BA
S11326606A4600235B3201342B60EB60AB6013706D
S1132670AB6521783A48052200F09AFC002808D07E
S1132680374A0134831A012098402B681843286084
S1132690EFE72B68D90603D56A4620215B32117017
S11326A01A0703D56A462B215B32117022782A2A35
S11326B084D0099B05E05242EA60022213432B6056
S11326C083E72278303A092A04D80A214B4301349B
S11326D09B18F6E7099379E763782A2B09D1059BC0
S11326E002341A1D1B680592002B0DDA01235B428C
S11326F00AE0013400232278303A092A04D80A2156
S11327004B4301349B18F6E7079363E705AB00934B
S1132710301C291C3A1C134B00E000BF07E005AB3A
S11327200093301C291C3A1C0E4B00F091F80490C5
S11327300499013100D070E7BB895A0600D53AE705
S11327400B981FB0F0BDC046CC380000EC38000038
S11327500C3900009E380000A23800000000000080
S11327609838000035250000F7B5151C01930A6957
S11327708B68061C0C1C934200DA131C221C2B6071
S113278043321278002A01D001332B60206880067E
S113279002D52B6802332B60216806270F401FD017
S11327A0231C43331B785A1E9341226892061FD57B
S11327B0E11840313020C870211C5A1C4531097879
S11327C0A21840320233D17012E0221C301C01994D
S11327D019320123089FB847013011D0009F0137F7
S11327E00097E0682968009F431A9F42EDDBD7E712
S11327F0221C301C01994332089FB847013002D192
S11328000120404223E0206806212B68E268014051
S11328100025042903D1D51AEB43DB171D40A26818
S113282023699A4201DDD31AED1800270097009F0F
S1132830AF420BDA221C301C01991A320123089F83
S1132840B8470130DCD0009F0137EFE70020FEBD20
S1132850F0B50D1C8BB04335069205900793049593
S11328600B7E0C1C109A6E2B00D1A7E011D8632BA1
S113287022D009D8002B00D1B0E0582B00D0C0E002
S113288045310B707B4D4EE0642B1CD0692B1AD064
S1132890B7E0732B00D1A5E009D86F2B29D0702B9A
S11328A000D0AEE00E68202333430B6036E0752B76
S11328B01FD0782B32D0A4E013680D1C191D4235AB
S11328C011601B689FE0216813680E0603D5191D6B
S11328D011601E6805E04806F9D5191D1160002134
S11328E05E5E644B002E3BDA049D2D2276422A70F4
S11328F036E0216813680E0603D5191D11601E68A1
S113290004E04806F9D5191D1E881160594B227E32
S1132910039308276F2A1ED00A271CE0231C782162
S11329204533554D197011682368081D03951060CF
S11329301E0601D50E6802E05806FBD50E88D9079D
S113294002D52022134323601027002E03D12268CE
S113295020239A432260231C002243331A7001E08F
S113296003930A276368A360002B03DB2568042212
S113297095432560002E02D1049D002B0ED0049DAA
S1132980301C391CFDF700FE0398013D435C301CEC
S11329902B70391CFDF7B4FD061EF1D1082F09D1A7
S11329A02168C90706D5626823699A4202DC013DA1
S11329B030232B70049E731B23612AE0086813687C
S11329C04969050604D5181D10601B68196005E0E7
S11329D04606F8D5181D10601B6819800023236172
S11329E0049D16E01368191D11601D68281CFFF76B
S11329F085FD63682061984200D923612069606085
S1132A0004E0251C42352B7001232361049E00231E
S1132A103370079E05980096211C09AA069BFFF7B0
S1132A20A3FE013002D10120404221E02A1C059876
S1132A3006992369079DA8470130F4D02668B60794
S1132A4005D4099BE068984212DA181C10E00025AE
S1132A50E0680999431A9D42F3DA221C0598069905
S1132A6019320123079EB0470130DCD00135EFE76E
S1132A700BB0F0BDA9380000BA38000070B5051CD1
S1132A800E1C141C002804D08269002A01D100F015
S1132A90CFF9234B9C4201D16C6808E0214B9C4246
S1132AA001D1AC6803E0204B9C4200D1EC68A369DF
S1132AB0A360A3891A070AD52369002B07D02268CB
S1132AC02369F6B2D01A626990420FDB08E0281C31
S1132AD0211C00F02BF80028F1D0012040421DE019
S1132AE0281C211C00F024F90028F6D1A368013029
S1132AF0013BA36023685A1C22601E7063699842DC
S1132B0005D0A389301CDA0708D50A2E06D1281C63
S1132B10211C00F00DF90028DFD1301C70BDC04627
S1132B20CC380000EC3800000C390000344B70B590
S1132B301D68061C0C1C002D05D0A969002902D1B2
S1132B40281C00F075F92F4B9C4201D16C6808E0F9
S1132B502D4B9C4201D1AC6803E02C4B9C4200D12C
S1132B60EC68A28993B2190721D4D90605D40923A4
S1132B70336040231A43A2813FE05A0713D5616BA7
S1132B80002908D0231C4433994202D0301CFFF79B
S1132B9007FC00236363A38924229343A3810023B6
S1132BA0636023692360A38908221343A3812169F5
S1132BB000290BD1A389A02292001A4080239B00F4
S1132BC09A4203D0301C211C00F0A2F9A3890122EF
S1132BD01A4005D061690022A2604A42A26103E062
S1132BE0990700D46269A26022690020824206D15A
S1132BF0190604D540221343A3810120404270BD2D
S1132C0064FFFF1FCC380000EC3800000C390000D2
S1132C1008B5062000F002FA012000F00DFBF7B51C
S1132C208B89051C0C1C19075ED46268002A02DC1F
S1132C30276C002F1ADDE76A002F17D000222E68B8
S1132C402A60802252011A4001D0626D15E0281CCE
S1132C50216A0123B847021C411C0ED12B68002BAA
S1132C600BD01D2B01D0162B02D12E6000205EE06C
S1132C70A38940210B43A38159E0A3895F0706D5AB
S1132C806168636B521A002B01D0276CD21B281C7D
S1132C90216A0023E76AB847A289411C06D12B6840
S1132CA0002B03D01D2B01D0162B19D100236360F8
S1132CB023692360D70405D5411C02D12A68002A60
S1132CC000D16065616B2E600029CFD0231C443392
S1132CD0994202D0281CFFF763FB0020606326E0C2
S1132CE040231A43A28122E02669002EBED0276821
S1132CF00022BF1B01972660990700D16269A26078
S1132D00019F002FB2DD281C216A321C019BA76A97
S1132D10B847002806DCA389402213430120A3817D
S1132D20404204E0019F36183F1A0197E8E7FEBDD0
S1132D300A6938B5051C0C1C002A01D100201CE0CE
S1132D40002804D08369002B01D100F071F80B4BEB
S1132D509C4201D16C6808E0094B9C4201D1AC68EB
S1132D6003E0084B9C4200D1EC680C22A35E002BCC
S1132D70E4D0281C211CFFF752FF38BDCC380000DA
S1132D80EC3800000C390000F8B5041C071C48346A
S1132D90002C12D0A5686668013E0CD4AB89012BC7
S1132DA007D90E22AB5E013303D0381C291CFFF770
S1132DB0BFFF6835F0E72468EAE7F8BD002310B5E3
S1132DC0041C03604360836081814366C2810361A4
S1132DD043618361191C08225C30FFF7D9FA054B63
S1132DE024626362044BA362044BE362044B2363D7
S1132DF010BDC0465D30000085300000BD300000CD
S1132E00E930000070B54B1E68255D430E1C291C7B
S1132E107431FFF70DFB041E08D0002101604660E9
S1132E202A1C0C30A0606832FFF7B2FA201C70BD77
S1132E30836913B5041C002B27D18364C364036521
S1132E40124B134A1B688262984201D101238361A9
S1132E50201C00F01FF86060201C00F01BF8A0602C
S1132E60201C00F017F80421E06000226068FFF7DE
S1132E70A5FFA06809210122FFF7A0FFE068122145
S1132E800222FFF79BFF0123A36113BD94380000C6
S1132E90892D0000F8B51D4B071C1E68B269002A75
S1132EA002D1301CFFF7C4FF4836B4687368013B95
S1132EB005D40C22A55E002D10D06834F7E73368E2
S1132EC0002B06D1381C0421FFF79CFF306000283A
S1132ED001D03668E9E70C233B6016E001235B422E
S1132EE0E381201C0123A38165662560A5606560DC
S1132EF025616561A5615C30291C0822FFF748FA49
S1132F006563A563A564E564201CF8BD94380000DE
S1132F10F0B58B8991B0051C0C1C9A0725D40E239F
S1132F20C95E002906DAA78980231F400FD0002735
S1132F3040260EE001AA00F003F90028F3DB029B0F
S1132F40F0273F02184A1F40BF187B425F4180268A
S1132F50F600281C311CFFF76BFA00280CD1A3895A
S1132F609A051FD402221343A381231C47332360F1
S1132F7023610123636115E00C4B8022AB62A389BA
S1132F8020601343A38120616661002F0AD00E23C1
S1132F90E15E281C00F0E6F8002803D0A389012292
S1132FA01343A38111B0F0BD00E0FFFF892D0000A1
S1132FB0C9B28218904204D003788B4202D0013007
S1132FC0F8E70020704738B5041C0D1E1F2D04D9E6
S1132FD016230360012040421FE0436C002B04D001
S1132FE08A009A181368002B08D1201C00F032F8CC
S1132FF02A1C011C201C00F01BF80EE0012B0BD036
S1133000591C03D116230360012006E00024281C68
S113301014609847201C00E0002038BD08B5034B1D
S1133020011C1868FFF7CFFF08BDC04664FFFF1FEF
S113303038B5074C0023051C081C111C236000F044
S1133040EBF8431C03D12368002B00D02B6038BD60
S11330503800002008B500F0CFF808BD38B50C1CC6
S11330600E25495F00F0A4F8002803DB626D1318F5
S1133070636503E0A289024B1340A38138BDC046B7
S1133080FFEFFFFFF8B51E1C8B89051C0C1C171CD9
S1133090DA0505D50E23C95E0022022300F074F878
S11330A0A289054B281C1340A3810E22A15E331C68
S11330B03A1C00F01FF8F8BDFFEFFFFF38B50C1CF9
S11330C00E25495F00F060F8A389421C03D1054A2C
S11330D01340A38104E0802252011343A38160655D
S11330E038BDC046FFEFFFFF08B50E23C95E00F0F0
S11330F015F808BD38B5084C051C00202060081CD4
S1133100111C1A1CFDF7C6FE431C03D12368002BB7
S113311000D02B6038BDC0463800002038B5074CBD
S11331200023051C081C236000F056F8431C03D13F
S11331302368002B00D02B6038BDC0463800002027
S113314038B5074C0023051C081C111C236000F033
S11331504BF8431C03D12368002B00D02B6038BDEF
S11331603800002038B5074C0023051C081C2360D8
S113317000F04AF8431C03D12368002B00D02B60D5
S113318038BDC0463800002038B5084C051C002066
S11331902060081C111C1A1C00F046F8431C03D1C3
S11331A02368002B00D02B6038BDC04638000020B7
S11331B038B5084C051C00202060081C111C1A1C82
S11331C0FDF77EFE431C03D12368002B00D02B6047
S11331D038BDC04638000020024B5822012040422E
S11331E01A60704738000020024B582201204042E8
S11331F01A60704738000020024B582201204042D8
S11332001A60704738000020024B582200201A60D0
S11332107047C04638000020024B5822012040422B
S11332201A60704738000020024B582201204042A7
S11332301A60704738000020FEE7C046433A2F5515
S1133240736572732F457269636820537479676577
S1133250722F446174612F4769745265706F732FC4
S11332604D63754F6E45636C697073652F45786166
S11332706D706C65732F4B44532F4652444D2D4B48
S11332804C30335A2F4652444D2D4B4C30335A5FF9
S11332904C45442F53444B2F706C6174666F726DB0
S11332A02F68616C2F696E632F66736C5F706F7229
S11332B0745F68616C2E680070696E203C20333244
S11332C055000000434C4F434B5F5359535F456EC9
S11332D061626C65506F7274436C6F636B00898AB2
S11332E02E2E2F53444B2F706C6174666F726D2FAA
S11332F073797374656D2F7372632F636C6F636B73
S11333002F4D4B4C30335A342F66736C5F636C6FA4
S1133310636B5F4D4B4C30335A342E63004E554C27
S11333204C20213D20636F6E66696700696E73747B
S1133330616E6365203C2073697A656F6628706FDF
S11333407274476174655461626C65292F73697A7C
S1133350656F6628706F7274476174655461626C3E
S1133360655B305D2900696E7374616E6365203C32
S11333702073697A656F6628616463476174655474
S113338061626C65292F73697A656F66286164636D
S1133390476174655461626C655B305D2900696ED8
S11333A07374616E6365203C2073697A656F662867
S11333B0737069476174655461626C65292F736920
S11333C07A656F6628737069476174655461626CCD
S11333D0655B305D2900696E7374616E6365203CC2
S11333E02073697A656F662869326347617465542E
S11333F061626C65292F73697A656F662869326327
S1133400476174655461626C655B305D2900696E67
S11334107374616E6365203C2073697A656F6628F6
S11334206C7075617274476174655461626C65296E
S11334302F73697A656F66286C7075617274476161
S113344074655461626C655B305D2900696E7374E8
S1133450616E6365203C2073697A656F66287470B9
S11334606D476174655461626C65292F73697A656F
S11334706F662874706D476174655461626C655B36
S1133480305D29002E2E2F53444B2F706C617466CF
S11334906F726D2F68616C2F7372632F6770696F21
S11334A02F66736C5F6770696F5F68616C2E630071
S11334B070696E203C203332004750494F5F4841C9
S11334C04C5F53657450696E446972004750494FAC
S11334D05F48414C5F577269746550696E4F7574EB
S11334E07075740000F00F4040F00F4000900440ED
S11334F000A004401E1F494E545F5359535F456E4C
S113350061626C65495251004750494F5F48414CD4
S11335105F436C65617250696E4F757470757400A9
S11335204750494F5F48414C5F5265616450696E32
S1133530496E70757400433A2F55736572732F4545
S113354072696368205374796765722F446174618A
S11335502F4769745265706F732F4D63754F6E45B5
S1133560636C697073652F4578616D706C65732F3A
S11335704B44532F4652444D2D4B4C30335A2F4617
S113358052444D2D4B4C30335A5F4C45442F5344D9
S11335904B2F706C6174666F726D2F68616C2F694C
S11335A06E632F66736C5F706F72745F68616C2EEC
S11335B0680070696E203C2033325500433A2F5521
S11335C0736572732F4572696368205374796765F4
S11335D0722F446174612F4769745265706F732F41
S11335E04D63754F6E45636C697073652F457861E3
S11335F06D706C65732F4B44532F4652444D2D4BC5
S11336004C30335A2F4652444D2D4B4C30335A5F75
S11336104C45442F53444B2F706C6174666F726D2C
S11336202F73797374656D2F696E632F66736C5F86
S1133630696E746572727570745F6D616E616765D1
S1133640722E680030203C3D206972714E756D62A7
S11336506572006972714E756D626572203C3D2021
S113366046534C5F464541545552455F494E544577
S113367052525550545F4952515F4D415800433A9C
S11336802F55736572732F4572696368205374797B
S11336906765722F446174612F4769745265706F56
S11336A0732F4D63754F6E45636C697073652F4559
S11336B078616D706C65732F4B44532F4652444DA3
S11336C02D4B4C30335A2F4652444D2D4B4C3033F6
S11336D05A5F4C45442F53444B2F706C6174666F92
S11336E0726D2F68616C2F696E632F66736C5F67F0
S11336F070696F5F68616C2E68004750494F5F487E
S1133700414C5F546F67676C6550696E4F75747098
S1133710757400504F52545F48414C5F5365744D6B
S113372075784D6F6465004750494F5F48414C5F61
S113373053657450696E4F757470757400000000A1
S11337400A0100000000000001000000FFFFFFFF6D
S113375000000000000000000A0100000000010059
S1133760FFFFFFFF000000000D010000000000004B
S113377001000000FFFFFFFF000000000000000048
S11337800D01000000000100FFFFFFFF000000002A
S11337900B0100000000000001000000FFFFFFFF1C
S11337A000000000000000000B0100000000010008
S11337B0FFFFFFFF00000000010000000301000004
S11337C00000000001000000FFFFFFFF00000000F8
S11337D0000000000301000000000100FFFFFFFFE4
S11337E000000000040100000000000001000000CF
S11337F0FFFFFFFF000000000000000004010000C4
S113380000000100FFFFFFFF000000002E2E2F47E5
S1133810656E6572617465645F436F64652F6F7371
S113382061312E63006469766964657220213D20EC
S11338303055004F53415F54696D65496E6974009A
S1133840504F52545F48414C5F5365744D75784DE9
S11338506F6465002C2066756E6374696F6E3A2020
S113386000617373657274696F6E20222573222060
S11338706661696C65643A2066696C65202225730B
S1133880222C206C696E65202564257325730A003B
S11338904300000004FFFF1F232D302B2000686C21
S11338A04C0065666745464700303132333435365F
S11338B03738394142434445460030313233343598
S11338C036373839616263646566000000000000C1
S11338D000000000000000000000000000000000E4
S11338E000000000000000000000000000000000D4
S11338F000000000000000000000000000000000C4
S113390000000000000000000000000000000000B3
S113391000000000000000000000000000000000A3
S1133920000000000000000000000000F8B5C046E0
S1133930F8BC08BC9E467047F8B5C046F8BC08BC45
S10739409E467047E4
S10B39442CCBFF7F0100000001
S107394C3904000036
S1073950110400005A
S1133954006CDC0200000000CC380000EC380000ED
S11339640C3900000000000000000000000000000A
S11339740000000090380000000000000000000077
S1133984000000000000000000000000000000002F
S1133994000000000000000000000000000000001F
S11339A4000000000000000000000000000000000F
S10F39B40000000004FFFF1F00000000E2
S90304E90F
