S01A00004652444D2D4B4C32355A5F4A6F79737469636B2E68657815
S1130000003000208D860000616800006D680000EB
S11300106D6800006D6800006D6800006D68000088
S11300206D6800006D6800006D680000651F0000C9
S11300306D6800006D6800008D1F00002D1F00001A
S11300406D6800006D6800006D6800006D68000058
S11300506D6800006D6800006D6800006D68000048
S11300606D6800006D680000653100006D68000077
S11300703D7F00006D6800006D680000A17B0000FA
S11300806D6800006D6800006D6800006D68000018
S11300906D6800006D6800006D6800006D68000008
S11300A06D6800006D6800006D6800006D680000F8
S11300B06D6800006D6800006D6800006D680000E8
S1130400FFFFFFFFFFFFFFFFFFFFFFFF7EFBFFFF7D
S1130410002934D00123002210B488422CD30124B3
S11304202407A14204D2814202D209011B01F8E748
S1130430E400A14204D2814202D249005B00F8E701
S1130440884201D3401A1A434C08A04202D3001B2D
S11304505C0822438C08A04202D3001B9C08224360
S1130460CC08A04202D3001BDC082243002803D09E
S11304701B0901D00909E3E7101C10BC70470028D0
S113048001D00020C04307B4024802A140180290E2
S113049003BDC046D90000000029F0D003B5FFF722
S11304A0B9FF0EBC4243891A1847C046002941D0FF
S11304B010B4041C4C40A44601230022002900D59A
S11304C04942002800D5404288422CD30124240705
S11304D0A14204D2814202D209011B01F8E7E400DF
S11304E0A14204D2814202D249005B00F8E788426B
S11304F001D3401A1A434C08A04202D3001B5C08E3
S113050022438C08A04202D3001B9C082243CC083F
S1130510A04202D3001BDC082243002803D01B099D
S113052001D00909E3E7101C6446002C00D54042C1
S113053010BC7047002806D003DB0020C0434008ED
S113054001E08020000607B4024802A1401802908E
S113055003BDC046190000000029EBD003B5FFF726
S1130560A7FF0EBC4243891A1847C0467047C046CD
S113057090B58BB002AFF860B9603B60BB1D1A80C8
S1130580FB68002B01D172B6FEE73B6B052B01D94A
S113059072B6FEE7BB1D1A88BB6B101C191C00F059
S11305A011FD031CBB61BB69002B00D173E0BB6967
S11305B01A6BBB1D1B88013B9B00D3187B617B69B5
S11305C0072293437B617A690723134001D072B6F3
S11305D0FEE7B869B9683A6BFB6BBC1D24880094CC
S11305E000F02EFC7969FA683B68081C111C1A1C7F
S11305F001F0ECFB021CBB691A607B6B002B02D080
S11306007B6BBA691A6001F063FC2E4B1B685A1CA1
S11306102C4B1A602C4B1B68002B09D12A4BBA694E
S11306201A60284B1B68012B0FD100F053FC0CE01F
S1130630264B1B68002B08D1234B1B68DA6A3B6BE3
S11306409A4202D8204BBA691A60214B1B685A1C83
S11306501F4B1A601E4B1A68BB691A64BB69DA6ABD
S11306601C4B1B689A4203D9BB69DA6A194B1A609E
S1130670BB69DA6A131C9B009B189B00164A9A18E4
S1130680BB690433101C191C01F0CAFC0123FB6173
S113069001F02EFC02E001235B42FB61FB69012BAC
S11306A00BD10A4B1B68002B07D0074B1B68DA6A77
S11306B03B6B9A4201D201F02BFCFB69181CBD462E
S11306C009B090BDECF0FF1F18F0FF1FF8F0FF1FFA
S11306D008F1FF1FF4F0FF1F1CF0FF1F80B584B06A
S11306E000AF78600023FB607B68002B1AD0114BAD
S11306F01B68002B01D072B6FEE700F053F80E4BD6
S11307001A687B68D318BB600C4B1B680433181C35
S113071001F0DEFCBB68181C00F01EFC00F04EF873
S1130720031CFB60FB68002B01D101F0F1FBBD460B
S113073004B080BD0CF1FF1FF0F0FF1F18F0FF1F85
S113074080B586B004AF134A134B002100910021F9
S113075001910021029100210391101C191CC8224F
S11307600023FFF705FF031C7B607B68012B09D185
S113077072B60A4B01221A60094B00221A6001F07A
S113078081FB04E07B68002B01D172B6FEE7BD4615
S113079002B080BD1D0E0000C4950000F8F0FF1FDC
S11307A0F0F0FF1F80B500AF034B1B685A1C024BCF
S11307B01A60BD4680BDC0460CF1FF1F80B582B0F3
S11307C000AF00237B60374B1B68002B01D172B64E
S11307D0FEE701F07DFB334B1B685A1E314B1A6058
S11307E0304B1B68002B56D12F4B1B68002B52D06B
S11307F02FE02E4BDB68DB683B603B681833181C2A
S113080001F066FC3B680433181C01F061FC3B6892
S1130810DA6A274B1B689A4203D93B68DA6A244B8D
S11308201A603B68DA6A131C9B009B189B00214AE0
S11308309A183B680433101C191C01F0F1FB3B6847
S1130840DA6A1D4B1B68DB6A9A4202D31B4B0122F6
S11308501A60164B1B68002BCBD1194B1B68002B5D
S113086011D00CE000F0B8F8031C002B02D0134B9D
S113087001221A60124B1B685A1E114B1A60104B4E
S11308801B68002BEED10D4B1B68012B03D10123F8
S11308907B6001F03DFB01F02BFB7B68181CBD461F
S11308A002B080BD0CF1FF1FECF0FF1FC4F0FF1F6E
S11308B0F4F0FF1F1CF0FF1F18F0FF1F00F1FF1FD3
S11308C0FCF0FF1F80B582B000AF01F001FB054BC7
S11308D01B687B6001F00CFB7B68181CBD4602B0F2
S11308E080BDC046F0F0FF1F80B500AF024B1B680F
S11308F0181CBD4680BDC046ECF0FF1F80B586B015
S113090000AFF860B9607A6000237B6106233B6125
S1130910FFF748FF2B4B1B68BA689A424BD33B69DD
S1130920013B3B617B695B01FA68D1183A69131C8E
S11309309B009B189B00244A9B18081C191C01222D
S113094000F078FB031C7A69D3187B613B69002BA8
S1130950E5D17B695B01FA68D2181C4B1B68101C3B
S1130960191C022200F066FB031C7A69D3187B6110
S11309707B695B01FA68D218154B1B68101C191CA3
S1130980022200F057FB031C7A69D3187B617B6950
S11309905B01FA68D2180F4B101C191C032200F0DB
S11309A049FB031C7A69D3187B617B68002B02D056
S11309B07B6800221A60FFF701FF7B69181CBD46A3
S11309C006B080BDECF0FF1F1CF0FF1FBCF0FF1F42
S11309D0C0F0FF1FD8F0FF1F80B586B000AF002322
S11309E07B61524B1B68002B00D08CE0504B1B6882
S11309F05A1C4F4B1A604E4B1B683B613B69002BE2
S1130A0017D14C4B1B681B68002B01D072B6FEE754
S1130A10484B1B68FB60484B1A68464B1A60464BB0
S1130A20FA681A60454B1B685A1C444B1A6000F064
S1130A30A9FB434B1B683A699A4250D300E0C04675
S1130A403C4B1B681B68002B01D1012300E00023F1
S1130A50002B04D03A4B012252421A603FE0354B3E
S1130A601B68DB68DB68BB60BB685B687B603A69FA
S1130A707B689A4203D2324B7A681A602FE0BB68D3
S1130A800433181C01F024FBBB689B6A002B04D0C0
S1130A90BB681833181C01F01BFBBB68DA6A294BCE
S1130AA01B689A4203D9BB68DA6A264B1A60BB6892
S1130AB0DA6A131C9B009B189B00234A9A18BB6894
S1130AC00433101C191C01F0ABFABB68DA6A1F4B23
S1130AD01B68DB6A9A42B2D301237B61AFE71B4BED
S1130AE01B68DA6A1849131C9B009B189B005B580F
S1130AF0012B01D901237B61154B1B68002B09D104
S1130B0007F044FF06E0124B1B685A1C104B1A6096
S1130B1007F03CFF0F4B1B68002B01D001237B61C6
S1130B207B69181CBD4606B080BDC0460CF1FF1F92
S1130B30F0F0FF1FBCF0FF1FC0F0FF1F04F1FF1F08
S1130B4000F0FF1FF4F0FF1F1CF0FF1F18F0FF1F41
S1130B50FCF0FF1F00F1FF1F80B582B000AF294BEE
S1130B601B68002B03D0284B01221A6047E0264B58
S1130B7000221A60254B1B681A68244B1B681B6BE8
S1130B809A4214D8214B1A68204B1B683433101C2A
S1130B90191C07F0F3FE0AE01D4B1B68002B01D162
S1130BA072B6FEE71A4B1B685A1E194B1A60184B93
S1130BB01A681849131C9B009B189B005B58002B58
S1130BC0EAD0134B1A68131C9B009B189B00114A14
S1130BD09B187B607B685B685A687B685A607B689B
S1130BE05A687B6808339A4204D17B685B685A6808
S1130BF07B685A607B685B68DA68044B1A60BD46A0
S1130C0002B080BD0CF1FF1F00F1FF1F18F0FF1FA1
S1130C10F4F0FF1F1CF0FF1F80B584B000AF7860B4
S1130C2039607B68002B01D172B6FEE7124B1B685A
S1130C3018337A68101C191C01F014FA0E4B1B6847
S1130C400433181C01F044FA3B68013308D10A4B01
S1130C501B680433094A101C191C01F0E1F908E06F
S1130C60074B1A683B68D318FB60FB68181C00F03C
S1130C7073F9BD4604B080BD18F0FF1FD8F0FF1F04
S1130C80F0F0FF1F80B584B000AF78607B68DB684C
S1130C90DB68BB60BB68002B01D172B6FEE7BB68A2
S1130CA01833181C01F014FA1E4B1B68002B1DD1BD
S1130CB0BB680433181C01F00BFABB68DA6A1A4BE0
S1130CC01B689A4203D9BB68DA6A174B1A60BB687F
S1130CD0DA6A131C9B009B189B00144A9A18BB6881
S1130CE00433101C191C01F09BF906E0BB6818338F
S1130CF00F4A101C191C01F093F9BB68DA6A0D4BFA
S1130D001B68DB6A9A4205D90123FB600A4B012266
S1130D101A6001E00023FB60FB68181CBD4604B0A8
S1130D2080BDC0460CF1FF1FF4F0FF1F1CF0FF1F35
S1130D30C4F0FF1F18F0FF1F00F1FF1F80B582B041
S1130D4000AF78607B68002B01D172B6FEE7054BDB
S1130D501A687B681A60044B1A687B685A60BD463F
S1130D6002B080BD04F1FF1FF0F0FF1F80B584B016
S1130D7000AF786039607B68002B01D172B6FEE762
S1130D803B68002B01D172B6FEE701F0A1F81C4BC1
S1130D901B68BB603B681B68013302D10023FB6006
S1130DA027E07B681A68174B1B689A4207D07B6858
S1130DB05A68BB689A4202D80123FB6019E07B6839
S1130DC05B68BA68D21A3B681B689A420FD23B68C8
S1130DD01A687B685968BB68CB1AD2183B681A60DA
S1130DE07B68181CFFF7AAFF0023FB6001E00123C6
S1130DF0FB6001F07DF8FB68181CBD4604B080BDA3
S1130E00F0F0FF1F04F1FF1F80B500AF024B012279
S1130E101A60BD4680BDC04600F1FF1F80B582B098
S1130E2000AF786000F094F8044B1B68012B01D9E3
S1130E3001F06EF807F0B0FDF4E7C0461CF0FF1FA8
S1130E4080B586B000AFF860B9607A603B6000237B
S1130E507B6112E0BA687B69D3181A78F86830238A
S1130E6079694118CB181A71BA687B69D3181B7851
S1130E70002B06D07B6901337B617B690B2BE9D99D
S1130E8000E0C046FA683F230021D1547B68052B5B
S1130E9001D905237B60FB687A68DA62FB687A68AB
S1130EA09A64FB680433181C01F0B0F8FB6818332B
S1130EB0181C01F0ABF8FB68FA681A617B6806221B
S1130EC0D21AFB689A61FB68FA685A62BD4606B09A
S1130ED080BDC04680B582B000AF00237B600CE0CB
S1130EE07A68131C9B009B189B00124A9B18181CC1
S1130EF001F06EF87B6801337B607B68052BEFD9CA
S1130F000D4B181C01F064F80C4B181C01F060F830
S1130F100B4B181C01F05CF80A4B181C01F058F834
S1130F20094B054A1A60094B044A1A60BD4602B0CF
S1130F3080BDC0461CF0FF1F94F0FF1FA8F0FF1FE8
S1130F40C4F0FF1FD8F0FF1FBCF0FF1FC0F0FF1F4D
S1130F5080B500AFBD4680BD80B582B000AF78607B
S1130F60134B1B687A685A60124B1B687A689A4262
S1130F7009D2114B1A680E4B1B680433101C191C40
S1130F8001F070F810E00D4B1A68094B1B6804332C
S1130F90101C191C01F066F8094B1B687A689A4208
S1130FA002D2074B7A681A60BD4602B080BDC046C3
S1130FB018F0FF1FF0F0FF1FC0F0FF1FBCF0FF1F71
S1130FC000F0FF1F80B584B000AF021C3960BB1D68
S1130FD01A804C2001F0A4F8031CFB60FB68002B72
S1130FE022D03B68002B07D1BB1D1B889B00181C1B
S1130FF001F096F8021C00E03A68FB681A63FB688B
S11310001B6B002B06D1FB68181C01F01FF9002391
S1131010FB6009E0FB681A6BBB1D1B889B00101C5E
S1131020A5211A1C08F0B9F9FB68181CBD4604B0C8
S113103080BDC04690B58BB000AFF860B960FB1DB1
S11310401A7000237B62BB681B68002B00D17AE016
S1131050BB683B623B6A5B685A683B6A5A603B6A9E
S11310605A683B6A08339A4204D13B6A5B685A68FF
S11310703B6A5A603B6A5B68DB68FB61BB68BB61C7
S1131080BB695B685A68BB695A60BB695A68BB69CB
S113109008339A4204D1BB695B685A68BB695A60D9
S11310A0BB695B68DB687B617B6A5B01FA68D318A8
S11310B07A691A607B6A5B01FA68D3187A693432F8
S11310C05A607B6A5B01FA68D3187A69126C9A6079
S11310D07B6A5B01FA68D318FA1D12781A737B6A6B
S11310E05B01FA68D3187A69D26A1A61FB1D1B780E
S11310F0032B09D17B699B6A002B05D07B6A5B01BA
S1131100FA68D31802221A737B6A5B01FA68D3184F
S11311107A69926C5A617B6A5B01FA68D31800227F
S11311209A617B6A5B01FA68D4187B691B6B181C93
S113113000F00EF8031CA3837B6A01337B627A6997
S1131140FB699A429AD17B6A181CBD460BB090BDCC
S113115080B584B000AF78600023FB6005E07B6855
S113116001337B60FB680133FB607B681B78A52B34
S1131170F5D0FB689B08FB60FB689BB2181CBD465E
S113118004B080BD80B582B000AF0D4B1B681B68F6
S1131190002B01D1012300E00023002B04D0094BD4
S11311A0012252421A6008E0054B1B68DB68DB68C9
S11311B07B607B685A68034B1A60BD4602B080BDF1
S11311C0BCF0FF1F00F0FF1F80B582B000AF044BDE
S11311D01B687B607B68181CBD4602B080BDC0469E
S11311E018F0FF1F80B582B000AF0A4B1B68002BBC
S11311F002D101237B6008E0074B1B68002B02D15E
S113120002237B6001E000237B607B68181CBD46E1
S113121002B080BDF8F0FF1F0CF1FF1F80B584B051
S113122000AF78607B68FB607B68002B4AD0FB686A
S1131230DA6A264B1B68DB6A9A4243D2FB689B69D5
S1131240002B06DB214B1B68DB6A0622D21AFB68E3
S11312509A61FB685969FB68DA6A131C9B009B1846
S11312609B001B4A9B18994201D1012300E00023F3
S1131270002B22D0FB680433181C00F029FF134B09
S11312801B68DA6AFB68DA62FB68DA6A114B1B686E
S11312909A4203D9FB68DA6A0E4B1A60FB68DA6A71
S11312A0131C9B009B189B00094A9A18FB68043383
S11312B0101C191C00F0B4FE04E0044B1B68DA6A2D
S11312C0FB68DA62BD4604B080BDC04618F0FF1F5B
S11312D01CF0FF1FF4F0FF1F80B584B000AF7860EE
S11312E07B68FB607B68002B30D0FB68DA6AFB68A4
S11312F09B6C9A422AD0FB680433181C00F0E8FE69
S1131300FB689A6CFB68DA62FB689B69002B05DB5F
S1131310FB68DB6A0622D21AFB689A61FB68DA6A08
S11313200C4B1B689A4203D9FB68DA6A094B1A60B2
S1131330FB68DA6A131C9B009B189B00064A9A18E8
S1131340FB680433101C191C00F06AFEBD4604B08F
S113135080BDC046F4F0FF1F1CF0FF1F80B586B0AF
S113136000AF786039607B6800221A70584B1B68A4
S1131370FB60574B1B685B01181C00F0D1FE031C7B
S11313803B613B69002B00D19FE0FB683A69101C6C
S1131390191C0022FFF7B2FA031CFB600023BB6098
S11313A08AE0BB685B013A69D3181B7B022B0DD022
S11313B002DC012B05D018E0032B0CD0042B0FD03A
S11313C013E03B1C173352221A7013E03B1C1733F3
S11313D042221A700EE03B1C173353221A7009E0A4
S11313E03B1C173344221A7004E03B1C17330022C1
S11313F01A70C046BB685B013A69D3185B687968A8
S11314003A68081C111C1A1C00F0E2FF79683A685B
S1131410304B081C111C1A1C00F0DAFF79683A687A
S11314203B1C17331B78081C111C1A1C01F002F812
S11314307A683B68101C191C092200F0FBFFBB688A
S11314405B013A69D3181B6979683A68081C111C56
S11314501A1C01F09FFA7A683B68101C191C0922B7
S113146000F0E8FFBB685B013A69D3189B8B79688D
S11314703A68081C111C1A1C01F08CFA7A683B6843
S1131480101C191C092200F0D5FFBB685B013A69E6
S1131490D3189B6879683A68081C111C1A1C01F05F
S11314A079FA79683A680C4B081C111C1A1C00F074
S11314B08FFFBB680133BB60BA68FB689A4200D2F5
S11314C06FE73B69181C00F0C1FEBD4606B080BD45
S11314D0ECF0FF1FCC950000D095000080B584B0DF
S11314E000AF786039607B68FB60FB68002B01D13A
S11314F072B6FEE700F0ECFCFB681A68FB68D96B77
S1131500FB681B6C4B43D218FB685A60FB680022D3
S11315109A63FB681A68FB689A60FB681A68FB6840
S1131520DB6B591EFB681B6C4B43D218FB68DA60FB
S1131530FB68012252425A64FB68012252429A64B7
S11315403B68002B0ED1FB681B69002B14D0FB6891
S11315501033181CFFF796FB031C012B0CD100F071
S1131560D7FC09E0FB681033181C00F031FDFB6860
S11315702433181C00F02CFD00F0BAFC0123181CC5
S1131580BD4604B080BDC04680B588B000AFF860E9
S1131590B960FB1D1A700023FB61FB68002B2ED081
S11315A0542000F0BDFD031CBB61BB69002B26D099
S11315B0FB68BA68534301337B617B69181C00F0F4
S11315C0AFFD021CBB691A60BB691B68002B12D0FB
S11315D0BB69FA68DA63BB69BA681A64BB69181C28
S11315E00121FFF77BFFBA69F91D50230978D15413
S11315F0BB69FB6103E0BB69181C00F027FEFB69B3
S1131600002B01D172B6FEE7FB69181CBD4608B079
S113161080BDC04680B584B000AF021CFB1D1A70AB
S1131620542000F07DFD031CFB60FB68002B32D0CE
S1131630FB6800225A60FB6800221A60FB680022E3
S11316409A60FB680022DA60FB6800229A63FB68F8
S11316500122DA63FB6800221A64FB680122524209
S11316605A64FB68012252429A64FA68F91D5023B5
S11316700978D154FB681033181C00F0A9FCFB68EE
S11316802433181C00F0A4FCFB68181C0021002261
S1131690002300F069F8FB68002B01D172B6FEE765
S11316A0FB68181CBD4604B080BDC04690B585B02B
S11316B000AF78607B68BB60BB68002B01D172B659
S11316C0FEE7BB685C68FFF77FFD031C9C4212D1F8
S11316D0BB68DB685A1EBB68DA60BB68DB68002B3A
S11316E006D1BB68181C00210022002300F03CF83E
S11316F00123FB6001E00023FB60FB68181CBD466E
S113170005B090BD90B585B000AF786039607B6856
S1131710BB60BB68002B01D172B6FEE7BB685C6896
S1131720FFF752FD031C9C4207D1BB68DB685A1CBF
S1131730BB68DA600123FB6011E0BA683B68101CE7
S113174000211A1C002300F035F9031CFB60FB6820
S1131750012B04D1BB68DB685A1CBB68DA60FB68E8
S1131760181CBD4605B090BD80B588B000AFF860C8
S1131770B9607A603B600023FB61FB68BB61BB69B5
S1131780002B01D172B6FEE7BB68002B03D1BB6905
S11317901B6C002B01D1012300E00023002B01D19D
S11317A072B6FEE73B68022B03D1BB69DB6B012BEE
S11317B001D1012300E00023002B01D172B6FEE722
S11317C0FFF710FD031C002B02D17B68002B01D115
S11317D0012300E00023002B02D172B6FEE7C046CD
S11317E000F076FBBB699A6BBB69DB6B9A4202D350
S11317F03B68022B19D1B969BA683B68081C111CF3
S11318001A1C00F0CBF9BB695B6A002B09D0BB69D9
S11318102433181CFFF736FA031C012B01D100F006
S113182077FB00F065FB012359E07B68002B03D1B3
S113183000F05EFB002352E0FB69002B06D13B1C49
S11318401033181CFFF77AFA0123FB6100F050FBF8
S1131850FEF7A8FF00F03CFBBB695B6C013302D1CF
S1131860BB6900225A64BB699B6C013302D1BB691A
S113187000229A6400F03CFB3A1C10323B1D101C01
S1131880191CFFF773FA031C002B21D1BB69181C28
S113189000F078FA031C002B13D0BB691A1C103219
S11318A07B68101C191CFFF7B7F9BB69181C00F002
S11318B007FAFEF783FF031C002B90D100F028FBEE
S11318C08DE7BB69181C00F0FBF9FEF777FF86E78C
S11318D0BB69181C00F0F4F9FEF770FF0023181C14
S11318E0BD4608B080BDC04680B588B000AFF86082
S11318F0B9607A603B60FB68BB61BB69002B01D1B6
S113190072B6FEE7BB68002B03D1BB691B6C002BCE
S113191001D1012300E00023002B01D172B6FEE7C0
S11319203B68022B03D1BB69DB6B012B01D1012383
S113193000E00023002B01D172B6FEE700237B6197
S113194072B6BB699A6BBB69DB6B9A4202D33B6884
S1131950022B26D1B969BA683B68081C111C1A1CF1
S113196000F01CF9BB699B6C013312D1BB695B6A43
S1131970002B13D0BB692433181CFFF783F9031C15
S1131980002B0BD07B68002B08D07B6801221A60E7
S113199004E0BB699B6C5A1CBB699A640123FB611C
S11319A001E00023FB6162B6FB69181CBD4608B068
S11319B080BDC04680B58AB000AFF860B9607A6077
S11319C03B6000237B62FB683B623B6A002B01D1D6
S11319D072B6FEE7BB68002B03D13B6A1B6C002B7D
S11319E001D1012300E00023002B01D172B6FEE7F0
S11319F0FFF7F8FB031C002B02D17B68002B01D1FD
S1131A00012300E00023002B02D172B6FEE7C0469A
S1131A1000F05EFA3B6A9B6B002B3DD03B6ADB68AF
S1131A20FB613A6ABB68101C191C00F021F93B6881
S1131A30002B1CD13B6A9B6B5A1E3B6A9A633B6A20
S1131A401B68002B04D1FFF7BFFB021C3B6A5A60E2
S1131A503B6A1B69002B1BD03B6A1033181CFFF731
S1131A6011F9031C012B13D100F052FA10E03B6A68
S1131A70FA69DA603B6A5B6A002B09D03B6A24335B
S1131A80181CFFF7FFF8031C002B01D000F040FAEC
S1131A9000F02EFA012367E07B68002B03D100F0ED
S1131AA027FA002360E07B6A002B06D13B1C143329
S1131AB0181CFFF743F901237B6200F019FAFEF7C3
S1131AC071FE00F005FA3B6A5B6C013302D13B6A9C
S1131AD000225A643B6A9B6C013302D13B6A0022A8
S1131AE09A6400F005FA3A1C14323B1D101C191CB0
S1131AF0FFF73CF9031C002B2FD13B6A181C00F0A4
S1131B002BF9031C002B21D03B6A1B68002B08D146
S1131B1000F0DEF93B6A5B68181CFFF77FFB00F0FE
S1131B20E7F93B6A1A1C24327B68101C191CFFF766
S1131B3073F83B6A181C00F0C3F8FEF73FFE031C61
S1131B40002B00D063E700F0E3F960E73B6A181C60
S1131B5000F0B6F8FEF732FE59E73B6A181C00F0B5
S1131B60AFF8FEF72BFE0023181CBD460AB080BD5B
S1131B7080B584B000AF78607B68002B01D172B669
S1131B80FEE700F0A5F97B689B6BFB6000F0B0F901
S1131B90FB68181CBD4604B080BDC04680B584B047
S1131BA000AFF860B9607A60FB681B6C002B0CD145
S1131BB0FB681B68002B53D1FB685B68181CFFF79C
S1131BC08BFBFB6800225A604AE07B68002B1BD128
S1131BD0FB689968FB681B6CBA68081C111C1A1C0A
S1131BE007F0D2FBFB689A68FB681B6CD218FB6891
S1131BF09A60FB689A68FB685B689A4230D3FB681A
S1131C001A68FB689A602BE0FB68D968FB681B6C58
S1131C10BA68081C111C1A1C07F0B6FBFB68DA68CA
S1131C20FB681B6C5B42D218FB68DA60FB68DA68FD
S1131C30FB681B689A4207D2FB685A68FB681B6CF6
S1131C405B42D218FB68DA607B68022B08D1FB6820
S1131C509B6B002B04D0FB689B6B5A1EFB689A633A
S1131C60FB689B6B5A1CFB689A63BD4604B080BD3D
S1131C7080B582B000AF786039607B681B68002B48
S1131C801AD07B68DA687B681B6CD2187B68DA60D0
S1131C907B68DA687B685B689A4203D37B681A685E
S1131CA07B68DA607B68DA687B681B6C3968081CBF
S1131CB0111C1A1C07F068FBBD4602B080BDC0466B
S1131CC080B582B000AF786000F002F912E07B6862
S1131CD05B6A002B13D07B682433181CFEF7D2FFF9
S1131CE0031C002B01D0FFF78FF87B689B6C5A1EF6
S1131CF07B689A647B689B6C002BE8DC00E0C04640
S1131D007B68012252429A6400F0F2F800F0E0F895
S1131D1012E07B681B69002B13D07B681033181CFE
S1131D20FEF7B0FF031C002B01D0FFF76DF87B68B2
S1131D305B6C5A1E7B685A647B685B6C002BE8DC26
S1131D4000E0C0467B68012252425A6400F0D0F899
S1131D50BD4602B080BDC04680B584B000AF786097
S1131D6000F0B6F87B689B6B002B02D10123FB606B
S1131D7001E00023FB6000F0BBF8FB68181CBD46C3
S1131D8004B080BD80B584B000AF786000F0A0F8E6
S1131D907B689A6B7B68DB6B9A4202D10123FB6000
S1131DA001E00023FB6000F0A3F8FB68181CBD46AB
S1131DB004B080BD80B500AF034B1B68013301D074
S1131DC072B6FEE772B6FEE704F0FF1F80B584B07A
S1131DD000AFF860B9607A60FB68043BFB60FB68A5
S1131DE0802252041A60FB68043BFB60BA68FB68FB
S1131DF01A60FB68043BFB60084AFB681A60FB68D6
S1131E00143BFB607A68FB681A60FB68203BFB604C
S1131E10FB68181CBD4604B080BDC046B51D00005B
S1131E2080B500AF084B084A1268C02109060A436E
S1131E301A60064B064A1A60064B00221A60064BCB
S1131E4007221A60BD4680BD20ED00E014E000E0EA
S1131E507FBB000018E000E010E000E080B500AFB8
S1131E60024B07221A60BD4680BDC04610E000E068
S1131E7080B500AF024B06221A60BD4680BDC04645
S1131E8010E000E080B500AF0E4B0E4A1268C0218E
S1131E9009040A431A600C4B00221A60FFF7C0FFC2
S1131EA0FFF7DCFF094B181C07F07EFB031C002B1B
S1131EB001D0002302E000F047F80023181CBD46BF
S1131EC080BDC04620ED00E004F0FF1F10F1FF1FAD
S1131ED080B500AF72B6054B1B685A1C034B1A60E1
S1131EE0BFF34F8FBFF36F8FBD4680BD04F0FF1F5C
S1131EF080B500AF054B1B685A1E044B1A60034B98
S1131F001B68002B00D162B6BD4680BD04F0FF1FE4
S1131F1080B500AF044B802252051A60BFF34F8F87
S1131F20BFF36F8FBD4680BD04ED00E080B500AF08
S1131F3072B6FEF751FD031C002B01D0FFF7E8FF3A
S1131F4062B6BD4680BDC04680B500AF0448006897
S1131F50006880F3088862B600DFC046BD4680BDD5
S1131F6008ED00E0084B196808681030F0C8A04676
S1131F70A946B246BB4680F309882038F0C87146AA
S1131F800D2001430847C04618F0FF1FEFF30980F6
S1131F900E4B1A6820381060F0C044464D46564631
S1131FA05F46F0C008B572B6FEF7D6FD62B60CBC4B
S1131FB0116808681030F0C8A046A946B246BB466E
S1131FC080F309882038F0C81847C04618F0FF1F6E
S1131FD080B582B000AF78607B681A1C08327B68D9
S1131FE05A607B68012252429A607B681A1C08324C
S1131FF07B68DA607B681A1C08327B681A617B682C
S113200000221A60BD4602B080BDC04680B582B0D1
S113201000AF78607B6800221A61BD4602B080BDC3
S113202080B584B000AF786039607B685B68FB6022
S11320303B68FA685A60FB689A683B689A60FB6878
S11320409B683A685A60FB683A689A603B687A68A9
S11320501A617B681B685A1C7B681A60BD4604B011
S113206080BDC04680B584B000AF786039603B68FD
S11320701B68BB60BB68013303D17B681B69FB60D1
S11320800CE07B680833FB6002E0FB685B68FB6084
S1132090FB685B681A68BB689A42F6D9FB685A68A1
S11320A03B685A603B685B683A689A603B68FA68C8
S11320B09A60FB683A685A603B687A681A617B6880
S11320C01B685A1C7B681A60BD4604B080BDC046BC
S11320D080B584B000AF78607B681B69FB607B6867
S11320E05B687A6892689A607B689B687A685268D1
S11320F05A60FB685A687B689A4203D17B689A6885
S1132100FB685A607B6800221A61FB681B685A1ED0
S1132110FB681A60FB681B68181CBD4604B080BDD0
S113212080B588B000AF786000237B61FEF73AFB8E
S1132130404B1B68002B04D100F0CEF83D4B01222C
S11321401A607B68002B0DD03B4B1B887A68D31830
S11321507B607A680723134004D07B68072293438B
S113216008337B607B68002B58D07A68334B9A42E3
S113217054D8334BBB61324B1B68FB6104E0FB69F1
S1132180BB61FB691B68FB61FB695A687B689A4207
S113219003D2FB691B68002BF1D1FA69294B9A42DF
S11321A03CD0BB691A68244B1B88D3187B61FB693C
S11321B01A68BB691A60FB695A687B68D21A1E4B9D
S11321C01B885B009A4222D9FA697B68D318FB60AA
S11321D0FB695A687B68D21AFB685A60FB697A68A3
S11321E05A60FB685B68BB60154B3B6102E03B696E
S11321F01B683B613B691B685A68BB689A42F6D30B
S11322003B691A68FB681A603B69FA681A600E4BEE
S11322101A68FB695B68D21A0B4B1A60FEF7CEFA98
S11322207B69002B01D106F0BBFB7B69181CBD4602
S113223008B080BD7018002068A1000007270000C6
S1132240601800206818002008F0FF1F80B586B0D1
S113225000AF78607B683B617B68002B28D0164B0D
S11322601B885B423A69D3183B613B69FB60FEF70C
S113227099FAFB685B68BB60104B7B6102E07B6989
S11322801B687B617B691B685A68BB689A42F6D3FA
S11322907B691A68FB681A607B69FA681A60FB68D4
S11322A05A68074B1B68D218054B1A60FEF786FA6A
S11322B0BD4606B080BDC04668A10000601800207D
S11322C008F0FF1F80B500AF024B1B68181CBD4609
S11322D080BDC04608F0FF1F80B582B000AF0D4B33
S11322E0072293437B600C4B7A681A600A4B0022E6
S11322F05A600A4B0A4A5A60084B00221A607B68EB
S11323003B603B68064A5A603B68044A1A60BD4613
S113231002B080BD58F1FF1F60180020681800202B
S113232008270000C046C046C04670470020C0468B
S1132330C046C046C046C04601300928F7D9C04649
S11323407047C04680B582B000AF021CBB1D1A8026
S113235006E0FFF7EBFFBB1DBA1D1288643A1A8032
S1132360BB1D1B88642BF4D806E0FFF7DBFFBB1D05
S1132370BA1D12880A3A1A80BB1D1B880A2BF4D88E
S1132380BD4602B080BDC04680B584B000AFF860E1
S1132390B9607A60BB68013BBB600CE07B681A786B
S11323A0FB681A70FB680133FB607B6801337B6058
S11323B0BB68013BBB60BB68002B03D07B681B7808
S11323C0002BEBD1FB6800221A70BD4604B080BD1F
S11323D080B584B000AFF860B9607A60BB68013B37
S11323E0BB6005E0FB680133FB60BB68013BBB607D
S11323F0BB68002B11D0FB681B78002BF2D10CE0DA
S11324007B681A78FB681A70FB680133FB607B6891
S113241001337B60BB68013BBB60BB68002B03D00E
S11324207B681B78002BEBD1FB6800221A70BD4639
S113243004B080BD80B584B000AFF860B960FB1D06
S11324401A70BB68013BBB6005E0FB680133FB60AD
S1132450BB68013BBB60BB68002B03D0FB681B78E7
S1132460002BF2D1BB68002B06D0FB68FA1D127852
S11324701A70FB680133FB60FB6800221A70BD46CA
S113248004B080BD80B584B000AFF860B960FB1DB6
S11324901A70FB1D1B789BB2F968BA68081C111CE2
S11324A01A1C00F019F8BD4604B080BD80B584B094
S11324B000AFF860B960FB1D1A70FB1D1B785BB29E
S11324C09BB2F968BA681BB2081C111C1A1C00F0F4
S11324D09FF8BD4604B080BD90B589B000AFF860E8
S11324E0B960BB1D1A80FB68BB613B1C1F33002213
S11324F01A70BB68013BBB60BB1D1B88002B38D125
S1132500BB68002B35D03B1C1F331B78BA69D3182A
S113251030221A703B1C1F333A1C1F3212780132CE
S11325201A70BB68013BBB6023E03B1C1F331B7864
S1132530BA69D418BB1D1B88181C0A21FDF7ACFF0F
S11325400B1C9BB2DBB23033DBB223703B1C1F335A
S11325503A1C1F32127801321A70BB68013BBB600F
S1132560BC1DBB1D1B88181C0A21FDF751FF031C51
S11325702380BB1D1B88002B02D0BB68002BD4D149
S11325803B1C1E3300221A702EE03B1C1E331B78AA
S1132590BA69D2183B1C173312781A703B1C1E33CD
S11325A01B78BA69D3183A1C1F3211783A1C1E32B0
S11325B012788A1A013AB9698A1812781A703B1C7F
S11325C01F331A783B1C1E331B78D31A013BBA699C
S11325D0D3183A1C173212781A703B1C1E333A1C5B
S11325E01E32127801321A703B1C1F331B785B08B1
S11325F0DBB23A1C1E3212789A42C6D33B1C1F33FC
S11326001B78BA69D31800221A70BD4609B090BD70
S113261090B589B000AFF860B960BB1D1A80FB6843
S1132620BB613B1C1F3300221A70BB1D1B88DB0BD4
S1132630DAB23B1C17331A70BB1D00215A5E614B82
S11326409A4208D1F968BA685F4B081C111C1A1C1D
S1132650FFF79AFEB3E0BB68013BBB603B1C17333A
S11326601B78002B05D0BB1D1B885B429AB2BB1D97
S11326701A80BB1D00229B5E002B3AD1BB68002B45
S113268037D03B1C1F331B78BA69D31830221A7019
S11326903B1C1F333A1C1F32127801321A70BB687C
S11326A0013BBB6025E03B1C1F331B78BA69D4187F
S11326B0BB1D00215B5E181C0A21FDF74DFF0B1C9E
S11326C09BB2DBB23033DBB223703B1C1F333A1CAA
S11326D01F32127801321A70BB68013BBB60BC1D0B
S11326E0BB1D00229B5E181C0A21FDF7DFFE031CA4
S11326F02380BB1D00215B5E002B02DDBB68002B29
S1132700D1D13B1C17331B78002B13D0BB68002B93
S113271010D03B1C1F331B78BA69D3182D221A70B2
S11327203B1C1F333A1C1F32127801321A70BB68EB
S1132730013BBB603B1C1E3300221A702EE03B1C85
S11327401E331B78BA69D2183B1C163312781A70E0
S11327503B1C1E331B78BA69D3183A1C1F321178FC
S11327603A1C1E3212788A1A013AB9698A18127808
S11327701A703B1C1F331A783B1C1E331B78D31A68
S1132780013BBA69D3183A1C163212781A703B1CF2
S11327901E333A1C1E32127801321A703B1C1F334E
S11327A01B785B08DBB23A1C1E3212789A42C6D3FD
S11327B03B1C1F331B78BA69D31800221A70BD461C
S11327C009B090BD0080FFFFD495000080B586B0AD
S11327D000AFF860B960FB1D1A703A1C1432FB1D7F
S11327E01B78101C04211A1CFFF74CFEF968BA6808
S11327F03B1C1433081C111C1A1CFFF7E9FDBD46D1
S113280006B080BD80B586B000AFF860B960FB1D2E
S11328101A703A1C1032FB1D1B785BB2101C052188
S11328201A1CFFF743FEF968BA683B1C1033081CF6
S1132830111C1A1CFFF7CCFDBD4606B080BDC04676
S113284080B586B000AFF860B960BB1D1A803A1C31
S11328501032BB1D00215B5E101C07211A1CFFF700
S1132860D7FEF968BA683B1C1033081C111C1A1CEB
S1132870FFF7AEFDBD4606B080BDC04680B586B04C
S113288000AFF860B960FB1D1A703B1C14330022C2
S11328909A703B1C1733FA1D11780F220A401A70E4
S11328A03B1C17331B78092B01D8302300E0372356
S11328B03A1C173212789B18DAB23B1C14335A7044
S11328C03B1C1733FA1D127812091A703B1C17337C
S11328D01B78092B01D8302300E037233A1C173228
S11328E012789B18DAB23B1C14331A70F968BA6870
S11328F03B1C1433081C111C1A1CFFF769FDBD4650
S113290006B080BD80B586B000AFF860B960BB1D6D
S11329101A803B1C103300221A713B1C173303220C
S11329201A70BB1D1B88D9B23B1C16330F220A40F8
S11329301A703B1C173300229A563B1C16331B7823
S1132940092B01D8302300E03723391C16310978CC
S11329505B18D9B23B1C10339954BB1DBA1D1288A5
S113296012091A803B1C17333A1C17321278013AA9
S11329701A703B1C17331B787F2BD2D9F968BA68BD
S11329803B1C1033081C111C1A1CFFF721FDBD460B
S113299006B080BD80B588B000AFF860B9607A60D9
S11329A03A1C14327B68101C0B211A1C00F00CF822
S11329B0F968BA683B1C1433081C111C1A1CFFF775
S11329C007FDBD4608B080BD90B589B000AFF86082
S11329D0B9607A60FB68BB613B1C1F3300221A702C
S11329E0BB68013BBB607B68002B34D1BB68002B08
S11329F031D03B1C1F331B78BA69D31830221A70AC
S1132A003B1C1F333A1C1F32127801321A70BB6808
S1132A10013BBB601FE03B1C1F331B78BA69D41811
S1132A207B68181C0A21FDF737FD0B1CDBB2303321
S1132A30DBB223703B1C1F333A1C1F321278013265
S1132A401A70BB68013BBB607B68181C0A21FDF748
S1132A50DFFC031C7B607B68002B02D0BB68002B6F
S1132A60D9D13B1C1E3300221A702EE03B1C1E33AE
S1132A701B78BA69D2183B1C173312781A703B1CA6
S1132A801E331B78BA69D3183A1C1F3211783A1CCA
S1132A901E3212788A1A013AB9698A1812781A70A1
S1132AA03B1C1F331A783B1C1E331B78D31A013B83
S1132AB0BA69D3183A1C173212781A703B1C1E33A9
S1132AC03A1C1E32127801321A703B1C1F331B78D9
S1132AD05B08DBB23A1C1E3212789A42C6D33B1C06
S1132AE01F331B78BA69D31800221A70BD4609B087
S1132AF090BDC04680B584B000AF786039603B1C9F
S1132B000F3304221A707B681B68BB6002E0BB6849
S1132B100133BB60BB681B78202BF8D03B680022D4
S1132B201A7018E03B681B781A1C9200D3185B00DB
S1132B30DAB2BB681B78D318DBB2303BDAB23B683D
S1132B401A703B1C0F333A1C0F321278013A1A7078
S1132B50BB680133BB60BB681B782F2B08D9BB68EB
S1132B601B78392B04D83B1C0F331B78002BD9D18D
S1132B703B1C0F331B78002B01D104230AE03B1CC0
S1132B800F331B78042B01D11B2303E07B68BA6845
S1132B901A600023181CBD4604B080BD90B587B0F0
S1132BA000AF786039607B681B683B6102E03B6979
S1132BB001333B613B691B78202BF8D03B68002232
S1132BC01A703B691B782D2B07D13B1C173301224C
S1132BD01A703B6901333B6103E03B1C173300224D
S1132BE01A703C1C16343A1C10323B1C0F33101C58
S1132BF0191CFFF77FFF031C23703B1C16331B7843
S1132C00002B03D03B1C16331B7817E03B1C1733F7
S1132C101B78002B08D03B1C0F331B785B42DBB2C4
S1132C20DAB23B681A7005E03B1C0F331B78DAB24A
S1132C303B681A703A697B681A600023181CBD4609
S1132C4007B090BD80B584B000AF78607B681B6826
S1132C50FB6002E0FB680133FB60FB681B78202B00
S1132C60F8D0FB681B78302B01D01B230FE0FB68E6
S1132C700133FB60FB681B78782B01D01B2306E033
S1132C80FB680133FB607B68FA681A600023181C38
S1132C90BD4604B080BDC04680B584B000AF786046
S1132CA039607B681A683B1C0F3312781A703B1C1E
S1132CB00F331B782F2B12D93B1C0F331B78392B66
S1132CC00DD83B1C0F331B78303BDAB23B681A70CB
S1132CD07B681B685A1C7B681A60002330E03B1C2D
S1132CE00F331B78602B12D93B1C0F331B78662BD8
S1132CF00DD83B1C0F331B78573BDAB23B681A7074
S1132D007B681B685A1C7B681A60002318E03B1C14
S1132D100F331B78402B12D93B1C0F331B78462BE7
S1132D200DD83B1C0F331B78373BDAB23B681A7063
S1132D307B681B685A1C7B681A60002300E01B2315
S1132D40181CBD4604B080BD80B586B000AF786065
S1132D5039603B1C173303221A707B681B683B6184
S1132D603B1C1033181CFFF76DFF031C002B01D014
S1132D701B2330E03B6800221A7011E03B681B788B
S1132D801B01DAB23B1C0F331B78D318DAB23B6851
S1132D901A703B1C17333A1C17321278013A1A7016
S1132DA03A1C10323B1C0F33101C191CFFF774FF24
S1132DB0031C002B04D13B1C17331B78002BDDD1E3
S1132DC03B1C17331B78002B01D1042303E03A6921
S1132DD07B681A600023181CBD4606B080BDC0463F
S1132DE080B584B000AF3A60FB1D021C1A703B1D15
S1132DF00A1C1A803B1C0F33EFF3108072B6187054
S1132E00FB1D1A780A4BD200391D0988D152FB1DCB
S1132E101B78074ADB00D31804333A681A603B1C5A
S1132E200F33187880F31088BD4604B080BDC046C7
S1132E307418002080B584B000AF3B1C0E33002210
S1132E401A703B1C0F3300221A703EE0FB1DEFF397
S1132E50108072B618703B1C0F331B78214ADB00BC
S1132E60D31804331B68002B24D03B1C0F331A786F
S1132E701C4BD200D35A002B1CD13B1C0F331B78A4
S1132E80184ADB00D31804331B68BB603B1C0F33A8
S1132E901B78144ADB00D318043300221A60FB1D8C
S1132EA0187880F31088BB6898473B1C0E330122C6
S1132EB01A7003E0FB1D187880F310883B1C0F3355
S1132EC03A1C0F32127801321A703B1C0F331B78F4
S1132ED0012BBBD93B1C0E331B78181CBD4604B018
S1132EE080BDC0467418002080B582B000AFFB1DC1
S1132EF000221A701EE0BB1DEFF3108072B618702A
S1132F00FB1D1A78124BD200D35A002B09D0FB1D9B
S1132F101B780F4AD9008A5A013A91B20C4ADB0055
S1132F209952BB1D187880F31088FB1DFA1D127886
S1132F3001321A70FB1D1B78012BDCD9C046FFF748
S1132F4079FF031C002BFAD1BD4602B080BDC046F8
S1132F507418002080B582B000AFFB1D00221A70E7
S1132F6012E0FB1D1A780C4BD2000021D152FB1D3C
S1132F701B78094ADB00D318043300221A60FB1DB6
S1132F80FA1D127801321A70FB1D1B78012BE8D947
S1132F90BD4602B080BDC0467418002080B584B020
S1132FA000AF7860364BFB60FB687A689A61354BFA
S1132FB0FA681A60FB6800221A60FB6800229A8093
S1132FC0FB6800229A81FB6800229A60FB68002259
S1132FD0DA81FB6800229A82FB6800221A612A4A7D
S1132FE029492A4BCB588021C9031943274BD15077
S1132FF0274A2749C2239B00C958264B0B408021EE
S113300009041943C2239B00D150214B204A126862
S11330108021C9000A431A601F4B1F4AD1681F4A06
S11330200A40802189000A43DA601B4B1A4A9168DE
S11330301A4A0A40802189000A439A60164B164AAC
S11330405168164A0A40802189000A435A60144B89
S113305012221A70124B10225A70114B21229A70AC
S11330600F4B0F4A1278D2B240210A43D2B21A70DF
S11330700C4BFA689A62FB68181CBD4604B080BD0C
S113308084180020A01800200070044034100000B0
S113309000E100E0FFFF00FF00C00440FFF8FFFE76
S11330A000600740A419002080B584B000AFF86028
S11330B0B960BB1D1A80FB689B89002B01D00823D3
S11330C020E0FEF705FFFB68BA689A60FB68BA1D4A
S11330D012889A81FB6800229A800C4BDB78DBB261
S11330E0DBB25BB2002B01DA084B5B79074B074A72
S11330F01278D2B2802149420A43D2B21A70FEF742
S1133100F7FE0023181CBD4604B080BD00600740D4
S113311080B584B000AFF860B960BB1D1A80FB684D
S11331209B8A002B01D0082316E0FEF7D1FEFB6832
S1133130BA681A61FB68BA1D12889A82FB68002279
S1133140DA81074B064A1278D2B220210A43D2B25E
S11331501A70FEF7CDFE0023181CBD4604B080BDD6
S11331600060074080B582B000AF344B1B687B60C1
S1133170334AFB1CD2781A70FB1C1B785BB2002B01
S113318028DA7B689B89002B24D07B689B682C4AB7
S11331905279D2B21A705A1C7B689A607B689B88F9
S11331A001339AB27B689A807B689A887B689B8992
S11331B09A420FD1224B224A1278D1B27F220A407E
S11331C0D2B21A707B6800229A817B689B69181CB2
S11331D000F06AF9FB1C1A78202313402AD07B687C
S11331E0DA897B689B8A9A421CD2154A7B681B69E0
S11331F0197851715A1C7B681A617B68DB89013329
S11332009AB27B68DA817B68DA897B689B8A9A4206
S113321010D17B6800229A827B689B69181C00F09D
S11332208DF907E0064B064A1278D2B220218A4370
S1133230D2B21A70BD4602B080BDC046A0180020AC
S11332400060074090B585B000AF78602B4B1B88B9
S11332509BB2002B45D03B1C0F33EFF3108072B6AA
S11332601870274B1B78DBB20133DBB2244A191CDC
S11332701170012B04D13B1C0F331A78214B1A70A7
S11332801E4B1B889BB2013B9AB21C4B1A801E4BEF
S11332901B781A1C1D49895C7A6811700133DAB2F3
S11332A0194B1A70184B1B782F2B02D9164B00227E
S11332B01A70174B1C78164B1B7841229343DAB2D1
S11332C0134B1A700E4B1B78DBB2013BDBB20C4A7A
S11332D0191C1170002B06D10A4B187880F3108842
S11332E001E00A2306E0221C4123134001D00D23F0
S11332F000E00023181CBD4605B090BDA6180020B0
S1133300E4190020781C0020A8180020AC18002024
S1133310A418002080B584B000AF021CFB1D1A70F5
S1133320304B1B889BB2302B01D10B2355E03B1C47
S11333300F33EFF3108072B618702B4B1B78DBB28F
S11333400133DBB2284A191C1170012B04D13B1C38
S11333500F331A78254B1A70224B1B889BB201330A
S11333609AB2204B1A80224B1B781A1C2149F81D53
S1133370007888540133DAB21D4B1A701C4B1B7849
S11333802F2B02D91A4B00221A701B4B1B781A1CC4
S11333902023134012D1184B1B7820221343DAB296
S11333A0154B1A70154B1A68154B1B78191C114BC9
S11333B0CB18101C191C0122FFF7AAFE0A4B1B781C
S11333C0DBB2013BDBB2084A191C1170002B03D19C
S11333D0064B187880F310880023181CBD4604B0EF
S11333E080BDC046DE180020E4190020781C0020AF
S11333F0E1180020E4180020A4180020741C002008
S1133400E018002080B500AF024B1B889BB2181C4B
S1133410BD4680BDA618002080B500AF024B1B88B6
S11334209BB2181CBD4680BDDE18002080B500AFDD
S1133430134B00221A70134B00221A70124B0022F5
S11334401A80124B00221A70114B00221A70114B71
S113345000221A80104B00221A70104B00221A709E
S11334600020FFF79BFD021C0D4B1A600C4B1A68E1
S11334700C4B101C191C0122FFF716FEBD4680BD23
S1133480A4180020A5180020A6180020A8180020C1
S1133490A9180020DE180020E0180020E118002000
S11334A0741C0020DC18002080B582B000AF786066
S11334B01B4B1B889BB22F2B19D8194B1B889BB213
S11334C001339AB2164B1A80164B1B781A1C1649F4
S11334D00878164988540133DAB2124B1A70114B2A
S11334E01B782F2B11D90F4B00221A700DE0104BB3
S11334F01B7840221343DAB20D4B1A700D4B1B7824
S113350040221343DAB20B4B1A700B4B1A68064B6A
S1133510101C191C0122FFF7C7FDBD4602B080BD77
S1133520A6180020A9180020DC180020AC180020E0
S1133530A4180020A5180020741C002080B582B0B7
S113354000AF78601B4B1B780133DAB2194B1A7049
S1133550184B1B782F2B02D9164B00221A70164BCE
S11335601B889BB2013B9AB2134B1A80124B1B88E7
S11335709BB2002B13D0114B1B7820221343DAB2D9
S11335800E4B1A700E4B1A680A4B1B78191C0D4B04
S1133590CB18101C191C0122FFF7BAFD06E0074BDB
S11335A01B7830229343DAB2044B1A70BD4602B042
S11335B080BDC046E0180020DE180020A4180020BA
S11335C0741C0020E418002080B582B000AF78603D
S11335D003F020FD031C9B687A68101C191C03F07F
S11335E09DFABD4602B080BD80B500AF024B0122FA
S11335F01A70BD4680BDC0467019002080B582B0E7
S113360000AFFB1D00221A7001F036FA031C002BD8
S113361002D0FB1D1B221A7001F036FA031C002B8A
S113362002D0FB1D1B221A70E22002F087F8E12071
S113363002F084F8FB1D1B78181CBD4602B080BD47
S113364080B500AF00200C2101F0B0FFFFF7D6FFDA
S1133650031C181CBD4680BD80B584B000AF3B1C64
S11336600F3300221A70234B181C222101F01EFD77
S1133670031C002B39D13B1C0E331E4A12781A70DE
S11336803B1C0E331A780423134003D0FFF7D8FFF2
S113369007232BE002F0F4F800200E2101F086FF4E
S11336A03B1C144A5A603B1C3A1C0E3212781A70A6
S11336B03B1C22225A703B1C5B689A1C3B1C9A6080
S11336C00D4B1B78002B04D03B1C181C012101F06E
S11336D01DFA3B1C9A683B1C5B6801331B78101C69
S11336E0191C02F089F8002300E00923181CBD46C8
S11336F004B080BD181900201419002090B58FB0B3
S113370000AF3B1C373300221A703B1C36330022B7
S11337101A703B1D00221A703B1D3A1C10325A606D
S11337203B1D22225A703B1D5B689A1C3B1D9A600C
S11337303C1C353402F03AF8031C23703B1C35332F
S11337401A78402313401ED03B1C363301221A70D2
S1133750FB1C181C02F0E4F8FB1C1B78202B04D97A
S1133760E22001F0EBFF1B2339E03B1D9A68FB1CB0
S11337701B78101C191C02F065F83B1D5B680133B3
S1133780FA1C12781A703B1C36331B78002B23D09A
S11337903B1D58683B1D5B78191C3B1D5B6801335E
S11337A01A783B1D1B783C1C373401F0E1FC031CE8
S11337B023703B1C37331B78002B0DD03B1C373355
S11337C01B78042B04D1084B181CFFF7FDFE03E003
S11337D0064B181CFFF7F8FE3B1C37331B78181CEC
S11337E0BD460FB090BDC046EC95000008960000A1
S11337F090B583B000AF4B4B1B78072B00D98AE000
S11338009A00494BD3181B689F4602F039F8454B80
S113381001221A707EE000200F2101F0C7FE02F0A1
S11338203BF8404B05221A7074E002F07BF93F4BE1
S11338301B78DBB2002B08D03C4B00221A70FFF738
S11338405DFF384B01221A7064E0394B00221A7074
S1133850344B06221A705DE0FC1DFFF7FDFE031CCD
S11338602370FB1D1B78002B03D12E4B03221A70EF
S113387050E0FB1D1B78072B03D12A4B07221A703B
S11338804CE0284B05221A7048E002F04BF9274B14
S11338901B78DBB2002B40D0244B00221A70BC1DD5
S11338A001F084FF031C2370BB1D1A7810231340FE
S11338B006D0E12001F042FF1A4B04221A7029E0DD
S11338C0184B01221A7025E0194B1B78022B19D8CA
S11338D0184B181CFFF778FE154B1B780133DAB22E
S11338E0134B1A70144B181C222101F0BFFB031C4C
S11338F0002B03D10B4B06221A700FE00F4B181C40
S1133900FFF762FE0E4B181CFFF75EFE054B01220B
S11339101A70C0466FE7C04600E0C046BD4603B01B
S113392090BDC0463C19002074A10000701900200D
S11339301519002020960000181900203096000068
S11339404896000080B582B000AF021CFB1D1A70BF
S1133950FB1D1B78181C01F0ABFF031C181CBD4693
S113396002B080BD80B500AF01F010FE0620062134
S113397001F01CFE072001F0FBFF012001F0E0FF35
S11339800020FFF7DFFF1A4B0A20191C052201F063
S113399087FE174B1020191C052201F081FE02201E
S11339A0012101F003FE702001F0F0FE012001F07E
S11339B0A3FF04202F2101F0F9FD00200F2101F0C5
S11339C0F5FDFFF71BFE01F067FF0A4B00221A709A
S11339D0094B0A4A5A60084B22225A70064B5B680C
S11339E05A1C054B9A600023181CBD4680BDC04676
S11339F06CA100003C190020401900204C19002043
S1133A0090B583B000AFFFF7F3FEFC1D0D4B181CFF
S1133A1001F042F8031C2370FB1D1B78002B0CD112
S1133A20094B1B78002B04D0064B181C002101F015
S1133A306DF8044B181C01F043F80023181CBD4614
S1133A4003B090BD401900201419002080B582B045
S1133A5000AF021CFB1D1A70FB1D1B78072B12D82C
S1133A609A000B4BD3181B689F460A4B0CE00A4B79
S1133A700AE00A4B08E00A4B06E00A4B04E00A4B52
S1133A8002E00A4B00E00A4B181CBD4602B080BDA0
S1133A9094A1000058960000609600006C96000007
S1133AA07C960000909600009C960000A89600006A
S1133AB0B496000080B582B000AF78607B685B6824
S1133AC02449254A081C111C1A1C03F069FB7B6855
S1133AD05B682249224A081C111C1A1C03F060FB73
S1133AE07B685B681F49204A081C111C1A1C03F0E0
S1133AF057FB7B685B681D491D4A081C111C1A1C76
S1133B0003F04EFB7B685B681A491B4A081C111CB6
S1133B101A1C03F045FB7B685B681849184A081CAB
S1133B20111C1A1C03F03CFB7B685B681549164AA0
S1133B30081C111C1A1C03F033FB7B685B681349D7
S1133B40134A081C111C1A1C03F02AFBBD4602B0C0
S1133B5080BDC046BC960000C4960000E0960000FC
S1133B60F096000010970000249700006C97000066
S1133B7080970000AC970000BC970000D897000025
S1133B80F097000010980000189800002C9800008E
S1133B903898000090B58DB000AF78600023FB62C8
S1133BA03DE0FB6ADBB23C1C2B34181C01F026FD03
S1133BB0031C23703A1C18321C4B101C10211A1CB5
S1133BC0FEF7E2FBFB6ADBB23A1C1832101C102130
S1133BD01A1CFEF753FE3B1C083300221A703A1CD1
S1133BE008323B1C2B331B78101C10211A1CFEF7C7
S1133BF045FE3A1C08320E4B101C10211A1CFEF70D
S1133C00E7FB7B685B68391C18313A1C0832081CD6
S1133C10111C1A1C03F0D8FAFB6A0133FB62FB6A1D
S1133C201D2BBEDDBD460DB090BDC04654980000AE
S1133C306098000080B58CB000AF78607B685B68EA
S1133C401049114A081C111C1A1C03F0BDFA0F4B31
S1133C501B78181CFFF7FAFE021C7B685B680C4992
S1133C60081C111C1A1C03F0AFFA7B685B68064A37
S1133C70101C191C02F052FF064B1B78002B0DD0B0
S1133C80054B0CE064980000609800003C1900208B
S1133C906C9800001419002074980000E74B7A68AF
S1133CA05268E749081C191C03F08EFA3B1C0F33B9
S1133CB0181C01F011FE3B1C0F331B783A1C103208
S1133CC0101C20211A1CFEF7DDFB3A1C1032DD4BC0
S1133CD0101C20211A1CFEF77BFB7B685B68DA4909
S1133CE03A1C1032081C111C1A1C03F06DFA3B1C00
S1133CF00D33181C01F0A4FE3B1C0D331B783A1C39
S1133D0010325BB2101C20211A1CFEF7CFFB3A1CA8
S1133D101032CE4B101C20211A1CFEF759FB7B6875
S1133D205B68CB493A1C1032081C111C1A1C03F0A6
S1133D304BFA3B1C0A33181C01F0C0FE3B1C0A332F
S1133D401B883A1C1032101C20211A1CFEF7C4FBDD
S1133D503A1C1032BF4B101C20211A1CFEF738FBF2
S1133D607B685B68BC493A1C1032081C111C1A1C85
S1133D7003F02AFA01F000FD031C1A1C3B1C0F334C
S1133D801A703A1C1032B54B101C20211A1CFEF775
S1133D90FBFA3B1C0F331B783A1C1032101C2021F9
S1133DA01A1CFEF76BFD3A1C1032AD4B101C20217F
S1133DB01A1CFEF70DFB3B1C0F331B781A1C402307
S1133DC0134007D03A1C1032A64B101C20211A1C99
S1133DD0FEF7FEFA3B1C0F331B781A1C20231340FA
S1133DE007D03A1C1032A04B101C20211A1CFEF7DD
S1133DF0EFFA3B1C0F331B781A1C1023134007D017
S1133E003A1C1032994B101C20211A1CFEF7E0FAC0
S1133E103B1C0F331B781A1C0E2313400E2B07D1A7
S1133E203A1C1032924B101C20211A1CFEF7D0FAB7
S1133E303B1C0F331B781A1C0E2313400C2B07D189
S1133E403A1C10328B4B101C20211A1CFEF7C0FAAE
S1133E503B1C0F331B781A1C0E2313400A2B07D16B
S1133E603A1C1032844B101C20211A1CFEF7B0FAA5
S1133E703B1C0F331B781A1C0E231340082B07D14D
S1133E803A1C10327D4B101C20211A1CFEF7A0FA9C
S1133E903B1C0F331B781A1C0E231340062B07D12F
S1133EA03A1C1032764B101C20211A1CFEF790FA93
S1133EB03B1C0F331B781A1C0E231340042B07D111
S1133EC03A1C10326F4B101C20211A1CFEF780FA8A
S1133ED03B1C0F331B781A1C0E231340022B07D1F3
S1133EE03A1C1032684B101C20211A1CFEF770FA81
S1133EF03B1C0F331B781A1C0E23134007D13A1CAA
S1133F001032624B101C20211A1CFEF761FA3B1C74
S1133F100F331B781A1C0123134007D03A1C1032AC
S1133F205B4B101C20211A1CFEF752FA3A1C10326B
S1133F30444B101C20211A1CFEF74AFA7B685B686C
S1133F4054493A1C1032081C111C1A1C03F03CF989
S1133F503B1C0F33181C01F001FE3A1C10323F4B7E
S1133F60101C20211A1CFEF70FFA3B1C0F331B7880
S1133F703A1C1032101C20211A1CFEF77FFC3A1C3C
S1133F801032374B101C20211A1CFEF721FA3B1C5F
S1133F900F331B781A1C4023134007D03A1C1032ED
S1133FA03D4B101C20211A1CFEF712FA3B1C0F3348
S1133FB01B781A1C2023134007D03A1C1032344BB0
S1133FC0101C20211A1CFEF703FA3B1C0F331B782C
S1133FD01A1C1023134007D03A1C10322F4B101C0C
S1133FE020211A1CFEF7F4F93B1C0F331B781A1C12
S1133FF00223134007D03A1C1032294B101C2021F5
S11340001A1CFEF7E5F93B1C0F331B781A1C01231D
S1134010134007D03A1C1032224B101C20211A1CCA
S1134020FEF7D6F93A1C1032064B101C20211A1C3C
S1134030FEF7CEF97B685B6836E0C0467C980000EA
S113404084980000609800008C9800009898000004
S1134050A0980000A8980000B0980000BC98000048
S1134060C0980000C4980000CC980000D4980000C8
S1134070DC980000EC980000F8980000009900001B
S11340800899000010990000189900002099000078
S113409028990000349900004099000048990000D4
S11340A0549900006099000020493A1C1032081C01
S11340B0111C1A1C03F088F83A1C0F323B1C0E33F7
S11340C0101C191C01F06CFC3B1C0F331B783A1CB0
S11340D01032101C20211A1CFEF7D4F93A1C10329D
S11340E0134B101C20211A1CFEF772F93B1C0E33D3
S11340F01B783A1C1032101C20211A1CFEF766FB98
S11341003A1C10320B4B101C20211A1CFEF760F9CC
S11341107B685B6808493A1C1032081C111C1A1C85
S113412003F052F8BD460CB080BDC0466C99000047
S11341307C990000849900009099000080B588B0B3
S113414000AFF860B9607A603B1C1F3300221A701C
S1134150FA68A14B101C191C05F025F9031C002B4F
S113416008D0FA689D4B101C191C05F01CF9031C9F
S1134170002B07D17B68181CFFF79CFCBB6801224D
S11341801A7021E1FA68964B101C191C05F00BF902
S1134190031C002B08D0FA68924B101C191C05F064
S11341A002F9031C002B07D17B68181CFFF742FDA2
S11341B0BB6801221A7007E1FA688B4B101C191CAA
S11341C005F0F1F8031C002B06D1884B01221A706C
S11341D0BB6801221A70F7E0FA68854B101C191CA1
S11341E005F0E1F8031C002B06D1804B00221A7065
S11341F0BB6801221A70E7E0FA687E4B101C191C98
S11342000D2205F0E6F8031C002B2AD1FB680E33BF
S1134210BB613A1C18323B1C1733101C191CFEF7E7
S113422069FC031C002B10D13B1C17331B78DBB239
S11342305BB2002B09DB3B1C17331B78181CFFF700
S113424081FBBB6801221A70BEE07B689B686A4AE6
S1134250101C191C02F062FC3B1C1F331B221A7039
S1134260B2E0FA68654B101C191C0B2205F0B1F87A
S1134270031C002B3ED1FB680C33BB613A1C183283
S11342803B1C1633101C191CFEF788FC031C002B66
S113429024D13B1C16331B78002B14D03B1C163343
S11342A01B785BB21A1C0A320DD03B1C16331B78E8
S11342B05BB21A1C0C3206D03B1C16331B785BB263
S11342C01A1C12320AD13B1C16331B78DBB2181CA1
S11342D001F086FBBB6801221A7075E07B689B685D
S11342E0474A101C191C02F019FC3B1C1F331B22EB
S11342F01A7069E0FA68434B101C191C0E2205F071
S113430068F8031C002B32D1FB680F33BB613A1CE5
S113431018323B1C1533101C191CFEF715FD031C29
S1134320002B18D13A1C18323B1C1733101C191CD3
S1134330FEF70AFD031C002B0DD13B1C15331A7824
S11343403B1C17331B78101C191C01F02FF9BB6898
S113435001221A7038E07B689B682B4A101C191CD8
S113436002F0DCFB3B1C1F331B221A702CE0FA68A2
S1134370264B101C191C05F016F8031C002B13D136
S1134380BB6801221A70FFF739F9031C002B1BD0FC
S11343907B689B681E4A101C191C02F0BFFB3B1C67
S11343A01F331B221A700FE0FA681A4B101C191CD9
S11343B004F0F9FF031C002B06D17B68181CFFF7DF
S11343C0E9FBBB6801221A703B1C1F331B78181CC5
S11343D0BD4608B080BDC046A0990000A899000061
S11343E0B4990000BC990000CC9900001419002075
S11343F0DC990000EC990000FC9900002C9A000064
S1134400389A0000689A0000789A00008C9A00009C
S1134410989A0000AC9A000080B500AF024B0022CD
S11344201A70BD4680BDC0461419002080B584B002
S113443000AFF860B9607A6014E0F968BA68FA23EA
S11344405B00081C111C1A1C0023FDF78DF9031CCA
S1134450012B01D0122309E0BB680133BB607B68E8
S1134460013B7B607B68002BE7D10023181CBD4611
S113447004B080BD80B584B000AFB9607A603B1CE5
S11344800F33021C1A703B1C0F331B78052B46D8C4
S11344909A00254BD3181B689F46244B1968BA68A9
S11344A07B68081C111C1A1CFFF7C0FF031C37E0B3
S11344B01F4B1968BA687B68081C111C1A1CFFF78B
S11344C0B5FF031C2CE01B4B1968BA687B68081CF9
S11344D0111C1A1CFFF7AAFF031C21E0164B1968D4
S11344E0BA687B68081C111C1A1CFFF79FFF031C89
S11344F016E0124B1968BA687B68081C111C1A1C58
S1134500FFF794FF031C0BE00D4B1968BA687B6836
S1134510081C111C1A1CFFF789FF031C00E01B2355
S1134520181CBD4604B080BDB4A10000741900205D
S1134530781900207C19002080190020841900209B
S11345408819002080B582B000AF78607B68181CA1
S1134550FDF70EFB031C9BB2181CBD4602B080BDC8
S113456080B582B000AF021CFB1D1A70FB1D1B78C6
S1134570052B34D89A001C4BD3181B689F461B4B41
S11345801B68181CFFF7DEFF031CDBB228E0184B86
S11345901B68181CFFF7D6FF031CDBB220E0154B89
S11345A01B68181CFFF7CEFF031CDBB218E0124B8C
S11345B01B68181CFFF7C6FF031CDBB210E00F4B8F
S11345C01B68181CFFF7BEFF031CDBB208E00C4B92
S11345D01B68181CFFF7B6FF031CDBB200E00023C6
S11345E0181CBD4602B080BDCCA100007419002087
S11345F0781900207C1900208019002084190020DB
S11346008819002080B584B000AF78607A683B1CBC
S11346100B33101C191C00220023FDF7CBF9031CDB
S1134620FB60FB68002B01D1002302E03B1C0B3331
S11346301B78181CBD4604B080BDC04680B582B04E
S113464000AF021CFB1D1A70FB1D1B78052B2ED816
S11346509A00194BD3181B689F46184B1B68181CEB
S1134660FFF7D0FF031C23E0154B1B68181CFFF752
S1134670C9FF031C1CE0134B1B68181CFFF7C2FF87
S1134680031C15E0104B1B68181CFFF7BBFF031C31
S11346900EE00E4B1B68181CFFF7B4FF031C07E069
S11346A00B4B1B68181CFFF7ADFF031C00E0002335
S11346B0181CBD4602B080BDE4A10000741900209E
S11346C0781900207C19002080190020841900200A
S11346D08819002080B582B000AF3A601A1CFB1D17
S11346E01870BB1D19707B1D1A70FB1D1B78012BE4
S11346F010D0022B1BD0002B26D13B6901221A704B
S1134700BB1D1B783A680020111C1A1CFFF7B2FE6F
S1134710031C1BE03B6901221A70BB1D1B783A681D
S11347200120111C1A1CFFF7A5FE031C0EE03B69B7
S113473001221A70BB1D1B783A680220111C1A1C36
S1134740FFF798FE031C01E0C0460023181CBD4679
S113475002B080BD90B593B002AF0A1CFB1D011CD2
S11347601970BB1D1A703B1C373300221A703B1C96
S11347700C330833BB633B1C3F3300221A701CE02C
S11347803C1C3634FB1D1B78181CFFF757FF031C19
S113479023703B1C36331B78002B14D0BB6B3A1CA4
S11347A0363212781A70BB6B0133BB633B1C3F3348
S11347B03A1C3F32127801321A703B1C3F331B788B
S11347C0192BDDD900E0C046214B18783C1C373446
S11347D0391C0C313B1C3F331A78BB1D1B780090ED
S11347E002200190081C222101F0C8F9031C237047
S11347F03B1C37331B78002B23D002F00BFC031C2B
S11348003B633B6B9B682A2098473B6B9B68462025
S113481098473B6B9B68412098473B6B9B684920BA
S113482098473B6B9B684C2098473B6B9B682A20BE
S113483098473B6B9B680A2098473B1C37331B788F
S113484002E03B1C37331B78181CBD4611B090BDE9
S11348508C19002080B582B000AF021CFB1D1A70B9
S1134860FB1D0420191C0122FFF704FEFB1D1B780D
S11348700A2B05D00420FFF773FE031C1A2B03D95F
S113488004200121FFF766FFBD4602B080BDC0468B
S113489080B582B000AF021CFB1D1A70FB1D052001
S11348A0191C0122FFF7E6FDFB1D1B780A2B05D01E
S11348B00520FFF755FE031C1A2B03D905200221FE
S11348C0FFF748FFBD4602B080BDC04680B582B048
S11348D000AF78600020FFF7B1FE031C1A1C7B6850
S11348E01A70BD4602B080BD80B500AF054B1B6891
S11348F0181CFFF727FE031C5A1E9341DBB2181C39
S1134900BD4680BD7419002080B500AF014B181C52
S1134910BD4680BDFCA1000090B585B000AF7860B5
S1134920184B1B683C1C0F34181CFFF76BFE031C50
S113493023703B1C0F331B78002B07D07B685B680C
S11349403A1C0F321278101C9847E9E7C0460E4B08
S11349501B683C1C0F34181CFFF754FE031C237007
S11349603B1C0F331B78002B07D07B689B683A1CD9
S11349700F321278101C9847E9E7C046BD4605B0CF
S113498090BDC046781900207C19002080B500AF86
S1134990294BFF221A70302001210022FCF7F4FD7C
S11349A0021C264B1A60254B1B68002B00D1FEE726
S11349B0302001210022FCF7E7FD021C204B1A6085
S11349C01F4B1B68002B00D1FEE730200121002281
S11349D0FCF7DAFD021C1B4B1A601A4B1B68002BF8
S11349E000D1FEE7302001210022FCF7CDFD021C9E
S11349F0154B1A60144B1B68002B00D1FEE73020C6
S1134A0001210022FCF7C0FD021C104B1A600F4B61
S1134A101B68002B00D1FEE7302001210022FCF7A7
S1134A20B3FD021C0A4B1A60094B1B68002B00D112
S1134A30FEE7BD4680BDC0468C19002074190020D5
S1134A40781900207C190020801900208419002086
S1134A508819002080B500AFFFF7DEFC00F0AAFB48
S1134A6000F066F800F0FEFC00F016FAFFF78EFF87
S1134A7001F05AFBBD4680BD80B500AF00F048FA96
S1134A80031C181CBD4680BD80B500AF00F054FA6D
S1134A90031C181CBD4680BD80B582B000AF786091
S1134AA07B6800221A707B685A687B685B78101CEC
S1134AB0191C00F01BFB031C181CBD4602B080BD72
S1134AC080B582B000AF78607B68181C00F0CEFB24
S1134AD0031C181CBD4602B080BDC04680B584B01E
S1134AE000AFF860B960111C1A1CFB1D1970BB1DC6
S1134AF01A70F868B968FB1D1A78BB1D1B7800F0A2
S1134B0015FB031C181CBD4604B080BD80B582B0E3
S1134B1000AF78600A1CFB1C1A707A68FB1C1B78B7
S1134B20101C191C00F0F0FBBD4602B080BDC0464D
S1134B3080B500AFBD4680BD80B500AF024B1B7889
S1134B40181CBD4680BDC0460CF0FF1F80B582B066
S1134B5000AF021CFB1D1A70044BFA1D12781A7068
S1134B600023181CBD4602B080BDC0460CF0FF1FD8
S1134B7080B582B000AF7860034B7A681A60002376
S1134B80181CBD4602B080BD9019002090B587B0B6
S1134B9000AFF860B960111C1A1CFB1D1970BB1D15
S1134BA01A703C1C1734FFF7C7FF031C2370FB6803
S1134BB004333A1C173212781A70FB680533BA1D95
S1134BC012781A70FB1D1B780233DAB2F868B968E0
S1134BD03B1C28331B7800F00FFB031C181CBD463C
S1134BE007B090BD80B58EB000AF78600A1CFB1C86
S1134BF01A703B1C083300221A703B1C08333A1C01
S1134C0014325A603B1C083322225A707B685A685B
S1134C103B1C373312791A703B1C08335B6804332E
S1134C20FA1C12781A703B1C08335B6805333A1C73
S1134C30373212781A707A683B1C0833101C191C1E
S1134C4000F022FB031C181CBD460EB080BDC046FC
S1134C5090B585B000AF78607B685A683B1C0F3311
S1134C6052791A703B1C0F331B78FF2B07D0FFF7C8
S1134C7063FF031C3A1C0F3212789A4246D17B68B8
S1134C805A687B685B783C1C0E34101C191C00F0BD
S1134C901BFB031C23703B1C0E331A7802231340A6
S1134CA013D07B685A687B685B78101C191C00F071
S1134CB017FB031C002B08D07B681B7801221343CD
S1134CC0DAB27B681A70002321E03B1C0E331A7899
S1134CD00123134018D0104B1B68002B16D03B1C2B
S1134CE00E331B785BB2002B07DAFFF725FF031C9A
S1134CF07A68101C191CFFF775FF074B1B687A684C
S1134D00101C9847031C02E0122300E01B23181C0C
S1134D10BD4605B090BDC0469019002080B582B054
S1134D2000AF78600A1CFB1C1A707A68FB1C1B78A5
S1134D30101C191C01F04EF8BD4602B080BDC046DF
S1134D4080B582B000AF78607B685B680A490B4A23
S1134D50081C111C1A1C02F023FA7B685B680849C2
S1134D60084A081C111C1A1C02F01AFA0023181C09
S1134D70BD4602B080BDC046BC9A0000C49A000083
S1134D80E09A0000F09A000080B58AB000AF786025
S1134D907B685B681749184A081C111C1A1C02F02E
S1134DA013FA3A1C0832154B101C20211A1CFDF76B
S1134DB0EBFAFFF7C1FE031C3A1C0832101C202139
S1134DC01A1CFDF75BFD3A1C08320B4B101C20210A
S1134DD01A1CFDF7FDFA7B685B6809493A1C083226
S1134DE0081C111C1A1C02F0EFF90023181CBD4604
S1134DF00AB080BDBC9A0000089B00000C9B000018
S1134E00109B000080B584B000AFF860B9607A6090
S1134E10FA681D4B101C191C04F0C5FA031C002B66
S1134E2008D0FA68194B101C191C04F0BCFA031CB6
S1134E30002B08D1BB6801221A707B68181CFFF78D
S1134E407FFF031C1BE0FA68114B101C191C04F0B3
S1134E50AAFA031C002B08D0FA680E4B101C191C6C
S1134E6004F0A1FA031C002B08D1BB6801221A70BC
S1134E707B68181CFFF788FF031C00E00023181C44
S1134E80BD4604B080BDC046189B0000209B0000B6
S1134E902C9B0000349B000080B500AF034BFF2225
S1134EA01A70034B00221A60BD4680BD0CF0FF1F30
S1134EB09019002080B500AFBD4680BD80B500AF1D
S1134EC0FFF7C8FDBD4680BD80B500AFFEF798FD75
S1134ED0031C181CBD4680BD80B500AFFEF742FD23
S1134EE0031C181CBD4680BD80B584B000AFF860BB
S1134EF0B9607A60F868B9687A68044B01F0A0FF79
S1134F00031C181CBD4604B080BDC0460CA20000A2
S1134F1080B500AF074B1B68181C0021FCF7DEFAB4
S1134F20031C012B01D01B2300E00023181CBD46E9
S1134F3080BDC0469419002080B500AF074B1B68A4
S1134F40181C0021FCF7CAFA031C012B01D01B23F7
S1134F5000E00023181CBD4680BDC04698190020FF
S1134F6080B588B000AFF860B960111C1A1CFB1D35
S1134F701970BB1D1A703B1C1F3300221A70FB1DD5
S1134F801B78202B01D9042368E0BB68222B01D0B5
S1134F901B2363E03B1C28331B78002B03D0314BCD
S1134FA01B68BB6102E0304B1B68BB61FB683A1CA9
S1134FB0303212781A70FB680133FA1D12781A70B5
S1134FC0BB1D1B78002B25D03B1C2C331B78002BDE
S1134FD00CD0B969FA683B1C1033081C111C1A1C4C
S1134FE00023FCF781FC031C7B610BE0B969FA68C0
S1134FF03B1C1033081C111C1A1C0123FCF774FC05
S1135000031C7B617B69012B25D03B1C1F330822C9
S11350101A7020E03B1C2C331B78002B0AD0BA6991
S1135020FB68101C191CC8220023FCF79DFB031C01
S11350307B6109E0BA69FB68101C191CC8220123B2
S1135040FCF792FB031C7B617B69012B03D03B1CA7
S11350501F3308221A703B1C1F331B78181CBD46D3
S113506008B080BD981900209419002080B582B042
S113507000AF786039603B68212B01D804230EE02F
S1135080094B1A687B68101C191C00220123FCF7C9
S11350906BFB031C012B01D1002300E00A23181C25
S11350A0BD4602B080BDC0469819002080B582B0CC
S11350B000AF786039603B68212B01D804230EE0EF
S11350C0094B1A687B68101C191C00220023FCF78A
S11350D071FC031C012B01D1002300E00A23181CDE
S11350E0BD4602B080BDC0469819002080B582B08C
S11350F000AF786039603B68212B01D804230EE0AF
S1135100094B1A687B68101C191C00220023FCF749
S113511051FC031C012B01D1002300E00A23181CBD
S1135120BD4602B080BDC0469419002080B588B049
S113513004AFF860B960111C1A1CFB1D1970BB1D6B
S11351401A70F968BA68FB1D1B78012000900120D1
S11351500190B81D00780290081C111C1A1C002331
S1135160FFF7FEFE031C181CBD4604B080BDC046FC
S113517080B588B004AFF860B960111C1A1CFB1D1F
S11351801970BB1D1A70F968BA68FB1D1B780020E2
S1135190009001200190B81D00780290081C111C99
S11351A01A1C0023FFF7DCFE031C181CBD4604B0C8
S11351B080BDC04680B500AF062022210022FCF746
S11351C0E3F9021C0A4B1A60094B1B68002B00D13F
S11351D0FEE7062022210022FCF7D6F9021C054B2B
S11351E01A60044B1B68002B00D1FEE7BD4680BD4E
S11351F0941900209819002080B584B000AFF8609D
S1135200B960111C1A1CFB1D1970BB1D1A70BB1D43
S11352101A780223134004D0FB68023381221A70E7
S113522003E0FB68023301221A700E4B1A780E4B0E
S11352301A70FB68DA1C0B4B1B78191C11700133B4
S1135240DAB2084B1A70FB1D1B780233DAB2F86825
S1135250B968BB1D1B78FFF741FC031C181CBD4635
S113526004B080BD9C1900209D19002080B582B037
S113527000AF78607B68181CFFF7EAFC031C181C5D
S1135280BD4602B080BDC04680B582B000AF786034
S113529039603B685B68023302221A703B685B68C2
S11352A0DA1C7B685B68DB7813703B685A683B6880
S11352B05B78101C191C04220023FFF70FFC031C4D
S11352C0181CBD4602B080BD80B582B000AF7860C6
S11352D039607B6802331B78181CBD4602B080BD60
S11352E080B582B000AF786039607B6803331A7888
S11352F0044B1B78D31A5A425341DBB2181CBD46E7
S113530002B080BD9D19002080B582B000AF7860E6
S11353100A1CFB1C1A707A68FB1C1B78101C191CD5
S1135320FFF7FCFCBD4602B080BDC04680B586B028
S113533000AFF860B9607A603B1C173301221A7021
S11353407B685B689A1C3B1C163312781A70FB68E6
S113535000221A70FA68BB68101C191C2822FDF779
S113536069F83B1C16331B785BB2002B0CDAF96826
S1135370BA68374B081C111C1A1CFDF729F83B1C92
S1135380173300221A700BE0F968BA68314B081C15
S1135390111C1A1CFDF71CF83B1C173300221A7051
S11353A03B1C16331A780123134017D03B1C1733C8
S11353B01B78002B06D1FA68BB68101C191C7C22D0
S11353C0FDF738F8F968BA68234B081C111C1A1C3D
S11353D0FCF7FEFF3B1C173300221A703B1C1633EC
S11353E01A780223134017D03B1C17331B78002B69
S11353F006D1FA68BB68101C191C7C22FDF71AF848
S1135400F968BA68154B081C111C1A1CFCF7E0FF5C
S11354103B1C173300221A703B1C16331A780423E2
S113542013400BD0F968BA680D4B081C111C1A1CE8
S1135430FCF7CEFF3B1C173300221A70FA68BB68D6
S1135440101C191C2922FCF7F5FFBD4606B080BDCF
S1135450409B0000489B0000509B0000589B0000AC
S11354605C9B000080B500AF034B00221A70034B15
S113547000221A70BD4680BD9C1900209D19002091
S113548080B584B000AF021CFB1D1A70C046FDF746
S1135490C3FF031C002BFAD1C046FB1D1B78181C4C
S11354A0FDF738FF031C002BF7D1C046FDF7B4FF0E
S11354B0031C002BFAD1C046FDF7A4FF031C002BEC
S11354C0FAD0C0463B1C0F33181CFDF7BBFE031C6F
S11354D0002BF7D13B1C0F331B78181CBD4604B0BE
S11354E080BDC04690B587B000AFF860B960FB1DC1
S11354F01A703B1C173300221A7016E03B1C17333A
S11355001B78BA68D4183B1C17331B78FA68D31875
S11355101B78181CFFF7B4FF031C23703B1C1733C4
S11355203A1C1732127801321A703A1C1732FB1DDA
S113553012781B789A42E1D3BD4607B090BDC046AD
S113554080B584B000AF78600A1CFB1C1A703B1C49
S11355500F3300221A700FE03B1C0F331B787A685C
S1135560D3181B78181CFFF78BFF3B1C0F333A1C16
S11355700F32127801321A703A1C0F32FB1C127867
S11355801B789A42E8D3BD4604B080BD80B500AF15
S1135590054BDB6A181C01F047FF034B1B6B181CFF
S11355A001F006FFBD4680BDA419002080B582B07D
S11355B000AF0A1CFB1D011C1970BB1D1A700E4B99
S11355C01B6B181C01F0E8FEFB1D1B782022134303
S11355D0DBB2181CFFF754FFBB1D1B78181CFFF728
S11355E04FFF054B1B6B181C01F0E2FEF020FCF78B
S11355F0A9FEBD4602B080BDA419002090B585B0B7
S113560000AF021CFB1D1A700F4B1B6B181C01F022
S1135610C3FEFB1D1B78181CFFF732FF3C1C0F3424
S11356200020FFF72DFF031C2370074B1B6B181C76
S113563001F0BEFEF020FCF785FE3B1C0F331B7807
S1135640181CBD4605B090BDA419002080B582B0D9
S113565000AF3960FB1D011C1970BB1D1A700F4B84
S11356601B6B181C01F098FEFB1D1B78181CFFF720
S113567007FF39683A68BB1D1B78081C111C1A1CEB
S1135680FFF730FF054B1B6B181C01F091FEF02057
S1135690FCF758FEBD4602B080BDC046A4190020E8
S11356A080B582B000AF3960FB1D011C1970BB1DB1
S11356B01A700F4B1B6B181C01F06EFEFB1D1B7840
S11356C020221343DBB2181CFFF7DAFE3A68BB1D35
S11356D01B78101C191CFFF733FF054B1B6B181CA0
S11356E001F066FEF020FCF72DFEBD4602B080BD41
S11356F0A419002090B583B000AF021CFB1D1A70E2
S11357000D4B1B6B181C01F047FEFC1DFB1D1B7889
S1135710181CFFF7B5FE031C2370074B1B6B181CEA
S113572001F046FEF020FCF70DFEFB1D1B78181C53
S1135730BD4603B090BDC046A419002080B582B018
S113574000AF021CFB1D1A700A4B1B6B181C01F0E6
S113575023FEFB1D1B78181CFFF792FE054B1B6BE9
S1135760181C01F025FEF020FCF7ECFDBD4602B04C
S113577080BDC046A419002080B500AFFF20FFF70C
S1135780B9FF031C181CBD4680BDC04680B582B05D
S113579000AF021CFB1D1A70FB1D1B780720191C8F
S11357A0FFF704FFBD4602B080BDC04690B583B08C
S11357B000AF104B1B6B181C01F0EEFDFC1D2720E5
S11357C0FFF75EFE031C2370FB1D1A787023134041
S11357D0DBB2181CFFF754FE064B1B6B181C01F0C0
S11357E0E7FDF020FCF7AEFDFB1D1B78181CBD4641
S11357F003B090BDA419002080B582B000AF7860DA
S11358000A1CFB1C1A70E120FFF798FF7A68FB1C46
S11358101B78A020111C1A1CFFF742FF084BDB6AFF
S1135820181C01F00DFEB4235B00181CFCF78AFD64
S1135830034BDB6A181C01F0F7FDBD4602B080BDC6
S1135840A419002080B582B000AF78600A1CFB1C4C
S11358501A700A4BDB6A181C01F0E6FD7A68FB1C1F
S11358601B786120111C1A1CFFF7F0FE034BDB6A46
S1135870181C01F0E5FDBD4602B080BDA41900204E
S113588080B500AF034BDB6A181C01F0CDFDBD46AB
S113589080BDC046A419002080B500AF034BDB6A6D
S11358A0181C01F0CDFDBD4680BDC046A4190020E2
S11358B080B582B000AF021CFB1D1A70FB1D1A7864
S11358C07F231340DBB20520191CFFF76FFE002372
S11358D0181CBD4602B080BD80B582B000AF7860B0
S11358E00520FFF78BFE031C1A1C7B681A7000232B
S11358F0181CBD4602B080BD80B582B000AF021C4A
S1135900FB1D1A70FB1D1A783F231340DBB20120E4
S1135910191CFFF74BFE0023181CBD4602B080BDC6
S113592080B582B000AF78606020FFF767FE031C8B
S11359301A1C7B681A700023181CBD4602B080BD77
S113594080B582B000AF021CFB1D1A70FB1D1B78D2
S11359503F2B01D9122306E0FB1D1B781C20191CC8
S1135960FFF724FE0023181CBD4602B080BDC046CC
S113597080B582B000AF021CFB1D1A70FB1D1B78A2
S1135980072B01D9122306E0FB1D1B781D20191CCF
S1135990FFF70CFE0023181CBD4602B080BDC046B4
S11359A090B585B000AF786039603C1C0F34082096
S11359B0FFF724FE031C23703B1C0F331B781B09C9
S11359C0DAB27B681A703B1C0F331A780F2313402A
S11359D0DAB23B681A700023181CBD4605B090BDAE
S11359E090B585B000AF021CFB1D1A703C1C0F342F
S11359F00620FFF703FE031C23703B1C0F333A1CE5
S1135A000F32127806218A431A70FB1D1B78002B73
S1135A1010D13B1C0F333A1C0F32127806210A4373
S1135A201A703B1C0F331B780620191CFFF7BEFDB0
S1135A30002300E00223181CBD4605B090BDC046FB
S1135A4090B585B000AF78603C1C0F340620FFF79A
S1135A50D5FD031C23703B1C0F331A780623134017
S1135A6003D17B68EE221A7022E03B1C0F331A78B4
S1135A7006231340022B03D17B68F4221A7017E02B
S1135A803B1C0F331A7806231340042B03D17B6885
S1135A90F6221A700CE03B1C0F331A7806231340CD
S1135AA0062B03D17B6800221A7001E0022300E078
S1135AB00023181CBD4605B090BDC04690B585B006
S1135AC000AF78603C1C0F340620FFF797FD031CE1
S1135AD023703B1C0F331A7828231340202B03D147
S1135AE07B68FA221A8018E03B1C0F331A782823AB
S1135AF0134004D17B68FA2292001A800DE03B1C0B
S1135B000F331A7828231340082B04D17B68FA2218
S1135B10D2001A8001E0022300E00023181CBD46D5
S1135B2005B090BD90B583B000AFFC1DFFF724FE17
S1135B30031C2370FB1D1A787023134008D0064BF6
S1135B40DB6A181C01F070FCFDF74EFDFFF7B2F99B
S1135B50BD4603B090BDC046A419002080B582B0F4
S1135B6000AF78601720FFF749FD031C1A1C7B68FF
S1135B701A700023181CBD4602B080BD90B587B0D2
S1135B8002AFF860B960111C1A1CFB1D1970BB1D13
S1135B901A70FB680633BA1D12781A70FB68073353
S1135BA0FA1D12781A70FB1D1B780233DAB2F868FA
S1135BB0B9683B1C20331B783C1C243424780094A3
S1135BC0FEF7E4FF031C181CBD4605B090BDC0469B
S1135BD080B58EB002AF7860081C111C1A1CFB1C27
S1135BE01870BB1C19707B1C1A70FB1C1B781A2BB9
S1135BF001D9042327E00023FB620DE0FB6A08338C
S1135C003A1C0832D3187A6812781A707B68013308
S1135C107B60FB6A0133FB62FB1C1A78FB6A9A42C5
S1135C20ECDC391C0831FB1C1A78BB1C1B78781C73
S1135C3000780090381C383000780190081C22212C
S1135C40FFF79CFF031C181CBD460CB080BDC0466A
S1135C50B0B586B002AF3A601A1CFB1D1870BB1DAC
S1135C6019707B1D1A703B1C0F3300221A70BB6A1B
S1135C70002B1AD11B2320E0BB6A1C68FB1D18787B
S1135C80BB1D19783A687B1D1B783D6A00957D6AB7
S1135C900195A047031C002B03D03B1C0F331B2290
S1135CA01A70BB6A0433BB6200E0C046BB6A1B685F
S1135CB0002BE1D13B1C0F331B78181CBD4604B0EC
S1135CC0B0BDC046F0B589B004AF3A601A1CFB1DE4
S1135CD01870BB1D19707B1D1A703B1C0E330022FB
S1135CE01A70154B1D683C1C0F34FB1D1878BB1D26
S1135CF019783A687B1D1B783E1C0E360096BE6AE6
S1135D0001960295FFF7A4FF031C23703B1C0E337E
S1135D101B78002B04D03B1C0F331B78002B03D0C3
S1135D203B1C0F331B221A703B1C0F331B78181CAF
S1135D30BD4605B0F0BDC046A019002090B589B09D
S1135D4002AF78607B685B689A1D3B1C173312783E
S1135D501A707B685A683B1C1633D2791A707B68B8
S1135D605B6808333B617B685A683B1C0F331279CC
S1135D701A703B1C173318783B1C163319783A6990
S1135D803B1C0F331B787C680094FFF79BFF031CBC
S1135D90181CBD4607B090BD80B582B000AF7860D6
S1135DA0034B7A681A600023181CBD4602B080BDFC
S1135DB0A019002080B582B000AF021CFB1D1A7030
S1135DC0FB1D1B78181CFEF7C1FE031C181CBD46E6
S1135DD002B080BD80B58EB000AF78600A1CFB1C99
S1135DE01A7001F017F9031C3B63FB1C1B78002B92
S1135DF007D03B6B5B68BA4A101C191C00F08EFE7E
S1135E0006E03B6B5B68B74A101C191C00F086FE69
S1135E103A1C0C32B44B101C20211A1CFCF7B4FAA7
S1135E207B681B783A1C0C321BB2101C20211A1CF4
S1135E30FCF706FD3B6B5B683A1C0C32101C191C0A
S1135E4000F06CFE7B681B78002B27D03B6B5B68F3
S1135E50A64A101C191C00F061FE7B681B781A1CF2
S1135E600123134006D03B6B5B68A14A101C191C2C
S1135E7000F054FE7B681B781A1C0223134006D0E2
S1135E803B6B5B689B4A101C191C00F047FE3B6B84
S1135E905B68994A101C191C00F040FE3A1C0C3235
S1135EA0964B101C20211A1CFCF76EFA7B685B7859
S1135EB03A1C0C321BB2101C20211A1CFCF7C0FC2B
S1135EC03B6B5B683A1C0C32101C191C00F026FE5C
S1135ED03B6B5B688A4A101C191C00F01FFE7B6830
S1135EE05A683B1C2F3352781A7000237B6322E0DC
S1135EF03B1C0C3300221A707B685A687B6BD318E6
S1135F001B783A1C0C32101C20211A1CFCF7B6FC1E
S1135F103A1C0C327B4B101C20211A1CFCF758FA3B
S1135F203B6B5B683A1C0C32101C191C00F0F6FD2C
S1135F307B6B01337B633B1C2F331B789A1C7B6B7D
S1135F409A42D5DC3A1C0C326F4B101C20211A1CCF
S1135F50FCF71AFA3A1C0C323B1C2F331B78101C2A
S1135F6020211A1CFCF732FC3A1C0C32674B101C23
S1135F7020211A1CFCF72CFA7B685B6802331B781F
S1135F803A1C0C32101C20211A1CFCF777FC3B6BCA
S1135F905B683A1C0C32101C191C00F0BFFD3A1C43
S1135FA00C327B68101C20211A1CFFF7BFF93B6BD5
S1135FB05B683A1C0C32101C191C00F0AFFD3A1C33
S1135FC00C32534B101C20211A1CFCF7DDF97B68A2
S1135FD05B6803331B783A1C0C32101C20211A1CFA
S1135FE0FCF74CFC3B6B5B683A1C0C32101C191C14
S1135FF000F094FD3A1C0C32464B101C20211A1C54
S1136000FCF7C2F97B685A683B1C2E3312791A706C
S11360103A1C0C323B1C2E331B78101C20211A1CFA
S1136020FCF72CFC3A1C0C323B4B101C20211A1C94
