S02100004652444D2D4B3634465F426F6F746C6F616465725F546573742E7372656349
S113800000000320818B0000D98D000091890000BD
S113801091890000918900009189000091890000F4
S113802091890000918900009189000091890000E4
S113803091890000918900009189000091890000D4
S113804091890000918900009189000091890000C4
S113805091890000918900009189000091890000B4
S113806091890000918900009189000091890000A4
S11380709189000091890000918900009189000094
S11380809189000091890000918900009189000084
S11380909189000091890000918900009189000074
S11380A09189000091890000918900009189000064
S11380B09189000091890000918900009189000054
S11380C09189000091890000918900009189000044
S11380D09189000091890000918900009189000034
S11380E09189000091890000918900009189000024
S11380F09189000091890000918900009189000014
S11381009189000091890000918900009189000003
S113811091890000918900009189000091890000F3
S113812091890000918900009189000091890000E3
S113813091890000918900009189000091890000D3
S113814091890000918900009189000091890000C3
S113815091890000918900009189000091890000B3
S113816091890000918900009189000091890000A3
S11381709189000091890000918900009189000093
S11381809189000091890000918900009189000083
S10B81909189000091890000AF
S113820010B5054C237833B9044B13B10448AFF3CC
S113821000800123237010BD6000002000000000D6
S11382208490000008B5064B1BB106480649AFF31D
S113823000800648036813B1054B03B1984708BD95
S11382400000000084900000640000206000002012
S113825000000000154B002B08BF134B9D46A3F5EF
S1138260803A00218B460F461348144A121A00F034
S11382707DFE0F4B002B00D098470E4B002B00D0F7
S113828098470020002104000D000D48002802D06A
S11382900C48AFF3008000F043FE2000290000F0FA
S11382A089FB00F029FE00BF000008000000032045
S11382B00000000000000000600000209400002086
S11382C0000000000000000080B483B000AF7860BC
S11382D07B6883F311880C37BD465DF8047B7047D7
S11382E080B500AF4FF0E0231D4AC3F8082D1D4BA5
S11382F04CF22052DA811B4B4DF62812DA81194BCD
S11383004FF4E9721A80184B00221A70174B03F5C8
S1138310825304334FF0A2721A60002000F092F8E6
S1138320124B4FF4881203F5825304331A600F4B37
S11383300E4A126822F440214FF440220A431A6084
S11383400A490A4B03F5805304331B6823F4403273
S113835000231A4301F5805304331A6080BD00BF23
S1138360008000000020054000E007400070044049
S113837080B500AF0D490D4B03F5815318331B68CD
S113838043F4007201F5815318331A60084A084B0C
S11383901B6923F0807323F4E06343F4E063136107
S11383A000F008FDF020FFF78FFF80BD007004404F
S11383B00090044080B400AF214B1B78DBB203F083
S11383C0C003402B17D0802B20D0002B32D11C4B64
S11383D05B79DBB203F04003002B0AD1184B1B7806
S11383E0DBB203F00403002B01D1032323E00023B9
S11383F021E007231FE0124B5B78DBB203F002039A
S1138400002B01D1012316E0022314E00C4B5B790D
S1138410DBB203F04003002B0AD1094B5B78DBB2DB
S113842003F00203002B01D1042304E0052302E03E
S1138430062300E000231846BD465DF8047B704720
S11384400040064090B587B000AF0346FB71FA794F
S1138450AA491346DB009B1A9B000B441B88BB8272
S1138460BB8A03F0C003002B20D0A549A44B03F51D
S1138470815318331B6843F4007201F58153183398
S11384801A60A04A9F4B9B6C23F0807323F4E06333
S11384909364BB8A03F08003002B07D0994A994B5D
S11384A0DB6C23F0807323F4E063D364964B1B7A74
S11384B0DBB203F00E01FA7990481346DB009B1AF5
S11384C09B0003445B7A994200F082808E4B5B7878
S11384D0DBB203F00103002B16D18B498A4B1B7AC4
S11384E0DBB2DBB223F00E03D8B2FA79834C134625
S11384F0DB009B1A9B0023445B7ADBB202461343E6
S1138500DBB2DBB20B7263E07F4B1B78DBB203F0B0
S11385100103002B36D07C4B7B4A5278D2B222F036
S11385200102D2B25A7000BF774B9B79DBB203F0E1
S11385300103002BF8D17449734B1B7ADBB2DBB215
S113854023F00E03D8B2FA796C4C1346DB009B1A65
S11385509B0023445B7ADBB202461343DBB2DBB2FB
S11385600B72694B684A5278D2B242F00102D2B21D
S11385705A7000BF644B9B79DBB203F00103002BFC
S1138580F8D025E0604B604A5278D2B222F0010262
S1138590D2B25A705C495C4B1B7ADBB2DBB223F07B
S11385A00E03D8B2FA79554C1346DB009B1A9B0094
S11385B023445B7ADBB202461343DBB2DBB20B72B9
S11385C0514B514A5278D2B242F00102D2B25A709F
S11385D0FFF7F0FE0346FB82BB8A03F00F037B82A6
S11385E0FB8A03F00F01BB8A03F00F02474BC9005B
S11385F00A4433F81230FB82FB8A062B02D17B8AB1
S1138600072B09D0FB8A042B02D17B8A032B03D0CE
S1138610FA8A7B8A9A420DD1FA7938491346DB00EB
S11386209B1A9B00CA1807F10803033210685168AB
S113863003C30AE0FB8A03F00F02354B53F82220F0
S113864007F108031068516803C3FB8A072B00F283
S1138650548101A252F823F0798600007986000043
S1138660198700006D8700006D8700001D880000D9
S11386706788000067880000234B3A7A1A7000BFAD
S1138680214B9B79DBB203F01003002BF8D01E4B77
S11386907A7A22F04002D1B21B4A5278D2B202F066
S11386A04002D2B20A43D2B25A70174BBA7A22F0BD
S11386B01F02D1B2144AD278D2B202F01F02D2B24F
S11386C00A43D2B2DA70104B7A7B1A73114BFA7BDD
S11386D01A700D4BFA7A1A710B4B3A7B5A71BB8A9A
S11386E003F40073002B08D0074B074A1279D2B267
S11386F042F04002D2B21A7100E1FFE000900000A3
S1138700007004400090044000400640808F000048
S11387105C900000005006409A4B3A7A1A7000BFF1
S1138720984B9B79DBB203F01003002BF8D0954BE8
S11387307A7A22F04002D1B2924A5278D2B202F04E
S11387404002D2B20A43D2B25A708F4BFA7B1A70EB
S1138750BB8A03F02003002B07D000BF894B9B7911
S1138760DBB203F00103002BF8D0C7E0854B7A7A23
S113877022F04002D1B2834A5278D2B202F04002CF
S1138780D2B20A43D2B25A707F4BFA7B1A707D4B35
S11387907A7B1A73FB8A042B06D17A4B3A7A62F0FD
S11387A07F02D2B21A7002E0764B3A7A1A70BB8A10
S11387B003F08003002B07D000BF724B9B79DBB220
S11387C003F00203002BF8D000BF6E4B9B79DBB2A1
S11387D003F01003002BF8D16A4BBA7A22F01F027F
S11387E0D1B2684AD278D2B202F01F02D2B20A439E
S11387F0D2B2DA70634BFA7A1A71BB8A03F400734B
S1138800002B07D05F4B5F4A1279D2B242F040028C
S1138810D2B21A715B4B3A7B5A716FE0594B3A7A78
S11388201A70584B7A7A22F04002D1B2554A5278E3
S1138830D2B202F04002D2B20A43D2B25A70524BC0
S1138840FA7B1A704F4B7A7B1A73BB8A03F080034E
S1138850002B07D000BF4B4B9B79DBB203F0020324
S1138860002BF8D04AE0484BFA7B1A70454B7A7BD0
S11388701A73FB8A062B06D1424B3A7A62F07F02C6
S1138880D2B21A7002E03F4B3A7A1A703D4B7A7AB0
S113889022F04002D1B23B4A5278D2B202F04002F6
S11388A0D2B20A43D2B25A70BB8A03F00F03072B29
S11388B014D13449FA7935481346DB009B1A9B00DE
S11388C003449B790B712F49FA7930481346DB0036
S11388D09B1A9B000344DB794B7105E0294BFA7A20
S11388E01A71284B3A7B5A7100BF264B9B79DBB235
S11388F003F04003002BF8D000E000BFFB8A072BF5
S113890036D801A252F823F0298900003B890000DF
S11389103B890000298900004D8900004D89000031
S11389204D8900005F89000000BF164B9B79DBB2C4
S113893003F00C03002BF8D11AE000BF114B9B7914
S1138940DBB203F00C03042BF8D111E000BF0D4B94
S11389509B79DBB203F00C03082BF8D108E000BFCD
S1138960084B9B79DBB203F00C030C2BF8D100BF4E
S1138970FA8ABB8A03F00F039A427FF431AE1C37A4
S1138980BD4690BD004006400050064000900000E7
S1138990684620F007018D4681B400AFFFBEBD4696
S11389A081BC8546704700BF80B400AFBD465DF80A
S11389B0047B704780B500AFFFF7DAFC044B1B68FB
S11389C0184600F047F94FF4FA7000F07FFAF5E723
S11389D08800002080B48BB000AFF860B9607A6082
S11389E07B687B6204233B620323FB610223BB613C
S11389F001237B6101233B61FA68BB689A4202D080
S1138A007B68002B00D151E04DE0BA68FB6913404C
S1138A10002B19D1FA68FB691340002B14D17A6A30
S1138A203B6A9A4210D3FB68BA6812681A60FA6803
S1138A303B6A1344FB60BA683B6A1344BB607A6ABE
S1138A403B6AD31A7B622EE0BA687B691340002B21
S1138A5019D1FA687B691340002B14D17A6ABB6977
S1138A609A4210D3FB68BA6812881A80FA68BB6904
S1138A701344FB60BA68BB691344BB607A6ABB6980
S1138A80D31A7B620FE0FB68BA6812781A70FA682E
S1138A903B691344FB60BA683B691344BB607A6A60
S1138AA03B69D31A7B627B6A002BAED12C37BD465F
S1138AB05DF8047B704700BF90B583B000AF244BD2
S1138AC0002B00D140E000237B601EE020497A683F
S1138AD013465B0013449B000B4458681C497A6896
S1138AE013465B0013449B000B441968184C7A68C6
S1138AF013465B0013449B00234408331B681A4647
S1138B00FFF768FF7B6801337B6011497A6813467D
S1138B105B0013449B000B441B68002BD6D10C490B
S1138B207A6813465B0013449B000B445B68002B7C
S1138B30CCD107497A6813465B0013449B000B446D
S1138B4008331B68002BC1D10C37BD4690BD00BF54
S1138B500C91000080B400AF4FF0E0234FF0E0220E
S1138B60D2F8882D42F47002C3F8882DBD465DF812
S1138B70047B704780B400AFBD465DF8047B70474A
S1138B800B4C2046002800F00880854681B04FF049
S1138B9000006FEA0000009001B0FFF7DBFFFFF771
S1138BA09FFBFFF789FFFFF7E5FFFFF753FBFEE7A6
S1138BB00000032080B485B000AF7860184BFB60E0
S1138BC0FB687A681A601749164B03F5815318330A
S1138BD01B6843F4806201F5815318331A60124B09
S1138BE0114A526942F480025A610F4B0E4A1268CC
S1138BF022F480021A600D4A0C4B9B6D23F08073A3
S1138C0023F4E06343F480739365094BFA681A60B4
S1138C10FB6818461437BD465DF8047B704700BFF7
S1138C207C0000200070044040F00F4000A004408D
S1138C308800002080B483B000AF7860044B4FF408
S1138C4080025A600C37BD465DF8047B704700BF54
S1138C5040F00F4080B483B000AF7860044B4FF411
S1138C608002DA600C37BD465DF8047B704700BFB4
S1138C7040F00F4080B485B000AF7860184BFB60C3
S1138C80FB687A681A601749164B03F58153183349
S1138C901B6843F4005201F5815318331A60124BD8
S1138CA0114A526942F080625A610F4B0E4A1268AF
S1138CB022F080621A600D4A0C4B9B6E23F0807385
S1138CC023F4E06343F480739366094BFA685A60B3
S1138CD0FB6818461437BD465DF8047B704700BF37
S1138CE0800000200070044000F10F4000D00440D8
S1138CF08800002080B483B000AF7860044B4FF04C
S1138D0080625A600C37BD465DF8047B704700BF33
S1138D1000F10F4080B485B000AF7860184BFB6061
S1138D20FB687A681A601749164B03F581531833A8
S1138D301B6843F4806201F5815318331A60124BA7
S1138D40114A526942F400125A610F4B0E4A1268DA
S1138D5022F400121A600D4A0C4B5B6D23F08073F1
S1138D6023F4E06343F480735365094BFA689A6013
S1138D70FB6818461437BD465DF8047B704700BF96
S1138D80840000200070044040F00F4000A0044024
S1138D908800002080B483B000AF7860044B4FF4A7
S1138DA000125A600C37BD465DF8047B704700BF63
S1138DB040F00F4080B500AF0020FFF7FBFE00F04D
S1138DC019F80020FFF756FF00F01EF80020FFF707
S1138DD0A1FF00F023F880BD684620F007018D460E
S1138DE089B500AFFFF7E0FDBD46BDE88940854683
S1138DF0704700BF80B500AF024B1B681846FFF7F1
S1138E0019FF80BD8800002080B500AF024B5B686D
S1138E101846FFF76FFF80BD8800002080B500AFC3
S1138E20024B9B681846FFF7B5FF80BD8800002001
S1138E3000BF00BF00BF704701B4002000BF00BFE7
S1138E4000BF00BF00F1010009287FF6F7AF00BFA3
S1138E5000BF00BF00BF00BF00BF00BF01BC704720
S1138E6080B582B000AF0346FB8004E0FFF7E4FF67
S1138E70FB88643BFB80FB88642BF7D804E0FFF796
S1138E80D7FFFB880A3BFB80FB880A2BF7D80837FF
S1138E90BD4680BD80B582B000AF786008E04EF674
S1138EA06020FFF7DDFF7B68A3F56A43603B7B60CE
S1138EB07A684EF660239A42F1D87B689BB21846D2
S1138EC0FFF7CEFF0837BD4680BD00BF80B584B034
S1138ED000AF0346FB8045F2EB13FB6005E0F86846
S1138EE0FFF7D8FFFB88013BFB80FB88002BF6D102
S1138EF01037BD4680BD00BF08B5074B044613B10B
S1138F000021AFF30080054B1868836A03B19847CA
S1138F10204600F033F800BF0000000080900000FD
S1138F2070B50E4B0E4DED1AAD1000241E46AC422A
S1138F3004D056F8242090470134F8E700F0A2F852
S1138F40084D094BED1AAD1000241E46AC4204D066
S1138F5056F8242090470134F8E770BDA49000002F
S1138F60A4900000A8900000A490000002440346CE
S1138F70934202D003F8011BFAE77047FEE700BFF3
S1138F8000000100010003000400040004000400C8
S1138F9000000100020003000400040004000400B7
S1138FA001000100020001000100010001000100B4
S1138FB00000010001000300040004000400040098
S1138FC00000010001000300040005000600060083
S1138FD00400040004000400040005000600060068
S1138FE00400040004000400040005000600070057
S1138FF0060006000600060006000600060007003C
S113900010000006000000000000800000000C00BA
S11390100000000000001100000040010480000076
S113902000000200448000000000020044820000AE
S11390300000020030A4000000020200B0A40000FE
S11390400002020070A600000002020080A4000BCF
S11390505802020030A4000B580202001C900000C9
S1139060249000002C900000349000003C900000FC
S1139070449000004C900000549000004300000015
S113908000000020F8B500BFF8BC08BC9E4670473D
S10F9090F8B500BFF8BC08BC9E46704751
S10B909CB8F1FF7F01000000A0
S10790A4258200001D
S10790A8018200003D
S11390AC00000000000000000000000000000000B0
S11390BC00000000000000000000000000000000A0
S11390CC7C90000000000000000000000000000084
S11390DC0000000000000000000000000000000080
S11390EC0000000000000000000000000000000070
S11390FC0000000000000000000000000000000060
S113910CAC90000000000020600000000C910000F6
S113911C0000FF1F00000000000000000000000021
S107912C000000003B
S9038B81F0
