S01E00004652444D2D4B3634465F4E656F506978656C5F53444B2E73726563F1
S113000000000320E1040000F1040000F1040000FA
S1130010F1040000F1040000F104000000000000FD
S1130020000000000000000000000000F1040000D7
S1130030F104000000000000F1040000F1040000DD
S1130040F1040000F1040000DD090000F1040000E7
S1130050F1040000F1040000F1040000F1040000C8
S1130060F1040000F1040000F1040000F1040000B8
S1130070F1040000F1040000F1040000F1040000A8
S1130080F1040000F1040000F1040000F104000098
S11303F0F1040000F1040000F1040000FFFFFFFF1E
S1130400FFFFFFFFFFFFFFFFFFFFFFFFFEFFFFFFF9
S113041010B5054C237833B9044B13B10448AFF33A
S113042000800123237010BDB000FF1F00000000F6
S113043090460000084B10B51BB108480849AFF3BB
S113044000800848036803B910BD074B002BFBD09C
S1130450BDE81040184700BF0000000090460000AF
S1130460B400FF1FAC00FF1F00000000154B002B61
S113047008BF134B9D46A3F5803A00218B460F46D7
S11304801348144A121A02F067FB0F4B002B00D0DA
S113049098470E4B002B00D0984700200021040001
S11304A00D000D48002802D00C48AFF3008002F084
S11304B02DFB2000290000F011FC02F001FB00BF1D
S11304C000000800000003200000000000000000FD
S11304D0B000FF1F6001FF1F0000000000000000CB
S11304E072B602F0E5F902F07DF962B6FFF7BEFFDD
S11304F0FFF7FEBF80B483B000AF78600B46FB709B
S11305007B681B6823F01802FB78DB0003F01803F8
S11305101A437B681A600C37BD465DF8047B70474C
S113052080B483B000AF78607B6803F104735B012F
S11305301C331A46002313600C37BD465DF8047B58
S1130540704700BF80B483B000AF78600B467B80F7
S11305507B685B681B0C1B047A881A437B685A60AF
S11305600C37BD465DF8047B704700BF80B483B090
S113057000AF78600B467B807B689B681B0C1B0478
S11305807A881A437B689A600C37BD465DF8047B11
S1130590704700BF80B483B000AF78600B467B80A7
S11305A07B68DB6C1B0C1B047A881A437B68DA6457
S11305B00C37BD465DF8047B704700BF80B582B040
S11305C000AF78600B46FB701346BB70FB78072BBB
S11305D006D90B484FF4ED710A4A0B4B02F054FA5A
S11305E0FB780133DB007A681344043303F10473AA
S11305F05B011A46BB7813600837BD4680BD00BF57
S1130600003A000004420000283A000080B582B09D
S113061000AF78600B46FB70FB78072B06D90B48BC
S11306204FF4FF710A4A0B4B02F02EFAFB780133A8
S1130630DB007A681344043303F104735B01183359
S11306401A46012313600837BD4680BD003A0000F6
S11306501C420000283A000080B582B000AF7860E8
S11306600B46FB70FB78072B06D90B4840F2092197
S11306700A4A0B4B02F008FAFB780133DB007A6874
S11306801344043303F104735B0118331A46002343
S113069013600837BD4680BD003A000034420000B4
S11306A0283A000080B582B000AF78600B46FB703A
S11306B0FB78072B06D90B4840F222210A4A0B4B40
S11306C002F0E2F9FB780133DB007A681344043367
S11306D003F104735B011C331A46002313600837CB
S11306E0BD4680BD003A0000E8410000283A000001
S11306F080B582B000AF78600B46FB7013463B8038
S1130700FB78072B06D90D484FF40C710C4A0D4B9E
S113071002F0BAF9F878FB787A680133DB00134405
S11307209B681B0C1B043A881A437968431CDB0042
S11307300B449A600837BD4680BD00BF003A0000F4
S11307404C420000283A000090B587B002AFF86030
S1130750B9607A60FB70FB681B781B09DBB21A4630
S1130760084B53F82220FC7897F820300093104669
S1130770B9687A68234601F05FFA002318461437F3
S1130780BD4690BD5445000080B483B000AF78608E
S11307900B46FB707B6803F581530833FA785209E2
S11307A0D2B29200134403F10473DA00FB7803F02D
S11307B01F0313449B001A46012313600C37BD46E4
S11307C05DF8047B704700BF80B584B000AFF8606B
S11307D0B9601346FB71BB681F2B05D90D48FF2177
S11307E00D4A0E4B02F050F9FB68BA6853F82230F8
S11307F023F0807323F4E063FA79120202F4E062D6
S113080043EA0201FB68BA6843F822101037BD4678
S113081080BD00BF503A000064420000783A0000F6
S113082080B584B000AF78600B46FB70094A7B68E2
S113083052F82330FB60FB78002B04D0F8680121C8
S1130840FFF758FE03E0F8680021FFF753FE103766
S1130850BD4680BDF844000080B584B000AF786028
S1130860134A7B6852F82330BB60B8680021FFF755
S113087069FEB868FFF754FE0023FB7312E0FB7BAC
S1130880B8681946FFF70EFFFB7BB86819460122CA
S1130890FFF794FEFB7BB8681946FFF7B7FEFB7BB6
S11308A00133FB73FB7B022BE9D91037BD4680BDB6
S11308B0F844000080B584B000AF7860154A7B68C6
S11308C052F82330BB6078680021FFF7A9FFB868AD
S11308D00021FFF737FEB868FFF722FE0023FB7301
S11308E012E0FB7BB8681946FFF7B6FEFB7BB868DD
S11308F019460022FFF762FEFB7BB8681946FFF732
S1130900D1FEFB7B0133FB73FB7B022BE9D9103750
S1130910BD4680BDF844000090B58BB000AF786050
S11309202C4B07F114040FCB84E80F0000233B7316
S113093000237B730023BB7380233B61264A7B68BF
S113094052F823307B6207F10C037868194601F0F2
S11309500FFB7868002101F0A9FB7868002101F001
S113096087FB7B68DBB218460121002201F0BCFB47
S1130970786AFFF7D5FD07F11403786A1946002257
S113098000F052FD07F11403786A1946012200F0C1
S11309904BFD07F11403786A1946022200F044FD66
S11309A0786A0021FFF7F6FD786A4B21FFF7DEFD38
S11309B0786A00211022FFF79BFE786A01212A221F
S11309C0FFF796FE786A02214022FFF791FE2C374A
S11309D0BD4690BD843A0000F844000080B500AFE5
S11309E0022001F077FE80BD80B483B000AF786050
S11309F00B46FB70034B01221A700C37BD465DF8A1
S1130A00047B7047FC00FF1F90B599B002AFF860FB
S1130A10B9601346FB7107F11403203323F01F035D
S1130A207B65786D0021202202F096F8FC79012381
S1130A300093B868796DFA682346FFF785FEB868B5
S1130A40796D01F0ADFE5C37BD4690BD80B58CB0CC
S1130A5000AF786039600020FFF7FEFE002387F8BE
S1130A602F301DE097F82F309BB203F58A7399B2AB
S1130A7097F82F301B015B4A134497F82F20104638
S1130A801A4601F011FD034687F82E3097F82E30F0
S1130A90FF2B00D1FEE797F82F30013387F82F3072
S1130AA097F82F30022BDDD94F485049002201F02E
S1130AB0E7FC0023BB610023FB61002387F820309F
S1130AC0002387F8213000233B7400237B74012327
S1130AD07B623B689BB23B850023BB82444BBB607B
S1130AE0444BFB6000237B8207F1080318463D4911
S1130AF00022FFF789FF7B68BB603F4BFB6001234B
S1130B007B8207F1080318463C490022FFF77CFF6B
S1130B10374BBB603A4BFB6000237B8207F1080331
S1130B20184631490122FFF76FFF002387F82F3061
S1130B300CE097F82F301B012A4A1344184601F0A1
S1130B40EFFD97F82F30013387F82F3097F82F30C7
S1130B50022BEED92B4B00221A7000200121FFF743
S1130B605FFE284B1B78DBB283F00103DBB2002B62
S1130B70F7D10020FFF79EFE002387F82F300CE00A
S1130B8097F82F301B01174A1344184601F0E8FD6B
S1130B9097F82F30013387F82F3097F82F30022B36
S1130BA0EED9002387F82F3014E097F82F301B017B
S1130BB00C4A1344184601F035FD034687F82E30DD
S1130BC097F82E30002B00D0FEE797F82F30013332
S1130BD087F82F3097F82F30022BE6D93037BD46EF
S1130BE080BD00BFCC00FF1FEC00FF1FE90900001F
S1130BF0E5410000C4F00F40C0F00F40DC00FF1FCF
S1130C00C8F00F40FC00FF1F80B582B000AF012385
S1130C103B7100237B713B1D0348194601F0ACFB7B
S1130C200837BD4680BD00BF0001FF1F80B500AF7F
S1130C301D488921FFF7A8FD1B488A21FFF7A4FD61
S1130C4019488B21FFF7A0FD17488C21FFF79CFD65
S1130C5015488D21FFF798FD144B154A1A60154B62
S1130C604FF400421A60144800210122FFF7ACFD42
S1130C70124A124B5B6943F0010353610020FFF7F2
S1130C804BFE0F4801210422FFF79EFD0C48022170
S1130C900422FFF799FD0A4803210422FFF794FD7B
S1130CA0FFF7B2FF80BD00BF007004405401FF1F76
S1130CB080F0FA025801FF1F00C00440C0F00F404A
S1130CC000B0044080B500AFFFF7B0FF0020FFF78D
S1130CD0C3FD00200121FFF7A3FD80BD80B500AF57
S1130CE0FFF7F0FF02484821FFF7B0FEFAE700BF24
S1130CF00000FF1F80B483B000AF78600B46FB7028
S1130D007B6803F581530833FA785209D2B2920012
S1130D10134403F10473DA00FB7803F01F03134454
S1130D209B001A46012313600C37BD465DF8047B13
S1130D30704700BF80B582B000AF78607B68032B3A
S1130D4006D9094840F24631084A094B01F09CFE95
S1130D50084A7B6813441B7807481946FFF7CAFF03
S1130D600837BD4680BD00BF943A00007C420000B5
S1130D70903B0000784200000070044080B483B0CF
S1130D8000AF78600B46FB707B681B6823F007029A
S1130D90FB7803F007031A437B681A600C37BD46DF
S1130DA05DF8047B704700BF80B582B000AF786007
S1130DB00B46FB70FB78012B06D909484FF4AA7146
S1130DC0084A094B01F060FE7B6803F104735B0180
S1130DD014331A46FB7813600837BD4680BD00BF44
S1130DE0743C0000444300009C3C000080B582B089
S1130DF000AF78600B46FB701346BB70FB78072B83
S1130E0006D916484FF4D271154A164B01F03CFE30
S1130E10FB780133DB007A681344043303F1047371
S1130E205B0110331A46BB7803F001031360FB78AF
S1130E300133DB007A681344043303F104735B0168
S1130E4014331A46BB7803F00203002B14BF0123AA
S1130E500023DBB213600837BD4680BD743C00003C
S1130E602C430000A83C000080B582B000AF78603D
S1130E700B46FB701346BB70FB78072B06D9194849
S1130E804FF4D971184A194B01F0FEFDFB78013378
S1130E90DB007A681344043303F104735B01083301
S1130EA01A46BB7803F00103002B14BF012300236F
S1130EB0DBB21360FB780133DB007A68134404333C
S1130EC003F104735B010C331A46BB7803F002038D
S1130ED0002B14BF01230023DBB213600837BD4687
S1130EE080BD00BF743C000014430000A83C000017
S1130EF080B582B000AF78600B46FB707B685433DA
S1130F0003F104735B0108331B68002B06D1094805
S1130F104FF43871084A094B01F0B6FD7B6854332D
S1130F2003F104735B011A46FB7813600837BD466E
S1130F3080BD00BF743C000098420000D03C00001B
S1130F4080B483B000AF78600B46FB707B68583385
S1130F5003F104735B010C331A46FB7813600C37FE
S1130F60BD465DF8047B704780B582B000AF786001
S1130F700B46FB701346BB70FB78032B06D9114854
S1130F8040F26531104A114B01F07EFDBB78002B15
S1130F900AD07B685A6EFB78DB00194620238B400D
S1130FA01A437B685A660AE07B685A6EFB78DB005A
S1130FB0194620238B40DB431A407B685A66083766
S1130FC0BD4680BD743C0000BC420000EC3C000007
S1130FD080B582B000AF78600B46FB701346BB70DF
S1130FE0FB78032B06D9114840F29231104A114B79
S1130FF001F04AFDBB78002B0AD07B685A6EFB785F
S1131000DB00194604238B401A437B685A660AE0C6
S11310107B685A6EFB78DB00194604238B40DB4364
S11310201A407B685A660837BD4680BD743C000090
S1131030F4420000EC3C000080B582B000AF786060
S11310400B46FB701346BB70FB78032B06D9114883
S113105040F2B131104A114B01F016FDBB78002B60
S11310600AD07B685A6EFB78DB00194601238B405B
S11310701A437B685A660AE07B685A6EFB78DB0089
S1131080194601238B40DB431A407B685A660837B4
S1131090BD4680BD743C000058430000EC3C000099
S11310A080B483B000AF78600B46FB707B688C33F0
S11310B003F104735B0150331A46FB7813600C3759
S11310C0BD465DF8047B704780B483B000AF7860A0
S11310D00B46FB707B688C3303F104735B014C3368
S11310E01A46FB7813600C37BD465DF8047B7047E5
S11310F080B483B000AF78600B46FB707B688C33A0
S113110003F104735B0148331A46FB7813600C3710
S1131110BD465DF8047B704780B483B000AF78604F
S11311200B46FB707B688C3303F104735B0144331F
S11311301A46FB7813600C37BD465DF8047B704794
S113114080B483B000AF78600B46FB707B688C334F
S113115003F1047302335B011A46FB7813600C3706
S1131160BD465DF8047B704780B483B000AF7860FF
S11311700B46FB707B688C3303F104735B013033E3
S11311801A46FB7813600C37BD465DF8047B704744
S113119080B483B000AF78600B46FB707B688C33FF
S11311A003F104735B012C331A46FB7813600C378C
S11311B0BD465DF8047B704780B483B000AF7860AF
S11311C00B46FB707B688C3303F104735B0128339B
S11311D01A46FB7813600C37BD465DF8047B7047F4
S11311E080B483B000AF78600B46FB707B688C33AF
S11311F003F104735B0124331A46FB7813600C3744
S1131200BD465DF8047B704780B483B000AF78605E
S11312100B46FB707B688C3303F1047301335B0171
S11312201A46FB7813600C37BD465DF8047B7047A3
S113123080B483B000AF78600B46FB707B688C335E
S113124003F104735B011C331A46FB7813600C37FB
S1131250BD465DF8047B704780B483B000AF78600E
S11312600B46FB707B688C3303F104735B0114330E
S11312701A46FB7813600C37BD465DF8047B704753
S113128080B483B000AF78600B46FB707B688C330E
S113129003F104735B0110331A46FB7813600C37B7
S11312A0BD465DF8047B704780B483B000AF7860BE
S11312B00B46FB707B688C3303F104735B010833CA
S11312C01A46FB7813600C37BD465DF8047B704703
S11312D080B582B000AF786078680121FFF708FE1E
S11312E078680121FFF74AFD0837BD4680BD00BF7D
S11312F080B584B000AF786039603B6803F0F003D8
S1131300002B05D145483D21454A464B01F0BCFB25
S11313100023FB6078680121FFF78AFF78680121C8
S1131320FFF7C2FF78680121FFF7AAFF786801215F
S1131330FFF792FF78680121FFF702FE0023FB60AC
S113134009E0FB68DBB2786819460122FFF70CFE5E
S1131350FB680133FB60FB68032BF2D93B6803F0A5
S11313608003002B13D078680121FFF74DFF7868C4
S11313700121FFF735FF78680121FFF709FF78683D
S11313800121FFF7F1FE78680121FFF715FF3B68A3
S113139003F07003002B3DD078680121FFF7D0FEE5
S11313A078680121FFF7B8FE78680121FFF78CFE09
S11313B078680121FFF774FE78680121FFF798FE31
S11313C03B6803F01003002B08D07B68583303F10B
S11313D004735B0110331A46012313603B6803F066
S11313E02003002B08D07B68583303F104735B019E
S11313F014331A46012313603B6803F04003002BA7
S113140008D07B68583303F104735B0118331A4620
S1131410012313601037BD4680BD00BF203D00008E
S1131420A84200004C3D000080B586B000AFF860D3
S1131430B9601346FB71FB79184600F0A5F8034622
S1131440FB75FB7DF86819460022FFF7C1FDBB68F8
S11314505B78002B01D0012300E00223FA79F868BD
S113146011461A46FFF700FDBB681B78032B14D006
S1131470042B1DD0022B26D1FB7DF86819460022CF
S1131480FFF7DAFDF8680021FFF78EFCFB79F868B6
S113149019460222FFF7AAFC1BE0FB7DF8681946F7
S11314A00022FFF7C9FDF8680121FFF77DFC10E079
S11314B0F8680021FFF778FCFB7DF86819460122E3
S11314C0FFF7BAFD05E004488A21044A044B01F001
S11314D0DBFA1837BD4680BD203D0000DC42000029
S11314E0B43D000080B483B000AF78607B68002214
S11314F01A607B6800225A607B6800229A607B68CD
S11315000022DA647B6800221A657B6804225A652B
S11315107B6800229A657B680022DA657B6800227A
S11315201A667B6800225A667B6800229A667B688A
S11315300022DA667B6800221A677B6800225A67F9
S11315407B6800229A677B680022DA677B68002246
S1131550C3F884207B680022C3F888207B680022BB
S1131560C3F88C207B680022C3F890207B6800229B
S1131570C3F894207B680022C3F898200C37BD463A
S11315805DF8047B704700BF80B483B000AF0346AE
S1131590FB71FB79002B02D0FB79012B01D10023D5
S11315A010E0FB79022B02D0FB79032B01D101233C
S11315B008E0FB79042B02D0FB79052B01D102232F
S11315C000E0032318460C37BD465DF8047B7047E2
S11315D080B582B000AF786039607B68002B06D19B
S11315E0064840F2E231064A064B01F04DFA7B68A8
S11315F03A681A600837BD4680BD00BFE03D000070
S113160000440000083E000080B582B000AF78605E
S11316100B467B807B68002B06D1064840F2F131F3
S1131620054A064B01F030FA7A887B689A800837BD
S1131630BD4680BDE03D000034440000083E00008B
S113164080B582B000AF786039607B68002B06D12A
S1131650064840F23141064A064B01F015FA3A6851
S11316607B68DA600837BD4680BD00BFE03D0000FE
S11316706C440000083E000080B582B000AF786082
S113168039607B68002B06D1064840F23D41064A8A
S1131690064B01F0F9F97B683A681A610837BD46D0
S11316A080BD00BFE03D000018440000083E00007B
S11316B080B582B000AF78600B467B807B68002BDE
S11316C006D1064840F24C41054A064B01F0DCF9CC
S11316D07A887B689A820837BD4680BDE03D000069
S11316E050440000083E000080B582B000AF78602E
S11316F039607B68002B06D1064840F25D41064AFA
S1131700064B01F0C1F97B683A689A610837BD4617
S113171080BD00BFE03D00008C440000083E000096
S113172080B582B000AF78600B46FB707B68002BFD
S113173006D10B4840F2B2410A4A0B4B01F0A4F91E
S11317407B689B8B23F008039AB2FB789BB2DB0087
S11317509BB213439AB27B689A830837BD4680BD17
S1131760E03D0000C4440000083E000080B582B0A3
S113177000AF78600B46FB707B68002B06D10B48EA
S113178040F2D4410A4A0B4B01F07EF97B689B8BF3
S113179023F002039AB2FB789BB25B009BB2134323
S11317A09AB27B689A830837BD4680BDE03D00004D
S11317B0AC440000083E000080B584B000AF7860FF
S11317C07B6803F104735B0118331A46002313602A
S11317D07B6803F104735B0144331A4600231360EE
S11317E07B6803F1047302335B011A460023136020
S11317F07B6803F104735B0104331A46002313600E
S11318007B6803F104735B011C331A4600231360E5
S11318107B6803F104735B0108331A4600231360E9
S11318200023FB6006E07868F96800F039F8FB688B
S11318300133FB60FB680F2BF5D91037BD4680BD23
S113184080B483B000AF78600B46FB701346BB7066
S1131850FB78002B03D07B68BA785A7602E07B6869
S1131860BA781A760C37BD465DF8047B704700BF22
S113187080B483B000AF78600B46FB701346BB7036
S1131880BB78002B03D07B68FA78DA7602E07B68B9
S1131890FA789A760C37BD465DF8047B704700BF32
S11318A080B483B000AF786039607A683B68803375
S11318B05B01134400221A607A683B6880335B0141
S11318C0134400229A807A683B6880335B01134496
S11318D00022DA807A683B685B01134403F5805385
S11318E0083300221A607A683B685B01134403F5ED
S11318F08053083300225A607A683B685B011344C2
S113190003F58053103300221A607A683B685B0148
S1131910134403F58053103300229A807A683B689D
S11319205B01134403F5805310330022DA807A6894
S11319303B685B01134403F58053183300221A609B
S11319407A683B685B01134403F580531833002223
S11319509A807A683B685B01134403F5805318331B
S11319600022DA800C37BD465DF8047B704700BF67
S113197080B582B000AF7860084611461A46034627
S1131980FB700B46BB7013467B707B68002B06D143
S113199013484FF4E671134A134B01F075F8FB78C2
S11319A09BB2DB029AB2BB789BB2DB009BB2DBB288
S11319B09BB213439AB27B789BB21B029BB203F493
S11319C0E0639BB213439AB23B7C9BB203F00703E0
S11319D09BB213439AB27B68DA800837BD4680BD58
S11319E0103E000078430000083E000080B584B03B
S11319F000AFF860B9607A60BB68002B06D111486B
S1131A004FF4ED71104A114B01F03EF8FB6803F1FD
S1131A1004735B011C331B68002B0CD0BB689B68F0
S1131A2023F47F7323F003037A68C2F309021A4391
S1131A30BB689A6002E0BB687A689A601037BD465A
S1131A4080BD00BF103E000094430000083E00002B
S1131A5080B582B000AF786039607B68002B06D116
S1131A60284840F23D21284A284B01F00DF87B68B4
S1131A70DB8B9BB21BB2002B20DA7B68DB8B23F45D
S1131A80FF7323F001039AB23B689BB2C3F30803CC
S1131A909BB213439AB27B68DA837B68DB8A23F4B4
S1131AA0FF7323F001039AB23B689BB2C3F30803AC
S1131AB09BB213439AB27B68DA821FE07B68DB8BAC
S1131AC023F4FF4323F07F039AB23B689BB2C3F332
S1131AD00E039BB213439AB27B68DA837B68DB8A7A
S1131AE023F4FF4323F07F039AB23B689BB2C3F312
S1131AF00E039BB213439AB27B68DA820837BD4661
S1131B0080BD00BF103E0000AC430000083E000052
S1131B1080B584B000AFF860B9607A60BB680F2B01
S1131B2006D9414840F25721404A414B00F0ACFFEE
S1131B307B68002B06D13C484FF416713B4A3D4B61
S1131B4000F0A2FF7B681A68F968BB6880335B0108
S1131B500B441A607B689988FA68BB6880335B0120
S1131B6013440A469A807B68D988FA68BB68803334
S1131B705B0113440A46DA807B689A68F968BB689B
S1131B805B010B4403F5805308331A607B68DA6801
S1131B90F968BB685B010B4403F5805308335A6052
S1131BA07B681A69F968BB685B010B4403F58053D1
S1131BB010331A607B68998AFA68BB685B01134426
S1131BC003F5805310330A469A807B68D98AFA68F1
S1131BD0BB685B01134403F5805310330A46DA8073
S1131BE07B689A69F968BB685B010B4403F5805311
S1131BF018331A607B68998BFA68BB685B011344DD
S1131C0003F5805318330A469A807B68D98BFA68A7
S1131C10BB685B01134403F5805318330A46DA802A
S1131C201037BD4680BD00BF103E0000C843000011
S1131C303C3E0000083E000090B587B002AFF8605B
S1131C40B9607A60FB70BB68002B06D12B4840F268
S1131C5071212B4A2B4B00F017FF7B681B68B86877
S1131C601946FFF7B5FC7B685B68B8681946FFF74F
S1131C7003FD7B685B891BB2B8681946FFF7C4FC97
S1131C807B689B891BB2B8681946FFF711FD7B6816
S1131C90197E7B685A7E7B681C7A7B685B7A00932A
S1131CA0B8682346FFF764FE7B681B69B868194669
S1131CB0FFF7C6FC7B685B69B8681946FFF714FD3B
S1131CC07B68DB69F868B9681A46FFF78FFE7B68A2
S1131CD01B8CB8681946FFF7BBFEFB78B868194639
S1131CE0FFF744FD97F82030B8681946FFF718FD50
S1131CF0002318461437BD4690BD00BF103E0000B7
S1131D00E0430000083E000080B485B000AF786076
S1131D100023FB6018E07A68FB68134403F1047342
S1131D205B011C3300221A707A68FB6813441B7829
S1131D30DBB223F03F03D9B27A68FB6813440A4646
S1131D401A70FB680133FB60FB680F2BE3DD14376B
S1131D50BD465DF8047B704780B483B000AF034692
S1131D60FB71084997F907305B09FA7902F01F0201
S1131D70012000FA02F241F823200C37BD465DF839
S1131D80047B704700E100E080B483B000AF0346F9
S1131D90FB71094997F907305B09FA7902F01F02D0
S1131DA0012000FA02F2603341F823200C37BD46CB
S1131DB05DF8047B704700BF00E100E080B483B0AD
S1131DC000AF78600B46FB707B681B6823F007024A
S1131DD0FB7803F007031A437B681A600C37BD468F
S1131DE05DF8047B704700BF80B483B000AF7860B7
S1131DF07B6803F104735B0118331A4601231360F3
S1131E000C37BD465DF8047B704700BF80B483B0D7
S1131E1000AF78607B6803F104735B0118331A46E2
S1131E20002313600C37BD465DF8047B704700BF88
S1131E3080B483B000AF78607B68543303F10473DB
S1131E405B011C331A46012313600C37BD465DF851
S1131E50047B704780B483B000AF78607B685433F0
S1131E6003F104735B011C331A46002313600C371F
S1131E70BD465DF8047B704780B483B000AF7860E2
S1131E800B46FB70FB78002B09D07B68743303F19D
S1131E9004735B0118331A460123136008E07B685E
S1131EA0543303F104735B0108331A4601231360AE
S1131EB00C37BD465DF8047B704700BF80B483B027
S1131EC000AF78600B46FB707B68D3F8843023F056
S1131ED0C002FB789B01DBB21A437B68C3F8842001
S1131EE00C37BD465DF8047B704700BF80B483B0F7
S1131EF000AF78600B46FB707B68D3F8843023F026
S1131F001F02FB7803F01F031A437B68C3F8842085
S1131F100C37BD465DF8047B704700BF80B582B0C6
S1131F2000AF0346FB7197F90730002B05DA0C4824
S1131F305D210C4A0C4B00F0A7FD97F90730552B97
S1131F4005DD07485E21074A084B00F09DFD97F91F
S1131F5007301846FFF700FF0837BD4680BD00BFB5
S1131F60043F00002C450000383F0000483F0000BB
S1131F7080B586B000AF786039607B68032B05D9E3
S1131F8034483921344A354B00F07EFD344A7B68AD
S1131F9052F82330002B05D12E483A212E4A314BDA
S1131FA000F072FD2E4A7B6852F823303B612E4AC2
S1131FB07B6852F82330FB737868FEF7BBFE386900
S1131FC0FFF790FA00237B6110E03A697B690133E3
S1131FD0DB00134400225A603A697B690133DB0059
S1131FE0134400229A607B6901337B61FA7B7B692D
S1131FF09A42EADC3869FFF76BF93B685B68386939
S11320001946FFF775F93B681B7838691946FFF7DD
S11320106DFF3B689B7838691946FFF72DFF3B68D5
S11320205B7838691946FFF749FF104A7B68134407
S11320301B785BB21846FFF7A7FE0C4A7B68134473
S11320401B785BB21846FFF769FF00231846183760
S1132050BD4680BD743F00001C450000A83F000041
S1132060F8440000C83F00000C450000084500008B
S113207080B582B000AF78600B46FB70FB78002B14
S113208007D0094A7B6852F823301846FFF7D0FE80
S113209006E0054A7B6852F823301846FFF7DAFE5B
S11320A00837BD4680BD00BFF844000080B582B04B
S11320B000AF78600B46FB70FB78002B07D0094A11
S11320C07B6852F823301846FFF78EFE06E0054A77
S11320D07B6852F823301846FFF798FE0837BD4650
S11320E080BD00BFF844000080B582B000AF034655
S11320F0FB710B46BB7113467B71FB79032B06D92D
S11321000F484FF48D710F4A0F4B00F0BDFCBB79A3
S1132110002B06D10A4840F21B110A4A0B4B00F06F
S1132120B3FCFB790A4A52F823207B7910461946FE
S1132130FFF744FE074ABB7913700837BD4680BDDC
S1132140743F000040450000A83F00000440000028
S1132150F84400004001FF1F80B483B000AF034681
S1132160FB71084997F907305B09FA7902F01F02FD
S1132170012000FA02F241F823200C37BD465DF835
S1132180047B704700E100E080B483B000AF786066
S11321900B46FB707B6803F104735B0110331A4632
S11321A0FB7813600C37BD465DF8047B704700BFB5
S11321B080B483B000AF78600B46FB707B6803F19A
S11321C004735B0108331A46FB7813600C37BD4671
S11321D05DF8047B704700BF80B483B000AF7860C3
S11321E00B46FB707B68FA781A770C37BD465DF8AE
S11321F0047B704780B483B000AF78600B46FB70FB
S11322007B68FA78DA770C37BD465DF8047B704753
S113221080B584B000AFF860B9601346FB71BB6849
S11322200F2B05D908485921084A094B00F02CFC0A
S1132230FA68BB68134403F104735B011C33FA7935
S11322401A701037BD4680BDE4400000A045000070
S11322501041000080B584B000AFF860B960134647
S1132260FB71BB680F2B05D90D4878210D4A0E4B25
S113227000F00AFCFA68BB6813441B78DBB223F055
S11322803F03DAB2FB7903F03F03DBB21343D9B265
S1132290FA68BB6813440A461A701037BD4680BDFD
S11322A0E4400000844500001041000080B483B085
S11322B000AF78600B46FB707B6803F581530833ED
S11322C0FA785209D2B29200134403F10473DA008B
S11322D0FB7803F01F0313449B001A460123136089
S11322E00C37BD465DF8047B704700BF80B582B0F3
S11322F000AF78600348C121FFF7D8FF0837BD4617
S113230080BD00BF0070044080B582B000AF78602B
S11323100348A121FFF7CAFF0837BD4680BD00BFAF
S11323200070044080B582B000AF0346FB7197F99A
S11323300730002B05DA0C485D210C4A0C4B00F0E9
S1132340A3FB97F90730552B05DD07485E21074AA3
S1132350084B00F099FB97F907301846FFF7FCFE8D
S11323600837BD4680BD00BF3C41000070450000F9
S1132370704100008041000080B588B000AF7860F3
S113238039603A4B1B68002B01D0002369E0374ABF
S11323907B681360354B1B6818460021402200F00F
S11323A0DBFB0023FB6144E0314AFB6952F8233034
S11323B07B61F869FFF79AFF7869FFF7FDF93B68DD
S11323C01B7878691946FFF7F3FE3B685B78002BAE
S11323D014BF01230023DBB283F00103DBB203F05B
S11323E00103DBB278691946FFF7CEFE214AFB6987
S11323F013441B78FB7497F913301846FFF792FFC8
S11324000023BB610FE01C49FB691A01BB6913443B
S11324100B441B78FB7497F913301846FFF782FFBF
S1132420BB690133BB61BB690F2BECD9FB69013379
S1132430FB61FB69002BB7D00023FB610DE00F4A61
S1132440FB6952F82330FB60F869FFF75DFFF86819
S1132450FFF75AFCFB690133FB61FB69002BEED0EB
S1132460002318462037BD4680BD00BF4401FF1F2E
S1132470544500006C4500005C45000058450000D0
S113248080B485B000AFF860B9607A60FB68BA6860
S11324905A60FB687A689A60002318461437BD4670
S11324A05DF8047B704700BF80B586B000AF03467B
S11324B03A60FB710B46BB80FB79FE2B42D10023B3
S11324C07B61BB881B0A9BB2FB6036E07B690122FF
S11324D09A40FB681340002B24D07B691B013B61AD
S11324E01AE0264B1B683A6953F82230002B10D1AE
S11324F0224B1B683A69396843F822103B69DAB207
S1132500BB88104619463A6800F03AF83B69DBB2DA
S11325102FE03B6901333B617B6901331A013B695D
S11325209A42DED87B69012202FA03F3DB43FA689C
S11325301340FB607B6901337B61FB68002BC5D1D1
S1132540FF2316E00D4B1B68FA7953F82230002B59
S11325500ED10A4B1B68FA79396843F82210FA79CC
S1132560BB88104619463A6800F00AF8FB7900E087
S1132570FF2318461837BD4680BD00BF4401FF1F26
S113258080B588B000AF03463A60FB710B46BB8050
S1132590BB88FB77FB791B09DBB21A461F4B53F848
S11325A02230BB61FB7903F00F037B61FB791B09CC
S11325B0DBB21A461A4B53F822303B61FB7903F025
S11325C00F03FB6038680021102200F0C5FA3B6855
S11325D0FA791A707B69DBB2B86901211A46FFF7F0
S11325E02FF93869F9680022FFF712FEFB7F03F028
S11325F03F03DBB23869F9681A46FFF72BFE3869E6
S1132600F9680122FFF704FEB8697969FFF748F910
S1132610002318462037BD4680BD00BF5445000046
S11326205845000080B586B000AF78607B681B78A1
S11326307B617B691B09144A52F823303B617B6937
S113264003F00F03FB60114B1B687A6953F82230C7
S1132650002B01D1012312E0FB68DBB23869194673
S11326600022FFF705F978680021102200F074FABF
S1132670064B1B687A69002143F822100023184690
S11326801837BD4680BD00BF544500004401FF1FFC
S113269080B584B000AF0346FB71FB791B09DBB244
S11326A01A460B4B53F82230FB60FB7903F00F03FF
S11326B0BB60BB68DBB2F8681946FFF78DFDBB68E9
S11326C0DBB2F8681946FFF795FD1037BD4680BDAB
S11326D05445000080B584B000AF0346FB710F4B36
S11326E01B68FA7953F82230FB60FB68002B00D199
S11326F011E0FB791846FFF7CBFFFB685B68002B02
S113270009D0FB685B68FA689168FA68127BD2B2F8
S11327100846114698471037BD4680BD4401FF1F47
S113272080B586B000AF78607B681B787B617B697D
S11327301B090A4A52F823303B617B6903F00F03FB
S1132740FB60FB68DBB2386919460122FFF790F899
S1132750002318461837BD4680BD00BF544500000D
S113276080B586B000AF78607B681B787B617B693D
S11327701B090A4A52F823303B617B6903F00F03BB
S1132780FB60FB68DBB2386919460022FFF770F87A
S1132790002318461837BD4680BD00BF54450000CD
S11327A080B586B000AF786039607B681B787B6148
S11327B07B691B090A4A52F823303B617B6903F0A9
S11327C00F03FB603869F968FFF76AF83869F9683C
S11327D03A68FFF79DF9002318461837BD4680BDB7
S11327E05445000080B489B000AF284BFB60284AF0
S11327F0284B9A4216D00023FB610AE0254AFB6964
S113280052F823202249FB6941F82320FB69013354
S1132810FB61FB689A08FB699A42EFD81E4B1C4A7D
S11328209A6002E01C4B1B4A9A601C4BBB611C4B18
S11328307B611C4BBB60BA687B69D31AFB6107E000
S1132840BB695A1CBA617A69511C796112781A7091
S1132850FB695A1EFA61002BF2D1134B3B61134BF7
S11328607B607A683B69D31AFB6104E03B695A1CBC
S11328703A6100221A70FB695A1EFA61002BF5D1E5
S11328802437BD465DF8047B704700BF000000009C
S1132890000000000000000000ED00E00000FF1F49
S11328A0B846000068470000B000FF1F6001FF1F2A
S11328B080B400AF6A4A6A4BD3F8883043F470039B
S11328C0C2F88830674B4CF22052DA81654B4DF6E2
S11328D02812DA81634B4FF4E9721A80624B1B7839
S11328E0DBB203F00103002B0FD0604B9B78DBB20B
S11328F003F00803002B2ED05C4A5C4B9B78DBB2C0
S113290043F00803DBB2937025E05949584B03F5B3
S113291081531C331B6843F0005201F581531C336F
S11329201A60544B1B6903F48073002B13D1514A72
S1132930504B1B6923F47C5343F4407313614D4A99
S11329404C4B1B6943F4807313614A4A494B1B691E
S113295023F400731361484B2A221A70444B03F585
S1132960825304334FF08A721A60414A404B1B6809
S113297023F4402343F4002313603D493C4B03F507
S1132980805304331B6823F4403343F4803201F54D
S1132990805304331A603649354B03F58153183399
S11329A01B6843F4007201F5815318331A60334AEB
S11329B0324B9B6C23F0807323F4E0639364304BBD
S11329C000221A722E4A2E4B5B78DBB223F060038E
S11329D0DBB243F02003DBB253702A4B80221A701F
S11329E0274B00221A73264BBA221A7000BF244BBD
S11329F09B79DBB203F01003002BF8D1204A204B63
S1132A00DB78DBB203F01F03DBB2D3701C4B132261
S1132A101A711B4B18225A71194A194B5B79DBB294
S1132A2043F04003DBB2537100BF154B9B79DBB21B
S1132A3003F04003002BF8D0114A114B1B78DBB292
S1132A4003F03F03DBB2137000BF0D4B9B79DBB285
S1132A5003F00C030C2BF8D1BD465DF8047B7047E2
S1132A6000ED00E00020054000F0074000D00740E2
S1132A700070044000D0034000E007400090044090
S1132A8000400640005006401FB50546084800684F
S1132A90C06812B9074C224600E0074C02928DE848
S1132AA012001A4605492B4600F01EF800F08CFC73
S1132AB0A800FF1FF4450000B9450000C64500000A
S1132AC008B5074B044613B10021AFF30080054B52
S1132AD01868836A03B19847204600F08FFF00BF4F
S1132AE000000000F84500000EB403B5014603AB36
S1132AF0054853F8042B0068019300F0F7F802B07E
S1132B005DF804EB03B07047A800FF1F70B50E4BCF
S1132B100E4CE41AA41000251E46A54204D056F813
S1132B20253098470135F8E701F0B2FD084C094B10
S1132B30E41AA41000251E46A54204D056F82530F8
S1132B4098470135F8E770BDB0460000B046000074
S1132B50B4460000B046000002440346934202D04B
S1132B6003F8011BFAE7704730B500293DD051F84E
S1132B70042C0B1F1D49002AB8BF9B180A680C4679
S1132B8012B95A600B6030BD93420DD219685818BF
S1132B90904201BF5A5852181A6042685A60236022
S1132BA030BD994203D80A4651680029F9D1146806
S1132BB015199D420AD11B682344D018884213601A
S1132BC013D10868034413604B680DE002D90C2349
S1132BD0036030BD1C681819884204BF086849683E
S1132BE0596004BF00191860536030BD4C01FF1FC9
S1132BF070B5CC1C24F0030408340C2C38BF0C240E
S1132C00002C064603DA0C233360002070BD8C428E
S1132C10F9D3204A136810461946A1B10A68121B59
S1132C200ED40B2A03D90A608B188C501FE08B42F8
S1132C300DBF5A684A685A60026018BF0B4616E016
S1132C400B464968E9E7144D2B681BB9304600F080
S1132C50EBFA28603046214600F0E6FA421C0346AF
S1132C60D1D0C51C25F0030585420AD11C6003F1AF
S1132C700B001A1D20F00700821A0AD05142995005
S1132C8070BD3046E91A00F0CFFA0130BBD02B46B4
S1132C90ECE770BD4C01FF1F4801FF1F9368013B27
S1132CA0002B10B5936009DA9469A34202DBCBB21E
S1132CB00A2B03D1BDE8104000F0C6BA1368581CB3
S1132CC010601970C8B210BDF8B506460F46144618
S1132CD0D518AC4208D0304614F8011B3A46FFF729
S1132CE0DDFF431CF5D100E00020F8BD2DE9F043E1
S1132CF09DB00D4690460393064618B183690BB9FF
S1132D0000F058FC754B9D4201D1756808E0744B86
S1132D109D4201D1B56803E0724B9D4208BFF5683E
S1132D20AB891C070AD52B6943B1002309932023DF
S1132D308DF8293030238DF82A3041E03046294679
S1132D4000F0D6FA0028F0D04FF0FF30C2E0039A2A
S1132D50111D12680391002ABBBF524243F00203C3
S1132D6007920792B8BF0493013423782E2B7BD0AB
S1132D70DFF8808121784046032200F0F1FC38B16D
S1132D80049AC8EB000040238340134304930134A6
S1132D90217855488DF82810062204F1010800F026
S1132DA0DFFC002800F08580504B002B78D1039B7A
S1132DB0073323F0070308330393099B3B44099328
S1132DC043461C4613F8012B1AB9B4EB08090ED07C
S1132DD002E0252AF5D1F8E73046294642464B461B
S1132DE0FFF772FF013070D0099B4B44099323789D
S1132DF0002B6AD000234FF0FF320493079305920F
S1132E0006938DF853301A9304F101084446DFF811
S1132E10E89021784846052200F0A2FC08F1010858
S1132E20049B30B1C9EB0000012282401343049398
S1132E30ECE7D80644BF20228DF85320190744BF7D
S1132E402B228DF8532022782A2A80D007992346F2
S1132E501C4601332278303A092A03D80A2000FBA1
S1132E600121F5E7079180E763782A2B0AD1039BB8
S1132E701A1D1B680392002BB8BF4FF0FF330234B6
S1132E80059375E7611C00220C4601312378303B21
S1132E90092B03D80A2000FB0232F5E7059267E705
S1132EA003AB0093304604A92A46114BAFF30080CC
S1132EB007E003AB0093304604A92A460C4B00F00C
S1132EC093F8421C07467FF478AFAB895B063FF565
S1132ED03BAF09981DB0BDE8F08300BF3046000049
S1132EE05046000070460000064600000000000046
S1132EF0C92C000002460000FC4500002DE9F843FF
S1132F0091461F468A680B69DDF820809342B8BF5A
S1132F101346C9F8003091F8432006460C4612B116
S1132F200133C9F800302368990642BFD9F800304C
S1132F300233C9F80030256815F006051CD094F852
S1132F4043302268003318BF012392061FD5E118CD
S1132F505A1C302081F84300224494F8451082F82A
S1132F604310023313E03046394604F119020123B9
S1132F70C047013007D00135E368D9F800209B1A17
S1132F809D42F0DBDBE74FF0FF30BDE8F8833046CD
S1132F90394604F14302C0470130F4D02268D9F81D
S1132FA00050E36802F00602042A08BF5D1B226990
S1132FB0A3680CBF25EAE57500259342C4BF9B1A9C
S1132FC0ED184FF00009A9450ADA3046394604F1F4
S1132FD01A020123C0470130D5D009F10109F2E7F3
S1132FE00020BDE8F88300002DE9FF410C46174698
S1132FF0227E6E2A984606460A9B01F1430100F0A0
S1133000AF8012D8632A23D00AD8002A00F0BC80EB
S1133010582A40F0CB8084F84520DFF804E257E0DA
S1133020642A1ED0692A1CD0C0E0732A00F0B08044
S113303009D86F2A2ED0702A40F0B880226842F056
S1133040200222603FE0752A24D0782A3BD0ADE0EC
S11330501A68111D1960136884F8423004F142059E
S1133060A8E020681A6810F0800F02D0101D1860C4
S113307008E010F0400F02F10400186002D0B2F929
S1133080003000E01368002B3EDA2D225B4284F806
S1133090432039E020681A6810F0800F02D0101D18
S11330A0186007E010F0400F02F10400186001D02E
S11330B0138800E01368227EDFF864E16F2A0CBFF6
S11330C008220A221CE07822DFF858E184F845201F
S11330D02268186812F0800F00F104051D6003D106
S11330E0550601D5038800E00368D00744BF42F0C9
S11330F0200222601BB9226822F0200222601022E2
S1133100002084F8430002E0DFF814E10A22656835
S1133110A560002DA2BF206820F00400206003B940
S113312065B10D46B3FBF2F002FB10331EF8033019
S113313005F8013D03460028F4D100E00D46082AB5
S11331400BD12368DA0708D5236962689A42DEBF87
S1133150302305F8013C05F1FF35491B21612EE0C0
S113316025681A68606915F0800F03D0151D1D606D
S1133170136808E015F0400F02F104051D601368A0
S113318001D0188000E01860002323610D4616E08A
S11331901A68111D1960156862682846002100F03C
S11331A0DFFA08B1401B6060636804E004F1420583
S11331B084F8422001232361002384F84330CDF8AE
S11331C000803046214603AA3B46FFF797FE0130B4
S11331D002D14FF0FF301FE0304639462A462369BA
S11331E0C0470130F5D023689B0705D4E068039BF2
S11331F09842B8BF18460FE00025E368039A9B1A6B
S11332009D42F3DA3046394604F119020123C047DE
S11332100130DED00135F0E704B0BDE8F08100BF35
S11332200D4600001E46000038B5064C0023054636
S11332300846236000F0CCFB431C02D1236803B191
S11332402B6038BD5C01FF1F70B50D461446064661
S113325018B183690BB900F0ADF9224B9C4201D13E
S1133260746808E0204B9C4201D1B46803E01F4B12
S11332709C4208BFF468A369A360A3891A0709D50F
S113328023693BB123682069181A63699842EDB237
S11332900FDB08E03046214600F02AF80028F1D080
S11332A04FF0FF3070BD3046214600F019F9002878
S11332B0F6D1A368013BA36023685A1C22601D70E9
S11332C063690130984204D0A389DB0707D50A2D2E
S11332D005D13046214600F003F90028E0D1284604
S11332E070BD00BF3046000050460000704600002C
S11332F0314B70B51D6806460C4625B1AB6913B950
S1133300284600F057F92D4B9C4201D16C6808E027
S11333102B4B9C4201D1AC6803E02A4B9C4208BF72
S1133320EC68A3899AB211071DD4D50602D40922E8
S1133330326038E0500712D5616B41B104F14403A7
S1133340994202D03046FFF70FFC00236363A38940
S113335023F02403A3810023636023692360A389EA
S113336043F00803A38123694BB9A38903F42073B1
S1133370B3F5007F03D03046214600F0A3F9A389BA
S113338013F0010205D00022A26062695242A261D8
S113339003E0990758BF6269A26022694AB903F041
S11333A0800080B230B143F04003A3814FF0FF307E
S11333B070BD002070BD00BFA800FF1F3046000094
S11333C0504600007046000008B5062000F000FAE0
S11333D0012000F013FB8A892DE9F041054610070E
S11333E00C4657D44B68002B02DC0B6C002B18DD09
S11333F0E66AB6B102F48052002392B22F682B60C1
S11334000AB1626D10E0216A28460123B047411CCD
S1133410024609D12B683BB11D2B01D0162B47D195
S11334202F600020BDE8F081A3895B0705D56368A0
S1133430D21A636B0BB1236CD21AE66A216A002399
S11334402846B047461CA38905D12A681AB11D2A0B
S113345001D0162A19D100226260D904226922609F
S113346004D5421C01D12B6803B96065616B2F60E0
S11334700029D6D004F14403994202D02846FFF72C
S113348073FB00206063BDE8F08143F04003A38137
S1133490BDE8F0810F69002FC3D093070E6808BF01
S11334A04B690F6018BF0023C7EB06088B6012E05E
S11334B0A38943F04003A3814FF0FF30BDE8F081BE
S11334C02846216AA66A3A464346B0470028EFDDFB
S11334D00744C0EB0808B8F1000FF1DCA1E70000D5
S11334E038B50B6905460C46DBB118B183690BB9D5
S11334F000F060F80C4B9C4201D16C6808E00B4B67
S11335009C4201D1AC6803E0094B9C4208BFEC68C3
S1133510B4F90C302BB128462146BDE83840FFF7FA
S11335205ABF002038BD00BF30460000504600009E
S113353070460000014900F0A7B800BFE134000064
S1133540002310B5044603604360836081814366B1
S1133550C28103614361836119465C300822FFF72D
S1133560FBFA054B6362054BA362054BE362054B13
S11335702462236310BD00BF093800002B3800000B
S1133580633800008738000070B568234D1E5D4322
S11335900E4605F17401FFF72BFB044640B10021F0
S11335A080E842000C30A06005F16802FFF7D4FA0D
S11335B0204670BD836910B5044633BB8364C3647D
S11335C00365124B124A1B688262984204BF0123AE
S11335D0836100F01FF86060204600F01BF8A060D3
S11335E0204600F017F80421E06000226068FFF72D
S11335F0A7FFA06809210122FFF7A2FFE0681221BA
S11336000222FFF79DFF0123A36110BDF8450000CE
S113361035350000F8B51B4B1E68B369074613B96E
S11336203046FFF7C7FF4836B4687368013B04D4DB
S1133630B4F90C5075B16834F8E733682BB93846DF
S11336400421FFF7A1FF306008B13668ECE70C23D2
S11336503B60F8BD4FF6FF73E3810123A3816566E8
S11336602560A560656025616561A56104F15C0064
S113367029460822FFF770FA6563A563A564E5642B
S11336802046F8BDF84500002DE9F84380468946F8
S113369000F14804002694B1A5686768013F0CD482
S11336A0AB89012B07D9B5F90E30013303D040465D
S11336B02946C84706436835F0E72468EBE73046F7
S11336C0BDE8F883F0B58B899D0791B006460C469A
S11336D026D4B1F90E10002909DAA38913F0800F5A
S11336E04FF0000514BF40274FF480670DE001AA96
S11336F000F0F0F80028F0DB029D05F47045A5F514
S113370000514D424D414FF4806730463946FFF732
S11337106FFA60B9A3899A051DD443F00203A3810B
S113372004F14703236023610123636113E00B4B1E
S1133730B362A389206043F08003A38120616761A1
S11337404DB13046B4F90E1000F0D6F818B1A38983
S113375043F00103A38111B0F0BD00BF3535000073
S113376010B5C9B202449042034606D01C788C427C
S113377000F10100F7D1184610BD002010BD1F292B
S113378038B504460D4604D9162303604FF0FF30C4
S113379038BD426C12B152F821304BB9204600F0CA
S11337A031F82A4601462046BDE8384000F018B8F2
S11337B0012B0AD0591C03D116230360012038BD04
S11337C0002442F8254028469847002038BD0000D0
S11337D0024B01461868FFF7D2BF00BFA800FF1FC5
S11337E038B5074C0023054608461146236000F00F
S11337F0D7F8431C02D1236803B12B6038BD00BF46
S11338005C01FF1F00F0BCB810B50C46B1F90E10F6
S113381000F094F80028ABBF636DA3891B1823F450
S11338208053ACBF6365A38110BD2DE9F0411D46F3
S11338308B89DB0507460C46164605D5B1F90E10F3
S11338400022022300F068F8A389B4F90E1023F4CF
S11338508053A381384632462B46BDE8F04100F040
S113386017B810B50C46B1F90E1000F055F8431C0A
S1133870A38915BF606523F4805343F48053A38167
S113388018BFA38110BDB1F90E1000F013B80000E9
S113389038B5074C054600202060084611461A46F4
S11338A000F0A4F8431C02D1236803B12B6038BD97
S11338B05C01FF1F38B5064C00230546084623600B
S11338C000F04EF8431C02D1236803B12B6038BDCD
S11338D05C01FF1F38B5074C002305460846114616
S11338E0236000F045F8431C02D1236803B12B6028
S11338F038BD00BF5C01FF1F38B5064C00230546E8
S11339000846236000F044F8431C02D1236803B145
S11339102B6038BD5C01FF1F38B5074C05460020FD
S11339202060084611461A4600F042F8431C02D1B2
S1133930236803B12B6038BD5C01FF1F38B5074C09
S1133940054600202060084611461A4600F038F863
S1133950431C02D1236803B12B6038BD5C01FF1FF7
S1133960024B58221A604FF0FF3070475C01FF1F72
S1133970024B58221A604FF0FF3070475C01FF1F62
S1133980024B58221A604FF0FF3070475C01FF1F52
S1133990024B58221A600020704700BF5C01FF1FD1
S11339A0024B58221A604FF0FF3070475C01FF1F32
S11339B0024B58221A604FF0FF3070475C01FF1F22
S11339C0024B58221A604FF0FF3070475C01FF1F12
S11339D0044A05491368002B08BF0B4618441060BD
S11339E0184670475001FF1F00000020024B582268
S11339F01A604FF0FF3070475C01FF1FFEE700BF05
S1133A002E2E2F53444B2F706C6174666F726D2F82
S1133A1068616C2F696E632F66736C5F66746D5F8B
S1133A2068616C2E680000006368616E6E656C20CE
S1133A303C2046534C5F464541545552455F4654DD
S1133A404D5F4348414E4E454C5F434F554E5400E5
S1133A502E2E2F53444B2F706C6174666F726D2F32
S1133A6068616C2F696E632F66736C5F706F72741C
S1133A705F68616C2E68000070696E203C203332F0
S1133A805500000002000000E80300000A000000E6
S1133A90000000002E2E2F53444B2F706C6174666F
S1133AA06F726D2F73797374656D2F7372632F63E7
S1133AB06C6F636B2F4D4B36344631322F66736C0B
S1133AC05F636C6F636B5F4D4B36344631322E63EC
S1133AD0000000004E554C4C20213D20636F6E6663
S1133AE069670000696E7374616E6365203C2073BE
S1133AF0697A656F6628706F727447617465546182
S1133B00626C65292F73697A656F6628706F7274A9
S1133B10476174655461626C655B305D2900000027
S1133B20696E7374616E6365203C2073697A656F96
S1133B306628616463476174655461626C65292F0A
S1133B4073697A656F66286164634761746554615B
S1133B50626C655B305D2900696E7374616E6365C8
S1133B60203C2073697A656F6628646163476174D9
S1133B70655461626C65292F73697A656F66286480
S1133B806163476174655461626C655B305D2900F3
S1133B90696E7374616E6365203C2073697A656F26
S1133BA0662866746D476174655461626C65292F7B
S1133BB073697A656F662866746D476174655461CC
S1133BC0626C655B305D2900696E7374616E636558
S1133BD0203C2073697A656F662873706947617445
S1133BE0655461626C65292F73697A656F66287301
S1133BF07069476174655461626C655B305D29006E
S1133C00696E7374616E6365203C2073697A656FB5
S1133C106628693263476174655461626C65292F53
S1133C2073697A656F6628693263476174655461A4
S1133C30626C655B305D2900696E7374616E6365E7
S1133C40203C2073697A656F6628756172744761D8
S1133C5074655461626C65292F73697A656F66288F
S1133C6075617274476174655461626C655B305D43
S1133C70290000002E2E2F53444B2F706C61746664
S1133C806F726D2F68616C2F696E632F66736C5F42
S1133C9066746D5F68616C2E680000006D6F64650A
S1133CA0203C2032000000006368616E6E656C2069
S1133CB03C2046534C5F464541545552455F46545B
S1133CC04D5F4348414E4E454C5F434F554E540063
S1133CD046544D5F4252445F4D4F44455F575044F4
S1133CE049532866746D42617365290063686E6C7C
S1133CF0506169724E756D203C202846534C5F46D6
S1133D004541545552455F46544D5F4348414E4EDC
S1133D10454C5F434F554E54202F2032290000005C
S1133D202E2E2F53444B2F706C6174666F726D2F5F
S1133D3068616C2F7372632F66746D2F66736C5F8A
S1133D4066746D5F68616C2E6300000073796E6346
S1133D504D6574686F642026202846544D5F53597E
S1133D604E435F54524947305F4D41534B207C20B2
S1133D7046544D5F53594E435F54524947315F4D4A
S1133D8041534B207C2046544D5F53594E435F545E
S1133D90524947325F4D41534B207C2046544D5F7E
S1133DA053594E435F535753594E435F4D41534B01
S1133DB029000000300000006368616E6E656C20AD
S1133DC03C204348414E365F494458006368616E65
S1133DD06E656C203C204348414E345F4944580092
S1133DE02E2E2F53444B2F706C6174666F726D2F9F
S1133DF068616C2F696E632F66736C5F65646D61B7
S1133E005F68616C2E6800007374636400000000D6
S1133E102E2E2F53444B2F706C6174666F726D2F6E
S1133E2068616C2F7372632F65646D612F66736CA8
S1133E305F65646D615F68616C2E63006368616EC9
S1133E406E656C203C2046534C5F464541545552A8
S1133E50455F45444D415F4D4F44554C455F434894
S1133E60414E4E454C0000006E6578745374636493
S1133E70000000002E2E2F53444B2F706C6174668B
S1133E806F726D2F68616C2F696E632F66736C5F40
S1133E9066746D5F68616C2E680000006D6F646508
S1133EA0203C2032000000006368616E6E656C2067
S1133EB03C2046534C5F464541545552455F465459
S1133EC04D5F4348414E4E454C5F434F554E540061
S1133ED063686E6C506169724E756D203C20284693
S1133EE0534C5F464541545552455F46544D5F43DC
S1133EF048414E4E454C5F434F554E54202F20327F
S1133F00290000002E2E2F53444B2F706C617466D1
S1133F106F726D2F73797374656D2F696E632F667D
S1133F20736C5F696E746572727570745F6D616EC7
S1133F30616765722E68000030203C3D2069727113
S1133F404E756D62657200006972714E756D6265C1
S1133F5072203C3D2046534C5F46454154555245E2
S1133F605F494E544552525550545F4952515F4D2A
S1133F70415800002E2E2F53444B2F706C617466F1
S1133F806F726D2F647269766572732F7372632F0B
S1133F9066746D2F66736C5F66746D5F64726976A8
S1133FA065722E6300000000696E7374616E636550
S1133FB0203C2046544D5F494E5354414E43455F87
S1133FC0434F554E54000000675F66746D42617341
S1133FD0655B696E7374616E63655D20213D204E7F
S1133FE0554C4C00706861736541506172616D732A
S1133FF000000000706861736542506172616D7306
S113400000000000636C6F636B20213D206B436CE8
S11340106F636B5F736F757263655F46544D5F4E7C
S11340206F6E650028706172616D2D3E6D6F646501
S1134030203D3D206B46746D45646765416C69673E
S11340406E656450574D29207C7C20287061726114
S11340506D2D3E6D6F6465203D3D206B46746D4350
S1134060656E746572416C69676E656450574D295D
S1134070207C7C2028706172616D2D3E6D6F6465BB
S1134080203D3D206B46746D436F6D62696E6564BF
S113409050574D29000000006368616E6E656C2006
S11340A03C20675F66746D4368616E6E656C436F38
S11340B0756E745B696E7374616E63655D00000098
S11340C0706172616D2D3E75447574794379636CCA
S11340D06550657263656E74203C3D20313030005C
S11340E0300000002E2E2F53444B2F706C617466E9
S11340F06F726D2F68616C2F696E632F66736C5FCE
S1134100646D616D75785F68616C2E6800000000F5
S11341106368616E6E656C203C2046534C5F464577
S113412041545552455F444D414D55585F4D4F44A0
S1134130554C455F4348414E4E454C002E2E2F535F
S1134140444B2F706C6174666F726D2F7379737446
S1134150656D2F696E632F66736C5F696E7465722B
S1134160727570745F6D616E616765722E680000B0
S113417030203C3D206972714E756D62657200009D
S11341806972714E756D626572203C3D2046534CD8
S11341905F464541545552455F494E544552525528
S11341A050545F4952515F4D415800002E2E2F53F9
S11341B0444B2F706C6174666F726D2F64726976F4
S11341C06572732F7372632F65646D612F66736CF0
S11341D05F65646D615F6472697665722E63000069
S11341E0737463640001000046544D5F48414C5FA2
S11341F0436C65617243686E4576656E74466C61A6
S11342006700000046544D5F48414C5F536574435A
S1134210686E446D61436D640000000046544D5F58
S113422048414C5F456E61626C6543686E496E74CB
S11342300000000046544D5F48414C5F446973617F
S1134240626C6543686E496E7400000046544D5FAD
S113425048414C5F53657443686E436F756E745682
S1134260616C0000504F52545F48414C5F53657479
S11342704D75784D6F646500B8B9BA59434C4F43D6
S11342804B5F5359535F456E61626C6546746D4371
S11342906C6F636B0000000046544D5F48414C5FF7
S11342A0456E61626C65000046544D5F48414C5F49
S11342B053657453796E634D6F64650046544D5F66
S11342C048414C5F5365744475616C43686E507724
S11342D06D53796E63436D640000000046544D5F76
S11342E048414C5F456E61626C6550776D4D6F64FB
S11342F06500000046544D5F48414C5F536574446B
S113430075616C4564676543617074757265436D6E
S11343106400000046544D5F48414C5F536574434C
S1134320686E456467654C6576656C0046544D5F00
S113433048414C5F53657443686E4D536E42414D22
S11343406F64650046544D5F48414C5F5365744348
S113435070776D730000000046544D5F48414C5F18
S11343605365744475616C43686E436F6D62696E26
S113437065436D640000000045444D415F48414C75
S11343805F53544344536574417474726962757421
S11343906500000045444D415F48414C5F53544320
S11343A0445365744E6279746573000045444D410D
S11343B05F48414C5F535443445365744D616A6F85
S11343C072436F756E74000045444D415F48414C23
S11343D05F5075736853544344546F4854434400C6
S11343E045444D415F48414C5F53544344536574C5
S11343F042617369635472616E7366657200000092
S113440045444D415F48414C5F53544344536574A4
S1134410537263416464720045444D415F48414CAA
S11344205F535443445365744465737441646472C4
S11344300000000045444D415F48414C5F535443E4
S1134440445365745372634F666673657400000069
S113445045444D415F48414C5F5354434453657454
S1134460446573744F6666736574000045444D413A
S11344705F48414C5F535443445365745372634CD7
S113448061737441646A75737400000045444D415E
S11344905F48414C5F53544344536574446573749B
S11344A04C61737441646A757374000045444D41F2
S11344B05F48414C5F53544344536574496E74439D
S11344C06D64000045444D415F48414C5F53544383
S11344D04453657444697361626C65446D615265EB
S11344E071756573744166746572544344446F6EA8
S11344F065436D64000000000080034000900340A9
S113450000A0034000900B402A2B2C470800000019
S113451002000000020000000800000046544D5F45
S11345204452565F496E697400000000494E545F5E
S11345305359535F456E61626C65495251000000E6
S113454046544D5F4452565F536574436C6F636BBE
S1134550000000000080004000100240000102033F
S11345600405060708090A0B0C0D0E0F10000000C5
S1134570494E545F5359535F456E61626C654952AD
S113458051000000444D414D55585F48414C5F5324
S1134590657454726967676572536F7572636500F9
S11345A0444D414D55585F48414C5F5365744368D1
S11345B0616E6E656C436D64002C2066756E637469
S11345C0696F6E3A2000617373657274696F6E204F
S11345D022257322206661696C65643A2066696CE1
S11345E06520222573222C206C696E6520256425A4
S11345F07325730A004300004800FF1F232D302B4E
S11346002000686C4C0065666745464700303132CF
S11346103334353637383941424344454600303126
S11346203233343536373839616263646566000085
S11346300000000000000000000000000000000076
S11346400000000000000000000000000000000066
S11346500000000000000000000000000000000056
S11346600000000000000000000000000000000046
S11346700000000000000000000000000000000036
S11346800000000000000000000000000000000026
S1134690F8B500BFF8BC08BC9E467047F8B500BF2B
S10B46A0F8BC08BC9E467047FB
S10B46A8C4BDFF7F0100000006
S10746B035040000C9
S10746B411040000E9
S11346B801010101010101010000000000000000E6
S11346C800000000000000000000000000000000DE
S11346D801010101010101010000000000000000C6
S11346E800000000000000000000000000000000BE
S11346F80101010101010101000000003046000030
S11347085046000070460000000000000000000051
S11347180000000000000000F54500000000000053
S1134728000000000000000000000000000000007D
S1134738000000000000000000000000000000006D
S1134748000000000000000000000000000000005D
S113475800000000000000004800FF1F00000000E7
S90304E117
